:100000000C94E4090C940C0A0C940C0A0C940C0A41
:100010000C940C0A0C940C0A0C940C0A0C940C0A08
:100020000C940C0A0C940C0A0C94441C0C94B61CF2
:100030000C940C0A0C940C0A0C940C0A0C940C0AE8
:100040000C940C0A0C94AB130C940C0A0C940C0A30
:100050000C940C0A0C940C0A0C940C0A0C942812A4
:100060000C940C0A0C940C0A0C940C0A0C940C0AB8
:100070000C940C0A0C940C0A0C940C0A0C940C0AA8
:100080000C94E7140C940C0A0C940C0A0C940C0AB3
:100090000C940C0A0C940C0A0C940C0A0C940C0A88
:1000A0000C940C0A0C940C0A0C940C0A6E1171112D
:1000B00060116411681192119211921175117911E8
:1000C0007D118311871192118D1100000000240011
:1000D00027002A002D003000D5F08D14A1C881CF53
:1000E000D9F1AF20000408020110408040102040E8
:1000F000804080080204018040201002011080101E
:100100002040402000000000250028002B002E0089
:10011000310004040404040304050202020204037F
:100120000202020206060606060604040202020491
:10013000041402130212021502070208020A020A3C
:10014000010B020B010902090104010C0106010067
:10015000029A903E00A6904000A6904200A69040D1
:1001600000A6904300A6904200A6904000A6903EB4
:1001700000A6904500A6904300A6904200A690409D
:1001800000A69132904200A69134903E00A691368E
:10019000904500A6913400A69047913700A691366D
:1001A00000A69049913400379047003790490037B6
:1001B0009132904A00A6913990490053904A0053D9
:1001C0009137904900A691369047005390450053CF
:1001D0009134007D8000299049913600A6904A9183
:1001E0003200A6904C913900A6904900A6912D901E
:1001F0004E00A6904A00A69139904900A69047006B
:100200008A81001B9139904C00A6904900A6912D3F
:10021000904A00A6904700A69139904500A69044C8
:10022000008A81001B9139904C00A6904900A6914C
:100230002D904E00A6904A00A69139904900A690B4
:1002400047008A81001B9139904C00A6904900A676
:10025000912D904A00A6904700A69139904500A69E
:100260009044008A81001B9139904900A690470074
:10027000A6913B904A00A6904900A6913D90470068
:10028000A6904500A6913E904E00A6913D00A690F6
:1002900044914000A6913E00A69045913D00A69154
:1002A0003B00A6913D001B80001B90470037904506
:1002B0000037913E90440037904500379047001B2F
:1002C00080001B90479140014D913400A69045005D
:1002D000A69139904500A6913400A6913600A691CA
:1002E0003800A691398000A6913B00A6913D00A65A
:1002F000913B00A6904C913E00A6913D00A69051E6
:10030000913B00A6913900A6914000A6904700A617
:100310009134904900A6904B00A6904C8100A69085
:100320004E00A6904F00A6904E00A6913B90510023
:10033000A6904F00A69140904E00A6904C00A6902B
:100340005300A6913600A69047913800A6913A0036
:10035000A6913B8000A6913D00A6913E00A6913D4E
:1003600000A69042914000A6913E00A69047913D84
:1003700000A6913B00A6914200A6904600A69136A9
:10038000904700A6904900A69140904A00A6904C44
:1003900000A6913E904E00A6904C00A69147904F2B
:1003A00000A69146904E00A69147904C00A6904A18
:1003B00000A6913D904C00A6904A00A69146904E12
:1003C00000A69144904C00A69146904A00A6904900
:1003D00000A69147904A00A69145904900A69143F6
:1003E000904C00A69142904A00A69140904900A6E8
:1003F000913E904700A69140904900A6913E00A6EC
:10040000904691420053904400539140904600A67C
:10041000913E904700A6913D00A6913E00A69049CE
:100420009140008A80001B904991420053904A00FD
:1004300053904900A6913600A6904700A6913B0034
:10044000A6904200A69136904400A6904600A69140
:1004500032904700A6904900A6912F904A00A6909E
:100460004900A6904C00A6904A00A690498100A69B
:10047000904700A6904F00A6912F00A6913100A6AC
:10048000913300A6913400A6913600A6913700A6BC
:10049000913600A6913900A6913700A6913600A6A4
:1004A000913400A69139008A80001B904000A690EC
:1004B0004200A6904400A6904500A6904700A69052
:1004C0004900A6904700A6904A00A6904900A69031
:1004D0004700A6904500A6904E008A81001B912DF2
:1004E00000A6912F00A6913100A6913200A691346A
:1004F00000A6913600A6913400A6913700A6913649
:1005000000A6913400A6913200A69138008A80009E
:100510001B904700A6904C00A69134904A00A691EB
:1005200036904900A69138904700A691399049002D
:10053000A69138904700A69136904A00A691349033
:100540004900A69132904700A69136904500A691A9
:100550003490440053904500539132904400A6914A
:1005600031904000A6912F00A69045913100A690B1
:1005700047912D00A69049913900A6904700A69179
:1005800036904A00A6904900A69131904700A69067
:100590004500A69132904E00A6913100A6913400FC
:1005A000A69044913200A69045913100A6904491C6
:1005B0002F00A69045913100A6904A913200A69056
:1005C000479134014D912800A69045008A80001B78
:1005D0009045912D00A6913100A6913200A6904938
:1005E000913400A6904A913600A6904C913700A60F
:1005F0009042913900A6913700A69043913B00A606
:10060000913900A690479137005390450053913699
:1006100090430053904500539137904700A6913680
:1006200000A6904A91390053904900539137904762
:100630000053904900539136904A00A6913400A689
:10064000913600A69049913400A6904C913700A6AF
:10065000904A913600A69049913400A6904A913272
:1006600000A6904C913900A6904A00A6912D904981
:1006700000A6904700A690458100A6904300A69052
:100680004200A6904000A6904300A6904200A6908B
:100690004000A6903E00A6904500A6904300A6907C
:1006A0004200A6904000A69132904200A69134905C
:1006B0003E00A69136904500A6913400A690479141
:1006C0003700A6913600A690499134003790470034
:1006D00037904900379132904A00A69139904900ED
:1006E00053904A00539137904900A69136904700A5
:1006F00053904500539134007D800029904A9136F3
:1007000000A69132008A80001B904A913900A69180
:100710003600A6903E913B00A6913700A6904A91E4
:100720003600A69134008A80001B904A913900A6B9
:10073000913600A6903E913700A6913400A6904ACB
:10074000913200A69131008A80001B904A913900B5
:10075000A6913600A6903E913B00A6913700A69048
:100760004A913600A69134008A80001B904A913944
:1007700000A6913600A6903E913700A6913400A6BF
:10078000904A913200A6904C913100A6904E913241
:1007900000A6904C00A69134904F00A6904E00A663
:1007A0009136904C00A6904A00A69137905300A62F
:1007B000913600A69049913900A6913700A6904A3B
:1007C000913600A6913400A69136001B80001B9044
:1007D0004C0037904A0037913790490037904A00D3
:1007E00037904C002980000D904C9139014D912D8E
:1007F00000A6904A008A80001B904A912F00A69183
:100800002D00A6903E913000A6912F00A690439116
:100810002D00A6912B00A6913200A6903900A6903B
:100820003B00A6903D00A6903E00A6904000A690FA
:1008300042008A81001B9131904000A6912F904385
:1008400000A6912D904200A6912B904000A6912ADF
:10085000903E00A6912B904700A6912A00A6912DCC
:1008600000A6903D912B00A6903E912A00A6903DB7
:10087000912800A6903E912A00A69043912B00A6B5
:100880009040912D01F4903E008A80001B903E9193
:100890002607D08081F0C060B84CB4B64BB5B54BDC
:1008A000FF49B781010101010101010101010101BC
:1008B0000101010101010101010101010101010128
:1008C0000101010101010101010101010101010118
:1008D0000305DB25DB2525DB25DB05030101010104
:1008E00001010101010101010101010101010101F8
:1008F00001010101010101010101010101010101E8
:10090000010101010101010181B749FF4BB5B54B5F
:10091000B6B44CB860C0FF16150E15150E35B54EA1
:10092000FF4EB5B54EB5B54E35350E35350E1516EF
:100930000D16160E14140C14140C14140C14140CA0
:10094000140C0C0C0404040404040404040404043F
:100950000605060506050506050605060404040445
:1009600004040404040404040C0C0C140C14140CEF
:1009700014140C14140C14140E16160D16150E3532
:10098000350E35354EB5B54EB5B54EFF4EB5350EB7
:1009900015150E1516FFFF00000000000000AD52F7
:1009A000FF926D6D020101000000000000000000D8
:1009B0000000000000000000000000000000000037
:1009C0000000000000000000000000000000000027
:1009D0000000000000000000000000000000000017
:1009E0000000000000000000000000000000000007
:1009F00000000000000000000000000000000000F7
:100A000000000000000101026D6D92FF52AD000078
:100A10000000000000FFFF000000000000000007D1
:100A2000FFA45B00000000000000000000000000C8
:100A300000000000000000000000000000000000B6
:100A400000000000000000000000000000000000A6
:100A50000000000000000000000000000000000096
:100A60000000000000000000000000000000000086
:100A70000000000000000000000000000000000076
:100A80000000000000000000005BA4FF0700000061
:100A90000000000000FFFF0000000000000000E078
:100AA000FF24DB0000000000000000000000000048
:100AB0000000000000000000000000000000000036
:100AC0000000000000000000000000000000000026
:100AD0000000000000000000000000000000000016
:100AE0000000000000000000000000000000000006
:100AF00000000000000000000000000000000000F6
:100B0000000000000000000000DB24FFE000000007
:100B10000000000000FFFF00000000000000B54AD8
:100B2000FF49B6B6408080000000000000000000D1
:100B300000000000000000000000000000000000B5
:100B400000000000000000000000000000000000A5
:100B50000000000000000000000000000000000095
:100B60000000000000000000000000000000000085
:100B70000000000000000000000000000000000075
:100B80000000000000808040B6B649FF4AB5000072
:100B90000000000000FFFF68A870A8A870ACAD724C
:100BA000FF72ADAD72ADAD72ACAC70ACAC70A8689C
:100BB000B068687028283028283028283028283045
:100BC00028302830303020202020202020202020D5
:100BD00060A060A060A0A060A060A0602020202095
:100BE0002020202020203030302830283028283085
:100BF0002828302828302828706868B068A870AC89
:100C0000AC70ACAC72ADAD72ADAD72FF72ADAC702C
:100C1000A8A870A868FF03061D322D6DD2ADADD215
:100C2000FF92ED81808080808080808080808080C5
:100C300080808080808080808080808080808080B4
:100C400080808080808080808080808080808080A4
:100C5000C0A0DBA4DBA4A4DBA4DBA0C080808080D8
:100C60008080808080808080808080808080808084
:100C70008080808080808080808080808080808074
:100C8000808080808080808081ED92FFD2ADADD267
:100C90006D2D321D060310001000A07BE050F6DF22
:100CA00076C009140209A046A90040E9460008845C
:100CB0000000846414009FD9BB9F90B9BFF8F7A4CB
:100CC000A4EF171D1DFD0FAD0D0F8755050F00A4D7
:100CD0004A001ABA3A00FFB9B3E3FF95959FFF594E
:100CE0005916FF9B9BD9CF94F41FF92F5990FF28D9
:100CF00048F8FF9193FFFF55D5777FD9DDDF718FDE
:100D00008171FF88C8FF99D6B69907FC9407211610
:100D1000280080898F8070616200755756002676A2
:100D20003710A7B77300877206007027500073143E
:100D30006400775377007F15070047751F0032471F
:100D400032007364770015724500616A9700402F86
:100D50006020F0F9F6F606011501260137014A0177
:100D60005D01720188019F01B801D201EE010B0201
:100D70002A024B026E029302BA02E40210033F03FE
:100D80007003A403DC03170455049704DD0427054E
:100D90007505C80520067D06E0064907B8072D0839
:100DA000A9082D09B9094D0AEA0A900B400CFA0C62
:100DB000C00D910E6F0F5A1053115B1272139A14DB
:100DC000D41520178018F519801B231DDE1EB420B2
:100DD000A622B524E4263429A72B402E0031EA337D
:100DE0000037453ABC3D68414C456B49C84D685297
:100DF0004F57805C006210111213151617181A1C39
:100E00001D1F21232527292C2E3134373A3E4145F9
:100E1000494E52575C62686E757B838B939CA5AF7D
:100E2000B9C4D0DCE9F700000000003E5B4F5B3E38
:100E30003E6B4F6B3E1C3E7C3E1C183C7E3C181C9F
:100E4000577D571C1C5E7F5E1C00183C1800FFE796
:100E5000C3E7FF0018241800FFE7DBE7FF30483A3C
:100E6000060E2629792926407F050507407F05259E
:100E70003F5A3CE73C5A7F3E1C1C08081C1C3E7F26
:100E800014227F22145F5F005F5F06097F017F00ED
:100E90006689956A606060606094A2FFA29408040D
:100EA0007E040810207E201008082A1C08081C2A2E
:100EB00008081E101010100C1E0C1E0C30383E3886
:100EC00030060E3E0E06000000000000005F00002D
:100ED0000007000700147F147F14242A7F2A12239E
:100EE0001308646236495620500008070300001CAE
:100EF0002241000041221C002A1C7F1C2A08083EB7
:100F000008080080703000080808080800006060C9
:100F10000020100804023E5149453E00427F400037
:100F200072494949462141494D331814127F10270F
:100F3000454545393C4A494931412111090736495E
:100F4000494936464949291E000014000000403432
:100F50000000000814224114141414140041221437
:100F60000802015909063E415D594E7C1211127C5E
:100F70007F494949363E414141227F4141413E7FBF
:100F8000494949417F090909013E414151737F089F
:100F900008087F00417F41002040413F017F081445
:100FA00022417F404040407F021C027F7F040810A6
:100FB0007F3E4141413E7F090909063E4151215E84
:100FC0007F09192946264949493203017F01033F18
:100FD0004040403F1F2040201F3F4038403F6314A7
:100FE00008146303047804036159494D43007F41A9
:100FF00041410204081020004141417F04020102E6
:10100000044040404040000307080020545478400A
:101010007F284444383844444428384444287F389E
:101020005454541800087E090218A4A49C787F0820
:1010300004047800447D40002040403D007F10289B
:10104000440000417F40007C047804787C0804045C
:10105000783844444438FC1824241818242418FCF4
:101060007C08040408485454542404043F44243C99
:101070004040207C1C2040201C3C4030403C442808
:101080001028444C9090907C4464544C44000836A2
:101090004100000077000000413608000201020410
:1010A000023C2623263C1EA1A161123A4040207A30
:1010B000385454555921555579412154547841217A
:1010C0005554784020545579400C1E5272123955AF
:1010D00055555939545454593955545458000045AC
:1010E0007C410002457D420001457C40F0292429D5
:1010F000F0F0282528F07C545545002054547C54A9
:101100007C0A097F493249494932324848483232DB
:101110004A4848303A4141217A3A42402078009D7D
:10112000A0A07D39444444393D4040403D3C24FF2B
:101130002424487E4943662B2FFC2F2BFF0929F6D8
:1011400020C0887E090320545479410000447D4129
:101150003048484A32384040227A007A0A0A727D82
:101160000D19317D2629292F28262929292630489D
:101170004D4020380808080808080808382F10C80B
:10118000ACBA2F102834FA00007B000008142A148F
:101190002222142A14089500220095AA005500AABC
:1011A000AA55AA55AA000000FF00101010FF001455
:1011B0001414FF001010FF00FF1010F010F01414B2
:1011C00014FC001414F700FF0000FF00FF1414F4D7
:1011D00004FC141417101F10101F101F1414141FD8
:1011E00000101010F0000000001F101010101F1051
:1011F000101010F010000000FF1010101010101050
:101200001010FF10000000FF140000FF00FF00009E
:101210001F10170000FC04F414141710171414F412
:1012200004F40000FF00F714141414141414F7004D
:10123000F7141414171410101F101F141414F4149E
:101240001010F010F000001F101F0000001F14000D
:101250000000FC140000F010F01010FF10FF141438
:1012600014FF141010101F00000000F010FFFFFF0B
:10127000FFFFF0F0F0F0F0FFFFFF0000000000FFC4
:10128000FF0F0F0F0F0F38444438447C2A2A3E14B6
:101290007E02020606027E027E02635549416338E1
:1012A00044443C04407E201E2006027E020299A592
:1012B000E7A5991C2A492A1C4C7201724C304A4DF0
:1012C0004D303048784830BC625A463D3E49494925
:1012D000007E0101017E2A2A2A2A2A44445F4444CE
:1012E00040514A444040444A51400000FF0103E05D
:1012F00080FF000008086B6B083612362436060F94
:10130000090F06000018180000001010003040FF00
:101310000101001F01011E00191D1712003C3C3C79
:101320003C00000000000000000200090F00000364
:101330000401000C0000000000000000000000009C
:101340000000000000080B00020202010009040076
:101350000001020200000524001001052401010122
:10136000042402060524060001070581031000403D
:1013700009040100020A0000000705020240000003
:101380000705830240000004030904417264756983
:101390006E6F204C4C430041726475626F7900128D
:1013A00001000200000040412336800001010203D9
:1013B0000112010002EF02014041233680000101C9
:1013C00002030100E930C53011241FBECFEFDAE07F
:1013D000DEBFCDBF11E0A0E0B1E0EAEFF9E602C068
:1013E00005900D92A23EB107D9F727E0A2EEB1E039
:1013F00001C01D92A732B207E1F719E0C3EED9E0B0
:1014000004C02197FE010E948E31C23ED107C9F768
:101410000E9446220C94F0340C94000028E832E03C
:1014200046E958E080E090E0FA01E80FF91FE49106
:10143000EE2331F0D901A80FB91F6C91E62BEC9384
:1014400001968038910581F740585F4F20583F4FF3
:1014500086E02838380731F708950E941C12DC0115
:10146000CB01805F984DAF4FBF4F80931B0290938D
:101470001C02A0931D02B0931E020895CF92DF922A
:10148000EF92FF9281E08093EC018093030161E091
:101490000E9424180E941C12C0901B02D0901C02B3
:1014A000E0901D02F0901E02209104016C157D0554
:1014B0008E059F0510F0222339F0222399F00E9417
:1014C0002D0A109204010EC01092FB011092FC0133
:1014D0001092F40110921B0210921C0210921D0235
:1014E00010921E02FF90EF90DF90CF900895CF935F
:1014F000DF93EC016EE971E00E94211A8823B1F0BC
:101500000E94721282FD75C00E94721287FD71C026
:101510000E94721284FD6DC00E94721285FD69C026
:101520000E94721286FD65C081E064C060EA71E0CD
:10153000CE010E94211A882329F00E94721283FD95
:1015400058C0E2CF67E771E0CE010E94211A8823DC
:1015500049F00E94721282FD4CC00E94721283FDFB
:1015600048C0D6CF62E771E0CE010E94211A8823DD
:1015700069F00E94721282FD3CC00E94721287FDC7
:1015800038C00E94721283FD34C0C6CF6DE671E090
:10159000CE010E94211A882389F00E94721282FDD6
:1015A00028C00E94721287FD24C00E94721284FD1E
:1015B00020C00E94721283FD1CC0B2CF63ED71E0A7
:1015C000CE010E94211A8823A1F00E94721282FD8E
:1015D00010C00E94721287FD0CC00E94721284FD1E
:1015E00008C00E94721285FD04C00E94721283FF1F
:1015F0009BCF80E0DF91CF9108950F931F930E94BE
:10160000721283FD4BC00E94721282FD47C00E947D
:10161000721287FD43C00E94721284FD3FC00E9477
:10162000721285FD3BC00E94721286FD37C0809108
:10163000F501882379F10E941C1200911702109184
:1016400018022091190230911A026017710782075F
:10165000930758F080910601882319F010920F012A
:1016600019C081E08093F60115C00F3F1F4F2F4F27
:101670003F4F81F40E941C12DC01CB018856954C2F
:10168000AF4FBF4F8093170290931802A093190297
:10169000B0931A0281E08093EC010CC08FEF9FEFB2
:1016A000DC018093170290931802A0931902B09363
:1016B0001A0280E01F910F910895CF92DF92EF926E
:1016C000FF921F93CF93DF9300D000D000D0CDB70F
:1016D000DEB70E94721286FF48C063ED71E0CE0152
:1016E00001960E942F1CCE0101960E94770A182FA6
:1016F000CE0101960E94131B1123B9F10E942D0AFD
:101700008091ED01882361F010E08091E7011817C6
:1017100028F4812F0E9426141F5FF7CF1092ED014D
:101720009091FC018091F40191111AC0811118C0AF
:101730000E941C12C090E801D090E901E090EA01FB
:10174000F090EB01209103016C157D058E059F053E
:10175000A8F0211113C01091EC01111128C005C08F
:10176000882319F081E0809306010E94FD0A8823F6
:1017700021F00E943E0A80E04FC04EC02223A9F310
:101780000E941C12DC01CB0184529A4FAF4FBF4F15
:101790008093E8019093E901A093EA01B093EB01F3
:1017A0001092030160E080E00E942418DECF1092C6
:1017B000EC011092E8011092E9011092EA011092F6
:1017C000EB0161E080E00E9424188091F601811114
:1017D00023C09091FD01992319F01092FD011CC0C6
:1017E00081E08093FD018091EE019091EF01909353
:1017F0002207809321078091F0019091F10190934D
:10180000200780931F078091F2019091F30190933C
:101810001E0780931D07812F26960FB6F894DEBF12
:101820000FBECDBFDF91CF911F91FF90EF90DF9062
:10183000CF9008954F925F926F927F928F929F9276
:10184000AF92BF92CF92EF920F93CF93DF9300D0DE
:1018500000D000D0CDB7DEB75C012B014A013901C1
:101860006A30710518F461EC71E002C06AED71E054
:1018700085E792E00E94FC1A8AE08816910418F429
:1018800061EC71E002C06AED71E08FE692E00E94C7
:10189000FC1A8AE0681671045CF469ED71E089E66F
:1018A00092E00E94FC1AEE2089F061EC71E00AC01F
:1018B0006AED71E089E692E00E94FC1AEE2031F0B8
:1018C0006AED71E089E692E00E94FC1A80910501C0
:1018D000882389F0E1100FC0002351F080910701A7
:1018E000882319F06EED71E008C069E971E005C068
:1018F00080910801F5CF6AED71E08DE592E00E94DC
:10190000FC1A69E672E0CE010196C1101CC00E946B
:10191000151CB301CE0101960E94401A6BE772E0DC
:101920000E948F1A6FE672E00E948F1AB4010E9423
:10193000401A6BE772E00E948F1A65E772E00E941E
:101940008F1AB20110C00E94151CB301CE0101967E
:101950000E94401A6BE772E00E948F1A6FE672E0F5
:101960000E948F1AB4010E94401ABC01C5010E9456
:10197000151CCE0101960E94131BC50126960FB6B9
:10198000F894DEBF0FBECDBFDF91CF910F91EF90E6
:10199000CF90BF90AF909F908F907F906F905F900F
:1019A0004F900895882359F080910701882319F0FA
:1019B00010920701089581E08093070108958091B6
:1019C0000801882319F010920801089581E080939E
:1019D000080108951F93CF93DF9300D0CDB7DEB7F2
:1019E000182F4A8369830E942D0A4A818981112315
:1019F00041F0642F0F900F90DF91CF911F910C94C5
:101A0000D3152091290230912A02215031093093B7
:101A10002A022093290241110EC0909105019923B9
:101A2000B9F01216130674F08CE090E090932A023D
:101A30008093290219C037FF17C010922A02109212
:101A4000290212C02B30310579F40E94D20C0CC04F
:101A50002B303105D1F337FF07C027E130E0309359
:101A60002A0220932902F1CF80E090E00F900F909E
:101A7000DF91CF911F9108951F93CF93DF9300D0F3
:101A8000CDB7DEB7162F4A8389830E942D0A209195
:101A900015023091160289814A818823B1F02F5FA7
:101AA0003F4F2C333105ACF0109216021092150204
:101AB000411125C00E942D0A60E0812F0F900F90E8
:101AC000DF91CF911F910C94D3152150310937FD2F
:101AD00005C0309316022093150211C08BE390E0ED
:101AE0009093160280931502411109C0612F80E086
:101AF0000F900F90DF91CF911F910C94EA0C0F90F3
:101B00000F90DF91CF911F910895EF92FF920F9365
:101B1000CF937C01C22F9093140280931302709391
:101B200016026093150250932A0240932902011174
:101B30006BC00E94721286FF36C00E94721287FF2D
:101B400032C080910501882371F10E94721283FDD9
:101B50002AC00E94721282FD26C00E94721285FD68
:101B600022C00E94721284FD1EC010920501809155
:101B7000290290912A028C30910509F07DC0C11193
:101B800056C08091090190910A010C9709F459C03F
:101B9000C11161C080910801882309F45CC01092D2
:101BA0002A02109229020E94721285FF2DC00E9403
:101BB000721284FF29C080910501811125C00E9405
:101BC000721283FD21C00E94721282FD1DC00E940C
:101BD000721286FD19C00E94721287FD15C081E045
:101BE000809305018091290290912A028D30910500
:101BF0000CF082C0009709F0A7C080912902909153
:101C00002A02892B09F4BCC00E94721283FFEFC024
:101C10000E94721287FFEBC00E94721282FDE7C021
:101C20000E942D0A602F8C2F0E94D31552C18091E3
:101C30000701882309F4A5CF10922A0210922902E5
:101C40000AC080910701882309F4A2CF10920A01EB
:101C5000109209019DCF80910B0190910C010C977E
:101C600009F0A1CF80910801882309F49CCF10923C
:101C70000C0110920B0197CF509107014091080180
:101C8000CC2341F0511106C00C9690932A02809308
:101C9000290220C02091090130910A012C30310520
:101CA00049F051110DC0245F3F4F30930A0120933A
:101CB000090106C0552321F010920A011092090172
:101CC000C11108C0411106C00C9690932A0280935E
:101CD000290269CF80910B0190910C018C30910504
:101CE00041F0411160CF0C9690930C0180930B0151
:101CF0005ACF4111BCCF57CF0C97CC23A1F0909372
:101D00002A02809329021092070180910B01909181
:101D10000C018D3091050CF470CF0C9790930C0151
:101D200080930B0161C02091090130910A012D308F
:101D300031050CF455C02C50310930930A01209321
:101D40000901109207014CC00C9709F456CFCC231F
:101D500051F081E08093070180910B0190910C017B
:101D6000892B51F44ACF8091090190910A01892B66
:101D700019F081E08093070181E0809308013DCF55
:101D8000CC23A9F02CE030E030932A0220932902E2
:101D900081E08093070140910B0150910C01452B8C
:101DA00009F032CF30930C0120930B0116C08091C3
:101DB000090190910A01892B49F48CE090E09093FD
:101DC0000A018093090181E0809307018CE090E093
:101DD00090932A028093290281E08093080114CF16
:101DE00090932A02809329021092080106CF0E9444
:101DF000721283FF0EC00E94721284FF0AC00E94FA
:101E0000721282FD06C0402F6C2F80E00E94EA0C07
:101E100060C00E94721282FF0EC00E94721287FF81
:101E20000AC00E94721283FD06C0402F6C2F81E011
:101E30000E943C0D4EC00E94721282FF0CC00E9494
:101E4000721284FF08C00E94721283FD04C0402FEA
:101E50006C2F80E0EDCF0E94721283FF19C00E94A8
:101E6000721282FF15C00E94721287FF11C00E9479
:101E70002D0A8FEFE81AF80A8CE3E816F1042CF12A
:101E80001092140210921302011123C040E0CECF31
:101E90000E94721283FF1DC00E94721282FF19C03D
:101EA0000E94721284FF15C00E942D0A81E0E81A78
:101EB000F108F7FE0AC08BE390E090931402809340
:101EC0001302011106C040E0C3CFF0921402E09269
:101ED0001302809113029091140290930E0280934A
:101EE0000D0280911502909116029093100280933A
:101EF0000F028091290290912A02909312028093FE
:101F000011028DE092E0CF910F91FF90EF90089534
:101F10003FB7F8948091470290914802A0914902FE
:101F2000B0914A0226B5A89B05C02F3F19F0019633
:101F3000A11DB11D3FBFBA2FA92F982F8827820F4F
:101F4000911DA11DB11DBC01CD0142E0660F771F9F
:101F5000881F991F4A95D1F708958091E20108954D
:101F60000895CF92DF92EF92FF921F93CF93DF936A
:101F7000E82FF0E0E45CFE4F1081E62FF0E06033E4
:101F800030F4EA50F24FE491CE2FD0E006C0EE0FCD
:101F9000FF1FEA50F34FC591D4916E01E12CF12C53
:101FA00060E074E284EF90E0A70196010E9456344D
:101FB000DA01C9010197A109B109009721E0A2073F
:101FC000B10578F060E970ED83E090E0A70196013B
:101FD0000E945634DA01C9010197A109B10923E031
:101FE00001C021E01130C9F0133051F5309191005A
:101FF000387F232B20939100909399008093980031
:10200000D0934002C0933F0281E080933E028091D2
:10201000710082608093710013C0309141023111D0
:102020000FC030918100387F232B20938100909343
:1020300089008093880080916F00826080936F0098
:10204000DF91CF911F91FF90EF90DF90CF90089597
:102050008F929F92AF92BF92CF92DF92EF92FF92B8
:102060000F931F93CF93DF938C016B0198E0E92EC0
:10207000F12CE42FE695E695E695F0E0CA0187702D
:102080009927892BC1F5D8011696CD91DC91179728
:10209000C6019927BE010E947A31D80150964D9110
:1020A0005C915197992714966D917C911597452BCA
:1020B00091F4EC9FA001ED9F500DFC9F500D112459
:1020C000840F951FFB01E80FF91FC22FC0952081D7
:1020D0002C23208332C0EC9FA001ED9F500DFC9F6C
:1020E000500D1124840F951FFB01E80FF91FC081CB
:1020F000C22BC08322C0C22FD0E04770A42EB12CC7
:102100004F0183E0880C991C8A95E1F79E0101C07C
:10211000220F4A95EAF7A401B601C8010E942810CF
:10212000C7018A199B0902C0D595C7958A95E2F720
:102130002C2FA401485F5F4F9CCFDF91CF911F915F
:102140000F91FF90EF90DF90CF90BF90AF909F9056
:102150008F9008958F929F92AF92BF92CF92DF920D
:10216000EF92FF920F931F93CF93FC016A3061F4BB
:102170008485958593878287238986859785820FB5
:10218000911D9787868771C0C284D384693031F4EA
:1021900049E0C40ED11CD386C28667C0C62F8C010D
:1021A000E684F7845DEFC5165FEFD5065CF4F801B1
:1021B000828990E0049622853385820F931F93874E
:1021C000828753C0FC0186819781C816D9067CF7A7
:1021D000FDEFEF16FFEFFF0654F3F80180859185C0
:1021E000E816F90624F7603208F4CFE780EE8C0F8A
:1021F0009FE99C0F9A3118F4FFEFEF1AFF0A8C3019
:1022000011F08B3119F44FEFE41AF40AA82EA694BA
:10221000A69458E0A59E90011124F901EA56F34FC7
:102220005F0180FF03C0F4E0AF0EB11CC378C7FFAD
:1022300003C0C150CC6FCF5F812C912CF501E80D0C
:10224000F91D2491C2300CF022952F70B4016C0D51
:102250007D1DA701C8010E9428104FEF841A940A1F
:1022600054E08516910451F7A2CF81E090E0CF9120
:102270001F910F91FF90EF90DF90CF90BF90AF90A4
:102280009F908F900895362F90E0FC01EA5DFC4E00
:102290004491FC01EB51FF4F2491FC01EE5EFE4F97
:1022A0008491882309F451C04423E1F150E0FA01FC
:1022B0003197EF30F105B0F5EA5AFF4F0C948E31AB
:1022C000909180009F7707C0909180009F7D03C010
:1022D00090918000977F9093800024C094B59F7761
:1022E00002C094B59F7D94BD1DC0909190009F77D2
:1022F00007C0909190009F7D03C090919000977FC0
:10230000909390000FC09091C0009F7703C0909170
:10231000C0009F7D9093C00005C09091C200977F40
:102320009093C200E82FF0E0EE0FFF1FEC5FFE4F2E
:10233000A591B4918FB7F894EC91311103C0209519
:102340002E2301C02E2B2C938FBF0895CF93DF93A4
:1023500090E0FC01EB51FF4F2491FC01EE5EFE4F3B
:102360008491882361F190E0880F991FFC01E65366
:10237000FF4FC591D491FC01EC5FFE4FA591B49144
:10238000611109C09FB7F8948881209582238883C2
:10239000EC912E230BC0623061F49FB7F894388122
:1023A000822F809583238883EC912E2B2C939FBFC3
:1023B00006C08FB7F894E8812E2B28838FBFDF915A
:1023C000CF9108958F929F92AF92BF92CF92DF925A
:1023D000EF92FF926B017C010E94880F4B015C0120
:1023E000C114D104E104F104F1F00E94880FDC0172
:1023F000CB0188199909AA09BB09883E9340A10518
:10240000B10570F321E0C21AD108E108F10888EEA5
:10241000880E83E0981EA11CB11CC114D104E104F4
:10242000F10419F7DDCFFF90EF90DF90CF90BF90D0
:10243000AF909F908F9008952FB7F89460914302CA
:102440007091440280914502909146022FBF0895F9
:102450001F920F920FB60F9211242F933F938F93D9
:102460009F93AF93BF938091430290914402A091B8
:102470004502B09146023091420223E0230F2D37EE
:1024800020F40196A11DB11D05C026E8230F029678
:10249000A11DB11D209342028093430290934402F8
:1024A000A0934502B0934602809147029091480262
:1024B000A0914902B0914A020196A11DB11D8093DD
:1024C000470290934802A0934902B0934A02BF91F9
:1024D000AF919F918F913F912F910F900FBE0F90D1
:1024E0001F9018958FB12CB193B130E020953095A5
:1024F00020743327A90123E0559547952A95E1F7E4
:10250000292F30E020953095207133273595279578
:1025100035952795242B8095807F822B08956038F0
:10252000710518F54034510500F5E42FE695E69560
:10253000E695F0E047705527F695FE2FEE27F795C4
:10254000E7956E0F7F1FFB01E857FD4F81E090E09C
:1025500001C0880F4A95EAF7222319F09081892B50
:1025600003C0809590818923808308952F923F92A4
:102570004F925F926F927F928F929F92AF92BF9293
:10258000CF92DF92EF92FF920F931F93CF93DF933F
:10259000CDB7DEB72A970FB6F894DEBF0FBECDBF1A
:1025A000FC016A3069F4248D808D918D38E0239F81
:1025B000800D911D1124918F808F178A168AB0C0CB
:1025C0006D3009F4ADC09A878987E48C338D828D94
:1025D0008983208C318C0689178900381105C4F055
:1025E000A985BA855C962C915C97422F50E056964F
:1025F0008D919C915797B6E02B9F800D911D1124D2
:10260000E985FA85978B868B258D211173C088C04B
:10261000F0E42F16310424F7C80125E0E29E800D76
:10262000911D112418161906DCF68E2D90E09B835F
:102630008A83C101A8E0EA9E800D911D112418161D
:10264000190674F625E0629FF0011124FD83EC83E6
:10265000C12CD12C89859A8504969F838E8395E021
:10266000C916D10441F0EC81FD81EC0DFD1DEA5D40
:10267000F14FF49001C0F12C310188E0482EF0FCBC
:1026800002C0532E01C0598051100CC0A9813A13C9
:1026900009C0F6944A94EA81FB816E0E7F1E4110B8
:1026A000EECF1BC058018A2D801B8E1590F7430179
:1026B000882D86198E1568F4252DA401B5018E810B
:1026C0009F8138870E948F12FFEF8F1A9F0A3885EB
:1026D000EFCF2FEFA21AB20AE6CF8FEFC81AD80AAF
:1026E000AA81BB810A0F1B1FB6E0CB16D10409F0EB
:1026F000B6CF76CF6AEF64039001659F300D112449
:1027000020583F4F281739075CF4A985BA85ED9109
:10271000FC9111970190F081E02D6AE0CD010995BF
:1027200081E090E02A960FB6F894DEBF0FBECDBFD1
:10273000DF91CF911F910F91FF90EF90DF90CF909D
:10274000BF90AF909F908F907F906F905F904F90D1
:102750003F902F9008951F920F920FB60F92112461
:102760002F933F938F939F93AF93BF93EF93FF93D9
:1027700080914102882309F44FC0809131029091E9
:102780003202A0913302B0913402892B8A2B8B2B19
:1027900051F180913002E0912E02F0912F02908150
:1027A000892780838091310290913202A091330277
:1027B000B0913402181619061A061B06D4F580913A
:1027C000310290913202A0913302B091340201970C
:1027D000A109B1098093310290933202A093330290
:1027E000B093340226C010923D02109241028091B3
:1027F0006F008D7F80936F0090913002E0912E02E8
:10280000F0912F028081282F30E0892F90E0809571
:102810009095822393230CC080913C02811109C0C2
:1028200080913002E0912E02F0912F029081892751
:102830008083FF91EF91BF91AF919F918F913F91D5
:102840002F910F900FBE0F901F901895E82FF0E07A
:10285000E45CFE4F8081813019F0833089F0089567
:1028600080914102811122C080916F008D7F809301
:102870006F0090913002E0912E02F0912F020CC077
:1028800010923E0280913D02811110C090913B0256
:10289000E0913902F0913A028081282F30E0892FAF
:1028A00090E0809590958223932380830895CF9321
:1028B000DF93D1E0E091E301F091E4019F012F5F0C
:1028C0003F4F3093E4012093E3018491982F907F50
:1028D000C82FCF70903821F48C2F0E942614EACF95
:1028E0009039F9F4E0914F02F091500209958D274B
:1028F00080933C02E091E301F091E401CF01019665
:102900009093E4018093E30164918091E701C817FB
:1029100088F6C13009F052C080912D028111CACFD2
:102920004DC097FD3AC03296F093E401E093E30185
:10293000F901249130E0382BA0913F02B091400280
:102940000E94E1346C507E4F8F4F9F4F28EE33E052
:1029500040E050E00E94BF342093350230933602AD
:10296000409337025093380280913502909136029D
:10297000A0913702B0913802892B8A2B8B2B21F53D
:1029800081E090E0A0E0B0E08093350290933602C1
:10299000A0933702B093380217C0903E49F480915B
:1029A000E5019091E6019093E4018093E30182CFE9
:1029B000903F09F07FCF1092ED0106C067FD7ACFFE
:1029C0008C2F0E94B10F76CFDF91CF9108951F9287
:1029D0000F920FB60F9211242F933F934F935F9353
:1029E0006F937F938F939F93AF93BF93EF93FF93D7
:1029F00080913E02882341F080913D02811104C004
:102A000080913C02882351F18091ED01882381F16E
:102A10008091350290913602A0913702B091380230
:102A2000892B8A2B8B2B21F18091350290913602D4
:102A3000A0913702B09138020197A109B1098093A2
:102A4000350290933602A0933702B0933802892B57
:102A50008A2B8B2B69F40E9457140AC080913B0289
:102A6000E0913902F0913A02908189278083CCCF9E
:102A7000FF91EF91BF91AF919F918F917F916F9156
:102A80005F914F913F912F910F900FBE0F901F902C
:102A90001895CF93DF939091E701923009F480C0AD
:102AA000292F30E0F901E45CFE4FD081F901E55DAA
:102AB000FD4F8083913031F420912B02281302C006
:102AC00090932D02C82F9F5F9093E70161E00E94D1
:102AD000A611D13019F0D33061F162C08091640049
:102AE000877F809364001092800010928100809113
:102AF0008100886080938100809181008160809353
:102B000081008C2F90E0FC01EE5EFE4FE491F0E03E
:102B1000EE0FFF1FEC5FFE4F2591349130932F0293
:102B200020932E02FC01EB51FF4F849180933002E1
:102B300037C080916500877F809365001092900078
:102B40001092910080919100886080939100809113
:102B500091008160809391008C2F90E0FC01EE5EEB
:102B6000FE4FE491F0E0EE0FFF1FEC5FFE4F25916A
:102B7000349130933A0220933902FC01EB51FF4F1C
:102B8000849180933B028091E701882321F06CE3DC
:102B900080E00E94B10F80E0DF91CF910C94261469
:102BA000DF91CF9108952091290230912A022F5F61
:102BB0003F4F30932A022093290261110AC090915D
:102BC0000501992381F02D303105D4F081E090E0AA
:102BD00005C024363105BCF083E690E090932A02CC
:102BE0008093290210C02C30310539F0283131058D
:102BF00051F410922A02109229020E94D20C03C0B2
:102C00002C303105D1F380E090E00895CF93DF932D
:102C10000E940934C5E0D0E0BE010E947A31892BC0
:102C200051F00E940934BE010E947A3101969093BE
:102C30001B0180931A010E94093465E070E00E9434
:102C40007A31892B51F00E94093464E070E00E94CF
:102C50007A319093190180931801DF91CF910895F3
:102C600020E430E0309317012093160120E230E099
:102C7000309315012093140125E030E030932802B1
:102C80002093270220910001309101013195219577
:102C9000310930930101209300011216130624F428
:102CA00091E09093020102C01092020181111AC0BA
:102CB00083E090E090931B0180931A019093190197
:102CC000809318011092260210922502109224027D
:102CD00010922302109222021092210210922002DE
:102CE00010921F020895FC0180914E02811103C0D1
:102CF0008FEF9FEF08959FB7F89482E08093E900EB
:102D00002091F20030E01216130614F421E030E0B6
:102D10002115310559F0289884E680934D02809161
:102D2000F10080838091F200882319F09FBFC901D0
:102D300008958BE68093E800F9CFCF93DF931F923D
:102D4000CDB7DEB76983DC01ED91FC910280F381A0
:102D5000E02D41E050E0BE016F5F7F4F09950F907D
:102D6000DF91CF91089583E08093E9008091F20094
:102D7000882319F08AE38093E8000895CF93DF93C6
:102D80001F92CDB7DEB7FC018485958597FD05C000
:102D90002FEF3FEF358724870BC0CE0101960E94AD
:102DA0007316019719F4898190E002C08FEF9FEFAD
:102DB0000F90DF91CF9108950F931F93CF93DF93DF
:102DC0001F92CDB7DEB78C01FC018485958597FFF6
:102DD0000EC0CE0101960E947316019719F4298145
:102DE00030E002C02FEF3FEFF80135872487F8016C
:102DF000848595850F90DF91CF911F910F91089554
:102E0000FC018485958597FD0BC09FB7F89482E0FF
:102E10008093E9008091F2009FBF90E001960895B1
:102E20009FB7F89482E08093E9008091F2009FBF01
:102E300090E008958F929F92AF92BF92CF92DF92CF
:102E4000EF92FF920F931F93CF93DF935C016B017F
:102E50008A0180912301882309F45EC080914E028B
:102E6000882309F459C080914C0280FF05C08091ED
:102E7000E00082608093E000E8018AEFF82E93E0A2
:102E8000E92E2FE3822E3AE3932E209709F43DC0DA
:102E90008FB7F894E092E9009091E80095FF06C0A2
:102EA0009091F200282D291B922F01C090E08FBF36
:102EB00091110AC0FA94FF2079F161E070E080E09E
:102EC00090E00E94E211E1CF292F30E0C217D30732
:102ED0000CF49C2F8FB7F894E092E9002091E80061
:102EE00025FF11C0292F30E0C21BD30BF6019150F2
:102EF00020F041914093F100FACFC20ED31E909181
:102F0000E80095FF13C08FBFC0CF5D9884E6809323
:102F10004B021016110644F081E090E0F501938316
:102F2000828380E090E005C0C80103C09092E80071
:102F3000EACFDF91CF911F910F91FF90EF90DF903B
:102F4000CF90BF90AF909F908F9008950E949F3335
:102F5000CF93DF93EC0188819981009711F00E9453
:102F60003D32198218821D821C821B821A82DF91D7
:102F7000CF9108950F931F93CF93DF93EC01888136
:102F80009981009729F02A813B812617370788F419
:102F90008B016F5F7F4F0E94D532009761F099835C
:102FA00088831B830A832C813D81232B11F4FC0130
:102FB000108281E001C080E0DF91CF911F910F91DD
:102FC0000895EF92FF920F931F93CF93DF93FC012D
:102FD000248135816115710511F480E019C0411516
:102FE0005105A9F07B01EC018A01020F131FB80102
:102FF0000E94BA17882389F3288139818C819D81A9
:10300000B701820F931F0E94B6331D830C8381E0AA
:10301000DF91CF911F910F91FF90EF90089520E0E5
:1030200088E892E0B22FB111BFEFFC010024B19308
:10303000B193B193B1930394D1F7ECE9F6E0118E1B
:10304000108E178A168A0895CF93DF93D82FC62F34
:1030500061E08AE00E9443116D2F8BE00E944311D2
:103060006C2F89E0DF91CF910C94431180918802FD
:103070008EBDE9E8F2E081910DB407FEFDCF8EBD73
:1030800086E0E838F807B9F70DB407FEFDCF0895DC
:10309000EF92FF920F931F93CF93DF937C018B01ED
:1030A000040F111DEB0177FF0EC0C0E0D0E00BC094
:1030B000C217D3077CF421E0AE01B70180EA96E0A5
:1030C0000E948F1221969801013411058CF320E49F
:1030D00030E0EECFDF91CF911F910F91FF90EF90F5
:1030E00008952F923F924F925F926F927F928F92AC
:1030F0009F92AF92BF92CF92DF92EF92FF920F9387
:103100001F93CF93DF9300D000D0CDB7DEB78C01F3
:103110007B01242F30E03C832B8381E090E05C0135
:10312000A21AB30AC9019195819591091C01220C3B
:10313000331CA901460F571F21E0B80180EA96E031
:103140000E948F12A7018B819C81481B590B21E0A3
:10315000B80180EA96E00E948F126B817C81600F3B
:10316000711F21E0A70180EA96E00E948F12B8014A
:10317000EB81FC816E1B7F0B21E0A70180EA96E0CA
:103180000E948F12C12CD12C21E030E03A83298398
:103190002B813C81C216D3060CF06EC0B7FC0AC06E
:1031A0008B819C8101979C838B8392E0290E311C3B
:1031B000A20CB31CEFEFCE1ADE0A29813A812E5FF2
:1031C0003F4F3A832983A20EB31E3601600E711E53
:1031D00021E08B809C808E0C9F1CA401B30180EAAF
:1031E00096E00E948F1228014C185D0821E0A4018E
:1031F000B20180EA96E00E948F1221E047018B81A4
:103200009C81881A990AA401B30180EA96E00E9481
:103210008F1221E0A401B20180EA96E00E948F1291
:1032200046018E0C9F1C21E0A4016B807C80600E07
:10323000711EB30180EA96E00E948F1221E0A40182
:103240002801EB81FC814E1A5F0AB20180EA96E008
:103250000E948F1247018C189D0821E0A401B30140
:1032600080EA96E00E948F1221E0A401B20180EA78
:1032700096E00E948F128CCF0F900F900F900F90BE
:10328000DF91CF911F910F91FF90EF90DF90CF9042
:10329000BF90AF909F908F907F906F905F904F9076
:1032A0003F902F9008959C01240F311D1216130694
:1032B00074F5803891055CF5FC0197FF02C0E0E0F1
:1032C000F0E02138310514F020E830E02E1BAB018E
:1032D0004770552781E001C0880F4A95EAF777FFCC
:1032E00002C0695F7F4F93E0759567959A95E1F706
:1032F0007695762F662777956795E60FF71FE8573F
:10330000FD4F215020F09081982B9193FACF089592
:103310005F926F927F928F929F92AF92BF92CF9265
:10332000DF92EF92FF920F931F93CF93DF93EC0105
:103330008B017A01A901461B570B57FF03C051951A
:1033400041955109C7018C1B9D0B97FF03C09195B7
:1033500081959109552453948417950714F0512CA5
:103360000AC09E2D8F2D7901292F382F9C2F8D2F4C
:10337000E801092F182FEC16FD0654F4902F812F29
:103380008901292F382F9C2F8D2FE701E92EF82E48
:1033900037016C1A7D0A5901A01AB10AB7FE03C0A1
:1033A000B194A194B108630177FE03C08FEFC81AEE
:1033B000D80AD594C7940217130714F08FEF01C0F1
:1033C00081E0882E880F9908EC16FD06B4F021E004
:1033D000552019F0AE01B80102C0A801BE0180EA73
:1033E00096E00E948F12CA18DB08D7FE04C0080DB1
:1033F000191DC60CD71C2196E7CFDF91CF911F91E5
:103400000F91FF90EF90DF90CF90BF90AF909F9083
:103410008F907F906F905F9008958091BE0681118C
:103420000DC082E08093BA0684E08093BB061092C0
:10343000BD061092BC0681E08093BE068AEB96E042
:103440000895FC0124813581232B31F421E061159D
:103450007105A1F0FB0108C0FC018081918161151B
:10346000710531F421E0FC018081882339F005C029
:103470000E94AD3321E0892B09F020E0822F0895CE
:10348000EF92FF920F931F93CF93DF93CDB7DEB7E9
:1034900028970FB6F894DEBF0FBECDBF7C01CB01DD
:1034A0004AE08E010F5F1F4FB8010E941934F801E6
:1034B00001900020E9F73197AF01401B510BB80193
:1034C000C7010E94E117811103C0C7010E94A8171C
:1034D000C70128960FB6F894DEBF0FBECDBFDF91AF
:1034E000CF911F910F91FF90EF900895CF93DF93AD
:1034F000EC016115710561F0FB0101900020E9F715
:103500003197AF01461B570B0E94E117811103C091
:10351000CE010E94A817CE01DF91CF910895CF93DD
:10352000DF93EC01FB0144815581608171810E9430
:10353000E117811103C0CE010E94A817CE01DF91CF
:10354000CF9108950F931F93CF93DF938C01EB01DD
:10355000FC01808191810097B1F0688179816115CA
:10356000710579F0428153812C813D8142175307C7
:1035700040F00E94B6338C819D81F801958384834D
:1035800013C00E943D3288819981F8019183808324
:103590008A819B81938382838C819D81958384839F
:1035A000198218821B821A821D821C82DF91CF91A0
:1035B0001F910F910895EF92FF920F931F93CF9356
:1035C000DF93EC017B018A01BA010E94BA178111D5
:1035D00004C0CE010E94A81707C01D830C83B70149
:1035E000888199810E94B633CE01DF91CF911F91DE
:1035F0000F91FF90EF900895CF93DF93EC01611549
:10360000710559F0FB0101900020E9F73197AF01F6
:10361000461B570B0E94DB1A02C00E94A817CE015E
:10362000DF91CF910895FC01808191810C943D320E
:10363000089540911B0750911C0720911907309164
:103640001A0742175307B4F49091E8009570E1F31C
:103650009091E80092FD19C08093F10080911B07C2
:1036600090911C0701968F739927892B19F48EEF7F
:103670008093E80080911B0790911C07019690931E
:103680001C0780931B0781E0089580E00895CF9286
:10369000DF92EF92FF920F931F93CF93DF931F92CE
:1036A000CDB7DEB7182F062FE42E862F880F8E5F3A
:1036B00099830E94191B83E00E94191BF12EC12ED1
:1036C0009981D92E8C2D8F19801798F4F601E7FE79
:1036D00002C0849101C080810E94191B182F80E0D4
:1036E0000E94191B8123FFEFCF1ADF0A8111EACF55
:1036F00001C081E00F90DF91CF911F910F91FF905A
:10370000EF90DF90CF900895DF92EF92FF920F93AA
:103710001F93CF93DF93D82E8A017B01E40EF51E11
:10372000EB01CE15DF0571F0D7FE03C0FE018491D9
:1037300001C088810E94191B21968111F2CF8FEF61
:103740009FEF01C0C801DF91CF911F910F91FF90B2
:10375000EF90DF900895615030F02091F100FC016E
:1037600020830196F8CF289884E680934D0208952F
:10377000CF92DF92EF92FF920F931F93CF93DF933D
:103780006C017A018B01C0E0D0E0CE15DF0589F035
:10379000D8016D918D01D601ED91FC910190F081E0
:1037A000E02DC6010995892B11F47E0102C02196F6
:1037B000ECCFC701DF91CF911F910F91FF90EF9058
:1037C000DF90CF9008950F931F93CF93DF931F92B5
:1037D000CDB7DEB782E0898342E450E065E473E16F
:1037E00080E80E94841B0E940D1ADC0112960D9144
:1037F0001C9113970115110569F0D801ED91FC9109
:103800000280F381E02DBE016F5F7F4FC8010995F3
:1038100097FF07C089810F90DF91CF911F910F9182
:103820000895F80100851185E5CFFB01DC011196B3
:103830001C921E9213961C921E92129715961C9221
:103840001E9214978617970749F060817181611560
:10385000710521F0448155810C94DB1A0895FC0117
:1038600011821082138212821582148261157105F1
:1038700051F0FB0101900020E9F73197AF01461BA1
:10388000570B0C94DB1A08951F920F920FB60F92EC
:1038900011248F939F938091E1009091E100937F99
:1038A0009093E10083FF0FC01092E90091E09093A4
:1038B000EB001092EC0092E39093ED0010924E0218
:1038C00098E09093F00082FF20C093E09093E9008D
:1038D0009091F200992319F09AE39093E800909167
:1038E0004B02992339F090914B02915090934B02E7
:1038F000992389F190914D02992339F090914D02CD
:10390000915090934D02992341F184FF10C0809112
:10391000E2008E7E81608093E2008091E1008F7EE4
:103920008093E10080914C028E7E806111C080FF07
:1039300016C08091E2008E7E80618093E2008091CB
:10394000E1008E7E8093E10080914C028E7E81604A
:1039500080934C0204C05D9ACDCF289AD6CF9F9118
:103960008F910F900FBE0F901F9018951F920F927E
:103970000FB60F921124CF92DF92EF92FF920F9326
:103980001F932F933F934F935F936F937F938F93E7
:103990009F93AF93BF93EF93FF93CF93DF93CDB7F5
:1039A000DEB76C97DEBFCDBF1092E9008091E800D2
:1039B00083FFFAC168E0CE0145960E94AB1B82EFFF
:1039C0008093E8008D8987FF05C09091E80090FF03
:1039D000FCCF03C09EEF9093E800982F907609F0FB
:1039E000C6C09E892F89188D91110CC0803829F48A
:1039F000809117078093F10002C01092F10010929D
:103A0000F10047C1422F50E0512B913051F4811108
:103A100040C14130510509F03CC1809117078D7FAD
:103A20000BC0933061F4811134C14130510509F06C
:103A300030C1809117078260809317072AC19530A3
:103A400041F48091E80080FFFCCF20682093E300E0
:103A500020C1963009F05FC0EB8CFC8C1092E9001D
:103A600010921C0710921B07123091F510921A0742
:103A7000109219070E94E31B99E0BE016F5F7F4F10
:103A8000DB01E92F1D92EA95E9F799831A8391E00A
:103A90009E8390EA98879AEF998720911B0730912F
:103AA0001C07275F3F4F3C832B838D831092E900D7
:103AB00010921C0710921B07F0921A07E092190748
:103AC00049E050E080E00E94841B0E94E31BE1C0BB
:103AD000F0921A07E09219070E940D1ADC01129663
:103AE000ED90FC901397E114F10409F4C0C0D701E4
:103AF000ED91FC910480F581E02DBE016B5E7F4F5E
:103B0000C7010995009719F00CF0C3C0C6C0F701B2
:103B1000E084F184E8CF973009F4BFC0983021F4F5
:103B200081E08093F100B5C0993009F0B2C0837094
:103B300009F0B3C0E7E6F1E081E021E036E39081EF
:103B4000992361F08093E9002093EB009191909389
:103B5000EC003093ED008F5F873089F78EE780931C
:103B6000EA001092EA008F8980934E0292C08B8DFA
:103B70009C8D1092E90010921C0710921B079093E5
:103B80001A0780931907898D811156C08E899D89E6
:103B9000913A59F4813209F080C047E050E06CE17D
:103BA00071E080E00E94841B74C0913209F075C0FE
:103BB000833289F4888D90E0982F88272F89822B73
:103BC000A0E0B0E08093240190932501A09326010A
:103BD000B09327015EC0803269F48091E80082FFD3
:103BE000FCCF67E08CE191E00E94AB1B8BEF8093F0
:103BF000E80006C0823209F04CC08F89809323010F
:103C000080911607882319F0EEEFFAE002C0E0E099
:103C1000F8E080911C0190911D01A0911E01B091CE
:103C20001F01803B9440A105B10509F088C0809137
:103C3000230180FFA0C083C00E940D1ADC011296F0
:103C40000D911C9113970115110539F1D801ED91D2
:103C5000FC910190F081E02DBE016B5E7F4FC801A9
:103C60000995811116C0F80100851185ECCF11303E
:103C7000C1F0133091F48F89882309F455C0823044
:103C8000E9F440E867E087E993E10E94471B882355
:103C900021F08EEF8093E80087C081E28093EB00F3
:103CA00083C08B8D9C8D089711F410931807809119
:103CB0001807811136C06FE973E138C0813029F4EB
:103CC00040E86BE08BE893E1E0CF833031F70E946E
:103CD0000D1ADC011296ED90FC9013978E010F5F88
:103CE0001F4F6801E114F10479F0D701ED91FC91C7
:103CF0000680F781E02DB801C7010995080F111D55
:103D0000F701E084F184EECFD8011C92F601019016
:103D10000020E9F73197BF016C197D0940E0C60129
:103D2000B4CF61EB73E102C067E873E1611571051F
:103D300009F4B3CFFB01449150E080E833CF0FB6D4
:103D4000F894A8958091600088618093600010923B
:103D500060000FBEA895EE3F2AE0F20739F080918F
:103D6000FE0A9091FF0A9183808393CF1092FF0AFD
:103D70001092FE0A8ECFEE3F8AE0F80731F0808184
:103D800091819093FF0A8093FE0A87E797E79183DA
:103D900080839BE088E10FB6F894A895809360003B
:103DA0000FBE9093600075CF6C960FB6F894DEBF8F
:103DB0000FBECDBFDF91CF91FF91EF91BF91AF913A
:103DC0009F918F917F916F915F914F913F912F9133
:103DD0001F910F91FF90EF90DF90CF900F900FBE4B
:103DE0000F901F9018956115710579F0FB010190F6
:103DF0000020E9F73197AF01461B570BDC01ED912D
:103E0000FC910280F381E02D099480E090E0089518
:103E1000DC01ED91FC91DB0114964D915C911597BD
:103E20006D917C910280F381E02D09948F929F9295
:103E3000AF92BF92CF92DF92EF92FF920F931F93B8
:103E4000CF93DF9300D000D000D0CDB7DEB7609124
:103E500014017091150142E08091160190911701B3
:103E60000E947118E0901601F090170167012FEF82
:103E7000C21AD20A0091140110911501580131E0C3
:103E8000A31AB1080F5F1F4F470181E0881A9108FC
:103E90009501A701B801C4010E9488199801A601E3
:103EA000B501C7010E9488199801A401B801C60193
:103EB0000E94881940E860E070E080E090E00E9495
:103EC000531940E86FE370E080E090E00E945319DE
:103ED00040E460E070E080E090E00E94481840E438
:103EE00060E070E08FE790E00E94481840E460E0F6
:103EF00070E08FE390E00E94481840E26FE170E0CC
:103F00008FEF9FEF0E94711840E26FE170E081E84F
:103F100090E00E9471180E94721283FF0AC080E133
:103F20008093A70681E090E090931B0180931A0193
:103F300003C082E48093A7064091000150910101E3
:103F400080911A0190911B01489F9001499F300D6B
:103F5000589F300D11248091160190911701280F60
:103F6000391F3093170120931601009128011091F9
:103F700029018091180190911901089FA001099FC2
:103F8000500D189F500D112480911401909115012E
:103F9000840F951F90931501809314012F373105DD
:103FA000CCF020912A0130912B01A901415F5F4F94
:103FB000481759071CF08217930764F481E00E94A8
:103FC0003016809121029091220201969093220254
:103FD0008093210280911601909117010297ECF4D1
:103FE000209114013091150180912C0190912D01A7
:103FF000AC01415F5F4F421753071CF02817390788
:1040000064F481E00E94301680911F02909120029A
:1040100001969093200280931F0220911401309109
:1040200015012C3331051CF4253031053CF4119574
:1040300001951109109329010093280180912C0109
:1040400090912D01AC01425051092417350744F1DC
:1040500041968217930724F18091160190911701E0
:104060000797F4F48091020181110EC08091000144
:10407000909101019195819591099093010180930F
:10408000000181E0809302010E94093465E070E044
:104090000E947A3190932802809327020E9406168C
:1040A000209114013091150180912A0190912B01EA
:1040B000AC01425051092417350744F1419682174B
:1040C000930724F18091160190911701893791058A
:1040D000ECF080910201882369F0809100019091B9
:1040E00001019195819591099093010180930001BF
:1040F000109202010E94093465E070E00E947A315A
:1041000090932802809327020E9406160E94721242
:1041100087FF0AC00E94721283FF06C080912C01A3
:1041200090912D01039767C00E94721284FF04C012
:104130000E94721283FD5AC080912C0190912D0132
:10414000823091051CF481E090E004C0C09734F007
:1041500080E390E090932D0180932C0180912A01BF
:1041600090912B01823091051CF481E090E004C015
:10417000C09734F080E390E090932B0180932A0164
:1041800000912C0110912D014FE0B80184E090E0E6
:104190000E9448184FE0B80183E090E00E94481860
:1041A00000912A0110912B014FE0B8018BE790E0BC
:1041B0000E9448184FE0B8018CE790E00E94481830
:1041C000809100019091010197FF1AC08091270210
:1041D00090912802892BA1F00E94721283FD10C0D9
:1041E000809114019091150107972EC180912C01A7
:1041F00090912D01039690932D0180932C019CCFDB
:10420000809100019091010197FF04C00E947212F9
:1042100083FF15C1809100019091010118161906C4
:104220008CF4209127023091280280911401909102
:104230001501232B11F0079701C0079690932B01CE
:1042400080932A0169E3E62EF12C00E010E07AE089
:10425000C72ED12C80912102909122029601281B19
:10426000390B0217130770F421E0A7016CE370E02B
:1042700080EA96E00E948F120F5F1F4F22E0E21A41
:10428000F108E8CF49E3E42EF12C00E010E05AE019
:10429000C52ED12C80911F02909120029601281BDF
:1042A000390B0217130770F421E0A70162E470E0F4
:1042B00080EA96E00E948F120F5F1F4F32E0E31AF0
:1042C000F108E8CF2CE3E22EF12C00E010E03AE018
:1042D000C32ED12C80912502909126029601281B95
:1042E000390B0217130760F441E06CE370E0C7017B
:1042F0000E9471180F5F1F4F34E0E31AF108EACFF4
:1043000082E4E82EF12C00E010E09AE0C92ED12CD6
:1043100080912302909124029601281B390B0217E9
:10432000130760F441E06CE370E0C7010E9471186C
:104330000F5F1F4F34E0E30EF11CEACF81E390E002
:104340009093B3068093B20682E090E09093B50616
:104350008093B4062091090130910A014091F70140
:104360005091F8016091F9017091FA01CC24C39445
:10437000E12C00E0CE0101960E941A0CBE016F5F95
:104380007F4F8CE996E00E94081FCE0101960E94A3
:10439000131B80912102909122020B9754F080917F
:1043A0002502909126020196909326028093250281
:1043B0000FC080911F02909120020B97DCF080913A
:1043C0002302909124020196909324028093230269
:1043D00010922202109221021092200210921F02CB
:1043E00081E090E090931B0180931A019093190152
:1043F0008093180180912502909126020B974CF52D
:1044000080912302909124020B971CF50E94721256
:1044100082FD1FC00E94361826960FB6F894DEBFA4
:104420000FBECDBFDF91CF911F910F91FF90EF9005
:10443000DF90CF90BF90AF909F908F900895809124
:10444000140190911501079690932D0180932C01F2
:10445000E1CE80E00E943016DDCF8091210790915F
:1044600022079093EF018093EE0180911F079091B6
:1044700020079093F1018093F00180911D079091A6
:104480001E079093F3018093F2010895CF93DF9379
:10449000CDB7DEB764970FB6F894DEBF0FBECDBFC1
:1044A000789484B5826084BD84B5816084BD85B50F
:1044B000826085BD85B5816085BD80916E0081601B
:1044C00080936E00109281008091810082608093C1
:1044D00081008091810081608093810080918000C3
:1044E0008160809380008091910082608093910030
:1044F0008091910081608093910080919000816013
:10450000809390008091C10084608093C10080916D
:10451000C10082608093C1008091C100816080935E
:10452000C1008091C30081608093C3008091C0006E
:1045300082608093C0008091C20081608093C2003D
:1045400080917A00846080937A0080917A00826002
:1045500080937A0080917A00816080937A008091C4
:104560007A00806880937A0010924E0210921707AA
:1045700010924C028091D70081608093D70080EA2E
:104580008093D80089B5806189BD89B5826089BD75
:1045900009B400FEFDCF61E070E080E090E00E9491
:1045A000E2118091D8008F7C80618093D800809147
:1045B000E000807F8093E0008091E1008E7E809318
:1045C000E1008DE08093E200559A209AEEEFFFE73C
:1045D000859194918B3F9C4D19F481E0809316074F
:1045E00085E00E9449158DE00E9449151FB7F89497
:1045F0008091FE01811127C0E3E2F1E08491E6EFB2
:10460000F0E09491E82FF0E0EE0FFF1FE653FF4F2C
:10461000A591B491EC91E92321F461E081E10E943C
:10462000431161E081E10E94A6118CB580618CBDCF
:104630008CB580648CBD61E08FE00E94A61161E0C2
:1046400080E10E94A6118091FE018F5F8093FE01A0
:104650001FBF01E311E0F80184910E5F1F4F3196F7
:104660006491882319F00E94A611F5CF61E086E0DD
:104670000E94431161E070E080E090E00E94E2114E
:1046800060E086E00E9443116AE070E080E090E024
:104690000E94E21161E086E00E944311EEE1F1E048
:1046A000E491F0E0EE0FFF1FEC5FFE4F85919491D7
:1046B0009093040280930302E1EFF0E0E491E09331
:1046C0000202E6E1F1E0E491F0E0EE0FFF1FEC5FA3
:1046D000FE4F859194919093010280930002E9EE40
:1046E000F0E0E491E093FF018CB58C7F8CBD8DB53B
:1046F00081608DBDE0910302F09104029081809170
:104700000202982B9083A0910002B09101022C919B
:104710009091FF01909592239C939081809589239D
:104720008083E8EDF0E08DE08E0F94919EBD000057
:104730000DB407FEFDCF9EB531968E13F6CFE091F6
:104740000002F091010290818091FF01892B80830A
:10475000E0910302F0910402908180910202809521
:1047600089238083809164008160809364008091BC
:10477000640082608093640080916400806880930C
:10478000640080916400806480936400809165007F
:1047900081608093650082E48093A7060E940F18D1
:1047A00061E085E00E94A61161E08DE00E94A61103
:1047B00011E01093E2010E94093480910201182750
:1047C00010930201809100019091010191958195D2
:1047D00091099093010180930001AFE02A2E312CC2
:1047E000B2E0AB2EB12CE6E44E2E512CF9E38F2E25
:1047F000912C0E941C120091100110911101209126
:10480000120130911301601771078207930708F4B2
:1048100080C0D901C80188519C4FAF4FBF4F8093D2
:10482000100190931101A0931201B0931301809194
:10483000FD01882309F44AC08091EE019091EF01B7
:1048400001979093EF018093EE0197FF3FC0809115
:10485000F0019091F101009761F02BE330E030938B
:10486000EF012093EE0101979093F1018093F00105
:104870002DC08091F2019091F301009781F02BE31C
:1048800030E03093EF012093EE013093F10120935B
:10489000F00101979093F3018093F20117C01092F9
:1048A000EF011092EE0180E591E09093E601809394
:1048B000E5019093E4018093E3010E94571481E0A5
:1048C0008093ED011092FD010E942D220E94721230
:1048D00083FF16C00E94721282FF12C080910F01E6
:1048E000882371F08091FC0181110AC08091FB0145
:1048F000811106C030920E0120920D010C940C30F3
:104900008091F9019091FA0101969093FA018093B8
:10491000F9010E941C122091B006222391F02091EF
:10492000A806F62FF21BF093B1062091A306309152
:10493000A4062F5F3F4F3093A4062093A306109246
:10494000B0060091AC061091AD062091AE063091F4
:10495000AF06601771078207930788F4061B0230C1
:1049600010F40C940C3083B7817F83BF83B78160D0
:1049700083BF889583B78E7F83BF0C940C302091C2
:10498000A7066B017C01C20ED11CE11CF11CC09278
:10499000AC06D092AD06E092AE06F092AF06609300
:1049A000A8067093A9068093AA069093AB0611E01F
:1049B0001093B0060E940F181093B80680910D0155
:1049C00090910E01009729F430920E0120920D0172
:1049D00005C0019790930E0180930D018091F9011C
:1049E0009091FA01CC9769F41092FA011092F901B2
:1049F0008091F7019091F80101969093F8018093CE
:104A0000F7012091F7013091F8018091F90190911F
:104A1000FA012C33310581F4009771F41092F801FA
:104A20001092F7012091090130910A012F5F3F4F49
:104A300030930A01209309012091090130910A0164
:104A400028313105D1F42091F7013091F801232B61
:104A500009F047C0009709F044C0209105012111D9
:104A600040C020910D0130910E012F303105C9F564
:104A700010920A011092090131C02B30310589F5DD
:104A80002091F7013091F8012B33310551F58B332B
:104A9000910591F420910501222371F020910701E5
:104AA000222351F020910D0130910E012F3031055C
:104AB00019F41092070115C08B33910591F42091E0
:104AC0000501222371F02091070121110AC02091D4
:104AD0000D0130910E012F30310519F421E02093A2
:104AE00007012091090130910A012D30310594F020
:104AF0002091F7013091F801232B61F4009751F4D4
:104B000020910501222331F021E030E030930A01A9
:104B1000209309012091090130910A012C303105BF
:104B200034F040910501411102C0109207014091FB
:104B30000A0250910B024817590769F54091080283
:104B4000509109028091F7019091F8014817590797
:104B500011F580910B0190910C0182179307D9F404
:104B60009091080180910701981315C08091070268
:104B7000882389F080E591E09093E6018093E50138
:104B80009093E4018093E3010E94571481E08093A5
:104B9000ED01109207028091F601882381F0809147
:104BA000060181110CC00E94161F0E945D0B882314
:104BB00011F40C940C301092F6010C940C300E94FD
:104BC000721285FD02C00C9416300E94721286FD8E
:104BD00002C00C9416300E94721283FF02C00C9423
:104BE00016300E94721282FF02C00C9416300E948E
:104BF000721287FF02C00C9416300E94721284FF5A
:104C000002C00C9416300E940F180E94361861E002
:104C100081E00E94241810920F0181E0809303012B
:104C20001092FC011092FB010E94FD0A80910F017D
:104C3000811104C00E9436180C940C300E9472122C
:104C400085FF89C06DE671E0CE0101960E942F1CA0
:104C5000CE0101960E94770A182FCE0101960E947C
:104C6000131B112309F477C00E942D0A8091ED01D6
:104C7000882361F010E08091E701181728F4812F54
:104C80000E9426141F5FF7CF1092ED018091FB0167
:104C90009091F401811102C0992341F0992311F4FC
:104CA0000C9480309091060191114BC00E941C120F
:104CB0000091E8011091E9012091EA013091EB01A6
:104CC000601771078207930708F180910301811132
:104CD0001DC08091EC018823C9F01092EC01109264
:104CE000E8011092E9011092EA011092EB0161E0F3
:104CF00080E00E9424188091F401882311F40C9420
:104D000043301092F40181E08093F6018091030119
:104D1000882309F10E941C12DC01CB0184529A4FB6
:104D2000AF4FBF4F8093E8019093E901A093EA0150
:104D3000B093EB011092030160E081E00E9424181F
:104D40000AC0882311F40C947C308091FD018111FC
:104D500002C00E942D220E94FD0A81110E943E0A7B
:104D60000E945D0B0E94721284FF2AC062E771E00C
:104D7000CE0101960E942F1CCE0101960E94770A57
:104D8000182F81111091EC01CE0101960E94131B86
:104D90001123B1F01092EC0181E080930401909115
:104DA000FC0191110C9450309091FB0191110C94E5
:104DB00056309091F40191110C945C308093FC0179
:104DC0000E94FD0A81110E943E0A0E94721287FF12
:104DD0002AC067E771E0CE0101960E942F1CCE0128
:104DE00001960E94770A182F81111091EC01CE01D3
:104DF00001960E94131B1123B1F01092EC0121E0E7
:104E0000209304018091FC019091F40181110C9494
:104E100060303091FB0131110C94603091110C9491
:104E200060302093F4010E94FD0A81110E943E0A25
:104E30008091FC01882309F415C20E940F180E947A
:104E40000E0A309295062092940630929306209294
:104E50009206B0929706A09296066AE771E088E8FB
:104E600096E00E94F31E7AE5E72EF12CF09295066B
:104E7000E0929406F0929306E0929206B092970622
:104E8000A092960660E871E088E896E00E94F31E22
:104E900082E290E090939506809394069093930617
:104EA0008093920690929706809296066AE771E048
:104EB00088E896E00E94F31E509295064092940670
:104EC0005092930640929206909297068092960690
:104ED00066E871E088E896E00E94F31E8091FD018B
:104EE000882381F08AE490E09093B3068093B20621
:104EF000B092B506A092B40681E08093B8066EE841
:104F000071E00FC087E490E09093B3068093B206FF
:104F1000B092B506A092B40681E08093B80661E92C
:104F200071E08CE996E00E94F31E809107028823CD
:104F300009F49CC08CE290E09093B3068093B20693
:104F4000B092B506A092B40681E08093B8066EE8F0
:104F500071E08CE996E00E94F31EB0929506A09253
:104F60009406B0929306A09292068EE090E0909301
:104F700097068093960660E771E088E896E00E94C5
:104F8000F31EB0929506A0929406B0929306A0925A
:104F9000920683E190E0909397068093960665E9E8
:104FA00071E088E896E00E94F31EB0929506A09208
:104FB0009406B0929306A092920688E190E09093B6
:104FC00097068093960664E871E088E896E00E9470
:104FD000F31EB0929506A0929406B0929306A0920A
:104FE00092068DE190E0909397068093960669EA89
:104FF00071E088E896E00E94F31EB0929506A092B8
:105000009406B0929306A092920684E290E0909368
:1050100097068093960667E971E088E896E00E941B
:10502000F31EB0929506A0929406B0929306A092B9
:10503000920689E290E0909397068093960663E942
:1050400071E088E896E00E94F31EB0929506A09267
:105050009406B0929306A09292068EE290E090930E
:1050600097068093960663E971E085C009E210E037
:105070001093B3060093B206B092B506A092B406A0
:1050800081E08093B80661E971E08CE996E00E94C6
:10509000F31EB0929506A0929406B0929306A09249
:1050A00092068EE090E0909397068093960660E7D4
:1050B00071E088E896E00E94F31EB0929506A092F7
:1050C0009406B0929306A092920683E190E09093AA
:1050D00097068093960665E971E088E896E00E945D
:1050E000F31EB0929506A0929406B0929306A092F9
:1050F000920688E190E0909397068093960664E884
:1051000071E088E896E00E94F31EB0929506A092A6
:105110009406B0929306A09292068DE190E090934F
:1051200097068093960669EA71E088E896E00E9407
:10513000F31EB0929506A0929406B0929306A092A8
:10514000920684E290E0909397068093960667E932
:1051500071E088E896E00E94F31EB0929506A09256
:105160009406B0929306A09292061093970600932D
:10517000960669EA71E088E896E00E94F31E21E154
:1051800030E03093B3062093B20689E190E090932B
:10519000B5068093B40640910B0150910C016091CB
:1051A00008027091090200E020E080910A029091CB
:1051B0000B020E94850DFC0190930602809305026C
:1051C0006081718170930B0260930A024281538166
:1051D00050930902409308022481358130930C01D9
:1051E00020930B0182E08093B806C12CE12CCE0104
:1051F00001960E941A0CBE016F5F7F4F8CE996E00A
:105200000E94081FCE0101960E94131B81E080932B
:10521000B80680910501882309F40CCD809108011E
:10522000882379F08BE390E09093B3068093B206E5
:105230008CE290E09093B5068093B4066EED71E039
:105240000EC08BE390E09093B3068093B2068CE29D
:1052500090E09093B5068093B40669E971E08CE91B
:1052600096E04DC48091FB01882309F419C20E9485
:105270000F180E940E0A30929506209294063092E2
:10528000930620929206B0929706A09296066AE73D
:1052900071E088E896E00E94F31EEAE5F0E0F09302
:1052A0009506E0939406F0939306E0939206B092ED
:1052B0009706A092960660E871E088E896E00E9462
:1052C000F31E82E290E0909395068093940690936B
:1052D000930680939206909297068092960660E8D5
:1052E00071E088E896E00E94F31E50929506409285
:1052F000940650929306409292069092970680925E
:10530000960666E871E088E896E00E94F31E8091B8
:10531000FD01882309F463C08AE490E09093B3060A
:105320008093B206B092B506A092B40681E0809355
:10533000B8066EE871E08CE996E00E94F31E0AE779
:1053400010E0109395060093940610939306009333
:10535000920666E1C62ED12CD0929706C092960690
:105360006CE971E088E896E00E94F31E10939506C0
:105370000093940610939306009392068BE190E0BD
:10538000909397068093960660E771E088E896E030
:105390000E94F31E109395060093940610939306B3
:1053A0000093920680E290E0909397068093960691
:1053B00067E971E088E896E00E94F31E1093950675
:1053C00000939406109393060093920685E290E072
:1053D000909397068093960668E771E0D9C087E4BA
:1053E00090E09093B3068093B206B092B506A09277
:1053F000B40681E08093B80661E971E08CE996E03B
:105400000E94F31EB0929506A0929406B092930665
:10541000A092920624E130E03093970620939606FE
:1054200064E871E088E896E02B8B3C8B0E94F31EC9
:10543000B0929506A0929406B0929306A09292061E
:1054400029E1E22EF12CF0929706E092960661EDAA
:1054500071E088E896E00E94F31EB0929506A09253
:105460009406B0929306A09292063EE1632E712CB0
:1054700070929706609296066CE971E088E896E073
:105480000E94F31EB0929506A0929406B0929306E5
:10549000A092920643E2C42ED12CD0929706C092DD
:1054A000960661ED71E088E896E00E94F31EB092E6
:1054B0009506A0929406B0929306A092920658E2A6
:1054C000E52EF12CF0929706E092960660E771E0E7
:1054D00088E896E00E94F31E0AE710E01093950614
:1054E0000093940610939306009392062B893C89AF
:1054F00030939706209396066CE971E088E896E071
:105500000E94F31E10939506009394061093930641
:105510000093920629E130E0309397062093960697
:1055200060E771E088E896E00E94F31E109395060C
:105530000093940610939306009392067092970638
:10554000609296066EE971E088E896E00E94F31E8C
:105550001093950600939406109393060093920679
:10556000D0929706C092960664E871E088E896E0CB
:105570000E94F31E109395060093940610939306D1
:1055800000939206F0929706E092960660E771E02B
:1055900088E896E00E94F31E80910702882381F03C
:1055A0008CE290E09093B3068093B206B092B50679
:1055B000A092B40681E08093B8066EE871E00FC057
:1055C00089E290E09093B3068093B206B092B5065C
:1055D000A092B40681E08093B80661E971E08CE99D
:1055E00096E00E94F31E8091FD01811127C0409139
:1055F000F2015091F3016091F0017091F10101E02D
:1056000020E08091EE019091EF010E94850DFC0158
:105610009093060280930502808191819093EF011F
:105620008093EE01828193819093F1018093F00148
:10563000848195819093F3018093F20181E190E060
:105640009093B3068093B206E9E1F0E0F093B506DB
:10565000E093B40682E08093B8062091F201309185
:10566000F3014091F0015091F1016091EE017091D0
:10567000EF01C12CEE24E39400E0CE0101960E94DC
:105680001A0CBE016F5F7F4F8CE996E00E94081FE5
:10569000CE0101960E94131B81E08093B806CACA0E
:1056A0008091F401882309F43EC20E940E0A3092D0
:1056B0009506209294063092930620929206B0921C
:1056C0009706A09296066AE771E088E896E00E9445
:1056D000F31E9AE5C92ED12CD0929506C09294065D
:1056E000D0929306C0929206B0929706A092960628
:1056F00060E871E088E896E00E94F31E8091FD0169
:10570000882381F08AE490E09093B3068093B206F8
:10571000B092B506A092B40681E08093B8066EE818
:1057200071E00FC087E490E09093B3068093B206D7
:10573000B092B506A092B40681E08093B80661E904
:1057400071E08CE996E00E94F31E809107028823A5
:1057500081F08CE290E09093B3068093B206B09211
:10576000B506A092B40681E08093B8066EE871E0B9
:105770000FC089E290E09093B3068093B206B09296
:10578000B506A092B40681E08093B80661E971E0A5
:105790008CE996E00E94F31EB0929506A0929406C2
:1057A000B0929306A0929206A6E1EA2EF12CF09216
:1057B0009706E092960668E771E088E896E00E9416
:1057C000F31EB0929506A0929406B0929306A09212
:1057D00092068BE190E0909397068093960667E996
:1057E00071E088E896E00E94F31EB0929506A092C0
:1057F0009406B0929306A0929206B0E2EB2EF12CA2
:10580000F0929706E092960669EA71E088E896E0E1
:105810000E94F31EB0929506A0929406B092930651
:10582000A092920615E2612E712C709297066092FA
:1058300096066CE871E088E896E00E94F31E0AE79D
:1058400010E010939506009394061093930600932E
:10585000920684E1C82ED12CD0929706C09296066B
:1058600060EA71E088E896E00E94F31E10939506C6
:1058700000939406109393060093920629E130E07A
:10588000309397062093960662EA71E088E896E0E6
:105890000E94F31E109395060093940610939306AE
:1058A000009392068EE190E090939706809396067F
:1058B0006EE971E088E896E00E94F31E1093950669
:1058C00000939406109393060093920683E290E06F
:1058D000909397068093960669EA71E088E896E0CF
:1058E0000E94F31E1093950600939406109393065E
:1058F0000093920688E290E0909397068093960634
:105900006CEC71E088E896E00E94F31E8DE190E077
:1059100090939506809394069093930680939206B5
:10592000909297068092960664EA71E088E896E085
:105930000E94F31E50929506409294065092930650
:105940004092920690929706809296066BEA71E0DA
:1059500088E896E00E94F31E709295066092940685
:1059600070929306609292068EE090E09093970674
:105970008093960661EB71E088E896E00E94F31E42
:10598000809106014FE262E170E0811155C088E22A
:1059900090E00E9453194FE162E170E088E290E0EC
:1059A0000E9448184FE261E370E088E290E00E94B4
:1059B00053194FE162E170E087E590E00E944818DA
:1059C00046E067E170E08AE290E00E94481846E015
:1059D00067E270E085E590E00E94481841E060E2EF
:1059E00070E08FE390E00E94711884E390E0909360
:1059F0009506809394069093930680939206D09296
:105A00009706C09296066DEB71E088E896E00E94DA
:105A1000F31E87E390E0909395068093940690930D
:105A20009306809392068BE290E090939706809382
:105A3000960663EC71E029C088E290E00E94531959
:105A40004FE162E170E088E290E00E9448184FE286
:105A500061E370E088E290E00E9453194FE162E157
:105A600070E087E590E00E94481884E390E090930E
:105A70009506809394069093930680939206F092F5
:105A80009706E092960668EC71E088E896E00E943E
:105A9000F31E0E94721283FF1CC06EE971E0CE01FA
:105AA00001960E942F1CCE0101960E94770A182FA2
:105AB00081111091EC01CE0101960E94131B11235C
:105AC00041F09091F50181E089278093F5011092D2
:105AD000EC018091F5018823A9F082E690E0909393
