:100000000C9484070C94AC070C94AC070C94AC07CC
:100010000C94AC070C94AC070C94AC070C94AC0794
:100020000C94AC070C94AC070C94AC140C941E15F7
:100030000C94AC070C94AC070C94AC070C94AC0774
:100040000C94AC070C948C0E0C94AC070C94AC077D
:100050000C94AC070C94AC070C94AC070C940C0EED
:100060000C94AC070C94AC070C94AC070C94AC0744
:100070000C94AC070C94AC070C94AC070C94AC0734
:100080000C94C80F0C94AC070C94AC070C94AC0700
:100090000C94AC070C94AC070C94AC070C94AC0714
:1000A0000C94AC070C94AC070C94AC07520D550D96
:1000B000440D480D4C0D760D760D760D590D5D0DE8
:1000C000610D670D6B0D760D710D000000002400B1
:1000D00027002A002D003000D5F08D14A1C881CF53
:1000E000D9F1AF20000408020110408040102040E8
:1000F000804080080204018040201002011080101E
:100100002040402000000000250028002B002E0089
:10011000310004040404040304050202020204037F
:100120000202020206060606060604040202020491
:10013000041402130212021502070208020A020A3C
:10014000010B020B010902090104010C0106010067
:10015000029A903E00A6904000A6904200A69040D1
:1001600000A6904300A6904200A6904000A6903EB4
:1001700000A6904500A6904300A6904200A690409D
:1001800000A69132904200A69134903E00A691368E
:10019000904500A6913400A69047913700A691366D
:1001A00000A69049913400379047003790490037B6
:1001B0009132904A00A6913990490053904A0053D9
:1001C0009137904900A691369047005390450053CF
:1001D0009134007D8000299049913600A6904A9183
:1001E0003200A6904C913900A6904900A6912D901E
:1001F0004E00A6904A00A69139904900A69047006B
:100200008A81001B9139904C00A6904900A6912D3F
:10021000904A00A6904700A69139904500A69044C8
:10022000008A81001B9139904C00A6904900A6914C
:100230002D904E00A6904A00A69139904900A690B4
:1002400047008A81001B9139904C00A6904900A676
:10025000912D904A00A6904700A69139904500A69E
:100260009044008A81001B9139904900A690470074
:10027000A6913B904A00A6904900A6913D90470068
:10028000A6904500A6913E904E00A6913D00A690F6
:1002900044914000A6913E00A69045913D00A69154
:1002A0003B00A6913D001B80001B90470037904506
:1002B0000037913E90440037904500379047001B2F
:1002C00080001B90479140014D913400A69045005D
:1002D000A69139904500A6913400A6913600A691CA
:1002E0003800A691398000A6913B00A6913D00A65A
:1002F000913B00A6904C913E00A6913D00A69051E6
:10030000913B00A6913900A6914000A6904700A617
:100310009134904900A6904B00A6904C8100A69085
:100320004E00A6904F00A6904E00A6913B90510023
:10033000A6904F00A69140904E00A6904C00A6902B
:100340005300A6913600A69047913800A6913A0036
:10035000A6913B8000A6913D00A6913E00A6913D4E
:1003600000A69042914000A6913E00A69047913D84
:1003700000A6913B00A6914200A6904600A69136A9
:10038000904700A6904900A69140904A00A6904C44
:1003900000A6913E904E00A6904C00A69147904F2B
:1003A00000A69146904E00A69147904C00A6904A18
:1003B00000A6913D904C00A6904A00A69146904E12
:1003C00000A69144904C00A69146904A00A6904900
:1003D00000A69147904A00A69145904900A69143F6
:1003E000904C00A69142904A00A69140904900A6E8
:1003F000913E904700A69140904900A6913E00A6EC
:10040000904691420053904400539140904600A67C
:10041000913E904700A6913D00A6913E00A69049CE
:100420009140008A80001B904991420053904A00FD
:1004300053904900A6913600A6904700A6913B0034
:10044000A6904200A69136904400A6904600A69140
:1004500032904700A6904900A6912F904A00A6909E
:100460004900A6904C00A6904A00A690498100A69B
:10047000904700A6904F00A6912F00A6913100A6AC
:10048000913300A6913400A6913600A6913700A6BC
:10049000913600A6913900A6913700A6913600A6A4
:1004A000913400A69139008A80001B904000A690EC
:1004B0004200A6904400A6904500A6904700A69052
:1004C0004900A6904700A6904A00A6904900A69031
:1004D0004700A6904500A6904E008A81001B912DF2
:1004E00000A6912F00A6913100A6913200A691346A
:1004F00000A6913600A6913400A6913700A6913649
:1005000000A6913400A6913200A69138008A80009E
:100510001B904700A6904C00A69134904A00A691EB
:1005200036904900A69138904700A691399049002D
:10053000A69138904700A69136904A00A691349033
:100540004900A69132904700A69136904500A691A9
:100550003490440053904500539132904400A6914A
:1005600031904000A6912F00A69045913100A690B1
:1005700047912D00A69049913900A6904700A69179
:1005800036904A00A6904900A69131904700A69067
:100590004500A69132904E00A6913100A6913400FC
:1005A000A69044913200A69045913100A6904491C6
:1005B0002F00A69045913100A6904A913200A69056
:1005C000479134014D912800A69045008A80001B78
:1005D0009045912D00A6913100A6913200A6904938
:1005E000913400A6904A913600A6904C913700A60F
:1005F0009042913900A6913700A69043913B00A606
:10060000913900A690479137005390450053913699
:1006100090430053904500539137904700A6913680
:1006200000A6904A91390053904900539137904762
:100630000053904900539136904A00A6913400A689
:10064000913600A69049913400A6904C913700A6AF
:10065000904A913600A69049913400A6904A913272
:1006600000A6904C913900A6904A00A6912D904981
:1006700000A6904700A690458100A6904300A69052
:100680004200A6904000A6904300A6904200A6908B
:100690004000A6903E00A6904500A6904300A6907C
:1006A0004200A6904000A69132904200A69134905C
:1006B0003E00A69136904500A6913400A690479141
:1006C0003700A6913600A690499134003790470034
:1006D00037904900379132904A00A69139904900ED
:1006E00053904A00539137904900A69136904700A5
:1006F00053904500539134007D800029904A9136F3
:1007000000A69132008A80001B904A913900A69180
:100710003600A6903E913B00A6913700A6904A91E4
:100720003600A69134008A80001B904A913900A6B9
:10073000913600A6903E913700A6913400A6904ACB
:10074000913200A69131008A80001B904A913900B5
:10075000A6913600A6903E913B00A6913700A69048
:100760004A913600A69134008A80001B904A913944
:1007700000A6913600A6903E913700A6913400A6BF
:10078000904A913200A6904C913100A6904E913241
:1007900000A6904C00A69134904F00A6904E00A663
:1007A0009136904C00A6904A00A69137905300A62F
:1007B000913600A69049913900A6913700A6904A3B
:1007C000913600A6913400A69136001B80001B9044
:1007D0004C0037904A0037913790490037904A00D3
:1007E00037904C002980000D904C9139014D912D8E
:1007F00000A6904A008A80001B904A912F00A69183
:100800002D00A6903E913000A6912F00A690439116
:100810002D00A6912B00A6913200A6903900A6903B
:100820003B00A6903D00A6903E00A6904000A690FA
:1008300042008A81001B9131904000A6912F904385
:1008400000A6912D904200A6912B904000A6912ADF
:10085000903E00A6912B904700A6912A00A6912DCC
:1008600000A6903D912B00A6903E912A00A6903DB7
:10087000912800A6903E912A00A69043912B00A6B5
:100880009040912D01F4903E008A80001B903E9193
:100890002607D08081F006011501260137014A01A3
:1008A0005D01720188019F01B801D201EE010B02C6
:1008B0002A024B026E029302BA02E40210033F03C3
:1008C0007003A403DC03170455049704DD04270513
:1008D0007505C80520067D06E0064907B8072D08FE
:1008E000A9082D09B9094D0AEA0A900B400CFA0C27
:1008F000C00D910E6F0F5A1053115B1272139A14A0
:10090000D41520178018F519801B231DDE1EB42076
:10091000A622B524E4263429A72B402E0031EA3341
:100920000037453ABC3D68414C456B49C84D68525B
:100930004F57805C006210111213151617181A1CFD
:100940001D1F21232527292C2E3134373A3E4145BE
:10095000494E52575C62686E757B838B939CA5AF42
:10096000B9C4D0DCE9F700000000003E5B4F5B3EFD
:100970003E6B4F6B3E1C3E7C3E1C183C7E3C181C64
:10098000577D571C1C5E7F5E1C00183C1800FFE75B
:10099000C3E7FF0018241800FFE7DBE7FF30483A01
:1009A000060E2629792926407F050507407F052563
:1009B0003F5A3CE73C5A7F3E1C1C08081C1C3E7FEB
:1009C00014227F22145F5F005F5F06097F017F00B2
:1009D0006689956A606060606094A2FFA2940804D2
:1009E0007E040810207E201008082A1C08081C2AF3
:1009F00008081E101010100C1E0C1E0C30383E384B
:100A000030060E3E0E06000000000000005F0000F1
:100A10000007000700147F147F14242A7F2A122362
:100A20001308646236495620500008070300001C72
:100A30002241000041221C002A1C7F1C2A08083E7B
:100A4000080800807030000808080808000060608E
:100A50000020100804023E5149453E00427F4000FC
:100A600072494949462141494D331814127F1027D4
:100A7000454545393C4A4949314121110907364923
:100A8000494936464949291E0000140000004034F7
:100A900000000008142241141414141400412214FC
:100AA0000802015909063E415D594E7C1211127C23
:100AB0007F494949363E414141227F4141413E7F84
:100AC000494949417F090909013E414151737F0864
:100AD00008087F00417F41002040413F017F08140A
:100AE00022417F404040407F021C027F7F0408106B
:100AF0007F3E4141413E7F090909063E4151215E49
:100B00007F09192946264949493203017F01033FDC
:100B10004040403F1F2040201F3F4038403F63146B
:100B200008146303047804036159494D43007F416D
:100B300041410204081020004141417F04020102AA
:100B400004404040404000030708002054547840CF
:100B50007F284444383844444428384444287F3863
:100B60005454541800087E090218A4A49C787F08E5
:100B700004047800447D40002040403D007F102860
:100B8000440000417F40007C047804787C08040421
:100B9000783844444438FC1824241818242418FCB9
:100BA0007C08040408485454542404043F44243C5E
:100BB0004040207C1C2040201C3C4030403C4428CD
:100BC0001028444C9090907C4464544C4400083667
:100BD00041000000770000004136080002010204D5
:100BE000023C2623263C1EA1A161123A4040207AF5
:100BF000385454555921555579412154547841213F
:100C00005554784020545579400C1E527212395573
:100C10005555593954545459395554545800004570
:100C20007C410002457D420001457C40F029242999
:100C3000F0F0282528F07C545545002054547C546D
:100C40007C0A097F493249494932324848483232A0
:100C50004A4848303A4141217A3A42402078009D42
:100C6000A0A07D39444444393D4040403D3C24FFF0
:100C70002424487E4943662B2FFC2F2BFF0929F69D
:100C800020C0887E090320545479410000447D41EE
:100C90003048484A32384040227A007A0A0A727D47
:100CA0000D19317D2629292F282629292926304862
:100CB0004D4020380808080808080808382F10C8D0
:100CC000ACBA2F102834FA00007B000008142A1454
:100CD0002222142A14089500220095AA005500AA81
:100CE000AA55AA55AA000000FF00101010FF00141A
:100CF0001414FF001010FF00FF1010F010F0141477
:100D000014FC001414F700FF0000FF00FF1414F49B
:100D100004FC141417101F10101F101F1414141F9C
:100D200000101010F0000000001F101010101F1015
:100D3000101010F010000000FF1010101010101014
:100D40001010FF10000000FF140000FF00FF000063
:100D50001F10170000FC04F414141710171414F4D7
:100D600004F40000FF00F714141414141414F70012
:100D7000F7141414171410101F101F141414F41463
:100D80001010F010F000001F101F0000001F1400D2
:100D90000000FC140000F010F01010FF10FF1414FD
:100DA00014FF141010101F00000000F010FFFFFFD0
:100DB000FFFFF0F0F0F0F0FFFFFF0000000000FF89
:100DC000FF0F0F0F0F0F38444438447C2A2A3E147B
:100DD0007E02020606027E027E02635549416338A6
:100DE00044443C04407E201E2006027E020299A557
:100DF000E7A5991C2A492A1C4C7201724C304A4DB5
:100E00004D303048784830BC625A463D3E494949E9
:100E1000007E0101017E2A2A2A2A2A44445F444492
:100E200040514A444040444A51400000FF0103E021
:100E300080FF000008086B6B083612362436060F58
:100E4000090F06000018180000001010003040FFC5
:100E50000101001F01011E00191D1712003C3C3C3E
:100E60003C00000000000000000200090F00000329
:100E70000401000C00000000000000000000000061
:100E80000000000000080B0002020201000904003B
:100E900000010202000005240010010524010101E7
:100EA0000424020605240600010705810310004002
:100EB00009040100020A00000007050202400000C8
:100EC0000705830240000004030904417264756948
:100ED0006E6F204C4C430041726475626F79001252
:100EE000010002000000404123368000010102039E
:100EF0000112010002EF020140412336800001018E
:100F000002030100AA1F861F11241FBECFEFDAE0E3
:100F1000DEBFCDBF12E0A0E0B1E0E8E1F6E402C040
:100F200005900D92A034B107D9F727E0A0E4B2E014
:100F300001C01D92AC35B207E1F717E0C3E8D7E076
:100F400004C02197FE010E942020C238D107C9F7B2
:100F50000E945B170C94FF220C94000081E08093A8
:100F600047028093010141E061E00C94730ECF933E
:100F7000DF93EC016FE272E00E949B128823B1F0D4
:100F80000E94560E82FD75C00E94560E87FD71C0EC
:100F90000E94560E84FD6DC00E94560E85FD69C0EC
:100FA0000E94560E86FD65C081E064C061E372E078
:100FB000CE010E949B12882329F00E94560E83FDC9
:100FC00058C0E2CF68EB71E0CE010E949B128823EB
:100FD00049F00E94560E82FD4CC00E94560E83FDC1
:100FE00048C0D6CF69E571E0CE010E949B128823EC
:100FF00069F00E94560E82FD3CC00E94560E87FD8D
:1010000038C00E94560E83FD34C0C6CF6EE471E036
:10101000CE010E949B12882389F00E94560E82FD09
:1010200028C00E94560E87FD24C00E94560E84FDE3
:1010300020C00E94560E83FD1CC0B2CF63E571E054
:10104000CE010E949B128823A1F00E94560E82FDC1
:1010500010C00E94560E87FD0CC00E94560E84FDE3
:1010600008C00E94560E85FD04C00E94560E83FFE4
:101070009BCF80E0DF91CF9108950E94560E83FDB3
:1010800016C00E94560E82FD12C00E94560E87FDA9
:101090000EC00E94560E84FD0AC00E94560E85FDA9
:1010A00006C00E94560E86FD02C081E0089580E0D1
:1010B00008956F927F928F929F92AF92BF92CF923C
:1010C000DF92EF920F93CF93DF9300D000D000D048
:1010D000CDB7DEB76C015B014A0139016A30710599
:1010E00018F463E372E002C067EB71E082EC96E013
:1010F0000E9464138AE08816910418F463E372E096
:1011000002C067EB71E08CEB96E00E9464138AE00A
:10111000681671041CF465E372E002C067EB71E0CD
:1011200086EB96E00E94641380910001882389F089
:10113000E1100FC0002351F080910201882319F0C3
:101140006DE372E008C067E372E005C080910301BF
:10115000F5CF67EB71E08AEA96E00E94641366EBD4
:1011600076E0CE0101960E947D14B301CE01019676
:101170000E94FA1268EC76E00E9430136CEB76E085
:101180000E943013B4010E94FA1268EC76E00E94CB
:10119000301362EC76E00E943013B5010E94FA121F
:1011A0006AEA76E00E943013BC01C6010E947D14F9
:1011B000CE0101960E947B13C60126960FB6F894C5
:1011C000DEBF0FBECDBFDF91CF910F91EF90DF90CB
:1011D000CF90BF90AF909F908F907F906F90089529
:1011E000882359F080910201882319F0109202019E
:1011F000089581E08093020108958091030188237E
:1012000019F010920301089581E08093030108957D
:10121000962F8823D9F020917602309177022F5FA4
:101220003F4F3093770220937602411123C0862FDF
:1012300090910001992371F02D303105C4F081E0C7
:1012400090E0909377028093760214C0642F892FE8
:101250000C94B4102C30310539F02831310551F49B
:1012600010927702109276020E94F00803C02C3090
:101270003105D1F380E090E00895962F209174021B
:1012800030917502882379F02F5F3F4F2C33310561
:1012900074F01092750210927402411103C081E043
:1012A0000C94080908952150310937FD05C0309389
:1012B000750220937402089541110AC02BE330E0B7
:1012C000309375022093740260E0892F0C94B4105F
:1012D0008BE390E090937502809374020895EF92EF
:1012E000FF920F93CF937C01C22F90937302809350
:1012F0007202709375026093740250937702409368
:10130000760201116BC00E94560E86FF36C00E9405
:10131000560E87FF32C080910001882371F10E9430
:10132000560E83FD2AC00E94560E82FD26C00E94E2
:10133000560E85FD22C00E94560E84FD1EC01092DE
:10134000000180917602909177028C30910509F02E
:101350007CC0C11155C080910401909105010C978A
:1013600009F458C0C11160C080910301882309F4B9
:101370005BC010927702109276020E94560E85FF93
:101380002DC00E94560E84FF29C08091000181115A
:1013900025C00E94560E83FD21C00E94560E82FD7C
:1013A0001DC00E94560E86FD19C00E94560E87FD74
:1013B00015C081E0809300018091760290917702C0
:1013C0008D3091050CF081C0009709F0A6C0809186
:1013D000760290917702892B09F4BBC00E94560EC9
:1013E00083FFEEC00E94560E87FFEAC00E94560E91
:1013F00082FDE6C0402F6C2F81E00E9408094DC19C
:1014000080910201882309F4A6CF109277021092EE
:1014100076020AC080910201882309F4A3CF1092BA
:101420000501109204019ECF809106019091070161
:101430000C9709F0A2CF80910301882309F49DCF76
:10144000109207011092060198CF5091020140912D
:101450000301CC2341F0511106C00C969093770202
:101460008093760220C020910401309105012C3038
:10147000310549F051110DC0245F3F4F30930501F4
:101480002093040106C0552321F01092050110920B
:101490000401C11108C0411106C00C969093770257
:1014A000809376026ACF80910601909107018C307B
:1014B000910541F0411161CF0C9690930701809303
:1014C00006015BCF4111BCCF58CF0C97CC23A1F0C4
:1014D0009093770280937602109202018091060128
:1014E000909107018D3091050CF471CF0C9790937A
:1014F00007018093060161C020910401309105012C
:101500002D3031050CF455C02C50310930930501B4
:1015100020930401109202014CC00C9709F457CF9C
:10152000CC2351F081E080930201809106019091DB
:101530000701892B51F44BCF809104019091050153
:10154000892B19F081E08093020181E080930301EF
:101550003ECFCC23A9F02CE030E0309377022093EB
:10156000760281E0809302014091060150910701CB
:10157000452B09F033CF309307012093060116C0A5
:101580008091040190910501892B49F48CE090E051
:10159000909305018093040181E0809302018CE027
:1015A00090E0909377028093760281E0809303012C
:1015B00015CF90937702809376021092030107CFA4
:1015C0000E94560E83FF0DC00E94560E84FF09C074
:1015D0000E94560E82FD05C0602F8C2F0E94B41011
:1015E0005CC00E94560E82FF0EC00E94560E87FFFE
:1015F0000AC00E94560E83FD06C0402F6C2F81E06A
:101600000E943D094AC00E94560E82FF0CC00E94F3
:10161000560E84FF08C00E94560E83FD04C0402F62
:101620006C2F80E0EDCF0E94560E83FF17C00E9402
:10163000560E82FF13C00E94560E87FF0FC08FEF19
:10164000E81AF80A8CE3E816F1041CF11092730210
:1016500010927202011121C040E0D0CF0E94560EBC
:1016600083FF1BC00E94560E82FF17C00E94560EB9
:1016700084FF13C081E0E81AF108F7FE0AC08BE38B
:1016800090E09093730280937202011106C040E0D3
:10169000C7CFF0927302E092720280917202909131
:1016A000730290936D0280936C028091740290910A
:1016B000750290936F0280936E02809176029091F2
:1016C000770290937102809370028CE692E0CF9142
:1016D0000F91FF90EF9008953FB7F8948091940296
:1016E00090919502A0919602B091970226B5A89B81
:1016F00005C02F3F19F00196A11DB11D3FBFBA2FA4
:10170000A92F982F8827820F911DA11DB11DBC0103
:10171000CD0142E0660F771F881F991F4A95D1F7C8
:1017200008958091400208952F923F924F925F92C8
:101730006F927F928F929F92AF92BF92CF92DF92E1
:10174000EF92FF920F931F93CF93DF9300D000D0BF
:1017500000D0CDB7DEB7DC016A30A9F45C962C91DD
:101760005C9758968D919C91599708E0209F800D29
:10177000911D112459969C938E93589757961C92BD
:101780001E925697D1C06D3009F4CEC05C96BC90C5
:101790005C975B962C905B975A963C905A9758961C
:1017A0002D913C9159973C832B8356968D919C911A
:1017B000579780389105C4F05C962C915C97422F26
:1017C00050E056968D919C91579736E0239F800D5F
:1017D000911D112457969C938E9356975D962C914C
:1017E0005D9721118EC0A0C00B811C8100341105B2
:1017F0001CF79C0115E0B19E200D311D112412161D
:101800001306D4F68B2C912C2B813C8148E0B49E9E
:10181000200D311D11241216130674F6E5E06E9F9B
:101820002001112460E070E06530710539F0FB01A2
:10183000E40DF51DEA59F64FA49001C0A12CEB80F0
:10184000FC8008E0702EA0FC02C0622C01C0632C5A
:10185000611009C0231007C0A6947A94E80CF91C03
:101860007110F1CF45C09C01422F481B4B15A0F7CA
:10187000A701E42FF42FFE19FB15B8F52038310528
:1018800088F54034510570F5E695E695E695CE2E3F
:10189000D12C8A01077011271A830983F601F69566
:1018A000FE2FEE27F795E795E20FF31F8F01045601
:1018B0001D4F1E830D83E1E0F0E0098002C0EE0FB2
:1018C000FF1F0A94E2F7FA83E983662029F0F80102
:1018D000D080C980CD2805C0CE2EC094F801D0801C
:1018E000CD20C0824F5F5F4FC4CF2F5F3F4FBCCF33
:1018F0006F5F7F4F880D991D6630710509F094CF99
:101900005BCF6AEF64039001659F300D112420586E
:101910003F4F2817390744F4CD01ED91FC91019018
:10192000F081E02D6AE0099581E090E026960FB6FF
:10193000F894DEBF0FBECDBFDF91CF911F910F9105
:10194000FF90EF90DF90CF90BF90AF909F908F90DF
:101950007F906F905F904F903F902F9008950895E3
:10196000CF92DF92EF92FF921F93CF93DF93E82FF6
:10197000F0E0ED5DFE4F1081E62FF0E0603330F4D3
:10198000EA5CF64FE491CE2FD0E006C0EE0FFF1FC9
:10199000EA5CF74FC591D4916E01E12CF12C60E027
:1019A00074E284EF90E0A70196010E947822DA01A8
:1019B000C9010197A109B109009721E0A207B1056A
:1019C00078F060E970ED83E090E0A70196010E9455
:1019D0007822DA01C9010197A109B10923E001C008
:1019E00021E01130C9F0133051F530919100387F6A
:1019F000232B209391009093990080939800D0938B
:101A00008D02C0938C0281E080938B0280917100E3
:101A100082608093710013C030918E0231110FC02B
:101A200030918100387F232B20938100909389008F
:101A30008093880080916F00826080936F00DF91B7
:101A4000CF911F91FF90EF90DF90CF900895362FA8
:101A500090E0FC01EA59F14F4491FC01EB51FF4F3A
:101A60002491FC01EE5EFE4F8491882309F451C05D
:101A70004423E1F150E0FA013197EF30F105B0F580
:101A8000EA5AFF4F0C942020909180009F7707C066
:101A9000909180009F7D03C090918000977F9093EC
:101AA000800024C094B59F7702C094B59F7D94BDFB
:101AB0001DC0909190009F7707C0909190009F7DEE
:101AC00003C090919000977F909390000FC09091E9
:101AD000C0009F7703C09091C0009F7D9093C0008D
:101AE00005C09091C200977F9093C200E82FF0E06C
:101AF000EE0FFF1FEC5FFE4FA591B4918FB7F894E6
:101B0000EC91311103C020952E2301C02E2B2C9374
:101B10008FBF0895CF93DF9390E0FC01EB51FF4F0F
:101B20002491FC01EE5EFE4F8491882361F190E0E8
:101B3000880F991FFC01E653FF4FC591D491FC011A
:101B4000EC5FFE4FA591B491611109C09FB7F89465
:101B50008881209582238883EC912E230BC06230EC
:101B600061F49FB7F8943881822F8095832388830E
:101B7000EC912E2B2C939FBF06C08FB7F894E88171
:101B80002E2B28838FBFDF91CF9108958F929F9244
:101B9000AF92BF92CF92DF92EF92FF926B017C01E6
:101BA0000E946C0B4B015C01C114D104E104F104EF
:101BB000F1F00E946C0BDC01CB0188199909AA098C
:101BC000BB09883E9340A105B10570F321E0C21A1C
:101BD000D108E108F10888EE880E83E0981EA11C68
:101BE000B11CC114D104E104F10419F7DDCFFF9059
:101BF000EF90DF90CF90BF90AF909F908F9008951F
:101C00002FB7F894609190027091910280919202A6
:101C1000909193022FBF08951F920F920FB60F92CB
:101C200011242F933F938F939F93AF93BF938091F2
:101C3000900290919102A0919202B0919302309102
:101C40008F0223E0230F2D3720F40196A11DB11D33
:101C500005C026E8230F0296A11DB11D20938F0217
:101C60008093900290939102A0939202B09393027A
:101C70008091940290919502A0919602B091970262
:101C80000196A11DB11D8093940290939502A0939B
:101C90009602B0939702BF91AF919F918F913F9120
:101CA0002F910F900FBE0F901F9018958FB12CB1F0
:101CB00093B130E02095309520743327A90123E0BB
:101CC000559547952A95E1F7292F30E020953095D5
:101CD000207133273595279535952795242B8095A9
:101CE000807F822B08951F93CF93DF931F92CDB7F0
:101CF000DEB7162F682F8AE049830E94270D612FD7
:101D00008BE00E94270D4981642F89E00F90DF91BD
:101D1000CF911F910C94270D1F920F920FB60F9227
:101D200011242F933F938F939F93AF93BF93EF9380
:101D3000FF9380918E02882309F44FC080917E0228
:101D400090917F02A0918002B0918102892B8A2B11
:101D50008B2B51F180917D02E0917B02F0917C020E
:101D600090818927808380917E0290917F02A0914B
:101D70008002B0918102181619061A061B06D4F5C6
:101D800080917E0290917F02A0918002B0918102A9
:101D90000197A109B10980937E0290937F02A093DD
:101DA0008002B093810226C010928A0210928E02A5
:101DB00080916F008D7F80936F0090917D02E09104
:101DC0007B02F0917C028081282F30E0892F90E007
:101DD00080959095822393230CC080918902811174
:101DE00009C080917D02E0917B02F0917C0290819C
:101DF00089278083FF91EF91BF91AF919F918F9140
:101E00003F912F910F900FBE0F901F901895E82FC4
:101E1000F0E0ED5DFE4F8081813019F0833089F074
:101E2000089580918E02811122C080916F008D7F74
:101E300080936F0090917D02E0917B02F0917C0293
:101E40000CC010928B0280918A02811110C0909177
:101E50008802E0918602F09187028081282F30E08D
:101E6000892F90E080959095822393238083089515
:101E7000CF93DF93D1E0E0914102F09142029F01C4
:101E80002F5F3F4F30934202209341028491982F5D
:101E9000907FC82FCF70903821F48C2F0E94070FAD
:101EA000EACF9039F9F4E0919C06F0919D060995EE
:101EB0008D2780938902E0914102F0914202CF0187
:101EC0000196909342028093410264918091460270
:101ED000C81788F6C13009F052C080917A0281118A
:101EE000CACF4DC097FD3AC03296F0934202E093BC
:101EF0004102F901249130E0382BA0918C02B0917D
:101F00008D020E94F0226C507E4F8F4F9F4F28EE23
:101F100033E040E050E00E94CE22209382023093D2
:101F200083024093840250938502809182029091B3
:101F30008302A0918402B0918502892B8A2B8B2B7E
:101F400021F581E090E0A0E0B0E0809382029093E0
:101F50008302A0938402B093850217C0903E49F497
:101F600080914302909144029093420280934102F7
:101F700082CF903F09F07FCF1092450206C067FDE7
:101F80007ACF8C2F0E94B00C76CFDF91CF9108953D
:101F90001F920F920FB60F9211242F933F934F93DE
:101FA0005F936F937F938F939F93AF93BF93EF93C1
:101FB000FF9380918B02882341F080918A028111E6
:101FC00004C080918902882351F1809145028823C1
:101FD00081F18091820290918302A0918402B0915C
:101FE0008502892B8A2B8B2B21F180918202909183
:101FF0008302A0918402B09185020197A109B109E1
:102000008093820290938302A0938402B09385020E
:10201000892B8A2B8B2B69F40E94380F0AC0809180
:102020008802E0918602F09187029081892780835F
:10203000CCCFFF91EF91BF91AF919F918F917F9105
:102040006F915F914F913F912F910F900FBE0F9025
:102050001F901895CF93DF9390914602923009F428
:1020600080C0292F30E0F901ED5DFE4FD081F901EC
:10207000E858FD4F8083913031F420917802281385
:1020800002C090937A02C82F9F5F9093460261E04E
:102090000E948A0DD13019F0D33061F162C0809175
:1020A0006400877F8093640010928000109281000A
:1020B000809181008860809381008091810081609F
:1020C000809381008C2F90E0FC01EE5EFE4FE49146
:1020D000F0E0EE0FFF1FEC5FFE4F2591349130933F
:1020E0007C0220937B02FC01EB51FF4F8491809393
:1020F0007D0237C080916500877F809365001092D4
:1021000090001092910080919100886080939100DE
:10211000809191008160809391008C2F90E0FC0170
:10212000EE5EFE4FE491F0E0EE0FFF1FEC5FFE4F1E
:10213000259134913093870220938602FC01EB5164
:10214000FF4F84918093880280914602882321F07A
:102150006CE380E00E94B00C80E0DF91CF910C94A2
:10216000070FDF91CF910895209176023091770289
:1021700021503109309377022093760261110EC00D
:1021800090910001992389F012161306E4F08CE077
:1021900090E0909377028093760218C037FF16C0C4
:1021A000109277021092760211C02B30310541F067
:1021B00037FF0CC027E130E030937702209376029E
:1021C0000E94F00803C02B303105D1F380E090E08D
:1021D0000895FC0180919B02811103C08FEF9FEF56
:1021E00008959FB7F89482E08093E9002091F2006F
:1021F00030E01216130614F421E030E02115310509
:1022000059F0289884E680939A028091F1008083A7
:102210008091F200882319F09FBFC90108958BE6D1
:102220008093E800F9CFCF93DF931F92CDB7DEB74D
:102230006983DC01ED91FC910280F381E02D41E0A6
:1022400050E0BE016F5F7F4F09950F90DF91CF91F6
:10225000089583E08093E9008091F200882319F0CB
:102260008AE38093E8000895CF93DF931F92CDB760
:10227000DEB7FC018485958597FD05C02FEF3FEF04
:10228000358724870BC0CE0101960E94E910019783
:1022900019F4898190E002C08FEF9FEF0F90DF91DA
:1022A000CF9108950F931F93CF93DF931F92CDB7D4
:1022B000DEB78C01FC018485958597FF0EC0CE01A9
:1022C00001960E94E910019719F4298130E002C0BB
:1022D0002FEF3FEFF80135872487F8018485958536
:1022E0000F90DF91CF911F910F910895FC0184858C
:1022F000958597FD0BC09FB7F89482E08093E90025
:102300008091F2009FBF90E0019608959FB7F894E6
:1023100082E08093E9008091F2009FBF90E00895F1
:102320008F929F92AF92BF92CF92DF92EF92FF92E5
:102330000F931F93CF93DF935C016B018A01809110
:102340001401882309F45EC080919B02882309F45C
:1023500059C08091990280FF05C08091E0008260A1
:102360008093E000E8018AEFF82E93E0E92E2FE356
:10237000822E3AE3932E209709F43DC08FB7F8944C
:10238000E092E9009091E80095FF06C09091F2007C
:10239000282D291B922F01C090E08FBF91110AC0F8
:1023A000FA94FF2079F161E070E080E090E00E9413
:1023B000C60DE1CF292F30E0C217D3070CF49C2FB4
:1023C0008FB7F894E092E9002091E80025FF11C052
:1023D000292F30E0C21BD30BF601915020F0419120
:1023E0004093F100FACFC20ED31E9091E80095FF02
:1023F00013C08FBFC0CF5D9884E6809398021016FB
:10240000110644F081E090E0F5019383828380E03F
:1024100090E005C0C80103C09092E800EACFDF91C8
:10242000CF911F910F91FF90EF90DF90CF90BF90D1
:10243000AF909F908F9008950E941D220F931F933D
:10244000CF93DF93EC0188819981009729F02A814D
:102450003B812617370788F48B016F5F7F4F0E94FF
:102460005321009761F0998388831B830A832C8111
:102470003D81232B11F4FC01108281E001C080E03A
:10248000DF91CF911F910F91089520E08CE992E0A8
:10249000B22FB111BFEFFC010024B193B193B193FE
:1024A000B1930394D1F7E7EDF6E0118E108E178A01
:1024B000168A089580919C028EBDEDE9F2E081912B
:1024C0000DB407FEFDCF8EBD86E0EC39F807B9F7F5
:1024D0000DB407FEFDCF0895FC0144815581608154
:1024E000718187ED96E00C942014009769F0FC014F
:1024F00001900020E9F73197AF01481B590BBC014F
:1025000087ED96E00C94201480E090E0089580918F
:10251000F90681110DC082E08093F50684E0809376
:10252000F6061092F8061092F70681E08093F906FD
:1025300085EF96E00895FC0124813581232B31F449
:1025400021E061157105A1F0FB0108C0FC0180814B
:1025500091816115710531F421E0FC0180818823AE
:1025600039F005C00E942B2221E0892B09F020E0E0
:10257000822F0895EF92FF920F931F93CF93DF93D3
:10258000FC01248135816115710511F480E019C0C9
:1025900041155105A9F07B01EC018A01020F131FBF
:1025A000B8010E941E12882389F3288139818C8109
:1025B0009D81B701820F931F0E9434221D830C83DB
:1025C00081E0DF91CF911F910F91FF90EF900895DF
:1025D000CF93DF93EC0188819981009711F00E94DD
:1025E000BB20198218821D821C821B821A82DF91F5
:1025F000CF910895EF92FF920F931F93CF93DF93A4
:10260000CDB7DEB728970FB6F894DEBF0FBECDBFAB
:102610007C01CB014AE08E010F5F1F4FB8010E9481
:102620003B22F80101900020E9F73197AF01401BF0
:10263000510BB801C7010E94BA12811103C0C70132
:102640000E94E812C70128960FB6F894DEBF0FBEAD
:10265000CDBFDF91CF911F910F91FF90EF90089523
:10266000CF93DF93EC01FB0144815581608171813F
:102670000E94BA12811103C0CE010E94E812CE015D
:10268000DF91CF910895EF92FF920F931F93CF9315
:10269000DF93EC017B018A01BA010E941E128111B5
:1026A00004C0CE010E94E81207C01D830C83B7014D
:1026B000888199810E943422CE01DF91CF911F91B0
:1026C0000F91FF90EF900895CF93DF93EC01611588
:1026D000710559F0FB0101900020E9F73197AF0136
:1026E000461B570B0E94431302C00E94E812CE0102
:1026F000DF91CF910895FC01808191810C94BB20E2
:1027000008954091560750915707209154073091F2
:10271000550742175307B4F49091E8009570E1F320
:102720009091E80092FD19C08093F10080915607C6
:102730009091570701968F739927892B19F48EEF83
:102740008093E800809156079091570701969093E7
:1027500057078093560781E0089580E00895CF924F
:10276000DF92EF92FF920F931F93CF93DF931F920D
:10277000CDB7DEB7182F062FE42E862F880F8E5F79
:1027800099830E94811383E00E948113F12EC12E50
:102790009981D92E8C2D8F19801798F4F601E7FEB8
:1027A00002C0849101C080810E948113182F80E0B3
:1027B0000E9481138123FFEFCF1ADF0A8111EACF34
:1027C00001C081E00F90DF91CF911F910F91FF9099
:1027D000EF90DF90CF900895DF92EF92FF920F93EA
:1027E0001F93CF93DF93D82E8A017B01E40EF51E51
:1027F000EB01CE15DF0571F0D7FE03C0FE01849119
:1028000001C088810E94811321968111F2CF8FEF40
:102810009FEF01C0C801DF91CF911F910F91FF90F1
:10282000EF90DF900895615030F02091F100FC01AD
:1028300020830196F8CF289884E680939A02089521
:10284000CF92DF92EF92FF920F931F93CF93DF937C
:102850006C017A018B01C0E0D0E0CE15DF0589F074
:10286000D8016D918D01D601ED91FC910190F0811F
:10287000E02DC6010995892B11F47E0102C0219635
:10288000ECCFC701DF91CF911F910F91FF90EF9097
:10289000DF90CF9008950F931F93CF93DF931F92F4
:1028A000CDB7DEB782E0898342E450E065E87EE0A0
:1028B00080E80E94EC130E948712DC0112960D91B1
:1028C0001C9113970115110569F0D801ED91FC9148
:1028D0000280F381E02DBE016F5F7F4FC801099533
:1028E00097FF07C089810F90DF91CF911F910F91C2
:1028F0000895F80100851185E5CFFB01DC011196F3
:102900001C921E9213961C921E92129715961C9260
:102910001E9214978617970749F06081718161159F
:10292000710521F0448155810C9443130895FC01F5
:102930001182108213821282158214826115710530
:1029400051F0FB0101900020E9F73197AF01461BE0
:10295000570B0C94431308951F920F920FB60F92CA
:1029600011248F939F938091E1009091E100937FD8
:102970009093E10083FF0FC01092E90091E09093E3
:10298000EB001092EC0092E39093ED0010929B020A
:1029900098E09093F00082FF20C093E09093E900CC
:1029A0009091F200992319F09AE39093E8009091A6
:1029B0009802992339F0909198029150909398023F
:1029C000992389F190919A02992339F090919A0272
:1029D000915090939A02992341F184FF10C0809105
:1029E000E2008E7E81608093E2008091E1008F7E24
:1029F0008093E100809199028E7E806111C080FFFA
:102A000016C08091E2008E7E80618093E20080910A
:102A1000E1008E7E8093E100809199028E7E81603C
:102A20008093990204C05D9ACDCF289AD6CF9F910A
:102A30008F910F900FBE0F901F9018951F920F92BD
:102A40000FB60F921124CF92DF92EF92FF920F9365
:102A50001F932F933F934F935F936F937F938F9326
:102A60009F93AF93BF93EF93FF93CF93DF93CDB734
:102A7000DEB76C97DEBFCDBF1092E9008091E80011
:102A800083FFFAC168E0CE0145960E94131482EFDD
:102A90008093E8008D8987FF05C09091E80090FF42
:102AA000FCCF03C09EEF9093E800982F907609F03A
:102AB000C6C09E892F89188D91110CC0803829F4C9
:102AC000809152078093F10002C01092F1001092A1
:102AD000F10047C1422F50E0512B913051F4811148
:102AE00040C14130510509F03CC1809152078D7FB2
:102AF0000BC0933061F4811134C14130510509F0AC
:102B000030C1809152078260809352072AC195306C
:102B100041F48091E80080FFFCCF20682093E3001F
:102B200020C1963009F05FC0EB8CFC8C1092E9005C
:102B30001092570710925607123091F510925507D0
:102B4000109254070E944B1499E0BE016F5F7F4FB3
:102B5000DB01E92F1D92EA95E9F799831A8391E049
:102B60009E8390EA98879AEF998720915607309133
:102B70005707275F3F4F3C832B838D831092E900DB
:102B80001092570710925607F0925507E09254079B
:102B900049E050E080E00E94EC130E944B14E1C039
:102BA000F0925507E09254070E948712DC011296BA
:102BB000ED90FC901397E114F10409F4C0C0D70123
:102BC000ED91FC910480F581E02DBE016B5E7F4F9D
:102BD000C7010995009719F00CF0C3C0C6C0F701F2
:102BE000E084F184E8CF973009F4BFC0983021F435
:102BF00081E08093F100B5C0993009F0B2C08370D4
:102C000009F0B3C0E8E4F1E081E021E036E390812F
:102C1000992361F08093E9002093EB0091919093C8
:102C2000EC003093ED008F5F873089F78EE780935B
:102C3000EA001092EA008F8980939B0292C08B8DEC
:102C40009C8D1092E90010925707109256079093AE
:102C5000550780935407898D811156C08E899D89AF
:102C6000913A59F4813209F080C047E050E06DE0BC
:102C700071E080E00E94EC1374C0913209F075C0DD
:102C8000833289F4888D90E0982F88272F89822BB2
:102C9000A0E0B0E08093150190931601A093170176
:102CA000B09318015EC0803269F48091E80082FF21
:102CB000FCCF67E08DE091E00E9413148BEF8093CE
:102CC000E80006C0823209F04CC08F89809314015D
:102CD00080915107882319F0EEEFFAE002C0E0E09E
:102CE000F8E080910D0190910E01A0910F01B0913B
:102CF0001001803B9440A105B10509F088C0809186
:102D0000140180FFA0C083C00E948712DC011296CC
:102D10000D911C9113970115110539F1D801ED9111
:102D2000FC910190F081E02DBE016B5E7F4FC801E8
:102D30000995811116C0F80100851185ECCF11307D
:102D4000C1F0133091F48F89882309F455C0823083
:102D5000E9F440E867E087ED9EE00E94AF13882326
:102D600021F08EEF8093E80087C081E28093EB0032
:102D700083C08B8D9C8D089711F41093530780911D
:102D80005307811136C06FED7EE038C0813029F4E1
:102D900040E86BE08BEC9EE0E0CF833031F70E949F
:102DA0008712DC011296ED90FC9013978E010F5F55
:102DB0001F4F6801E114F10479F0D701ED91FC9106
:102DC0000680F781E02DB801C7010995080F111D94
:102DD000F701E084F184EECFD8011C92F601019056
:102DE0000020E9F73197BF016C197D0940E0C60169
:102DF000B4CF61EF7EE002C067EC7EE06115710543
:102E000009F4B3CFFB01449150E080E833CF0FB613
:102E1000F894A8958091600088618093600010927A
:102E200060000FBEA895EE3F2AE0F20739F08091CE
:102E3000FE0A9091FF0A9183808393CF1092FF0A3C
:102E40001092FE0A8ECFEE3F8AE0F80731F08081C3
:102E500091819093FF0A8093FE0A87E797E7918319
:102E600080839BE088E10FB6F894A895809360007A
:102E70000FBE9093600075CF6C960FB6F894DEBFCE
:102E80000FBECDBFDF91CF91FF91EF91BF91AF9179
:102E90009F918F917F916F915F914F913F912F9172
:102EA0001F910F91FF90EF90DF90CF900F900FBE8A
:102EB0000F901F901895CF93DF93CDB7DEB7609733
:102EC0000FB6F894DEBF0FBECDBF789484B5826094
:102ED00084BD84B5816084BD85B5826085BD85B5BE
:102EE000816085BD80916E00816080936E0010923C
:102EF00081008091810082608093810080918100B7
:102F00008160809381008091800081608093800047
:102F10008091910082608093910080919100816006
:102F200080939100809190008160809390008091C7
:102F3000C10084608093C1008091C1008260809351
:102F4000C1008091C10081608093C1008091C30065
:102F500081608093C3008091C00082608093C00034
:102F60008091C20081608093C20080917A00846069
:102F700080937A0080917A00826080937A008091B9
:102F80007A00816080937A0080917A0080688093D3
:102F90007A0010929B02109252071092990280912F
:102FA000D70081608093D70080EA8093D80089B5EC
:102FB000806189BD89B5826089BD09B400FEFDCFFD
:102FC00061E070E080E090E00E94C60D8091D80042
:102FD0008F7C80618093D8008091E000807F809317
:102FE000E0008091E1008E7E8093E1008DE080938F
:102FF000E200559A209AEEEFFFE7859194918B3F7E
:103000009C4D19F481E08093510785E00E942A10BD
:103010008DE00E942A100FB7F89480914802811128
:1030200027C0E3E2F1E08491E6EFF0E09491E82F2D
:10303000F0E0EE0FFF1FE653FF4FA591B491EC9126
:10304000E92321F461E081E10E94270D61E081E143
:103050000E948A0D8CB580618CBD8CB580648CBD5E
:1030600061E08FE00E948A0D61E080E10E948A0D9C
:10307000809148028F5F809348020FBFE1E3CE2E1C
:10308000E1E0DE2EF6018491F2E0CF0ED11CF601D4
:1030900031976491882319F00E948A0DF3CF61E083
:1030A00086E00E94270D61E070E080E090E00E94E1
:1030B000C60D60E086E00E94270D6AE070E080E0C7
:1030C00090E00E94C60D61E086E00E94270DEEE1CF
:1030D000F1E0E491F0E0EE0FFF1FEC5FFE4F859111
:1030E000949190934E0280934D02E1EFF0E0E491D1
:1030F000E0934C02E6E1F1E0E491F0E0EE0FFF1F17
:10310000EC5FFE4F8591949190934B0280934A021D
:10311000E9EEF0E0E491E09349028CB58C7F8CBD40
:103120008DB581608DBDE0914D02F0914E02908190
:1031300080914C02982B9083A0914A02B0914B024F
:103140002C9190914902909592239C939081809527
:1031500089238083E8EDF0E08DE08E0F94919EBD91
:1031600000000DB407FEFDCF9EB531968E13F6CF4D
:10317000E0914A02F0914B02908180914902892BA3
:103180008083E0914D02F0914E02908180914C023B
:10319000809589238083809164008160809364009E
:1031A00080916400826080936400809164008068F4
:1031B00080936400809164008064809364008091B7
:1031C000650081608093650082E48093E2060E943E
:1031D000451261E085E00E948A0D61E08DE00E9469
:1031E0008A0D81E08093400232E0632E712C40E230
:1031F000A42EB12C59E2452E512C80E5C82E81E039
:10320000D82E9FE0292E312C2BE3822E912C0E9468
:10321000000E2091090130910A0140910B0150915B
:103220000C01621773078407950708F4ABC0DA0135
:10323000C90188519C4FAF4FBF4F809309019093B4
:103240000A01A0930B01B0930C0180916A028823BC
:1032500009F442C0809155029091560201979093D3
:1032600056028093550297FF37C080915702909184
:103270005802009751F090925602809255020197A1
:10328000909358028093570227C0809159029091E1
:103290005A02009771F090925602809255029092D5
:1032A000580280925702019790935A0280935902D4
:1032B00013C01092560210925502D0924402C0924E
:1032C0004302D0924202C09241020E94380F81E034
:1032D0008093450210926A02809166029091670283
:1032E000A0916802B09169020196A11DB11D8A30BA
:1032F0009105A105B10549F080936602909367029C
:10330000A0936802B09369021BC0109266021092EB
:1033100067021092680210926902809109019091EF
:103320000A01A0910B01B0910C014296A11DB11DA3
:103330008093090190930A01A0930B01B0930C01B3
:103340000E94560E83FF15C00E94560E82FF11C0C8
:1033500080910801882369F080916502811109C07C
:1033600080916402811105C03092D5062092D40666
:103370006BC1809162029091630201969093630207
:10338000809362020E94000E2091EB06222391F0AE
:103390002091E306362F321B3093EC062091DE0697
:1033A0003091DF062F5F3F4F3093DF062093DE061C
:1033B0001092EB062091E7063091E8064091E9066D
:1033C0005091EA06621773078407950778F4261B65
:1033D000223008F439C183B7817F83BF83B781600E
:1033E00083BF889583B78E7F83BF2EC1E091E206AD
:1033F0009B01AC012E0F311D411D511D2093E7068D
:103400003093E8064093E9065093EA066093E3069A
:103410007093E4068093E5069093E60601E000933E
:10342000EB060E9445120093F3068091D40690911A
:10343000D506009729F43092D5062092D40605C00F
:1034400001979093D5068093D40680916202909163
:103450006302CC9769F41092630210926202809129
:103460005C0290915D02019690935D0280935C02F4
:1034700020915C0230915D02809162029091630222
:103480002C33310581F4009771F410925D02109293
:103490005C0220910401309105012F5F3F4F309372
:1034A0000501209304012091040130910501283188
:1034B0003105D1F420915C0230915D02232B09F09B
:1034C00047C0009709F044C020910001211140C07D
:1034D0002091D4063091D5062F303105C9F51092D0
:1034E00005011092040131C02B30310589F520917E
:1034F0005C0230915D022B33310551F58B33910520
:1035000091F420910001222371F0209102012223E5
:1035100051F02091D4063091D5062F30310519F4A1
:103520001092020115C08B33910591F42091000196
:10353000222371F02091020121110AC02091D406AA
:103540003091D5062F30310519F421E02093020186
:1035500020910401309105012D30310594F0209126
:103560005C0230915D02232B61F4009751F42091AD
:103570000001222331F041E050E0509305014093D7
:10358000040120910401309105012C30310534F003
:1035900040910001411102C010920201409160026D
:1035A000509161024817590759F540915E025091B8
:1035B0005F0280915C0290915D024817590701F506
:1035C000809106019091070182179307C9F49091A9
:1035D000030180910201981313C080915B0288233C
:1035E00079F0D0924402C0924302D0924202C0923B
:1035F00041020E94380F81E08093450210925B02E5
:103600000E94560E85FF14C00E94560E86FF10C001
:103610000E94560E83FD0CC00E94560E82FD08C00B
:103620000E94560E87FD04C00E94560E84FF28C1DA
:103630000E94560E87FF04C00E94560E84FD0CC0E7
:1036400080910801811119C080E090E0892B09F474
:10365000DECD0E940000D1CD0E94560E83FDF0CF3A
:103660000E94560E82FDECCF0E94560E85FDE8CFDB
:103670000E94560E86FF17C1E3CF0E94560E85FFAB
:1036800057C06EE471E0CE0101960E949714CE01FE
:1036900001960E94B707082FCE0101960E947B1366
:1036A000002309F445C080914502882361F000E0C1
:1036B00080914602081728F4802F0E94070F0F5FA1
:1036C000F7CF1092450280916402811131C00E94AF
:1036D000000E20914F0230915002409151025091C2
:1036E0005202E0910101621773078407950738F0D1
:1036F000E11105C0809147028111DEC019C0EE239F
:10370000B9F00E94000EDC01CB0184529A4FAF4FFA
:10371000BF4F80934F0290935002A0935102B093F9
:1037200052021092010140E061E081E00E94730EBC
:103730000E943D0881110E94AE070E94560E86FF2E
:1037400057C063E571E0CE0101960E949714CE0147
:1037500001960E94B707082FCE0101960E947B13A5
:10376000002309F445C080914502882361F000E000
:1037700080914602081728F4802F0E94070F0F5FE0
:10378000F7CF1092450280916502811131C00E94ED
:10379000000E20914F023091500240915102509101
:1037A0005202E0910101621773078407950738F010
:1037B000E11105C08091470281119AC019C0EE2322
:1037C000B9F00E94000EDC01CB0184529A4FAF4F3A
:1037D000BF4F80934F0290935002A0935102B09339
:1037E00052021092010140E060E081E00E94730EFD
:1037F0000E943D0881110E94AE070E94560E84FF70
:103800002FC069E571E0CE0101960E949714CE01A8
:1038100001960E94B707082F882321F000916402C7
:1038200081E00827CE0101960E947B130023C1F09E
:103830000E94000E20914F0230915002409151029F
:1038400050915202E09101016217730784079507B6
:1038500008F485C0E11183C000914702011164C0E2
:103860000E943D08882319F00E94AE0702C0111182
:1038700091C010916502112309F465C210E08AC05D
:103880000E9445120E945A1241E061E081E00E94CC
:10389000730E1092080181E080930101109265027D
:1038A00010926402CDCE41E061E081E00E94730E8F
:1038B00081E080930801C4CE1092470210924F021B
:1038C00010925002109251021092520241E060E0B8
:1038D00081E00E94730E80915B02882319F01092A0
:1038E0005B022BCF81E080935B021092650225CFB3
:1038F0001092470210924F02109250021092510201
:103900001092520241E060E081E00E94730E8091CB
:103910006A02882319F010926A026FCF81E08093C7
:103920006A021092640269CF1092470210924F020D
:1039300010925002109251021092520241E060E047
:1039400081E00E94730E80916502882319F0109225
:1039500065028FCF81E080936502102F1BC0EE239C
:1039600009F47ECF0E94000EDC01CB0184529A4FF5
:10397000AF4FBF4F80934F0290935002A0935102DC
:10398000B09352021092010141E061E080E00E9498
:10399000730E66CF0E94451267EB71E0CE01079669
:1039A0000E94971480915B02882319F06EE571E004
:1039B00002C06EE771E0CE0107960E946413809109
:1039C0000001882319F06EE971E002C062EA71E03B
:1039D00080EB96E00E9464131092EE061092ED06C2
:1039E0001092F0061092EF0660EB76E0CE010196A1
:1039F0000E947D1441E150E066EA71E0CE0101963B
:103A00000E94BA12882309F4F4C1BE01695F7F4F96
:103A1000CE0101960E9430130E946C12CE010196D5
:103A20000E947B137092EE066092ED06B092F00653
:103A3000A092EF06409106015091070160915E024D
:103A400070915F0200E020E080916002909161023D
:103A50000E946F09FC01909354028093530260818D
:103A6000718170936102609360024281538150932F
:103A70005F0240935E0224813581309307012093D9
:103A8000060182E08093F306E12C79C081E0809307
:103A90006402F02E0E94451267EB71E0CE0107969A
:103AA0000E94971480916A02882309F4BEC16BEBCF
:103AB00071E0CE0107960E9464131092EE061092F8
:103AC000ED061092F0061092EF0664EE71E0CE0162
:103AD00001960E949714BE01695F7F4FCE01019647
:103AE0000E9430130E946C12CE0101960E947B133B
:103AF00080916A02811127C04091590250915A0267
:103B0000609157027091580201E020E080915502C7
:103B1000909156020E946F09FC0190935402809389
:103B20005302808191819093560280935502828145
:103B3000938190935802809357028481958190934A
:103B40005A028093590247E050E05093EE064093AA
:103B5000ED06B092F006A092EF0682E08093F306A5
:103B60002091590230915A024091570250915802C7
:103B70006091550270915602EE24E39400E0CE016C
:103B800001960E945908CE0101960E946C12CE0146
:103B900001960E947B1381E08093F306CE01079685
:103BA0000E947B13CDC080916A02882309F440C132
:103BB0001092EE061092ED0685E190E09093F006EB
:103BC0008093EF0686EF91E00E947512B092EE06A8
:103BD000A092ED06EFE1F0E0F093F006E093EF063F
:103BE0002091590230915A02409157025091580247
:103BF0006091550270915602EE24E39400E0CE01EC
:103C000001960E945908CE0101960E946C12CE01C5
:103C100001960E947B1380915B021092EE06109237
:103C2000ED065092F0064092EF06882309F40FC18A
:103C300088E691E00E947512B092EE06A092ED0621
:103C400043E350E05093F0064093EF0620910601C5
:103C50003091070140915E0250915F0260916002D5
:103C600070916102E12C00E0CE0101960E9459089A
:103C7000CE0101960E946C12CE0101960E947B1328
:103C8000409104015091050160915C0270915D02C8
:103C900000E021E080916202909163020E946F092E
:103CA000FC01909354028093530260817181709360
:103CB0006302609362024281538150935D0240939C
:103CC0005C0224813581309305012093040182E058
:103CD0008093F3067092EE066092ED061092F00665
:103CE0001092EF06E12C01E0CE0101960E945908E6
:103CF0008091CE069091CF06009709F0ADC08981E2
:103D00009A819093CF068093CE068B819C8190936D
:103D1000D1068093D0068D819E819093D3068093A7
:103D2000D2061A8219821C821B821E821D82CE013B
:103D300001960E947B138EEC96E00E946C1210E0BC
:103D40000E945A1281CC0E94560E87FF42C068EB37
:103D500071E0CE0101960E949714CE0101960E9457
:103D6000B707082FCE0101960E947B13002389F12B
:103D70000E94000E20914F0230915002409151025A
:103D800050915202E0910101621773078407950771
:103D900038F0E11105C00091470201112FC019C090
:103DA000EE23B9F00E94000EDC01CB0184529A4F41
:103DB000AF4FBF4F80934F0290935002A093510298
:103DC000B09352021092010141E060E080E00E9455
:103DD000730E0E943D08882319F00E94AE0702C0AE
:103DE000F11058CEF0906402FF2009F4DCCEF12CE3
:103DF00051CECE0101960E94E81207CE10924702E2
:103E000010924F02109250021092510210925202E0
:103E100041E060E081E00E94730E8091640288239B
:103E200009F434CE10926402DDCF6FEC71E041CE24
:103E30001092EE061092ED0625E130E03093F00688
:103E40002093EF0689E092E00E947512E4CE8BE1A8
:103E500092E00E94751214CF69817A816115710513
:103E600091F04091D0065091D1062D813E814217AC
:103E7000530748F00E9434228D819E819093D3068F
:103E80008093D20652CF0E94BB2039CF0F931F934D
:103E9000CF93DF938C018AE090E00E9470229FEF25
:103EA000980F9E3F58F522E330E0D80157963C9397
:103EB0002E93569728E330E059963C932E935897CB
:103EC000CBE0D0E0D801ED91FC910190F081E02DA4
:103ED000682FC8010995CE010E9470222196C13138
:103EE000D10581F70E945A126CED75E080E090E0F8
:103EF000DF91CF911F910F910C94C60DDF91CF915F
:103F00001F910F91089504970C94461F8EE996E037
:103F10000E947B1384EA96E00E947B138AEA96E073
:103F20000E947B1380EB96E00E947B1386EB96E069
:103F30000E947B138CEB96E00E947B1382EC96E050
:103F40000E947B1388EC96E00E947B138EEC96E037
:103F50000C947B13E1E0F7E01382128288EE93E089
:103F6000A0E0B0E084839583A683B78389E291E0E3
:103F7000918380838FEF9FEF95878487E7EDF6E04D
:103F8000138212821186128680E18387108617823F
:103F9000108A118A128A138A148A89E391E0918324
:103FA000808383E491E095838483178A168A118E37
:103FB000108E81E0828F138E848F158E81E99BE0B5
:103FC00090939D0680939C068FE090E09093D50699
:103FD0008093D40667EB71E08EEC96E00E94971414
:103FE0006AE372E088EC96E00E94971463E372E063
:103FF00082EC96E00E94971463E372E08CEB96E00B
:104000000E94971465E372E086EB96E00E94971495
:1040100067EB71E080EB96E00E9497146CE372E02E
:104020008AEA96E00E94971467EB71E084EA96E0D2
:104030000E94971467EB71E08EE996E00C94971458
:10404000EE0FFF1F0590F491E02D0994CF93DF93BD
:104050008230910510F482E090E0E0915A07F091EF
:104060005B0720E030E0C0E0D0E0309711F1408104
:10407000518148175907C0F04817590761F48281E8
:104080009381209719F09B838A832BC090935B07C1
:1040900080935A0726C02115310519F0421753079E
:1040A00018F49A01BE01DF01EF010280F381E02DD7
:1040B000DCCF2115310509F1281B390B24303105DE
:1040C00090F412968D919C9113976115710521F0D2
:1040D000FB019383828304C090935B0780935A070C
:1040E000FD01329644C0FD01E20FF31F81939193CD
:1040F000225031092D933C933AC0209158073091BA
:104100005907232B41F420911B0130911C0130935E
:104110005907209358072091190130911A01211550
:10412000310541F42DB73EB740911D0150911E015C
:10413000241B350BE0915807F0915907E217F3075C
:10414000A0F42E1B3F0B2817390778F0AC014E5F07
:104150005F4F2417350748F04E0F5F1F50935907E4
:10416000409358078193919302C0E0E0F0E0CF01C3
:10417000DF91CF9108950F931F93CF93DF93009713
:1041800009F48CC0FC0132971382128200915A0705
:1041900010915B070115110581F420813181820F97
:1041A000931F20915807309159072817390779F53F
:1041B000F0935907E093580771C0D80140E050E0F0
:1041C000AE17BF0750F412962D913C911397AD0195
:1041D0002115310509F1D901F3CF9D01DA013383AE
:1041E000228360817181860F971F8217930769F47C
:1041F000EC0128813981260F371F2E5F3F4F318315
:1042000020838A819B8193838283452B29F4F093B9
:104210005B07E0935A0742C01396FC93EE93129704
:10422000ED01499159919E01240F351FE217F307C3
:1042300071F480819181840F951F029611969C9351
:104240008E938281938113969C938E931297E0E0D4
:10425000F0E0D80112968D919C911397009719F078
:10426000F8018C01F6CF8D919C9198012E5F3F4F04
:10427000820F931F2091580730915907281739074B
:1042800069F4309729F410925B0710925A0702C024
:10429000138212821093590700935807DF91CF9130
:1042A0001F910F910895A0E0B0E0E9E5F1E20C94D0
:1042B0009B22EC01009721F4CB010E942620B8C07C
:1042C000FC01E60FF71F9C0122503109E217F307AA
:1042D00008F4ACC0D9010D911C911197061717076E
:1042E000B0F00530110508F49FC0C8010497861787
:1042F000970708F499C002501109061B170B019388
:1043000011936D937C93CF010E94BB208DC05B0104
:10431000A01AB10A4C01800E911EA0915A07B091CB
:104320005B0740E050E0E12CF12C109709F44AC003
:10433000A815B905D1F56D907C901197630182E0C5
:10434000C80ED11CCA14DB0480F1A3014A195B0911
:104350006A0182E0C80ED11C1296BC901297139687
:10436000AC91B5E0CB16D10440F0B282A383518367
:104370004083D9016D937C930AC00E5F1F4FC30128
:10438000800F911FF90191838083EB2DFA2FE114A7
:10439000F10431F0D7011396FC93EE93129744C0C9
:1043A000F0935B07E0935A073FC08D919C91119762
:1043B0004817590708F4AC017D0112960D90BC9185
:1043C000A02DB3CF80915807909159078815990572
:1043D000E1F446175707C8F48091190190911A012A
:1043E000009741F48DB79EB740911D0150911E0179
:1043F000841B950BE817F907C8F4F0935907E0936D
:104400005807F901718360830FC0CB010E942620F9
:104410007C01009759F0A801BE010E942222CE0122
:104420000E94BB20C70104C0CE0102C080E090E022
:10443000CDB7DEB7EEE00C94B72281E090E0F894BF
:104440000C94FF22FB01DC0102C001900D9241504F
:104450005040D8F70895FB01DC018D91019080193F
:104460000110D9F3990B0895FB01DC0101900D9225
:104470000020E1F70895BB274A3031F4992322F454
:10448000BDE2909581959F4F0C944722BB27FB017D
:104490005527AA27880F991FAA1FA41710F0A41B3D
:1044A00083955051B9F7A05DAA3308F0A95DA19397
:1044B000009779F7B111B1931192CB010C9460225E
:1044C000DC01FC01672F71917723E1F7329704C07B
:1044D0007C916D9370836291AE17BF07C8F3089506
:1044E000F999FECF92BD81BDF89A992780B50895BC
:1044F000052E97FB1EF400940E948F2257FD07D0D3
:104500000E94CE2207FC03D04EF40C948F225095CB
:104510004095309521953F4F4F4F5F4F08959095AF
:104520008095709561957F4F8F4F9F4F08952F9283
:104530003F924F925F926F927F928F929F92AF9233
:10454000BF92CF92DF92EF92FF920F931F93CF9380
:10455000DF93CDB7DEB7CA1BDB0B0FB6F894DEBF17
:104560000FBECDBF09942A88398848885F846E843D
:104570007D848C849B84AA84B984C884DF80EE8087
:10458000FD800C811B81AA81B981CE0FD11D0FB690
:10459000F894DEBF0FBECDBFED010895A1E21A2E43
:1045A000AA1BBB1BFD010DC0AA1FBB1FEE1FFF1FD7
:1045B000A217B307E407F50720F0A21BB30BE40B27
:1045C000F50B661F771F881F991F1A9469F760956E
:1045D0007095809590959B01AC01BD01CF01089528
:1045E000A29FB001B39FC001A39F700D811D112434
:1045F000911DB29F700D811D1124911D089517E02A
:10460000C3E8D7E004C0FE010E9420202196C438F0
:08461000D107C9F7F894FFCFB0
:10461800010101010C000C0001E803000000E100A9
:104628000000000000FFFFFFFF00005C07800001A2
:1046380000000003010000000013119011761134EE
:10464800115211291100000000940B2014461FFC80
:10465800FF0000831F0F0000C180810000004C454F
:10466800465400524947485400444F574E00416C45
:1046780061726D204F4E0A0D486F6C64204C4546A0
:104688005420746F207475726E204F464600416C3A
:1046980061726D204F46460A0D486F6C64204C4588
:1046A800465420746F207475726E204F4E0031325C
:1046B8006800323468002020414C41524D20534557
:1046C8005454494E470A0D0055500020486F6C64F9
:1046D80020524947485420746F2053746F7000204B
:1046E800486F6C6420524947485420746F205374B3
:1046F800617274002054494D455220534554544921
:104708004E47530A0D00486F6C642052494748547D
:1047180020746F2073746F7000486F6C642055505C
:1047280020666F722054696D657200486F6C642052
:10473800444F574E20666F7220416C61726D004184
:1047480000420030002000504D003A0020414D004A
:00000001FF
