:100000000C9484070C94AC070C94AC070C94AC07CC
:100010000C94AC070C94AC070C94AC070C94AC0794
:100020000C94AC070C94AC070C9470140C94E21470
:100030000C94AC070C94AC070C94AC070C94AC0774
:100040000C94AC070C94590E0C94AC070C94AC07B0
:100050000C94AC070C94AC070C94AC070C94D90D21
:100060000C94AC070C94AC070C94AC070C94AC0744
:100070000C94AC070C94AC070C94AC070C94AC0734
:100080000C94950F0C94AC070C94AC070C94AC0733
:100090000C94AC070C94AC070C94AC070C94AC0714
:1000A0000C94AC070C94AC070C94AC071F0D220DFC
:1000B000110D150D190D430D430D430D260D2A0D80
:1000C0002E0D340D380D430D3E0D000000002400B0
:1000D00027002A002D003000D5F08D14A1C881CF53
:1000E000D9F1AF20000408020110408040102040E8
:1000F000804080080204018040201002011080101E
:100100002040402000000000250028002B002E0089
:10011000310004040404040304050202020204037F
:100120000202020206060606060604040202020491
:10013000041402130212021502070208020A020A3C
:10014000010B020B010902090104010C0106010067
:10015000029A903E00A6904000A6904200A69040D1
:1001600000A6904300A6904200A6904000A6903EB4
:1001700000A6904500A6904300A6904200A690409D
:1001800000A69132904200A69134903E00A691368E
:10019000904500A6913400A69047913700A691366D
:1001A00000A69049913400379047003790490037B6
:1001B0009132904A00A6913990490053904A0053D9
:1001C0009137904900A691369047005390450053CF
:1001D0009134007D8000299049913600A6904A9183
:1001E0003200A6904C913900A6904900A6912D901E
:1001F0004E00A6904A00A69139904900A69047006B
:100200008A81001B9139904C00A6904900A6912D3F
:10021000904A00A6904700A69139904500A69044C8
:10022000008A81001B9139904C00A6904900A6914C
:100230002D904E00A6904A00A69139904900A690B4
:1002400047008A81001B9139904C00A6904900A676
:10025000912D904A00A6904700A69139904500A69E
:100260009044008A81001B9139904900A690470074
:10027000A6913B904A00A6904900A6913D90470068
:10028000A6904500A6913E904E00A6913D00A690F6
:1002900044914000A6913E00A69045913D00A69154
:1002A0003B00A6913D001B80001B90470037904506
:1002B0000037913E90440037904500379047001B2F
:1002C00080001B90479140014D913400A69045005D
:1002D000A69139904500A6913400A6913600A691CA
:1002E0003800A691398000A6913B00A6913D00A65A
:1002F000913B00A6904C913E00A6913D00A69051E6
:10030000913B00A6913900A6914000A6904700A617
:100310009134904900A6904B00A6904C8100A69085
:100320004E00A6904F00A6904E00A6913B90510023
:10033000A6904F00A69140904E00A6904C00A6902B
:100340005300A6913600A69047913800A6913A0036
:10035000A6913B8000A6913D00A6913E00A6913D4E
:1003600000A69042914000A6913E00A69047913D84
:1003700000A6913B00A6914200A6904600A69136A9
:10038000904700A6904900A69140904A00A6904C44
:1003900000A6913E904E00A6904C00A69147904F2B
:1003A00000A69146904E00A69147904C00A6904A18
:1003B00000A6913D904C00A6904A00A69146904E12
:1003C00000A69144904C00A69146904A00A6904900
:1003D00000A69147904A00A69145904900A69143F6
:1003E000904C00A69142904A00A69140904900A6E8
:1003F000913E904700A69140904900A6913E00A6EC
:10040000904691420053904400539140904600A67C
:10041000913E904700A6913D00A6913E00A69049CE
:100420009140008A80001B904991420053904A00FD
:1004300053904900A6913600A6904700A6913B0034
:10044000A6904200A69136904400A6904600A69140
:1004500032904700A6904900A6912F904A00A6909E
:100460004900A6904C00A6904A00A690498100A69B
:10047000904700A6904F00A6912F00A6913100A6AC
:10048000913300A6913400A6913600A6913700A6BC
:10049000913600A6913900A6913700A6913600A6A4
:1004A000913400A69139008A80001B904000A690EC
:1004B0004200A6904400A6904500A6904700A69052
:1004C0004900A6904700A6904A00A6904900A69031
:1004D0004700A6904500A6904E008A81001B912DF2
:1004E00000A6912F00A6913100A6913200A691346A
:1004F00000A6913600A6913400A6913700A6913649
:1005000000A6913400A6913200A69138008A80009E
:100510001B904700A6904C00A69134904A00A691EB
:1005200036904900A69138904700A691399049002D
:10053000A69138904700A69136904A00A691349033
:100540004900A69132904700A69136904500A691A9
:100550003490440053904500539132904400A6914A
:1005600031904000A6912F00A69045913100A690B1
:1005700047912D00A69049913900A6904700A69179
:1005800036904A00A6904900A69131904700A69067
:100590004500A69132904E00A6913100A6913400FC
:1005A000A69044913200A69045913100A6904491C6
:1005B0002F00A69045913100A6904A913200A69056
:1005C000479134014D912800A69045008A80001B78
:1005D0009045912D00A6913100A6913200A6904938
:1005E000913400A6904A913600A6904C913700A60F
:1005F0009042913900A6913700A69043913B00A606
:10060000913900A690479137005390450053913699
:1006100090430053904500539137904700A6913680
:1006200000A6904A91390053904900539137904762
:100630000053904900539136904A00A6913400A689
:10064000913600A69049913400A6904C913700A6AF
:10065000904A913600A69049913400A6904A913272
:1006600000A6904C913900A6904A00A6912D904981
:1006700000A6904700A690458100A6904300A69052
:100680004200A6904000A6904300A6904200A6908B
:100690004000A6903E00A6904500A6904300A6907C
:1006A0004200A6904000A69132904200A69134905C
:1006B0003E00A69136904500A6913400A690479141
:1006C0003700A6913600A690499134003790470034
:1006D00037904900379132904A00A69139904900ED
:1006E00053904A00539137904900A69136904700A5
:1006F00053904500539134007D800029904A9136F3
:1007000000A69132008A80001B904A913900A69180
:100710003600A6903E913B00A6913700A6904A91E4
:100720003600A69134008A80001B904A913900A6B9
:10073000913600A6903E913700A6913400A6904ACB
:10074000913200A69131008A80001B904A913900B5
:10075000A6913600A6903E913B00A6913700A69048
:100760004A913600A69134008A80001B904A913944
:1007700000A6913600A6903E913700A6913400A6BF
:10078000904A913200A6904C913100A6904E913241
:1007900000A6904C00A69134904F00A6904E00A663
:1007A0009136904C00A6904A00A69137905300A62F
:1007B000913600A69049913900A6913700A6904A3B
:1007C000913600A6913400A69136001B80001B9044
:1007D0004C0037904A0037913790490037904A00D3
:1007E00037904C002980000D904C9139014D912D8E
:1007F00000A6904A008A80001B904A912F00A69183
:100800002D00A6903E913000A6912F00A690439116
:100810002D00A6912B00A6913200A6903900A6903B
:100820003B00A6903D00A6903E00A6904000A690FA
:1008300042008A81001B9131904000A6912F904385
:1008400000A6912D904200A6912B904000A6912ADF
:10085000903E00A6912B904700A6912A00A6912DCC
:1008600000A6903D912B00A6903E912A00A6903DB7
:10087000912800A6903E912A00A69043912B00A6B5
:100880009040912D01F4903E008A80001B903E9193
:100890002607D08081F006011501260137014A01A3
:1008A0005D01720188019F01B801D201EE010B02C6
:1008B0002A024B026E029302BA02E40210033F03C3
:1008C0007003A403DC03170455049704DD04270513
:1008D0007505C80520067D06E0064907B8072D08FE
:1008E000A9082D09B9094D0AEA0A900B400CFA0C27
:1008F000C00D910E6F0F5A1053115B1272139A14A0
:10090000D41520178018F519801B231DDE1EB42076
:10091000A622B524E4263429A72B402E0031EA3341
:100920000037453ABC3D68414C456B49C84D68525B
:100930004F57805C006210111213151617181A1CFD
:100940001D1F21232527292C2E3134373A3E4145BE
:10095000494E52575C62686E757B838B939CA5AF42
:10096000B9C4D0DCE9F700000000003E5B4F5B3EFD
:100970003E6B4F6B3E1C3E7C3E1C183C7E3C181C64
:10098000577D571C1C5E7F5E1C00183C1800FFE75B
:10099000C3E7FF0018241800FFE7DBE7FF30483A01
:1009A000060E2629792926407F050507407F052563
:1009B0003F5A3CE73C5A7F3E1C1C08081C1C3E7FEB
:1009C00014227F22145F5F005F5F06097F017F00B2
:1009D0006689956A606060606094A2FFA2940804D2
:1009E0007E040810207E201008082A1C08081C2AF3
:1009F00008081E101010100C1E0C1E0C30383E384B
:100A000030060E3E0E06000000000000005F0000F1
:100A10000007000700147F147F14242A7F2A122362
:100A20001308646236495620500008070300001C72
:100A30002241000041221C002A1C7F1C2A08083E7B
:100A4000080800807030000808080808000060608E
:100A50000020100804023E5149453E00427F4000FC
:100A600072494949462141494D331814127F1027D4
:100A7000454545393C4A4949314121110907364923
:100A8000494936464949291E0000140000004034F7
:100A900000000008142241141414141400412214FC
:100AA0000802015909063E415D594E7C1211127C23
:100AB0007F494949363E414141227F4141413E7F84
:100AC000494949417F090909013E414151737F0864
:100AD00008087F00417F41002040413F017F08140A
:100AE00022417F404040407F021C027F7F0408106B
:100AF0007F3E4141413E7F090909063E4151215E49
:100B00007F09192946264949493203017F01033FDC
:100B10004040403F1F2040201F3F4038403F63146B
:100B200008146303047804036159494D43007F416D
:100B300041410204081020004141417F04020102AA
:100B400004404040404000030708002054547840CF
:100B50007F284444383844444428384444287F3863
:100B60005454541800087E090218A4A49C787F08E5
:100B700004047800447D40002040403D007F102860
:100B8000440000417F40007C047804787C08040421
:100B9000783844444438FC1824241818242418FCB9
:100BA0007C08040408485454542404043F44243C5E
:100BB0004040207C1C2040201C3C4030403C4428CD
:100BC0001028444C9090907C4464544C4400083667
:100BD00041000000770000004136080002010204D5
:100BE000023C2623263C1EA1A161123A4040207AF5
:100BF000385454555921555579412154547841213F
:100C00005554784020545579400C1E527212395573
:100C10005555593954545459395554545800004570
:100C20007C410002457D420001457C40F029242999
:100C3000F0F0282528F07C545545002054547C546D
:100C40007C0A097F493249494932324848483232A0
:100C50004A4848303A4141217A3A42402078009D42
:100C6000A0A07D39444444393D4040403D3C24FFF0
:100C70002424487E4943662B2FFC2F2BFF0929F69D
:100C800020C0887E090320545479410000447D41EE
:100C90003048484A32384040227A007A0A0A727D47
:100CA0000D19317D2629292F282629292926304862
:100CB0004D4020380808080808080808382F10C8D0
:100CC000ACBA2F102834FA00007B000008142A1454
:100CD0002222142A14089500220095AA005500AA81
:100CE000AA55AA55AA000000FF00101010FF00141A
:100CF0001414FF001010FF00FF1010F010F0141477
:100D000014FC001414F700FF0000FF00FF1414F49B
:100D100004FC141417101F10101F101F1414141F9C
:100D200000101010F0000000001F101010101F1015
:100D3000101010F010000000FF1010101010101014
:100D40001010FF10000000FF140000FF00FF000063
:100D50001F10170000FC04F414141710171414F4D7
:100D600004F40000FF00F714141414141414F70012
:100D7000F7141414171410101F101F141414F41463
:100D80001010F010F000001F101F0000001F1400D2
:100D90000000FC140000F010F01010FF10FF1414FD
:100DA00014FF141010101F00000000F010FFFFFFD0
:100DB000FFFFF0F0F0F0F0FFFFFF0000000000FF89
:100DC000FF0F0F0F0F0F38444438447C2A2A3E147B
:100DD0007E02020606027E027E02635549416338A6
:100DE00044443C04407E201E2006027E020299A557
:100DF000E7A5991C2A492A1C4C7201724C304A4DB5
:100E00004D303048784830BC625A463D3E494949E9
:100E1000007E0101017E2A2A2A2A2A44445F444492
:100E200040514A444040444A51400000FF0103E021
:100E300080FF000008086B6B083612362436060F58
:100E4000090F06000018180000001010003040FFC5
:100E50000101001F01011E00191D1712003C3C3C3E
:100E60003C00000000000000000200090F00000329
:100E70000401000C00000000000000000000000061
:100E80000000000000080B0002020201000904003B
:100E900000010202000005240010010524010101E7
:100EA0000424020605240600010705810310004002
:100EB00009040100020A00000007050202400000C8
:100EC0000705830240000004030904417264756948
:100ED0006E6F204C4C430041726475626F79001252
:100EE000010002000000404123368000010102039E
:100EF0000112010002EF020140412336800001018E
:100F000002030100501F2C1F11241FBECFEFDAE097
:100F1000DEBFCDBF12E0A0E0B1E0E4E6F5E402C040
:100F200005900D92A834B107D9F727E0A8E4B2E004
:100F300001C01D92A036B207E1F717E0C3E8D7E081
:100F400004C02197FE010E94C61FC238D107C9F70D
:100F50000E941F170C94A5220C940000CF93DF93DE
:100F6000EC0165E372E00E945F128823B1F00E94F9
:100F7000230E82FD75C00E94230E87FD71C00E9462
:100F8000230E84FD6DC00E94230E85FD69C00E9462
:100F9000230E86FD65C081E064C067E372E0CE0188
:100FA0000E945F12882329F00E94230E83FD58C0FF
:100FB000E2CF68EB71E0CE010E945F12882349F016
:100FC0000E94230E82FD4CC00E94230E83FD48C068
:100FD000D6CF69E571E0CE010E945F12882369F0E7
:100FE0000E94230E82FD3CC00E94230E87FD38C064
:100FF0000E94230E83FD34C0C6CF6EE471E0CE01A3
:101000000E945F12882389F00E94230E82FD28C06F
:101010000E94230E87FD24C00E94230E84FD20C061
:101020000E94230E83FD1CC0B2CF63E571E0CE01A8
:101030000E945F128823A1F00E94230E82FD10C03F
:101040000E94230E87FD0CC00E94230E84FD08C061
:101050000E94230E85FD04C00E94230E83FF9BCFB8
:1010600080E0DF91CF9108950E94230E83FD16C08A
:101070000E94230E82FD12C00E94230E87FD0EC027
:101080000E94230E84FD0AC00E94230E85FD06C027
:101090000E94230E86FD02C081E0089580E008953D
:1010A0006F927F928F929F92AF92BF92CF92DF9278
:1010B000EF920F93CF93DF9300D000D000D0CDB745
:1010C000DEB76C015B014A0139016A30710518F421
:1010D00069E372E002C067EB71E086EC96E00E9483
:1010E00028138AE08816910418F469E372E002C0BC
:1010F00067EB71E080EC96E00E9428138AE06816A6
:1011000071041CF46BE372E002C067EB71E08AEBE0
:1011100096E00E94281380910001882389F0E11055
:101120000FC0002351F080910201882319F06DE374
:1011300072E008C061E472E005C080910301F5CF60
:1011400067EB71E08EEA96E00E9428136AEB76E086
:10115000CE0101960E944114B301CE0101960E9476
:10116000BE126CEC76E00E94F41260EC76E00E9415
:10117000F412B4010E94BE126CEC76E00E94F412EC
:1011800066EC76E00E94F412B5010E94BE126EEA8F
:1011900076E00E94F412BC01C6010E944114CE0107
:1011A00001960E943F13C60126960FB6F894DEBF43
:1011B0000FBECDBFDF91CF910F91EF90DF90CF9019
:1011C000BF90AF909F908F907F906F9008958823ED
:1011D00059F080910201882319F0109202010895BC
:1011E00081E080930201089580910301882319F022
:1011F00010920301089581E0809303010895962FD2
:10120000882349F120917A0230917B022F5F3F4F72
:1012100030937B0220937A02411121C0809100011A
:10122000882389F02D3031053CF081E090E09093E7
:101230007B0280937A0208952C30310581F4862F49
:101240000E94E70808952831310549F410927B0285
:1012500010927A020895642F892F0C9481100895BA
:10126000962F2091780230917902882379F02F5FB0
:101270003F4F2C33310574F01092790210927802AE
:10128000411103C081E00C94FF08089521503109F9
:1012900037FD05C0309379022093780208954111FB
:1012A0000AC02BE330E0309379022093780260E0AB
:1012B000892F0C9481108BE390E0909379028093B6
:1012C000780208950F93CF93C22F90937702809363
:1012D0007602709379026093780250937B02409378
:1012E0007A0201116DC00E94230E86FF36C00E9453
:1012F000230E87FF32C080910001882371F10E9484
:10130000230E83FD2AC00E94230E82FD26C00E9468
:10131000230E85FD22C00E94230E84FD1EC0109264
:10132000000180917A0290917B028C30910509F046
:101330007EC0C11157C080910401909105010C97A6
:1013400009F45AC0C11162C080910301882309F4D5
:101350005DC010927B0210927A020E94230E85FFDC
:101360002FC00E94230E84FF2BC0809100018111A9
:1013700027C00E94230E83FD23C00E94230E82FDFE
:101380001FC00E94230E86FD1BC00E94230E87FDF6
:1013900017C021E02093000180917A0290917B0296
:1013A0008C3091050CF07EC0CC2309F4A2C02093B0
:1013B000020180917A0290917B02892B09F49CC0F2
:1013C0000E94230E83FFC7C00E94230E87FFC3C065
:1013D0000E94230E82FDBFC0402F6C2F81E00E942F
:1013E000FF082AC180910201882309F4A4CF10923A
:1013F0007B0210927A020AC080910201882309F4CC
:10140000A1CF10920501109204019CCF809106019A
:10141000909107010C9709F0A0CF809103018823D8
:1014200009F49BCF109207011092060196CFCC23AE
:1014300051F020910201211106C00C9690937B027D
:1014400080937A021DC020910401309105012C3057
:10145000310551F040910201411106C0245F3F4F18
:101460003093050120930401C1110AC020910301AA
:10147000211106C00C9690937B0280937A026DCF67
:1014800080910601909107018C30910509F465CF98
:1014900020910301211161CF0C9690930701809355
:1014A00006015BCF0C97CC23A1F090937B02809335
:1014B0007A021092020180910601909107018D300D
:1014C00091050CF476CF0C97909307018093060159
:1014D00038C020910401309105012D3031056CF1A7
:1014E0002C50310930930501209304011092020120
:1014F00024C0209303015DCFCC2391F08CE090E0D9
:1015000090937B0280937A0220910401309105012F
:10151000232B09F055CF909305018093040150CF00
:101520008091060190910701892B71F48CE090E085
:10153000909307018093060107C090937B028093EC
:101540007A021092030135CF8CE090E090937B02F9
:1015500080937A0235CF0E94230E83FF0DC00E9434
:10156000230E84FF09C00E94230E82FD05C0602F58
:101570008C2F0E94811060C00E94230E82FF04C045
:101580000E94230E87FD05C00E94230E82FF11C01A
:1015900006C00E94230E83FDF7CF402F25C00E9476
:1015A000230E84FF06C00E94230E83FD02C0402F3D
:1015B0003CC00E94230E83FF1CC00E94230E82FFAA
:1015C00018C00E94230E87FF14C08091760290916C
:1015D000770201968C3391055CF11092770210929C
:1015E0007602011129C040E06C2F81E00E94300991
:1015F00023C00E94230E83FF1FC00E94230E82FF80
:101600001BC00E94230E84FF17C080917602909128
:101610007702019797FF0CC08BE390E090937702DD
:1016200080937602011108C040E06C2F80E0DECF8D
:101630009093770280937602809176029091770260
:101640009093710280937002809178029091790258
:10165000909373028093720280917A0290917B0240
:10166000909375028093740280E792E0CF910F917E
:1016700008953FB7F8948091980290919902A091B3
:101680009A02B0919B0226B5A89B05C02F3F19F086
:101690000196A11DB11D3FBFBA2FA92F982F8827F2
:1016A000820F911DA11DB11DBC01CD0142E0660F4D
:1016B000771F881F991F4A95D1F708958091480296
:1016C00008952F923F924F925F926F927F928F92E6
:1016D0009F92AF92BF92CF92DF92EF92FF920F93C1
:1016E0001F93CF93DF9300D000D000D0CDB7DEB7EB
:1016F000DC016A30A9F45C962C915C9758968D9128
:101700009C91599708E0209F800D911D11245996B6
:101710009C938E93589757961C921E925697D1C0C1
:101720006D3009F4CEC05C96BC905C975B962C90B3
:101730005B975A963C905A9758962D913C915997A1
:101740003C832B8356968D919C91579780389105B9
:10175000C4F05C962C915C97422F50E056968D9188
:101760009C91579736E0239F800D911D1124579629
:101770009C938E9356975D962C915D9721118EC008
:10178000A0C00B811C81003411051CF79C0115E0E1
:10179000B19E200D311D112412161306D4F68B2C88
:1017A000912C2B813C8148E0B49E200D311D1124E9
:1017B0001216130674F6E5E06E9F2001112460E016
:1017C00070E06530710539F0FB01E40DF51DEA5953
:1017D000F64FA49001C0A12CEB80FC8008E0702E95
:1017E000A0FC02C0622C01C0632C611009C0231050
:1017F00007C0A6947A94E80CF91C7110F1CF45C08B
:101800009C01422F481B4B15A0F7A701E42FF42F92
:10181000FE19FB15B8F52038310588F5403451051F
:1018200070F5E695E695E695CE2ED12C8A010770E7
:1018300011271A830983F601F695FE2FEE27F795F7
:10184000E795E20FF31F8F0100561D4F1E830D8396
:10185000E1E0F0E0098002C0EE0FFF1F0A94E2F71A
:10186000FA83E983662029F0F801D080C980CD2869
:1018700005C0CE2EC094F801D080CD20C0824F5F2D
:101880005F4FC4CF2F5F3F4FBCCF6F5F7F4F880D3F
:10189000991D6630710509F094CF5BCF6AEF640340
:1018A0009001659F300D112420583F4F28173907AC
:1018B00044F4CD01ED91FC910190F081E02D6AE0BE
:1018C000099581E090E026960FB6F894DEBF0FBE32
:1018D000CDBFDF91CF911F910F91FF90EF90DF90DF
:1018E000CF90BF90AF909F908F907F906F905F90C0
:1018F0004F903F902F9008950895CF92DF92EF92EE
:10190000FF921F93CF93DF93E82FF0E0ED5DFE4F42
:101910001081E62FF0E0603330F4EA5CF64FE4919A
:10192000CE2FD0E006C0EE0FFF1FEA5CF74FC59147
:10193000D4916E01E12CF12C60E074E284EF90E030
:10194000A70196010E941E22DA01C9010197A1098F
:10195000B109009721E0A207B10578F060E970EDC8
:1019600083E090E0A70196010E941E22DA01C901DE
:101970000197A109B10923E001C021E01130C9F0AC
:10198000133051F530919100387F232B2093910033
:101990009093990080939800D0939102C093900205
:1019A00081E080938F02809171008260809371004A
:1019B00013C03091920231110FC030918100387FF5
:1019C000232B20938100909389008093880080913D
:1019D0006F00826080936F00DF91CF911F91FF9025
:1019E000EF90DF90CF900895362F90E0FC01EA59F8
:1019F000F14F4491FC01EB51FF4F2491FC01EE5E4D
:101A0000FE4F8491882309F451C04423E1F150E052
:101A1000FA013197EF30F105B0F5EA5AFF4F0C9417
:101A2000C61F909180009F7707C0909180009F7D96
:101A300003C090918000977F9093800024C094B55C
:101A40009F7702C094B59F7D94BD1DC0909190007A
:101A50009F7707C0909190009F7D03C09091900068
:101A6000977F909390000FC09091C0009F7703C024
:101A70009091C0009F7D9093C00005C09091C200DE
:101A8000977F9093C200E82FF0E0EE0FFF1FEC5F0E
:101A9000FE4FA591B4918FB7F894EC91311103C02A
:101AA00020952E2301C02E2B2C938FBF0895CF930A
:101AB000DF9390E0FC01EB51FF4F2491FC01EE5EBF
:101AC000FE4F8491882361F190E0880F991FFC01FB
:101AD000E653FF4FC591D491FC01EC5FFE4FA591F9
:101AE000B491611109C09FB7F89488812095822331
:101AF0008883EC912E230BC0623061F49FB7F89479
:101B00003881822F809583238883EC912E2B2C9310
:101B10009FBF06C08FB7F894E8812E2B28838FBF14
:101B2000DF91CF9108958F929F92AF92BF92CF9203
:101B3000DF92EF92FF926B017C010E94390B4B0107
:101B40005C01C114D104E104F104F1F00E94390BED
:101B5000DC01CB0188199909AA09BB09883E934089
:101B6000A105B10570F321E0C21AD108E108F1081E
:101B700088EE880E83E0981EA11CB11CC114D1040C
:101B8000E104F10419F7DDCFFF90EF90DF90CF90E3
:101B9000BF90AF909F908F9008952FB7F894609169
:101BA00094027091950280919602909197022FBFB6
:101BB00008951F920F920FB60F9211242F933F9307
:101BC0008F939F93AF93BF938091940290919502CE
:101BD000A0919602B09197023091930223E0230FD7
:101BE0002D3720F40196A11DB11D05C026E8230F55
:101BF0000296A11DB11D20939302809394029093AD
:101C00009502A0939602B0939702809198029091CA
:101C10009902A0919A02B0919B020196A11DB11D5B
:101C20008093980290939902A0939A02B0939B029A
:101C3000BF91AF919F918F913F912F910F900FBEC8
:101C40000F901F9018958FB12CB193B130E0209573
:101C5000309520743327A90123E0559547952A959F
:101C6000E1F7292F30E02095309520713327359505
:101C7000279535952795242B8095807F822B089575
:101C80001F93CF93DF931F92CDB7DEB7162F682F28
:101C90008AE049830E94F40C612F8BE00E94F40CCF
:101CA0004981642F89E00F90DF91CF911F910C94AF
:101CB000F40C1F920F920FB60F9211242F933F93A3
:101CC0008F939F93AF93BF93EF93FF938091920273
:101CD000882309F44FC08091820290918302A091E1
:101CE0008402B0918502892B8A2B8B2B51F1809134
:101CF0008102E0917F02F0918002908189278083A8
:101D00008091820290918302A0918402B091850219
:101D1000181619061A061B06D4F5809182029091B6
:101D20008302A0918402B09185020197A109B109B3
:101D30008093820290938302A0938402B0938502E1
:101D400026C010928E021092920280916F008D7FB9
:101D500080936F0090918102E0917F02F091800268
:101D60008081282F30E0892F90E080959095822304
:101D700093230CC080918D02811109C08091810252
:101D8000E0917F02F0918002908189278083FF910A
:101D9000EF91BF91AF919F918F913F912F910F90B4
:101DA0000FBE0F901F901895E82FF0E0ED5DFE4FED
:101DB0008081813019F0833089F0089580919202FA
:101DC000811122C080916F008D7F80936F00909170
:101DD0008102E0917F02F09180020CC010928F028C
:101DE00080918E02811110C090918C02E0918A0244
:101DF000F0918B028081282F30E0892F90E0809530
:101E000090958223932380830895CF93DF93D1E02D
:101E1000E0914902F0914A029F012F5F3F4F3093BA
:101E20004A02209349028491982F907FC82FCF7047
:101E3000903821F48C2F0E94D40EEACF9039F9F417
:101E4000E091A006F091A10609958D2780938D025F
:101E5000E0914902F0914A02CF01019690934A0223
:101E600080934902649180914E02C81788F6C13070
:101E700009F052C080917E028111CACF4DC097FDFA
:101E80003AC03296F0934A02E0934902F901249154
:101E900030E0382BA0919002B09191020E949622DE
:101EA0006C507E4F8F4F9F4F28EE33E040E050E064
:101EB0000E94742220938602309387024093880206
:101EC000509389028091860290918702A0918802A6
:101ED000B0918902892B8A2B8B2B21F581E090E030
:101EE000A0E0B0E08093860290938702A0938802DE
:101EF000B093890217C0903E49F480914B029091B3
:101F00004C0290934A028093490282CF903F09F09D
:101F10007FCF10924D0206C067FD7ACF8C2F0E94B2
:101F20007D0C76CFDF91CF9108951F920F920FB65F
:101F30000F9211242F933F934F935F936F937F934F
:101F40008F939F93AF93BF93EF93FF9380918F02F3
:101F5000882341F080918E02811104C080918D020E
:101F6000882351F180914D02882381F1809186026E
:101F700090918702A0918802B0918902892B8A2BC7
:101F80008B2B21F18091860290918702A09188028B
:101F9000B09189020197A109B109809386029093BB
:101FA0008702A0938802B0938902892B8A2B8B2BFE
:101FB00069F40E94050F0AC080918C02E0918A02A8
:101FC000F0918B02908189278083CCCFFF91EF9194
:101FD000BF91AF919F918F917F916F915F914F9141
:101FE0003F912F910F900FBE0F901F901895CF9398
:101FF000DF9390914E02923009F480C0292F30E097
:10200000F901ED5DFE4FD081F901E458FD4F808369
:10201000913031F420917C02281302C090937E020B
:10202000C82F9F5F90934E0261E00E94570DD13000
:1020300019F0D33061F162C080916400877F809392
:10204000640010928000109281008091810088606D
:1020500080938100809181008160809381008C2F2A
:1020600090E0FC01EE5EFE4FE491F0E0EE0FFF1F0A
:10207000EC5FFE4F259134913093800220937F02D4
:10208000FC01EB51FF4F84918093810237C0809116
:102090006500877F809365001092900010929100F8
:1020A000809191008860809391008091910081607F
:1020B000809391008C2F90E0FC01EE5EFE4FE49146
:1020C000F0E0EE0FFF1FEC5FFE4F2591349130934F
:1020D0008B0220938A02FC01EB51FF4F8491809385
:1020E0008C0280914E02882321F06CE380E00E94F4
:1020F0007D0C80E0DF91CF910C94D40EDF91CF91D5
:10210000089520917A0230917B0221503109309359
:102110007B0220937A02611119C0909100019923EA
:1021200061F0121613061CF08CE090E00AC02B3010
:10213000310591F40E94E708089537FF0DC087E14B
:1021400090E090937B0280937A02089537FF04C059
:1021500010927B0210927A020895FC0180919F02F6
:10216000811103C08FEF9FEF08959FB7F89482E02D
:102170008093E9002091F20030E01216130614F467
:1021800021E030E02115310559F0289884E680934C
:102190009E028091F10080838091F200882319F0E3
:1021A0009FBFC90108958BE68093E800F9CFCF93D4
:1021B000DF931F92CDB7DEB76983DC01ED91FC910F
:1021C0000280F381E02D41E050E0BE016F5F7F4F60
:1021D00009950F90DF91CF91089583E08093E900F6
:1021E0008091F200882319F08AE38093E800089533
:1021F000CF93DF931F92CDB7DEB7FC018485958521
:1022000097FD05C02FEF3FEF358724870BC0CE0128
:1022100001960E94AD10019719F4898190E002C0E7
:102220008FEF9FEF0F90DF91CF9108950F931F9342
:10223000CF93DF931F92CDB7DEB78C01FC0184856D
:10224000958597FF0EC0CE0101960E94AD100197B3
:1022500019F4298130E002C02FEF3FEFF8013587F4
:102260002487F801848595850F90DF91CF911F9188
:102270000F910895FC018485958597FD0BC09FB74C
:10228000F89482E08093E9008091F2009FBF90E093
:10229000019608959FB7F89482E08093E9008091B9
:1022A000F2009FBF90E008958F929F92AF92BF92ED
:1022B000CF92DF92EF92FF920F931F93CF93DF9312
:1022C0005C016B018A0180911401882309F45EC0CE
:1022D00080919F02882309F459C080919D0280FF5C
:1022E00005C08091E00082608093E000E8018AEF01
:1022F000F82E93E0E92E2FE3822E3AE3932E2097D7
:1023000009F43DC08FB7F894E092E9009091E8009D
:1023100095FF06C09091F200282D291B922F01C035
:1023200090E08FBF91110AC0FA94FF2079F161E02B
:1023300070E080E090E00E94930DE1CF292F30E023
:10234000C217D3070CF49C2F8FB7F894E092E900E2
:102350002091E80025FF11C0292F30E0C21BD30BCC
:10236000F601915020F041914093F100FACFC20E56
:10237000D31E9091E80095FF13C08FBFC0CF5D982A
:1023800084E680939C021016110644F081E090E0F0
:10239000F5019383828380E090E005C0C80103C00B
:1023A0009092E800EACFDF91CF911F910F91FF90BB
:1023B000EF90DF90CF90BF90AF909F908F90089557
:1023C0000E94C3210F931F93CF93DF93EC01888169
:1023D0009981009729F02A813B812617370788F4D5
:1023E0008B016F5F7F4F0E94F920009761F0998306
:1023F00088831B830A832C813D81232B11F4FC01EC
:10240000108281E001C080E0DF91CF911F910F9198
:10241000089520E080EA92E0B22FB111BFEFFC01F5
:102420000024B193B193B193B1930394D1F7EBED41
:10243000F6E0118E108E178A168A08958091A002F8
:102440008EBDE1EAF2E081910DB407FEFDCF8EBDB5
:1024500086E0E03AF807B9F70DB407FEFDCF08951E
:10246000FC0144815581608171818BED96E00C9473
:10247000E413009769F0FC0101900020E9F731971F
:10248000AF01481B590BBC018BED96E00C94E41393
:1024900080E090E008958091FD0681110DC082E0FA
:1024A0008093F90684E08093FA061092FC0610925D
:1024B000FB0681E08093FD0689EF96E00895FC011C
:1024C00024813581232B31F421E061157105A1F0C0
:1024D000FB0108C0FC01808191816115710531F417
:1024E00021E0FC018081882339F005C00E94D121C0
:1024F00021E0892B09F020E0822F0895EF92FF92CE
:102500000F931F93CF93DF93FC01248135816115D5
:10251000710511F480E019C041155105A9F07B0146
:10252000EC018A01020F131FB8010E94E2118823F7
:1025300089F3288139818C819D81B701820F931F96
:102540000E94DA211D830C8381E0DF91CF911F91DE
:102550000F91FF90EF900895CF93DF93EC01888166
:102560009981009711F00E946120198218821D82C2
:102570001C821B821A82DF91CF910895EF92FF9205
:102580000F931F93CF93DF93CDB7DEB728970FB686
:10259000F894DEBF0FBECDBF7C01CB014AE08E01B7
:1025A0000F5F1F4FB8010E94E121F8010190002048
:1025B000E9F73197AF01401B510BB801C7010E94E9
:1025C0007E12811103C0C7010E94AC12C701289678
:1025D0000FB6F894DEBF0FBECDBFDF91CF911F9134
:1025E0000F91FF90EF900895CF93DF93EC01FB01E3
:1025F00044815581608171810E947E12811103C0E6
:10260000CE010E94AC12CE01DF91CF910895EF92DE
:10261000FF920F931F93CF93DF93EC017B018A010D
:10262000BA010E94E211811104C0CE010E94AC12D5
:1026300007C01D830C83B701888199810E94DA212C
:10264000CE01DF91CF911F910F91FF90EF900895F0
:10265000CF93DF93EC016115710559F0FB010190F7
:102660000020E9F73197AF01461B570B0E94071373
:1026700002C00E94AC12CE01DF91CF910895FC01FF
:10268000808191810C946120089540915A07509166
:102690005B07209158073091590742175307B4F44C
:1026A0009091E8009570E1F39091E80092FD19C0D7
:1026B0008093F10080915A0790915B0701968F7388
:1026C0009927892B19F48EEF8093E80080915A079F
:1026D00090915B07019690935B0780935A0781E086
:1026E000089580E00895CF92DF92EF92FF920F93CA
:1026F0001F93CF93DF931F92CDB7DEB7182F062F0E
:10270000E42E862F880F8E5F99830E94451383E005
:102710000E944513F12EC12E9981D92E8C2D8F192F
:10272000801798F4F601E7FE02C0849101C0808111
:102730000E944513182F80E00E9445138123FFEF6C
:10274000CF1ADF0A8111EACF01C081E00F90DF913B
:10275000CF911F910F91FF90EF90DF90CF90089550
:10276000DF92EF92FF920F931F93CF93DF93D82EB8
:102770008A017B01E40EF51EEB01CE15DF0571F039
:10278000D7FE03C0FE01849101C088810E944513D9
:1027900021968111F2CF8FEF9FEF01C0C801DF9129
:1027A000CF911F910F91FF90EF90DF9008956150AE
:1027B00030F02091F100FC0120830196F8CF289899
:1027C00084E680939E020895CF92DF92EF92FF926B
:1027D0000F931F93CF93DF936C017A018B01C0E0BD
:1027E000D0E0CE15DF0589F0D8016D918D01D601BD
:1027F000ED91FC910190F081E02DC6010995892BA6
:1028000011F47E0102C02196ECCFC701DF91CF9178
:102810001F910F91FF90EF90DF90CF9008950F934D
:102820001F93CF93DF931F92CDB7DEB782E08983EA
:1028300042E450E065E87EE080E80E94B0130E9428
:102840004B12DC0112960D911C9113970115110585
:1028500069F0D801ED91FC910280F381E02DBE0179
:102860006F5F7F4FC801099597FF07C089810F905F
:10287000DF91CF911F910F910895F8010085118587
:10288000E5CFFB01DC0111961C921E9213961C925F
:102890001E92129715961C921E92149786179707F0
:1028A00049F0608171816115710521F04481558184
:1028B0000C9407130895FC01118210821382128276
:1028C000158214826115710551F0FB010190002001
:1028D000E9F73197AF01461B570B0C940713089586
:1028E0001F920F920FB60F9211248F939F93809196
:1028F000E1009091E100937F9093E10083FF0FC08E
:102900001092E90091E09093EB001092EC0092E3BA
:102910009093ED0010929F0298E09093F00082FF58
:1029200020C093E09093E9009091F200992319F070
:102930009AE39093E80090919C02992339F090914A
:102940009C02915090939C02992389F190919E0250
:10295000992339F090919E02915090939E02992371
:1029600041F184FF10C08091E2008E7E81608093EF
:10297000E2008091E1008F7E8093E10080919D02D2
:102980008E7E806111C080FF16C08091E2008E7E35
:1029900080618093E2008091E1008E7E8093E1006F
:1029A00080919D028E7E816080939D0204C05D9A1D
:1029B000CDCF289AD6CF9F918F910F900FBE0F90B9
:1029C0001F9018951F920F920FB60F921124CF925D
:1029D000DF92EF92FF920F931F932F933F934F93AA
:1029E0005F936F937F938F939F93AF93BF93EF9377
:1029F000FF93CF93DF93CDB7DEB76C97DEBFCDBF2C
:102A00001092E9008091E80083FFFAC168E0CE01EE
:102A100045960E94D71382EF8093E8008D8987FF47
:102A200005C09091E80090FFFCCF03C09EEF90930B
:102A3000E800982F907609F0C6C09E892F89188DDE
:102A400091110CC0803829F4809156078093F100D1
:102A500002C01092F1001092F10047C1422F50E0E5
:102A6000512B913051F4811140C14130510509F091
:102A70003CC1809156078D7F0BC0933061F481116A
:102A800034C14130510509F030C180915607826050
:102A9000809356072AC1953041F48091E80080FF69
:102AA000FCCF20682093E30020C1963009F05FC07E
:102AB000EB8CFC8C1092E90010925B0710925A0785
:102AC000123091F510925907109258070E940F1476
:102AD00099E0BE016F5F7F4FDB01E92F1D92EA9500
:102AE000E9F799831A8391E09E8390EA98879AEF99
:102AF000998720915A0730915B07275F3F4F3C83AE
:102B00002B838D831092E90010925B0710925A0775
:102B1000F0925907E092580749E050E080E00E94A7
:102B2000B0130E940F14E1C0F0925907E0925807C9
:102B30000E944B12DC011296ED90FC901397E11469
:102B4000F10409F4C0C0D701ED91FC910480F58136
:102B5000E02DBE016B5E7F4FC7010995009719F00C
:102B60000CF0C3C0C6C0F701E084F184E8CF973011
:102B700009F4BFC0983021F481E08093F100B5C022
:102B8000993009F0B2C0837009F0B3C0E8E4F1E015
:102B900081E021E036E39081992361F08093E900A0
:102BA0002093EB0091919093EC003093ED008F5FB8
:102BB000873089F78EE78093EA001092EA008F89C8
:102BC00080939F0292C08B8D9C8D1092E900109291
:102BD0005B0710925A079093590780935807898D85
:102BE000811156C08E899D89913A59F4813209F03C
:102BF00080C047E050E06DE071E080E00E94B013DB
:102C000074C0913209F075C0833289F4888D90E0E8
:102C1000982F88272F89822BA0E0B0E080931501A0
:102C200090931601A0931701B09318015EC08032F3
:102C300069F48091E80082FFFCCF67E08DE091E0CD
:102C40000E94D7138BEF8093E80006C0823209F010
:102C50004CC08F898093140180915507882319F007
:102C6000EEEFFAE002C0E0E0F8E080910D01909113
:102C70000E01A0910F01B0911001803B9440A1057D
:102C8000B10509F088C08091140180FFA0C083C005
:102C90000E944B12DC0112960D911C9113970115A5
:102CA000110539F1D801ED91FC910190F081E02DF1
:102CB000BE016B5E7F4FC8010995811116C0F801F6
:102CC00000851185ECCF1130C1F0133091F48F895C
:102CD000882309F455C08230E9F440E867E087EDC5
:102CE0009EE00E947313882321F08EEF8093E8000A
:102CF00087C081E28093EB0083C08B8D9C8D089709
:102D000011F41093570780915707811136C06FED6A
:102D10007EE038C0813029F440E86BE08BEC9EE027
:102D2000E0CF833031F70E944B12DC011296ED9018
:102D3000FC9013978E010F5F1F4F6801E114F1049F
:102D400079F0D701ED91FC910680F781E02DB80173
:102D5000C7010995080F111DF701E084F184EECF3A
:102D6000D8011C92F60101900020E9F73197BF01CC
:102D70006C197D0940E0C601B4CF61EF7EE002C06E
:102D800067EC7EE06115710509F4B3CFFB01449156
:102D900050E080E833CF0FB6F894A895809160009A
:102DA000886180936000109260000FBEA895EE3F8E
:102DB0002AE0F20739F08091FE0A9091FF0A918390
:102DC000808393CF1092FF0A1092FE0A8ECFEE3FBF
:102DD0008AE0F80731F0808191819093FF0A809317
:102DE000FE0A87E797E7918380839BE088E10FB62F
:102DF000F894A895809360000FBE9093600075CF03
:102E00006C960FB6F894DEBF0FBECDBFDF91CF91A9
:102E1000FF91EF91BF91AF919F918F917F916F91B2
:102E20005F914F913F912F911F910F91FF90EF90E4
:102E3000DF90CF900F900FBE0F901F901895CF93FB
:102E4000DF93CDB7DEB760970FB6F894DEBF0FBE45
:102E5000CDBF789484B5826084BD84B5816084BD23
:102E600085B5826085BD85B5816085BD80916E0028
:102E7000816080936E001092810080918100826059
:102E80008093810080918100816080938100809196
:102E900080008160809380008091910082608093A7
:102EA00091008091910081608093910080919000C9
:102EB0008160809390008091C10084608093C10004
:102EC0008091C10082608093C1008091C1008160C7
:102ED0008093C1008091C30081608093C300809182
:102EE000C00082608093C0008091C20081608093A6
:102EF000C20080917A00846080937A0080917A0089
:102F0000826080937A0080917A00816080937A0059
:102F100080917A00806880937A0010929F021092CC
:102F2000560710929D028091D70081608093D70050
:102F300080EA8093D80089B5806189BD89B58260B7
:102F400089BD09B400FEFDCF61E070E080E090E053
:102F50000E94930D8091D8008F7C80618093D8006F
:102F60008091E000807F8093E0008091E1008E7E80
:102F70008093E1008DE08093E200559A209AEEEF75
:102F8000FFE7859194918B3F9C4D19F481E08093EC
:102F9000550785E00E94F70F8DE00E94F70F0FB7ED
:102FA000F89480914F02811127C0E3E2F1E084910F
:102FB000E6EFF0E09491E82FF0E0EE0FFF1FE6530C
:102FC000FF4FA591B491EC91E92321F461E081E1F7
:102FD0000E94F40C61E081E10E94570D8CB5806184
:102FE0008CBD8CB580648CBD61E08FE00E94570D74
:102FF00061E080E10E94570D80914F028F5F8093C6
:103000004F020FBFE1E3CE2EE1E0DE2EF601849108
:10301000F2E0CF0ED11CF60131976491882319F0AC
:103020000E94570DF3CF61E086E00E94F40C61E04E
:1030300070E080E090E00E94930D60E086E00E94E6
:10304000F40C6AE070E080E090E00E94930D61E093
:1030500086E00E94F40CEEE1F1E0E491F0E0EE0F86
:10306000FF1FEC5FFE4F85919491909355028093E2
:103070005402E1EFF0E0E491E0935302E6E1F1E085
:10308000E491F0E0EE0FFF1FEC5FFE4F859194910D
:103090009093520280935102E9EEF0E0E491E093C4
:1030A00050028CB58C7F8CBD8DB581608DBDE0915B
:1030B0005402F0915502908180915302982B908395
:1030C000A0915102B09152022C9190915002909592
:1030D00092239C939081809589238083E8EDF0E092
:1030E0008DE08E0F94919EBD00000DB407FEFDCFC4
:1030F0009EB531968E13F6CFE0915102F0915202B7
:10310000908180915002892B8083E0915402F0914C
:10311000550290818091530280958923808380910C
:103120006400816080936400809164008260809379
:1031300064008091640080688093640080916400E2
:103140008064809364008091650081608093650055
:1031500082E48093E6060E94091261E085E00E9405
:10316000570D61E08DE00E94570D81E08093480289
:1031700035E1432E512C40E2C42ED12C59E2852E4C
:10318000912C80E5A82E81E0B82E9FE0292E312CCD
:103190002BE3622E712C0E9409120E94CD0D20910A
:1031A000090130910A0140910B0150910C01621705
:1031B00073078407950708F477C0DA01C9018851BD
:1031C0009C4FAF4FBF4F8093090190930A01A0938A
:1031D0000B01B0930C0180916E02882309F442C068
:1031E00080915D0290915E02019790935E028093C0
:1031F0005D0297FF37C080915F0290916002009757
:1032000051F070925E0260925D02019790936002AD
:1032100080935F0227C080916102909162020097C3
:1032200071F070925E0260925D0270926002609234
:103230005F020197909362028093610213C0109223
:103240005E0210925D02B0924C02A0924B02B092CC
:103250004A02A09249020E94050F81E080934D022C
:1032600010926E020E94230E83FF15C00E94230E4F
:1032700082FF11C080910801882369F080916D025E
:10328000811109C080916C02811105C03092D9066C
:103290002092D806C0C280916A0290916B0201967A
:1032A00090936B0280936A020E94CD0D2091EF06ED
:1032B000222391F02091E706362F321B3093F0063F
:1032C0002091E2063091E3062F5F3F4F3093E306F3
:1032D0002093E2061092EF062091EB063091EC0667
:1032E0004091ED065091EE0662177307840795072B
:1032F00078F4261B223008F48EC283B7817F83BF07
:1033000083B7816083BF889583B78E7F83BF83C275
:10331000E091E6069B01AC012E0F311D411D511DB0
:103320002093EB063093EC064093ED065093EE06A7
:103330006093E7067093E8068093E9069093EA06A7
:1033400081E08093EF068091D8069091D90600978E
:1033500029F43092D9062092D80605C0019790939F
:10336000D9068093D80680916A0290916B02CC971F
:1033700069F410926B0210926A028091640290913B
:103380006502019690936502809364022091640225
:103390003091650280916A0290916B022C33310565
:1033A00081F4009771F410926502109264022091EA
:1033B0000401309105012F5F3F4F309305012093A9
:1033C0000401209104013091050128313105D1F427
:1033D0002091640230916502232B09F047C00097C9
:1033E00009F044C020910001211140C02091D8066D
:1033F0003091D9062F303105C9F510920501109290
:10340000040131C02B30310589F5209164023091DF
:1034100065022B33310551F58B33910591F42091E1
:103420000001222371F020910201222351F020910A
:10343000D8063091D9062F30310519F410920201C7
:1034400015C08B33910591F420910001222371F076
:103450002091020121110AC02091D8063091D9068D
:103460002F30310519F421E020930201209104014D
:10347000309105012D30310594F020916402309196
:103480006502232B61F4009751F42091000122235F
:1034900031F041E050E05093050140930401209148
:1034A0000401309105012C30310534F040910001C8
:1034B000411102C0109202014091680250916902CC
:1034C0004817590759F5409166025091670280915B
:1034D0006402909165024817590701F58091060131
:1034E0009091070182179307C9F49091030180918D
:1034F0000201981313C080916302882379F0B0927F
:103500004C02A0924B02B0924A02A09249020E9441
:10351000050F81E080934D02109263020E94230EFA
:1035200085FF81C10E94230E86FF7DC10E94230E6C
:1035300083FD79C10E94230E82FD75C10E94230E76
:1035400087FD71C10E94230E84FD6DC10E94091286
:103550000E941E1241E061E081E00E94400E109244
:10356000080181E08093010110926D0210926C02BB
:1035700080910801882309F44EC10E94230E85FF23
:103580002DC06EE471E0CE0101960E945B14CE0165
:1035900001960E94AE07082F882309F465C10091A7
:1035A0006C0281E0082760C110924D020E94CD0D8F
:1035B00020915702309158024091590250915A027D
:1035C000E0910101621773078407950708F463C14E
:1035D000E11161C180915602811178C10E943408C5
:1035E000882349F081E0809356028093010141E0F5
:1035F00061E00E94400E0E94230E86FF2DC063E50D
:1036000071E0CE0101960E945B14CE0101960E94EA
:10361000AE07082F882309F475C100916D0281E07F
:10362000082770C110924D020E94CD0D20915702C3
:10363000309158024091590250915A02E091010193
:10364000621773078407950708F48FC1E1118DC1D4
:103650008091560281116DC10E943408882349F07F
:1036600081E0809356028093010141E061E00E9475
:10367000400E0E94230E84FF2FC069E571E0CE0149
:1036800001960E945B14CE0101960E94AE07082F9E
:10369000882321F000916C0281E00827CE01019679
:1036A0000E943F130023C1F00E94CD0D20915702CC
:1036B000309158024091590250915A02E091010113
:1036C000621773078407950708F481C1E1117FC170
:1036D00000915602011164C10E943408882351F000
:1036E00081E0809356028093010141E061E00E94F5
:1036F000400E02C0111109C010916D021111DDC1FF
:1037000081C181E080936D02102F0E94091267EB46
:1037100071E0CE0107960E945B14809163028823BA
:1037200009F4CDC16EE571E0CE0107960E94281321
:1037300080910001882309F4C5C16EE971E084EB32
:1037400096E00E9428131092F2061092F106109251
:10375000F4061092F30664EB76E0CE0101960E9427
:10376000411441E150E066EA71E0CE0101960E9409
:103770007E12882309F4A9C1BE01695F7F4FCE0183
:1037800001960E94F4120E943012CE0101960E940E
:103790003F13D092F206C092F1069092F406809206
:1037A000F306409106015091070160916602709105
:1037B000670200E020E080916802909169020E9417
:1037C0006209FC0190935C0280935B0260817181CD
:1037D000709369026093680242815381509367023B
:1037E00040936602248135813093070120930601BE
:1037F000E12CCE0101960E945008CE0101960E9454
:103800003012CE0101960E943F13CE0107960E940E
:103810003F130E941E1220E030E0232B09F4BBCCA2
:103820000E940000AECC0E94230E87FFA1CE0E9412
:10383000230E84FF9DCE0E94230E83FD99CE0E940D
:10384000230E82FD95CE0E94230E85FD91CE0E940F
:10385000230E86FD8DCE41E061E081E00E94400EA6
:1038600081E08093080184CECE0101960E943F132F
:10387000002309F4B3CE80914D02882309F496CE3B
:1038800000E080914E02081708F08ECE802F0E9433
:10389000D40E0F5FF6CFEE2309F4A0CE0E94CD0D1B
:1038A000DC01CB0184529A4FAF4FBF4F8093570238
:1038B00090935802A0935902B0935A0210920101BA
:1038C00040E061E081E00E94400E88CE10925602F6
:1038D00010925702109258021092590210925A02F6
:1038E00041E060E081E00E94400E80916302882305
:1038F00019F0109263027FCE81E0809363021092F0
:103900006D0279CECE0101960E943F13002309F487
:10391000A3CE80914D02882309F486CE00E08091E9
:103920004E02081708F07ECE802F0E94D40E0F5F43
:10393000F6CF10925602109257021092580210922F
:10394000590210925A0241E060E081E00E94400E6C
:1039500080916E02882319F010926E028ACE81E067
:1039600080936E0210926C0284CEEE2309F474CE22
:103970000E94CD0DDC01CB0184529A4FAF4FBF4F57
:103980008093570290935802A0935902B0935A0221
:103990001092010140E060E081E00E94400E5CCEA8
:1039A0001092560210925702109258021092590229
:1039B00010925A0241E060E081E00E94400E809146
:1039C0006D02882309F49DCE10926D0295CEEE23F0
:1039D00009F482CE0E94CD0DDC01CB0184529A4FB6
:1039E000AF4FBF4F8093570290935802A093590254
:1039F000B0935A021092010141E061E080E00E9420
:103A0000400E6ACE0E94230E87FF42C068EB71E031
:103A1000CE0101960E945B14CE0101960E94AE0772
:103A2000082FCE0101960E943F13002389F10E94C6
:103A3000CD0D20915702309158024091590250917A
:103A40005A02E0910101621773078407950738F065
:103A5000E11105C00091560201113CC019C0EE23CE
:103A6000B9F00E94CD0DDC01CB0184529A4FAF4FCB
:103A7000BF4F8093570290935802A0935902B0937E
:103A80005A021092010141E060E080E00E94400E85
:103A90000E943408882351F081E08093560280937D
:103AA000010141E061E00E94400E02C0F11021C11D
:103AB000F0906C02F1101CC128C010E026CE6EE719
:103AC00071E032CE62EA71E03ACECE0101960E94F8
:103AD000AC1252CE10925602109257021092580217
:103AE0001092590210925A0241E060E081E00E9477
:103AF000400E80916C02882319F010926C02D8CF8E
:103B000081E080936C02F02EF4C080916E028823D5
:103B100091F11092F2061092F1065092F406409242
:103B2000F3068CEF91E00E943912D092F206C09217
:103B3000F1064FE150E05093F4064093F3062091D4
:103B400061023091620240915F0250916002609187
:103B50005D0270915E02EE24E39400E0CE010196D6
:103B60000E945008CE0101960E943012CE010196AB
:103B70000E943F130CC01092F2061092F106509270
:103B8000F4064092F3068FE092E00E943912809191
:103B900063021092F2061092F1069092F40680925F
:103BA000F306882349F188E691E00E943912D09209
:103BB000F206C092F10683E390E09093F4068093BE
:103BC000F306209106013091070140916602509161
:103BD00067026091680270916902E12C00E0CE01F9
:103BE00001960E945008CE0101960E943012CE012B
:103BF00001960E943F1304C081E292E00E943912B4
:103C00004091040150910501609164027091650238
:103C100000E021E080916A0290916B020E946209AB
:103C2000FC0190935C0280935B02608171817093D0
:103C30006B0260936A024281538150936502409304
:103C40006402248135813093050120930401D092D0
:103C5000F206C092F106E9E0F0E0F093F406E0939A
:103C6000F306E12C01E0CE0101960E9450088091FC
:103C7000D2069091D3060097C9F069817A816115C7
:103C8000710591F04091D4065091D5062D813E8169
:103C90004217530748F00E94DA218D819E8190934C
:103CA000D7068093D60618C00E94612089819A8128
:103CB0009093D3068093D2068B819C819093D506F6
:103CC0008093D4068D819E819093D7068093D606EB
:103CD0001A8219821C821B821E821D82CE010196CD
:103CE0000E943F1382ED96E00E94301210E091CDC9
:103CF000F12C0E94091267EB71E0CE0107960E9439
:103D00005B1480916E02882319F06BEB71E002C0A6
:103D100065ED71E0CE0107960E9428131092F2061D
:103D20001092F1061092F4061092F3066AEE71E01A
:103D3000CE0101960E945B14BE01695F7F4FCE01E8
:103D400001960E94F4120E943012CE0101960E9448
:103D50003F1380916E02811127C040916102509102
:103D6000620260915F027091600201E020E0809148
:103D70005D0290915E020E946209FC0190935C02D8
:103D800080935B028081918190935E0280935D02BB
:103D9000828193819093600280935F0284819581F8
:103DA0009093620280936102D092F206C092F10673
:103DB0009092F4068092F3062091610230916202A3
:103DC00040915F025091600260915D0270915E02CD
:103DD000EE24E39400E00DCD0F931F93CF93DF9378
:103DE0008C018AE090E00E9416229FEF980F9E3F80
:103DF00058F522E330E0D80157963C932E9356971E
:103E000028E330E059963C932E935897CBE0D0E0CE
:103E1000D801ED91FC910190F081E02D682FC8014F
:103E20000995CE010E9416222196C131D10581F754
:103E30000E941E126CED75E080E090E0DF91CF9162
:103E40001F910F910C94930DDF91CF911F910F91C2
:103E5000089504970C94EC1E82EA96E00E943F13AA
:103E600088EA96E00E943F138EEA96E00E943F1394
:103E700084EB96E00E943F138AEB96E00E943F138A
:103E800080EC96E00E943F1386EC96E00E943F1380
:103E90008CEC96E00E943F1382ED96E00C943F1369
:103EA000E5E0F7E01382128288EE93E0A0E0B0E054
:103EB00084839583A683B78389E291E0918380838D
:103EC0008FEF9FEF95878487EBEDF6E013821282E8
:103ED0001186128680E1838710861782108A118AE4
:103EE000128A138A148A89E391E09183808383E4A0
:103EF00091E095838483178A168A118E108E81E053
:103F0000828F138E848F158E8EE59BE09093A10691
:103F10008093A0068FE090E09093D9068093D80616
:103F200067EB71E082ED96E00E945B1465E472E05D
:103F30008CEC96E00E945B1469E372E086EC96E0FC
:103F40000E945B1469E372E080EC96E00E945B14CF
:103F50006BE372E08AEB96E00E945B1467EB71E022
:103F600084EB96E00E945B146DE372E08EEA96E0CB
:103F70000E945B1467EB71E088EA96E00E945B1494
:103F800067EB71E082EA96E00C945B14EE0FFF1F82
:103F90000590F491E02D0994CF93DF938230910541
:103FA00010F482E090E0E0915E07F0915F0720E07E
:103FB00030E0C0E0D0E0309711F1408151814817E6
:103FC0005907C0F04817590761F4828193812097FF
:103FD00019F09B838A832BC090935F0780935E07C1
:103FE00026C02115310519F04217530718F49A011C
:103FF000BE01DF01EF010280F381E02DDCCF21154E
:10400000310509F1281B390B2430310590F4129643
:104010008D919C9113976115710521F0FB0193839C
:10402000828304C090935F0780935E07FD01329600
:1040300044C0FD01E20FF31F819391932250310997
:104040002D933C933AC020915C0730915D07232B60
:1040500041F420911B0130911C0130935D072093A6
:104060005C072091190130911A012115310541F4A5
:104070002DB73EB740911D0150911E01241B350BF9
:10408000E0915C07F0915D07E217F307A0F42E1BA7
:104090003F0B2817390778F0AC014E5F5F4F2417AC
:1040A000350748F04E0F5F1F50935D0740935C0744
:1040B0008193919302C0E0E0F0E0CF01DF91CF91D6
:1040C00008950F931F93CF93DF93009709F48CC04B
:1040D000FC0132971382128200915E0710915F07F4
:1040E0000115110581F420813181820F931F2091E8
:1040F0005C0730915D072817390779F5F0935D0764
:10410000E0935C0771C0D80140E050E0AE17BF07F4
:1041100050F412962D913C911397AD012115310564
:1041200009F1D901F3CF9D01DA0133832283608144
:104130007181860F971F8217930769F4EC0128811C
:104140003981260F371F2E5F3F4F318320838A81AD
:104150009B8193838283452B29F4F0935F07E0933F
:104160005E0742C01396FC93EE931297ED014991BE
:1041700059919E01240F351FE217F30771F48081D6
:104180009181840F951F029611969C938E93828144
:10419000938113969C938E931297E0E0F0E0D80100
:1041A00012968D919C911397009719F0F8018C014C
:1041B000F6CF8D919C9198012E5F3F4F820F931FF8
:1041C00020915C0730915D072817390769F4309713
:1041D00029F410925F0710925E0702C013821282C8
:1041E00010935D0700935C07DF91CF911F910F91B2
:1041F0000895A0E0B0E0EFEFF0E20C944122EC0172
:10420000009721F4CB010E94CC1FB8C0FC01E60F3F
:10421000F71F9C0122503109E217F30708F4ACC0E4
:10422000D9010D911C91119706171707B0F00530B1
:10423000110508F49FC0C80104978617970708F472
:1042400099C002501109061B170B019311936D932E
:104250007C93CF010E9461208DC05B01A01AB10A3E
:104260004C01800E911EA0915E07B0915F0740E067
:1042700050E0E12CF12C109709F44AC0A815B905BB
:10428000D1F56D907C901197630182E0C80ED11C2E
:10429000CA14DB0480F1A3014A195B096A0182E0B8
:1042A000C80ED11C1296BC9012971396AC91B5E033
:1042B000CB16D10440F0B282A38351834083D9014D
:1042C0006D937C930AC00E5F1F4FC301800F911F37
:1042D000F90191838083EB2DFA2FE114F10431F081
:1042E000D7011396FC93EE93129744C0F0935F07A7
:1042F000E0935E073FC08D919C9111974817590735
:1043000008F4AC017D0112960D90BC91A02DB3CFA5
:1043100080915C0790915D0788159905E1F4461737
:104320005707C8F48091190190911A01009741F440
:104330008DB79EB740911D0150911E01841B950BB6
:10434000E817F907C8F4F0935D07E0935C07F901FB
:10435000718360830FC0CB010E94CC1F7C0100974A
:1043600059F0A801BE010E94C821CE010E9461201F
:10437000C70104C0CE0102C080E090E0CDB7DEB737
:10438000EEE00C945D2281E090E0F8940C94A5227C
:10439000FB01DC0102C001900D9241505040D8F762
:1043A0000895FB01DC018D91019080190110D9F372
:1043B000990B0895FB01DC0101900D920020E1F7BB
:1043C0000895BB274A3031F4992322F4BDE2909539
:1043D00081959F4F0C94ED21BB27FB015527AA2700
:1043E000880F991FAA1FA41710F0A41B8395505182
:1043F000B9F7A05DAA3308F0A95DA193009779F7FA
:10440000B111B1931192CB010C940622DC01FC0195
:10441000672F71917723E1F7329704C07C916D93F8
:1044200070836291AE17BF07C8F30895F999FECF64
:1044300092BD81BDF89A992780B50895052E97FB06
:104440001EF400940E94352257FD07D00E9474226A
:1044500007FC03D04EF40C943522509540953095CE
:1044600021953F4F4F4F5F4F0895909580957095E0
:1044700061957F4F8F4F9F4F08952F923F924F929C
:104480005F926F927F928F929F92AF92BF92CF92E4
:10449000DF92EF92FF920F931F93CF93DF93CDB7ED
:1044A000DEB7CA1BDB0B0FB6F894DEBF0FBECDBF65
:1044B00009942A88398848885F846E847D848C8436
:1044C0009B84AA84B984C884DF80EE80FD800C813F
:1044D0001B81AA81B981CE0FD11D0FB6F894DEBF22
:1044E0000FBECDBFED010895A1E21A2EAA1BBB1B82
:1044F000FD010DC0AA1FBB1FEE1FFF1FA217B307B0
:10450000E407F50720F0A21BB30BE40BF50B661FC5
:10451000771F881F991F1A9469F760957095809589
:1045200090959B01AC01BD01CF010895A29FB00100
:10453000B39FC001A39F700D811D1124911DB29FD7
:10454000700D811D1124911D089517E0C3E8D7E077
:1045500004C0FE010E94C61F2196C438D107C9F7C6
:04456000F894FFCFFD
:10456400010101010C000C0001E803000000E1005E
:104574000000000000FFFFFFFF0000600780000153
:10458400000000030100000000D71054113A11F894
:10459400101611ED1000000000610BE413EC1EFC7A
:1045A400FF0000291F0F0000C180810000004C455E
:1045B400465400524947485400444F574E00416CFA
:1045C40061726D204F4E0A0D486F6C64204C454655
:1045D4005420746F207475726E204F464600416CEF
:1045E40061726D204F46460A0D486F6C64204C453D
:1045F400465420746F207475726E204F4E00313211
:104604006800323468002020414C41524D2053450B
:104614005454494E470A0D0055500020486F6C64AD
:1046240020524947485420746F2053746F702054AB
:10463400696D65720020486F6C6420524947485484
:1046440020746F205374617274002054494D455294
:104654002053455454494E47530A0D00486F6C6427
:1046640020524947485420746F2073746F70004877
:104674006F6C6420555020666F722054696D6572AA
:1046840000486F6C6420444F574E20666F7220417F
:104694006C61726D00410042003000200020414DE9
:0846A4000020504D003A000017
:00000001FF
