:100000000C9484070C94AC070C94AC070C94AC07CC
:100010000C94AC070C94AC070C94AC070C94AC0794
:100020000C94AC070C94AC070C9487140C94F91442
:100030000C94AC070C94AC070C94AC070C94AC0774
:100040000C94AC070C94700E0C94AC070C94AC0799
:100050000C94AC070C94AC070C94AC070C94F00D0A
:100060000C94AC070C94AC070C94AC070C94AC0744
:100070000C94AC070C94AC070C94AC070C94AC0734
:100080000C94AC0F0C94AC070C94AC070C94AC071C
:100090000C94AC070C94AC070C94AC070C94AC0714
:1000A0000C94AC070C94AC070C94AC07360D390DCE
:1000B000280D2C0D300D5A0D5A0D5A0D3D0D410DC8
:1000C000450D4B0D4F0D5A0D550D0000000024003D
:1000D00027002A002D003000D5F08D14A1C881CF53
:1000E000D9F1AF20000408020110408040102040E8
:1000F000804080080204018040201002011080101E
:100100002040402000000000250028002B002E0089
:10011000310004040404040304050202020204037F
:100120000202020206060606060604040202020491
:10013000041402130212021502070208020A020A3C
:10014000010B020B010902090104010C0106010067
:10015000029A903E00A6904000A6904200A69040D1
:1001600000A6904300A6904200A6904000A6903EB4
:1001700000A6904500A6904300A6904200A690409D
:1001800000A69132904200A69134903E00A691368E
:10019000904500A6913400A69047913700A691366D
:1001A00000A69049913400379047003790490037B6
:1001B0009132904A00A6913990490053904A0053D9
:1001C0009137904900A691369047005390450053CF
:1001D0009134007D8000299049913600A6904A9183
:1001E0003200A6904C913900A6904900A6912D901E
:1001F0004E00A6904A00A69139904900A69047006B
:100200008A81001B9139904C00A6904900A6912D3F
:10021000904A00A6904700A69139904500A69044C8
:10022000008A81001B9139904C00A6904900A6914C
:100230002D904E00A6904A00A69139904900A690B4
:1002400047008A81001B9139904C00A6904900A676
:10025000912D904A00A6904700A69139904500A69E
:100260009044008A81001B9139904900A690470074
:10027000A6913B904A00A6904900A6913D90470068
:10028000A6904500A6913E904E00A6913D00A690F6
:1002900044914000A6913E00A69045913D00A69154
:1002A0003B00A6913D001B80001B90470037904506
:1002B0000037913E90440037904500379047001B2F
:1002C00080001B90479140014D913400A69045005D
:1002D000A69139904500A6913400A6913600A691CA
:1002E0003800A691398000A6913B00A6913D00A65A
:1002F000913B00A6904C913E00A6913D00A69051E6
:10030000913B00A6913900A6914000A6904700A617
:100310009134904900A6904B00A6904C8100A69085
:100320004E00A6904F00A6904E00A6913B90510023
:10033000A6904F00A69140904E00A6904C00A6902B
:100340005300A6913600A69047913800A6913A0036
:10035000A6913B8000A6913D00A6913E00A6913D4E
:1003600000A69042914000A6913E00A69047913D84
:1003700000A6913B00A6914200A6904600A69136A9
:10038000904700A6904900A69140904A00A6904C44
:1003900000A6913E904E00A6904C00A69147904F2B
:1003A00000A69146904E00A69147904C00A6904A18
:1003B00000A6913D904C00A6904A00A69146904E12
:1003C00000A69144904C00A69146904A00A6904900
:1003D00000A69147904A00A69145904900A69143F6
:1003E000904C00A69142904A00A69140904900A6E8
:1003F000913E904700A69140904900A6913E00A6EC
:10040000904691420053904400539140904600A67C
:10041000913E904700A6913D00A6913E00A69049CE
:100420009140008A80001B904991420053904A00FD
:1004300053904900A6913600A6904700A6913B0034
:10044000A6904200A69136904400A6904600A69140
:1004500032904700A6904900A6912F904A00A6909E
:100460004900A6904C00A6904A00A690498100A69B
:10047000904700A6904F00A6912F00A6913100A6AC
:10048000913300A6913400A6913600A6913700A6BC
:10049000913600A6913900A6913700A6913600A6A4
:1004A000913400A69139008A80001B904000A690EC
:1004B0004200A6904400A6904500A6904700A69052
:1004C0004900A6904700A6904A00A6904900A69031
:1004D0004700A6904500A6904E008A81001B912DF2
:1004E00000A6912F00A6913100A6913200A691346A
:1004F00000A6913600A6913400A6913700A6913649
:1005000000A6913400A6913200A69138008A80009E
:100510001B904700A6904C00A69134904A00A691EB
:1005200036904900A69138904700A691399049002D
:10053000A69138904700A69136904A00A691349033
:100540004900A69132904700A69136904500A691A9
:100550003490440053904500539132904400A6914A
:1005600031904000A6912F00A69045913100A690B1
:1005700047912D00A69049913900A6904700A69179
:1005800036904A00A6904900A69131904700A69067
:100590004500A69132904E00A6913100A6913400FC
:1005A000A69044913200A69045913100A6904491C6
:1005B0002F00A69045913100A6904A913200A69056
:1005C000479134014D912800A69045008A80001B78
:1005D0009045912D00A6913100A6913200A6904938
:1005E000913400A6904A913600A6904C913700A60F
:1005F0009042913900A6913700A69043913B00A606
:10060000913900A690479137005390450053913699
:1006100090430053904500539137904700A6913680
:1006200000A6904A91390053904900539137904762
:100630000053904900539136904A00A6913400A689
:10064000913600A69049913400A6904C913700A6AF
:10065000904A913600A69049913400A6904A913272
:1006600000A6904C913900A6904A00A6912D904981
:1006700000A6904700A690458100A6904300A69052
:100680004200A6904000A6904300A6904200A6908B
:100690004000A6903E00A6904500A6904300A6907C
:1006A0004200A6904000A69132904200A69134905C
:1006B0003E00A69136904500A6913400A690479141
:1006C0003700A6913600A690499134003790470034
:1006D00037904900379132904A00A69139904900ED
:1006E00053904A00539137904900A69136904700A5
:1006F00053904500539134007D800029904A9136F3
:1007000000A69132008A80001B904A913900A69180
:100710003600A6903E913B00A6913700A6904A91E4
:100720003600A69134008A80001B904A913900A6B9
:10073000913600A6903E913700A6913400A6904ACB
:10074000913200A69131008A80001B904A913900B5
:10075000A6913600A6903E913B00A6913700A69048
:100760004A913600A69134008A80001B904A913944
:1007700000A6913600A6903E913700A6913400A6BF
:10078000904A913200A6904C913100A6904E913241
:1007900000A6904C00A69134904F00A6904E00A663
:1007A0009136904C00A6904A00A69137905300A62F
:1007B000913600A69049913900A6913700A6904A3B
:1007C000913600A6913400A69136001B80001B9044
:1007D0004C0037904A0037913790490037904A00D3
:1007E00037904C002980000D904C9139014D912D8E
:1007F00000A6904A008A80001B904A912F00A69183
:100800002D00A6903E913000A6912F00A690439116
:100810002D00A6912B00A6913200A6903900A6903B
:100820003B00A6903D00A6903E00A6904000A690FA
:1008300042008A81001B9131904000A6912F904385
:1008400000A6912D904200A6912B904000A6912ADF
:10085000903E00A6912B904700A6912A00A6912DCC
:1008600000A6903D912B00A6903E912A00A6903DB7
:10087000912800A6903E912A00A69043912B00A6B5
:100880009040912D01F4903E008A80001B903E9193
:100890002607D08081F006011501260137014A01A3
:1008A0005D01720188019F01B801D201EE010B02C6
:1008B0002A024B026E029302BA02E40210033F03C3
:1008C0007003A403DC03170455049704DD04270513
:1008D0007505C80520067D06E0064907B8072D08FE
:1008E000A9082D09B9094D0AEA0A900B400CFA0C27
:1008F000C00D910E6F0F5A1053115B1272139A14A0
:10090000D41520178018F519801B231DDE1EB42076
:10091000A622B524E4263429A72B402E0031EA3341
:100920000037453ABC3D68414C456B49C84D68525B
:100930004F57805C006210111213151617181A1CFD
:100940001D1F21232527292C2E3134373A3E4145BE
:10095000494E52575C62686E757B838B939CA5AF42
:10096000B9C4D0DCE9F700000000003E5B4F5B3EFD
:100970003E6B4F6B3E1C3E7C3E1C183C7E3C181C64
:10098000577D571C1C5E7F5E1C00183C1800FFE75B
:10099000C3E7FF0018241800FFE7DBE7FF30483A01
:1009A000060E2629792926407F050507407F052563
:1009B0003F5A3CE73C5A7F3E1C1C08081C1C3E7FEB
:1009C00014227F22145F5F005F5F06097F017F00B2
:1009D0006689956A606060606094A2FFA2940804D2
:1009E0007E040810207E201008082A1C08081C2AF3
:1009F00008081E101010100C1E0C1E0C30383E384B
:100A000030060E3E0E06000000000000005F0000F1
:100A10000007000700147F147F14242A7F2A122362
:100A20001308646236495620500008070300001C72
:100A30002241000041221C002A1C7F1C2A08083E7B
:100A4000080800807030000808080808000060608E
:100A50000020100804023E5149453E00427F4000FC
:100A600072494949462141494D331814127F1027D4
:100A7000454545393C4A4949314121110907364923
:100A8000494936464949291E0000140000004034F7
:100A900000000008142241141414141400412214FC
:100AA0000802015909063E415D594E7C1211127C23
:100AB0007F494949363E414141227F4141413E7F84
:100AC000494949417F090909013E414151737F0864
:100AD00008087F00417F41002040413F017F08140A
:100AE00022417F404040407F021C027F7F0408106B
:100AF0007F3E4141413E7F090909063E4151215E49
:100B00007F09192946264949493203017F01033FDC
:100B10004040403F1F2040201F3F4038403F63146B
:100B200008146303047804036159494D43007F416D
:100B300041410204081020004141417F04020102AA
:100B400004404040404000030708002054547840CF
:100B50007F284444383844444428384444287F3863
:100B60005454541800087E090218A4A49C787F08E5
:100B700004047800447D40002040403D007F102860
:100B8000440000417F40007C047804787C08040421
:100B9000783844444438FC1824241818242418FCB9
:100BA0007C08040408485454542404043F44243C5E
:100BB0004040207C1C2040201C3C4030403C4428CD
:100BC0001028444C9090907C4464544C4400083667
:100BD00041000000770000004136080002010204D5
:100BE000023C2623263C1EA1A161123A4040207AF5
:100BF000385454555921555579412154547841213F
:100C00005554784020545579400C1E527212395573
:100C10005555593954545459395554545800004570
:100C20007C410002457D420001457C40F029242999
:100C3000F0F0282528F07C545545002054547C546D
:100C40007C0A097F493249494932324848483232A0
:100C50004A4848303A4141217A3A42402078009D42
:100C6000A0A07D39444444393D4040403D3C24FFF0
:100C70002424487E4943662B2FFC2F2BFF0929F69D
:100C800020C0887E090320545479410000447D41EE
:100C90003048484A32384040227A007A0A0A727D47
:100CA0000D19317D2629292F282629292926304862
:100CB0004D4020380808080808080808382F10C8D0
:100CC000ACBA2F102834FA00007B000008142A1454
:100CD0002222142A14089500220095AA005500AA81
:100CE000AA55AA55AA000000FF00101010FF00141A
:100CF0001414FF001010FF00FF1010F010F0141477
:100D000014FC001414F700FF0000FF00FF1414F49B
:100D100004FC141417101F10101F101F1414141F9C
:100D200000101010F0000000001F101010101F1015
:100D3000101010F010000000FF1010101010101014
:100D40001010FF10000000FF140000FF00FF000063
:100D50001F10170000FC04F414141710171414F4D7
:100D600004F40000FF00F714141414141414F70012
:100D7000F7141414171410101F101F141414F41463
:100D80001010F010F000001F101F0000001F1400D2
:100D90000000FC140000F010F01010FF10FF1414FD
:100DA00014FF141010101F00000000F010FFFFFFD0
:100DB000FFFFF0F0F0F0F0FFFFFF0000000000FF89
:100DC000FF0F0F0F0F0F38444438447C2A2A3E147B
:100DD0007E02020606027E027E02635549416338A6
:100DE00044443C04407E201E2006027E020299A557
:100DF000E7A5991C2A492A1C4C7201724C304A4DB5
:100E00004D303048784830BC625A463D3E494949E9
:100E1000007E0101017E2A2A2A2A2A44445F444492
:100E200040514A444040444A51400000FF0103E021
:100E300080FF000008086B6B083612362436060F58
:100E4000090F06000018180000001010003040FFC5
:100E50000101001F01011E00191D1712003C3C3C3E
:100E60003C00000000000000000200090F00000329
:100E70000401000C00000000000000000000000061
:100E80000000000000080B0002020201000904003B
:100E900000010202000005240010010524010101E7
:100EA0000424020605240600010705810310004002
:100EB00009040100020A00000007050202400000C8
:100EC0000705830240000004030904417264756948
:100ED0006E6F204C4C430041726475626F79001252
:100EE000010002000000404123368000010102039E
:100EF0000112010002EF020140412336800001018E
:100F000002030100791F551F11241FBECFEFDAE045
:100F1000DEBFCDBF12E0A0E0B1E0E6EBF5E402C039
:100F200005900D92A634B107D9F727E0A6E4B2E008
:100F300001C01D92AE35B207E1F717E0C3E8D7E074
:100F400004C02197FE010E94EF1FC238D107C9F7E4
:100F50000E9436170C94CE220C940000CF93DF939E
:100F6000EC0165E372E00E9476128823B1F00E94E2
:100F70003A0E82FD75C00E943A0E87FD71C00E9434
:100F80003A0E84FD6DC00E943A0E85FD69C00E9434
:100F90003A0E86FD65C081E064C067E372E0CE0171
:100FA0000E947612882329F00E943A0E83FD58C0D1
:100FB000E2CF68EB71E0CE010E947612882349F0FF
:100FC0000E943A0E82FD4CC00E943A0E83FD48C03A
:100FD000D6CF69E571E0CE010E947612882369F0D0
:100FE0000E943A0E82FD3CC00E943A0E87FD38C036
:100FF0000E943A0E83FD34C0C6CF6EE471E0CE018C
:101000000E947612882389F00E943A0E82FD28C041
:101010000E943A0E87FD24C00E943A0E84FD20C033
:101020000E943A0E83FD1CC0B2CF63E571E0CE0191
:101030000E9476128823A1F00E943A0E82FD10C011
:101040000E943A0E87FD0CC00E943A0E84FD08C033
:101050000E943A0E85FD04C00E943A0E83FF9BCF8A
:1010600080E0DF91CF9108950E943A0E83FD16C073
:101070000E943A0E82FD12C00E943A0E87FD0EC0F9
:101080000E943A0E84FD0AC00E943A0E85FD06C0F9
:101090000E943A0E86FD02C081E0089580E0089526
:1010A0006F927F928F929F92AF92BF92CF92DF9278
:1010B000EF920F93CF93DF9300D000D000D0CDB745
:1010C000DEB76C015B014A0139016A30710518F421
:1010D00069E372E002C067EB71E084EC96E00E9485
:1010E0003F138AE08816910418F469E372E002C0A5
:1010F00067EB71E08EEB96E00E943F138AE0681682
:1011000071041CF46BE372E002C067EB71E088EBE2
:1011100096E00E943F1380910001882389F0E1103E
:101120000FC0002351F080910201882319F063E47D
:1011300072E008C06DE372E005C080910301F5CF55
:1011400067EB71E08CEA96E00E943F1368EB76E073
:10115000CE0101960E945814B301CE0101960E945F
:10116000D5126AEC76E00E940B136EEB76E00E94DB
:101170000B13B4010E94D5126AEC76E00E940B13A7
:1011800064EC76E00E940B13B5010E94D5126CEA64
:1011900076E00E940B13BC01C6010E945814CE01D8
:1011A00001960E945613C60126960FB6F894DEBF2C
:1011B0000FBECDBFDF91CF910F91EF90DF90CF9019
:1011C000BF90AF909F908F907F906F9008958823ED
:1011D00059F080910201882319F0109202010895BC
:1011E00081E080930201089580910301882319F022
:1011F00010920301089581E0809303010895962FD2
:10120000882349F120917802309179022F5F3F4F76
:101210003093790220937802411121C0809100011E
:10122000882389F02D3031053CF081E090E09093E7
:1012300079028093780208952C30310581F4862F4D
:101240000E94E70808952831310549F41092790287
:10125000109278020895642F892F0C9498100895A5
:10126000962F2091760230917702882379F02F5FB4
:101270003F4F2C33310574F01092770210927602B2
:10128000411103C081E00C94FF08089521503109F9
:1012900037FD05C0309377022093760208954111FF
:1012A0000AC02BE330E0309377022093760260E0AF
:1012B000892F0C9498108BE390E0909377028093A1
:1012C00076020895EF92FF920F93CF937C01C22F85
:1012D0009093750280937402709377026093760204
:1012E000509379024093780201116BC00E943A0E2C
:1012F00086FF36C00E943A0E87FF32C080910001FF
:10130000882371F10E943A0E83FD2AC00E943A0E92
:1013100082FD26C00E943A0E85FD22C00E943A0E30
:1013200084FD1EC010920001809178029091790294
:101330008C30910509F07CC0C11155C08091040129
:10134000909105010C9709F458C0C11160C08091BB
:101350000301882309F45BC010927902109278028D
:101360000E943A0E85FF2DC00E943A0E84FF29C0CC
:1013700080910001811125C00E943A0E83FD21C099
:101380000E943A0E82FD1DC00E943A0E86FD19C0D1
:101390000E943A0E87FD15C081E080930001809184
:1013A0007802909179028C3091050CF07CC0892BE9
:1013B00009F0A1C08091780290917902892B09F4FB
:1013C000B3C00E943A0E83FFDEC00E943A0E87FF30
:1013D000DAC00E943A0E82FDD6C0402F6C2F81E009
:1013E0000E94FF083EC180910201882309F4A6CF24
:1013F00010927902109278020AC08091020188232B
:1014000009F4A3CF10920501109204019ECF8091A0
:101410000601909107010C9709F0A2CF809103017A
:10142000882309F49DCF109207011092060198CFEE
:10143000CC2351F020910201211106C00C9690930B
:101440007902809378021DC020910401309105013A
:101450002C30310551F040910201411106C0245F4A
:101460003F4F3093050120930401C1110AC0209120
:101470000301211106C00C969093790280937802A3
:101480006FCF80910601909107018C30910509F48E
:1014900067CF20910301211163CF0C969093070130
:1014A000809306015DCF0C97CC23A1F09093790235
:1014B00080937802109202018091060190910701B9
:1014C0008D3091050CF476CF0C97909307018093A3
:1014D00006014FC020910401309105012D303105E6
:1014E0000CF443C02C5031093093050120930401C2
:1014F000109202013AC0CC2351F081E080930201A6
:1015000080910601909107010C9754F053CF809180
:101510000401909105010C971CF481E08093020175
:1015200081E08093030146CFCC2391F08CE090E0E2
:1015300090937902809378022091060130910701FF
:10154000232B09F03ECF909307018093060139CFFA
:101550008091040190910501892B71F48CE090E059
:10156000909305018093040107C0909379028093C2
:101570007802109203011ECF8CE090E090937902E4
:10158000809378021ECF0E943A0E83FF0DC00E9406
:101590003A0E84FF09C00E943A0E82FD05C0602FFA
:1015A0008C2F0E9498105DC00E943A0E82FF0EC0E0
:1015B0000E943A0E87FF0AC00E943A0E83FD06C0C1
:1015C000402F6C2F81E00E9430094BC00E943A0EE0
:1015D00082FF04C00E943A0E84FD05C00E943A0EAC
:1015E00083FF0FC006C00E943A0E83FDF7CF402F45
:1015F00022C00E943A0E82FF04C00E943A0E87FD6C
:101600001DC00E943A0E83FF2CC00E943A0E82FF3A
:1016100028C00E943A0E84FF24C081E0E81AF10835
:10162000F7FE1BC08BE390E09093750280937402E9
:10163000011117C040E06C2F80E0C5CF8FEFE81A92
:10164000F80A8CE3E816F10444F010927502109247
:101650007402011106C040E0B4CFF0927502E0922E
:101660007402809174029091750290936F0280933E
:101670006E0280917602909177029093710280932E
:101680007002809178029091790290937302809316
:1016900072028EE692E0CF910F91FF90EF90089545
:1016A0003FB7F8948091960290919702A09198028A
:1016B000B091990226B5A89B05C02F3F19F001965D
:1016C000A11DB11D3FBFBA2FA92F982F8827820FC8
:1016D000911DA11DB11DBC01CD0142E0660F771F18
:1016E000881F991F4A95D1F7089580914602089561
:1016F0002F923F924F925F926F927F928F929F9222
:10170000AF92BF92CF92DF92EF92FF920F931F930F
:10171000CF93DF9300D000D000D0CDB7DEB7DC018F
:101720006A30A9F45C962C915C9758968D919C91A7
:10173000599708E0209F800D911D112459969C9384
:101740008E93589757961C921E925697D1C06D3023
:1017500009F4CEC05C96BC905C975B962C905B972E
:101760005A963C905A9758962D913C9159973C83A4
:101770002B8356968D919C91579780389105C4F094
:101780005C962C915C97422F50E056968D919C91DF
:10179000579736E0239F800D911D112457969C93F7
:1017A0008E9356975D962C915D9721118EC0A0C0A7
:1017B0000B811C81003411051CF79C0115E0B19EC2
:1017C000200D311D112412161306D4F68B2C912CEA
:1017D0002B813C8148E0B49E200D311D112412164E
:1017E000130674F6E5E06E9F2001112460E070E0BE
:1017F0006530710539F0FB01E40DF51DEA59F64F2E
:10180000A49001C0A12CEB80FC8008E0702EA0FC0D
:1018100002C0622C01C0632C611009C0231007C0F4
:10182000A6947A94E80CF91C7110F1CF45C09C0184
:10183000422F481B4B15A0F7A701E42FF42FFE19E8
:10184000FB15B8F52038310588F54034510570F5A1
:10185000E695E695E695CE2ED12C8A0107701127E4
:101860001A830983F601F695FE2FEE27F795E79583
:10187000E20FF31F8F0102561D4F1E830D83E1E01F
:10188000F0E0098002C0EE0FFF1F0A94E2F7FA832E
:10189000E983662029F0F801D080C980CD2805C0F1
:1018A000CE2EC094F801D080CD20C0824F5F5F4F14
:1018B000C4CF2F5F3F4FBCCF6F5F7F4F880D991D07
:1018C0006630710509F094CF5BCF6AEF6403900135
:1018D000659F300D112420583F4F2817390744F4D5
:1018E000CD01ED91FC910190F081E02D6AE0099528
:1018F00081E090E026960FB6F894DEBF0FBECDBF14
:10190000DF91CF911F910F91FF90EF90DF90CF90DB
:10191000BF90AF909F908F907F906F905F904F900F
:101920003F902F9008950895CF92DF92EF92FF920B
:101930001F93CF93DF93E82FF0E0ED5DFE4F108112
:10194000E62FF0E0603330F4EA5CF64FE491CE2FFE
:10195000D0E006C0EE0FFF1FEA5CF74FC591D491AF
:101960006E01E12CF12C60E074E284EF90E0A701BD
:1019700096010E944722DA01C9010197A109B10924
:10198000009721E0A207B10578F060E970ED83E0EF
:1019900090E0A70196010E944722DA01C901019750
:1019A000A109B10923E001C021E01130C9F01330D1
:1019B00051F530919100387F232B20939100909323
:1019C000990080939800D0938F02C0938E0281E09B
:1019D00080938D028091710082608093710013C0AA
:1019E0003091900231110FC030918100387F232B4C
:1019F00020938100909389008093880080916F00EC
:101A0000826080936F00DF91CF911F91FF90EF90E4
:101A1000DF90CF900895362F90E0FC01EA59F14F06
:101A20004491FC01EB51FF4F2491FC01EE5EFE4F0F
:101A30008491882309F451C04423E1F150E0FA0174
:101A40003197EF30F105B0F5EA5AFF4F0C94EF1FD4
:101A5000909180009F7707C0909180009F7D03C088
:101A600090918000977F9093800024C094B59F77D9
:101A700002C094B59F7D94BD1DC0909190009F774A
:101A800007C0909190009F7D03C090919000977F38
:101A9000909390000FC09091C0009F7703C09091E9
:101AA000C0009F7D9093C00005C09091C200977FB9
:101AB0009093C200E82FF0E0EE0FFF1FEC5FFE4FA7
:101AC000A591B4918FB7F894EC91311103C0209592
:101AD0002E2301C02E2B2C938FBF0895CF93DF931D
:101AE00090E0FC01EB51FF4F2491FC01EE5EFE4FB4
:101AF0008491882361F190E0880F991FFC01E653DF
:101B0000FF4FC591D491FC01EC5FFE4FA591B491BC
:101B1000611109C09FB7F89488812095822388833A
:101B2000EC912E230BC0623061F49FB7F89438819A
:101B3000822F809583238883EC912E2B2C939FBF3B
:101B400006C08FB7F894E8812E2B28838FBFDF91D2
:101B5000CF9108958F929F92AF92BF92CF92DF92D2
:101B6000EF92FF926B017C010E94500B4B015C01D4
:101B7000C114D104E104F104F1F00E94500BDC0126
:101B8000CB0188199909AA09BB09883E9340A10590
:101B9000B10570F321E0C21AD108E108F10888EE1E
:101BA000880E83E0981EA11CB11CC114D104E1046D
:101BB000F10419F7DDCFFF90EF90DF90CF90BF9049
:101BC000AF909F908F9008952FB7F89460919202F4
:101BD0007091930280919402909195022FBF089585
:101BE0001F920F920FB60F9211242F933F938F9352
:101BF0009F93AF93BF938091920290919302A09193
:101C00009402B09195023091910223E0230F2D3779
:101C100020F40196A11DB11D05C026E8230F0296F0
:101C2000A11DB11D20939102809392029093930283
:101C3000A0939402B093950280919602909197029E
:101C4000A0919802B09199020196A11DB11D8093B7
:101C5000960290939702A0939802B0939902BF9135
:101C6000AF919F918F913F912F910F900FBE0F9049
:101C70001F9018958FB12CB193B130E0209530951D
:101C800020743327A90123E0559547952A95E1F75C
:101C9000292F30E0209530952071332735952795F1
:101CA00035952795242B8095807F822B08951F934F
:101CB000CF93DF931F92CDB7DEB7162F682F8AE040
:101CC00049830E940B0D612F8BE00E940B0D49810F
:101CD000642F89E00F90DF91CF911F910C940B0D31
:101CE0001F920F920FB60F9211242F933F938F9351
:101CF0009F93AF93BF93EF93FF93809190028823BC
:101D000009F44FC08091800290918102A0918202DB
:101D1000B0918302892B8A2B8B2B51F180917F020A
:101D2000E0917D02F0917E029081892780838091ED
:101D3000800290918102A0918202B09183021816D4
:101D400019061A061B06D4F5809180029091810233
:101D5000A0918202B09183020197A109B1098093F9
:101D6000800290938102A0938202B093830226C0E6
:101D700010928C021092900280916F008D7F809360
:101D80006F0090917F02E0917D02F0917E02808150
:101D9000282F30E0892F90E080959095822393231F
:101DA0000CC080918B02811109C080917F02E0916B
:101DB0007D02F0917E02908189278083FF91EF91CF
:101DC000BF91AF919F918F913F912F910F900FBE37
:101DD0000F901F901895E82FF0E0ED5DFE4F808189
:101DE000813019F0833089F008958091900281113B
:101DF00022C080916F008D7F80936F0090917F0251
:101E0000E0917D02F0917E020CC010928D028091D3
:101E10008C02811110C090918A02E0918802F091A9
:101E200089028081282F30E0892F90E0809590955D
:101E30008223932380830895CF93DF93D1E0E091B1
:101E40004702F09148029F012F5F3F4F30934802B5
:101E5000209347028491982F907FC82FCF7090389D
:101E600021F48C2F0E94EB0EEACF9039F9F4E09127
:101E70009E06F0919F0609958D2780938B02E09135
:101E80004702F0914802CF01019690934802809357
:101E90004702649180914C02C81788F6C13009F05E
:101EA00052C080917C028111CACF4DC097FD3AC0CB
:101EB0003296F0934802E0934702F901249130E012
:101EC000382BA0918E02B0918F020E94BF226C50DD
:101ED0007E4F8F4F9F4F28EE33E040E050E00E944E
:101EE0009D22209384023093850240938602509372
:101EF00087028091840290918502A0918602B09120
:101F00008702892B8A2B8B2B21F581E090E0A0E0C2
:101F1000B0E08093840290938502A0938602B093F0
:101F2000870217C0903E49F48091490290914A027D
:101F3000909348028093470282CF903F09F07FCF71
:101F400010924B0206C067FD7ACF8C2F0E94940C32
:101F500076CFDF91CF9108951F920F920FB60F9217
:101F600011242F933F934F935F936F937F938F939E
:101F70009F93AF93BF93EF93FF9380918D0288233C
:101F800041F080918C02811104C080918B028823E2
:101F900051F180914B02882381F1809184029091CC
:101FA0008502A0918602B0918702892B8A2B8B2B08
:101FB00021F18091840290918502A0918602B091D6
:101FC00087020197A109B109809384029093850249
:101FD000A0938602B0938702892B8A2B8B2B69F4FE
:101FE0000E941C0F0AC080918A02E0918802F09141
:101FF0008902908189278083CCCFFF91EF91BF9197
:10200000AF919F918F917F916F915F914F913F9190
:102010002F910F900FBE0F901F901895CF93DF93C5
:1020200090914C02923009F480C0292F30E0F901E0
:10203000ED5DFE4FD081F901E658FD4F8083913070
:1020400031F420917A02281302C090937C02C82FA9
:102050009F5F90934C0261E00E946E0DD13019F0A9
:10206000D33061F162C080916400877F8093640007
:10207000109280001092810080918100886080938E
:102080008100809181008160809381008C2F90E09D
:10209000FC01EE5EFE4FE491F0E0EE0FFF1FEC5FFF
:1020A000FE4F2591349130937E0220937D02FC01F6
:1020B000EB51FF4F849180937F0237C08091650080
:1020C000877F80936500109290001092910080911C
:1020D000910088608093910080919100816080934D
:1020E00091008C2F90E0FC01EE5EFE4FE491F0E059
:1020F000EE0FFF1FEC5FFE4F259134913093890264
:1021000020938802FC01EB51FF4F849180938A0257
:1021100080914C02882321F06CE380E00E94940CB3
:1021200080E0DF91CF910C94EB0EDF91CF91089579
:10213000209178023091790221503109309379024F
:1021400020937802611119C090910001992361F0E8
:10215000121613061CF08CE090E00AC02B303105FB
:1021600091F40E94E708089537FF0DC087E190E0E1
:102170009093790280937802089537FF04C01092FB
:102180007902109278020895FC0180919D028111DC
:1021900003C08FEF9FEF08959FB7F89482E080937C
:1021A000E9002091F20030E01216130614F421E049
:1021B00030E02115310559F0289884E680939C027F
:1021C0008091F10080838091F200882319F09FBFF5
:1021D000C90108958BE68093E800F9CFCF93DF9390
:1021E0001F92CDB7DEB76983DC01ED91FC910280CF
:1021F000F381E02D41E050E0BE016F5F7F4F099514
:102200000F90DF91CF91089583E08093E900809152
:10221000F200882319F08AE38093E8000895CF93B1
:10222000DF931F92CDB7DEB7FC018485958597FDBE
:1022300005C02FEF3FEF358724870BC0CE010196F5
:102240000E94C410019719F4898190E002C08FEFB9
:102250009FEF0F90DF91CF9108950F931F93CF932E
:10226000DF931F92CDB7DEB78C01FC018485958585
:1022700097FF0EC0CE0101960E94C410019719F479
:10228000298130E002C02FEF3FEFF8013587248726
:10229000F801848595850F90DF91CF911F910F9163
:1022A0000895FC018485958597FD0BC09FB7F89430
:1022B00082E08093E9008091F2009FBF90E0019658
:1022C00008959FB7F89482E08093E9008091F2002E
:1022D0009FBF90E008958F929F92AF92BF92CF924E
:1022E000DF92EF92FF920F931F93CF93DF935C01E6
:1022F0006B018A0180911401882309F45EC08091EA
:102300009D02882309F459C080919B0280FF05C07B
:102310008091E00082608093E000E8018AEFF82E6F
:1023200093E0E92E2FE3822E3AE3932E209709F4CF
:102330003DC08FB7F894E092E9009091E80095FFD6
:1023400006C09091F200282D291B922F01C090E029
:102350008FBF91110AC0FA94FF2079F161E070E01B
:1023600080E090E00E94AA0DE1CF292F30E0C21753
:10237000D3070CF49C2F8FB7F894E092E9002091DA
:10238000E80025FF11C0292F30E0C21BD30BF60156
:10239000915020F041914093F100FACFC20ED31E2C
:1023A0009091E80095FF13C08FBFC0CF5D9884E681
:1023B00080939A021016110644F081E090E0F50136
:1023C0009383828380E090E005C0C80103C09092AF
:1023D000E800EACFDF91CF911F910F91FF90EF902E
:1023E000DF90CF90BF90AF909F908F9008950E9404
:1023F000EC210F931F93CF93DF93EC018881998198
:10240000009729F02A813B812617370788F48B0132
:102410006F5F7F4F0E942221009761F0998388832C
:102420001B830A832C813D81232B11F4FC01108234
:1024300081E001C080E0DF91CF911F910F9108955D
:1024400020E08EE992E0B22FB111BFEFFC01002431
:10245000B193B193B193B1930394D1F7E9EDF6E061
:10246000118E108E178A168A089580919E028EBD55
:10247000EFE9F2E081910DB407FEFDCF8EBD86E05D
:10248000EE39F807B9F70DB407FEFDCF0895FC014A
:10249000448155816081718189ED96E00C94FB1334
:1024A000009769F0FC0101900020E9F73197AF0136
:1024B000481B590BBC0189ED96E00C94FB1380E09E
:1024C00090E008958091FB0681110DC082E0809319
:1024D000F70684E08093F8061092FA061092F90647
:1024E00081E08093FB0687EF96E00895FC0124814C
:1024F0003581232B31F421E061157105A1F0FB0139
:1025000008C0FC01808191816115710531F421E0E1
:10251000FC018081882339F005C00E94FA2121E066
:10252000892B09F020E0822F0895EF92FF920F93FC
:102530001F93CF93DF93FC012481358161157105D1
:1025400011F480E019C041155105A9F07B01EC019F
:102550008A01020F131FB8010E94F911882389F321
:10256000288139818C819D81B701820F931F0E9440
:1025700003221D830C8381E0DF91CF911F910F9186
:10258000FF90EF900895CF93DF93EC0188819981BC
:10259000009711F00E948A20198218821D821C82E5
:1025A0001B821A82DF91CF910895EF92FF920F93D1
:1025B0001F93CF93DF93CDB7DEB728970FB6F8946C
:1025C000DEBF0FBECDBF7C01CB014AE08E010F5FA5
:1025D0001F4FB8010E940A22F80101900020E9F77C
:1025E0003197AF01401B510BB801C7010E949512F2
:1025F000811103C0C7010E94C312C70128960FB6FC
:10260000F894DEBF0FBECDBFDF91CF911F910F9128
:10261000FF90EF900895CF93DF93EC01FB0144818D
:102620005581608171810E949512811103C0CE0194
:102630000E94C312CE01DF91CF910895EF92FF92D5
:102640000F931F93CF93DF93EC017B018A01BA01B3
:102650000E94F911811104C0CE010E94C31207C06B
:102660001D830C83B701888199810E940322CE01CA
:10267000DF91CF911F910F91FF90EF900895CF932D
:10268000DF93EC016115710559F0FB010190002009
:10269000E9F73197AF01461B570B0E941E1302C08A
:1026A0000E94C312CE01DF91CF910895FC01808179
:1026B00091810C948A2008954091580750915907B0
:1026C000209156073091570742175307B4F4909161
:1026D000E8009570E1F39091E80092FD19C08093B5
:1026E000F100809158079091590701968F739927AF
:1026F000892B19F48EEF8093E80080915807909110
:1027000059070196909359078093580781E00895DF
:1027100080E00895CF92DF92EF92FF920F931F9384
:10272000CF93DF931F92CDB7DEB7182F062FE42E7D
:10273000862F880F8E5F99830E945C1383E00E942E
:102740005C13F12EC12E9981D92E8C2D8F198017F3
:1027500098F4F601E7FE02C0849101C080810E94D6
:102760005C13182F80E00E945C138123FFEFCF1AC7
:10277000DF0A8111EACF01C081E00F90DF91CF9194
:102780001F910F91FF90EF90DF90CF900895DF920F
:10279000EF92FF920F931F93CF93DF93D82E8A016E
:1027A0007B01E40EF51EEB01CE15DF0571F0D7FEBF
:1027B00003C0FE01849101C088810E945C132196B0
:1027C0008111F2CF8FEF9FEF01C0C801DF91CF9150
:1027D0001F910F91FF90EF90DF900895615030F0BE
:1027E0002091F100FC0120830196F8CF289884E61F
:1027F00080939C020895CF92DF92EF92FF920F9305
:102800001F93CF93DF936C017A018B01C0E0D0E07E
:10281000CE15DF0589F0D8016D918D01D601ED91BE
:10282000FC910190F081E02DC6010995892B11F4EE
:102830007E0102C02196ECCFC701DF91CF911F919D
:102840000F91FF90EF90DF90CF9008950F931F931B
:10285000CF93DF931F92CDB7DEB782E0898342E446
:1028600050E065E87EE080E80E94C7130E94621293
:10287000DC0112960D911C9113970115110569F059
:10288000D801ED91FC910280F381E02DBE016F5FD4
:102890007F4FC801099597FF07C089810F90DF918D
:1028A000CF911F910F910895F80100851185E5CF13
:1028B000FB01DC0111961C921E9213961C921E9233
:1028C000129715961C921E9214978617970749F037
:1028D000608171816115710521F0448155810C94ED
:1028E0001E130895FC011182108213821282158238
:1028F00014826115710551F0FB0101900020E9F788
:102900003197AF01461B570B0C941E1308951F926D
:102910000F920FB60F9211248F939F938091E10035
:102920009091E100937F9093E10083FF0FC010929C
:10293000E90091E09093EB001092EC0092E3909309
:10294000ED0010929D0298E09093F00082FF20C06D
:1029500093E09093E9009091F200992319F09AE3A3
:102960009093E80090919A02992339F090919A02FD
:10297000915090939A02992389F190919C02992306
:1029800039F090919C02915090939C02992341F1CF
:1029900084FF10C08091E2008E7E81608093E2000F
:1029A0008091E1008F7E8093E10080919B028E7E7A
:1029B000806111C080FF16C08091E2008E7E806130
:1029C0008093E2008091E1008E7E8093E10080910F
:1029D0009B028E7E816080939B0204C05D9ACDCF66
:1029E000289AD6CF9F918F910F900FBE0F901F9076
:1029F00018951F920F920FB60F921124CF92DF926B
:102A0000EF92FF920F931F932F933F934F935F93F8
:102A10006F937F938F939F93AF93BF93EF93FF93A6
:102A2000CF93DF93CDB7DEB76C97DEBFCDBF1092EB
:102A3000E9008091E80083FFFAC168E0CE01459685
:102A40000E94EE1382EF8093E8008D8987FF05C016
:102A50009091E80090FFFCCF03C09EEF9093E800B8
:102A6000982F907609F0C6C09E892F89188D9111F4
:102A70000CC0803829F4809154078093F10002C083
:102A80001092F1001092F10047C1422F50E0512BFB
:102A9000913051F4811140C14130510509F03CC1E0
:102AA000809154078D7F0BC0933061F4811134C144
:102AB0004130510509F030C1809154078260809304
:102AC00054072AC1953041F48091E80080FFFCCF83
:102AD00020682093E30020C1963009F05FC0EB8CA2
:102AE000FC8C1092E900109259071092580712308E
:102AF00091F510925707109256070E94261499E0FC
:102B0000BE016F5F7F4FDB01E92F1D92EA95E9F768
:102B100099831A8391E09E8390EA98879AEF998728
:102B20002091580730915907275F3F4F3C832B83F3
:102B30008D831092E9001092590710925807F09275
:102B40005707E092560749E050E080E00E94C71323
:102B50000E942614E1C0F0925707E09256070E94A7
:102B60006212DC011296ED90FC901397E114F104CF
:102B700009F4C0C0D701ED91FC910480F581E02DEE
:102B8000BE016B5E7F4FC7010995009719F00CF0ED
:102B9000C3C0C6C0F701E084F184E8CF973009F4E0
:102BA000BFC0983021F481E08093F100B5C0993026
:102BB00009F0B2C0837009F0B3C0E8E4F1E081E04D
:102BC00021E036E39081992361F08093E90020931E
:102BD000EB0091919093EC003093ED008F5F873084
:102BE00089F78EE78093EA001092EA008F8980933C
:102BF0009D0292C08B8D9C8D1092E9001092590716
:102C0000109258079093570780935607898D81112A
:102C100056C08E899D89913A59F4813209F080C05D
:102C200047E050E06DE071E080E00E94C71374C09F
:102C3000913209F075C0833289F4888D90E0982F25
:102C400088272F89822BA0E0B0E080931501909314
:102C50001601A0931701B09318015EC0803269F489
:102C60008091E80082FFFCCF67E08DE091E00E9458
:102C7000EE138BEF8093E80006C0823209F04CC05F
:102C80008F898093140180915307882319F0EEEF08
:102C9000FAE002C0E0E0F8E080910D0190910E01B1
:102CA000A0910F01B0911001803B9440A105B105A6
:102CB00009F088C08091140180FFA0C083C00E94E9
:102CC0006212DC0112960D911C91139701151105EA
:102CD00039F1D801ED91FC910190F081E02DBE0118
:102CE0006B5E7F4FC8010995811116C0F801008500
:102CF0001185ECCF1130C1F0133091F48F89882306
:102D000009F455C08230E9F440E867E087ED9EE0C1
:102D10000E948A13882321F08EEF8093E80087C0F9
:102D200081E28093EB0083C08B8D9C8D089711F41A
:102D30001093550780915507811136C06FED7EE0E5
:102D400038C0813029F440E86BE08BEC9EE0E0CFA6
:102D5000833031F70E946212DC011296ED90FC90F4
:102D600013978E010F5F1F4F6801E114F10479F092
:102D7000D701ED91FC910680F781E02DB801C701E4
:102D80000995080F111DF701E084F184EECFD801F9
:102D90001C92F60101900020E9F73197BF016C19F0
:102DA0007D0940E0C601B4CF61EF7EE002C067EC70
:102DB0007EE06115710509F4B3CFFB01449150E049
:102DC00080E833CF0FB6F894A895809160008861B1
:102DD00080936000109260000FBEA895EE3F2AE03D
:102DE000F20739F08091FE0A9091FF0A9183808367
:102DF00093CF1092FF0A1092FE0A8ECFEE3F8AE028
:102E0000F80731F0808191819093FF0A8093FE0A48
:102E100087E797E7918380839BE088E10FB6F8947A
:102E2000A895809360000FBE9093600075CF6C965C
:102E30000FB6F894DEBF0FBECDBFDF91CF91FF91EB
:102E4000EF91BF91AF919F918F917F916F915F9122
:102E50004F913F912F911F910F91FF90EF90DF9035
:102E6000CF900F900FBE0F901F901895CF93DF93C8
:102E7000CDB7DEB760970FB6F894DEBF0FBECDBFFB
:102E8000789484B5826084BD84B5816084BD85B545
:102E9000826085BD85B5816085BD80916E00816051
:102EA00080936E00109281008091810082608093F7
:102EB00081008091810081608093810080918000F9
:102EC0008160809380008091910082608093910066
:102ED0008091910081608093910080919000816049
:102EE000809390008091C10084608093C1008091A4
:102EF000C10082608093C1008091C1008160809395
:102F0000C1008091C30081608093C3008091C000A4
:102F100082608093C0008091C20081608093C20073
:102F200080917A00846080937A0080917A00826038
:102F300080937A0080917A00816080937A008091FA
:102F40007A00806880937A0010929D021092540754
:102F500010929B028091D70081608093D70080EA15
:102F60008093D80089B5806189BD89B5826089BDAB
:102F700009B400FEFDCF61E070E080E090E00E94C7
:102F8000AA0D8091D8008F7C80618093D8008091B9
:102F9000E000807F8093E0008091E1008E7E80934E
:102FA000E1008DE08093E200559A209AEEEFFFE772
:102FB000859194918B3F9C4D19F481E08093530748
:102FC00085E00E940E108DE00E940E100FB7F8945D
:102FD00080914D02811127C0E3E2F1E08491E6EF98
:102FE000F0E09491E82FF0E0EE0FFF1FE653FF4F63
:102FF000A591B491EC91E92321F461E081E10E9473
:103000000B0D61E081E10E946E0D8CB580618CBD7D
:103010008CB580648CBD61E08FE00E946E0D61E034
:1030200080E10E946E0D80914D028F5F80934D0272
:103030000FBFE1E3CE2EE1E0DE2EF6018491F2E057
:10304000CF0ED11CF60131976491882319F00E94AC
:103050006E0DF3CF61E086E00E940B0D61E070E041
:1030600080E090E00E94AA0D60E086E00E940B0DD7
:103070006AE070E080E090E00E94AA0D61E086E0E6
:103080000E940B0DEEE1F1E0E491F0E0EE0FFF1F86
:10309000EC5FFE4F8591949190935302809352027E
:1030A000E1EFF0E0E491E0935102E6E1F1E0E49138
:1030B000F0E0EE0FFF1FEC5FFE4F8591949190932F
:1030C000500280934F02E9EEF0E0E491E0934E026B
:1030D0008CB58C7F8CBD8DB581608DBDE091520229
:1030E000F0915302908180915102982B9083A0918E
:1030F0004F02B09150022C9190914E0290959223E4
:103100009C939081809589238083E8EDF0E08DE0A9
:103110008E0F94919EBD00000DB407FEFDCF9EB5AD
:1031200031968E13F6CFE0914F02F09150029081CC
:1031300080914E02892B8083E0915202F0915302DC
:1031400090818091510280958923808380916400D1
:103150008160809364008091640082608093640049
:103160008091640080688093640080916400806432
:10317000809364008091650081608093650082E4A3
:103180008093E4060E94201261E085E00E946E0DAB
:1031900061E08DE00E946E0D81E08093460232E096
:1031A000632E712C40E2A42EB12C59E2452E512CF5
:1031B00080E5C82E81E0D82E9FE0292E312C2BE30C
:1031C000822E912C0E94201201E00093F5060E94AD
:1031D000E40D2091090130910A0140910B015091B9
:1031E0000C01621773078407950708F476C0DA01AB
:1031F000C90188519C4FAF4FBF4F809309019093F5
:103200000A01A0930B01B0930C0180916C028823FA
:1032100009F441C080915B0290915C020197909308
:103220005C0280935B0297FF36C080915D029091B3
:103230005E02009751F090925C0280925B020197CF
:1032400090935E0280935D0226C080915F02909110
:103250006002009771F090925C0280925B02909203
:103260005E0280925D0201979093600280935F02FC
:1032700012C010925C0210925B02D0924A02C0927D
:103280004902D0924802C09247020E941C0F00934C
:103290004B0210926C020E943A0E83FF15C00E94EE
:1032A0003A0E82FF11C080910801882369F0809155
:1032B0006B02811109C080916A02811105C03092B0
:1032C000D7062092D606C6C2809168029091690204
:1032D000019690936902809368020E94E40D209108
:1032E000ED06222391F02091E506362F321B309314
:1032F000EE062091E0063091E1062F5F3F4F3093BC
:10330000E1062093E0061092ED062091E906309147
:10331000EA064091EB065091EC06621773078407AA
:10332000950778F4261B223008F494C283B7817F76
:1033300083BF83B7816083BF889583B78E7F83BF48
:1033400089C2E091E4069B01AC012E0F311D411DA5
:10335000511D2093E9063093EA064093EB06509303
:10336000EC066093E5067093E6068093E70690937B
:10337000E80681E08093ED068091D6069091D7060D
:10338000009729F43092D7062092D60605C00197FF
:103390009093D7068093D606809168029091690237
:1033A000CC9769F4109269021092680280916202CF
:1033B0009091630201969093630280936202209140
:1033C00062023091630280916802909169022C330D
:1033D000310581F4009771F4109263021092620239
:1033E00020910401309105012F5F3F4F309305017B
:1033F0002093040120910401309105012831310509
:10340000D1F42091620230916302232B09F047C06E
:10341000009709F044C020910001211140C0209183
:10342000D6063091D7062F303105C9F51092050127
:103430001092040131C02B30310589F520916202D0
:10344000309163022B33310551F58B33910591F4A3
:1034500020910001222371F020910201222351F0DA
:103460002091D6063091D7062F30310519F41092ED
:10347000020115C08B33910591F4209100012223A4
:1034800071F02091020121110AC02091D6063091DD
:10349000D7062F30310519F421E020930201209145
:1034A0000401309105012D30310594F02091620224
:1034B00030916302232B61F4009751F420910001B5
:1034C000222331F041E050E0509305014093040184
:1034D00020910401309105012C30310534F04091E8
:1034E0000001411102C01092020140916602509108
:1034F00067024817590759F54091640250916502D7
:1035000080916202909163024817590701F58091FA
:1035100006019091070182179307C9F49091030166
:1035200080910201981313C080916102882379F081
:10353000D0924A02C0924902D0924802C0924702F9
:103540000E941C0F81E080934B02109261020E9446
:103550003A0E85FF87C10E943A0E86FF83C10E9402
:103560003A0E83FD7FC10E943A0E82FD7BC10E940C
:103570003A0E87FD77C10E943A0E84FD73C10E9406
:1035800020120E94351241E061E081E00E94570E56
:103590001092080181E08093010110926B02109259
:1035A0006A0280910801882309F454C10E943A0EEE
:1035B00085FF2DC06EE471E0CE0101960E94721469
:1035C000CE0101960E94AE07082F882309F46BC133
:1035D00000916A0281E0082766C110924B020E94A6
:1035E000E40D2091550230915602409157025091BE
:1035F0005802E0910101621773078407950708F4E8
:1036000069C1E11167C18091540281117EC10E949C
:103610003408882349F081E08093540280930101AB
:1036200041E061E00E94570E0E943A0E86FF2DC0D5
:1036300063E571E0CE0101960E947214CE010196FD
:103640000E94AE07082F882309F47BC100916B020A
:1036500081E0082776C110924B020E94E40D209170
:103660005502309156024091570250915802E09114
:103670000101621773078407950708F495C1E111EA
:1036800093C180915402811173C10E943408882330
:1036900049F081E0809354028093010141E061E0B0
:1036A0000E94570E0E943A0E84FF2FC069E571E018
:1036B000CE0101960E947214CE0101960E94AE07BF
:1036C000082F882321F000916A0281E00827CE01AB
:1036D00001960E9456130023C1F00E94E40D209130
:1036E0005502309156024091570250915802E09194
:1036F0000101621773078407950708F487C1E11178
:1037000085C10091540201116AC10E9434088823C6
:1037100051F081E0809354028093010141E061E027
:103720000E94570E02C0111109C010916B021111B5
:10373000E3C187C181E080936B02102F0E942012A9
:1037400067EB71E0CE0107960E94721480916102CE
:10375000882309F4D3C16EE571E0CE0107960E947B
:103760003F1380910001882309F4CBC16EE971E019
:1037700082EB96E00E943F131092F0061092EF0643
:103780001092F2061092F10662EB76E0CE010196FD
:103790000E94581441E150E066EA71E0CE010196C2
:1037A0000E949512882309F4AFC1BE01695F7F4F63
:1037B000CE0101960E940B130E944712CE01019682
:1037C0000E9456137092F0066092EF06B092F206D5
:1037D000A092F106409106015091070160916402A8
:1037E0007091650200E020E080916602909167028E
:1037F0000E946209FC0190935A02809359026081F1
:103800007181709367026093660242815381509385
:10381000650240936402248135813093070120932F
:10382000060182E08093F506E12CCE0101960E940C
:103830005008CE0101960E944712CE0101960E94C7
:10384000561381E08093F506CE0107960E94561329
:103850000E94351280E090E0892B09F4B3CC0E94DD
:103860000000A6CC0E943A0E87FF9BCE0E943A0E23
:1038700084FF97CE0E943A0E83FD93CE0E943A0EAB
:1038800082FD8FCE0E943A0E85FD8BCE0E943A0EAD
:1038900086FD87CE41E061E081E00E94570E81E025
:1038A000809308017ECECE0101960E94561300231C
:1038B00009F4ADCE80914B02882309F490CE00E04C
:1038C00080914C02081708F088CE802F0E94EB0EE2
:1038D0000F5FF6CFEE2309F49ACE0E94E40DDC01CF
:1038E000CB0184529A4FAF4FBF4F809355029093B4
:1038F0005602A0935702B09358021092010140E083
:1039000061E081E00E94570E82CE10925402109224
:10391000550210925602109257021092580241E03E
:1039200060E081E00E94570E80916102882319F0C7
:103930001092610279CE81E08093610210926B0255
:1039400073CECE0101960E945613002309F49DCE3A
:1039500080914B02882309F480CE00E080914C02D4
:10396000081708F078CE802F0E94EB0E0F5FF6CF7D
:103970001092540210925502109256021092570261
:103980001092580241E060E081E00E94570E809161
:103990006C02882319F010926C0284CE81E080932F
:1039A0006C0210926A027ECEEE2309F46ECE0E9463
:1039B000E40DDC01CB0184529A4FAF4FBF4F80938F
:1039C000550290935602A0935702B093580210925A
:1039D000010140E060E081E00E94570E56CE109257
:1039E00054021092550210925602109257021092F1
:1039F000580241E060E081E00E94570E80916B0226
:103A0000882309F497CE10926B028FCEEE2309F42F
:103A10007CCE0E94E40DDC01CB0184529A4FAF4F63
:103A2000BF4F8093550290935602A0935702B093D4
:103A300058021092010141E061E080E00E94570EBF
:103A400064CE0E943A0E87FF42C068EB71E0CE015F
:103A500001960E947214CE0101960E94AE07082FB3
:103A6000CE0101960E945613002389F10E94E40DB5
:103A700020915502309156024091570250915802C0
:103A8000E0910101621773078407950738F0E1118F
:103A900005C00091540201113CC019C0EE23B9F0D9
:103AA0000E94E40DDC01CB0184529A4FAF4FBF4F0F
:103AB0008093550290935602A0935702B0935802F8
:103AC0001092010141E060E080E00E94570E0E94E8
:103AD0003408882351F081E08093540280930101DF
:103AE00041E061E00E94570E02C0F11026C1F09043
:103AF0006A02F11021C128C010E020CE6EE771E00B
:103B00002CCE62EA71E034CECE0101960E94C3123F
:103B10004CCE1092540210925502109256021092FE
:103B200057021092580241E060E081E00E94570E77
:103B300080916A02882319F010926A02D8CF81E03E
:103B400080936A02F02EF9C080916C028823A1F163
:103B50001092F0061092EF0685E190E09093F20645
:103B60008093F1068CEF91E00E945012B092F00623
:103B7000A092EF06EFE1F0E0F093F206E093F10699
:103B800020915F023091600240915D0250915E028F
:103B900060915B0270915C02EE24E39400E0CE0140
:103BA00001960E945008CE0101960E944712CE0154
:103BB00001960E9456130EC01092F0061092EF0666
:103BC00025E130E03093F2062093F1068FE092E099
:103BD0000E945012809161021092F0061092EF063E
:103BE0005092F2064092F106882349F188E691E06E
:103BF0000E945012B092F006A092EF0643E350E00C
:103C00005093F2064093F10620910601309107018E
:103C10004091640250916502609166027091670262
:103C2000E12C00E0CE0101960E945008CE010196E1
:103C30000E944712CE0101960E94561304C081E2F1
:103C400092E00E9450124091040150910501609150
:103C500062027091630200E021E08091680290911D
:103C600069020E946209FC0190935A0280935902F2
:103C7000608171817093690260936802428153810F
:103C80005093630240936202248135813093050191
:103C90002093040182E08093F5067092F006609212
:103CA000EF061092F2061092F106E12C01E0CE012F
:103CB00001960E9450088091D0069091D1060097FD
:103CC000C9F069817A816115710591F04091D20640
:103CD0005091D3062D813E814217530748F00E9430
:103CE00003228D819E819093D5068093D40618C0BF
:103CF0000E948A2089819A819093D1068093D00670
:103D00008B819C819093D3068093D2068D819E8176
:103D10009093D5068093D4061A8219821C821B8246
:103D20001E821D82CE0101960E94561380ED96E000
:103D30000E94471210E08CCDF12C0E94201267EBFC
:103D400071E0CE0107960E94721480916C02882364
:103D500019F06BEB71E002C065ED71E0CE010796E2
:103D60000E943F131092F0061092EF061092F20696
:103D70001092F1066AEE71E0CE0101960E94721473
:103D8000BE01695F7F4FCE0101960E940B130E9416
:103D90004712CE0101960E94561380916C02811148
:103DA00027C040915F025091600260915D02709166
:103DB0005E0201E020E080915B0290915C020E9433
:103DC0006209FC0190935A0280935902808191818B
:103DD00090935C0280935B028281938190935E0258
:103DE00080935D02848195819093600280935F024D
:103DF00047E050E05093F0064093EF06B092F20691
:103E0000A092F10682E08093F50620915F02309146
:103E1000600240915D0250915E0260915B02709180
:103E20005C02EE24E39400E000CD0F931F93CF9348
:103E3000DF938C018AE090E00E943F229FEF980F71
:103E40009E3F58F522E330E0D80157963C932E93DD
:103E5000569728E330E059963C932E935897CBE041
:103E6000D0E0D801ED91FC910190F081E02D682F18
:103E7000C8010995CE010E943F222196C131D1058A
:103E800081F70E9435126CED75E080E090E0DF91E3
:103E9000CF911F910F910C94AA0DDF91CF911F919B
:103EA0000F91089504970C94151F80EA96E00E94E4
:103EB000561386EA96E00E9456138CEA96E00E941A
:103EC000561382EB96E00E94561388EB96E00E9410
:103ED00056138EEB96E00E94561384EC96E00E94F7
:103EE00056138AEC96E00E94561380ED96E00C94EF
:103EF0005613E3E0F7E01382128288EE93E0A0E02D
:103F0000B0E084839583A683B78389E291E09183AF
:103F100080838FEF9FEF95878487E9EDF6E013822A
:103F200012821186128680E1838710861782108A9A
:103F3000118A128A138A148A89E391E0918380831B
:103F400083E491E095838483178A168A118E108EFC
:103F500081E0828F138E848F158E85E79BE090938E
:103F60009F0680939E068FE090E09093D706809303
:103F7000D60667EB71E080ED96E00E94721460E473
:103F800072E08AEC96E00E94721469E372E084ECBD
:103F900096E00E94721469E372E08EEB96E00E9454
:103FA00072146BE372E088EB96E00E94721467EB88
:103FB00071E082EB96E00E94721462E472E08CEA97
:103FC00096E00E94721467EB71E086EA96E00E9428
:103FD000721467EB71E080EA96E00C947214EE0FB5
:103FE000FF1F0590F491E02D0994CF93DF93823069
:103FF000910510F482E090E0E0915C07F0915D079C
:1040000020E030E0C0E0D0E0309711F140815181F4
:1040100048175907C0F04817590761F48281938106
:10402000209719F09B838A832BC090935D07809320
:104030005C0726C02115310519F04217530718F403
:104040009A01BE01DF01EF010280F381E02DDCCF98
:104050002115310509F1281B390B2430310590F465
:1040600012968D919C9113976115710521F0FB01BA
:104070009383828304C090935D0780935C07FD0166
:10408000329644C0FD01E20FF31F819391932250B9
:1040900031092D933C933AC020915A0730915B0728
:1040A000232B41F420911B0130911C0130935B07BD
:1040B00020935A072091190130911A0121153105D9
:1040C00041F42DB73EB740911D0150911E01241BB4
:1040D000350BE0915A07F0915B07E217F307A0F464
:1040E0002E1B3F0B2817390778F0AC014E5F5F4F4E
:1040F0002417350748F04E0F5F1F50935B0740931E
:104100005A078193919302C0E0E0F0E0CF01DF9184
:10411000CF9108950F931F93CF93DF93009709F4E6
:104120008CC0FC0132971382128200915C071091BF
:104130005D070115110581F420813181820F931FE4
:1041400020915A0730915B072817390779F5F093CA
:104150005B07E0935A0771C0D80140E050E0AE170A
:10416000BF0750F412962D913C911397AD01211584
:10417000310509F1D901F3CF9D01DA01338322839F
:1041800060817181860F971F8217930769F4EC0194
:1041900028813981260F371F2E5F3F4F31832083BF
:1041A0008A819B8193838283452B29F4F0935D0759
:1041B000E0935C0742C01396FC93EE931297ED01D7
:1041C000499159919E01240F351FE217F30771F4AD
:1041D00080819181840F951F029611969C938E93F6
:1041E0008281938113969C938E931297E0E0F0E086
:1041F000D80112968D919C911397009719F0F801B0
:104200008C01F6CF8D919C9198012E5F3F4F820FCC
:10421000931F20915A0730915B072817390769F4DB
:10422000309729F410925D0710925C0702C0138248
:10423000128210935B0700935A07DF91CF911F9171
:104240000F910895A0E0B0E0E8E2F1E20C946A2258
:10425000EC01009721F4CB010E94F51FB8C0FC01CE
:10426000E60FF71F9C0122503109E217F30708F40B
:10427000ACC0D9010D911C91119706171707B0F02A
:104280000530110508F49FC0C801049786179707E9
:1042900008F499C002501109061B170B01931193E2
:1042A0006D937C93CF010E948A208DC05B01A01A80
:1042B000B10A4C01800E911EA0915C07B0915D0780
:1042C00040E050E0E12CF12C109709F44AC0A81509
:1042D000B905D1F56D907C901197630182E0C80E0D
:1042E000D11CCA14DB0480F1A3014A195B096A01DD
:1042F00082E0C80ED11C1296BC9012971396AC9116
:10430000B5E0CB16D10440F0B282A3835183408341
:10431000D9016D937C930AC00E5F1F4FC301800FBC
:10432000911FF90191838083EB2DFA2FE114F104A1
:1043300031F0D7011396FC93EE93129744C0F0939B
:104340005D07E0935C073FC08D919C9111974817E2
:10435000590708F4AC017D0112960D90BC91A02D77
:10436000B3CF80915A0790915B0788159905E1F4C6
:1043700046175707C8F48091190190911A010097C8
:1043800041F48DB79EB740911D0150911E01841BD1
:10439000950BE817F907C8F4F0935B07E0935A0709
:1043A000F901718360830FC0CB010E94F51F7C016E
:1043B000009759F0A801BE010E94F121CE010E9490
:1043C0008A20C70104C0CE0102C080E090E0CDB7D2
:1043D000DEB7EEE00C94862281E090E0F8940C9435
:1043E000CE22FB01DC0102C001900D9241505040F1
:1043F000D8F70895FB01DC018D910190801901101F
:10440000D9F3990B0895FB01DC0101900D92002076
:10441000E1F70895BB274A3031F4992322F4BDE235
:10442000909581959F4F0C941622BB27FB01552731
:10443000AA27880F991FAA1FA41710F0A41B839501
:104440005051B9F7A05DAA3308F0A95DA193009778
:1044500079F7B111B1931192CB010C942F22DC01A9
:10446000FC01672F71917723E1F7329704C07C91AB
:104470006D9370836291AE17BF07C8F30895F999E1
:10448000FECF92BD81BDF89A992780B50895052E7B
:1044900097FB1EF400940E945E2257FD07D00E94F5
:1044A0009D2207FC03D04EF40C945E22509540955B
:1044B000309521953F4F4F4F5F4F089590958095D0
:1044C000709561957F4F8F4F9F4F08952F923F9228
:1044D0004F925F926F927F928F929F92AF92BF9214
:1044E000CF92DF92EF92FF920F931F93CF93DF93C0
:1044F000CDB7DEB7CA1BDB0B0FB6F894DEBF0FBE1D
:10450000CDBF09942A88398848885F846E847D8469
:104510008C849B84AA84B984C884DF80EE80FD806B
:104520000C811B81AA81B981CE0FD11D0FB6F894E1
:10453000DEBF0FBECDBFED010895A1E21A2EAA1B6A
:10454000BB1BFD010DC0AA1FBB1FEE1FFF1FA21743
:10455000B307E407F50720F0A21BB30BE40BF50B40
:10456000661F771F881F991F1A9469F760957095C9
:10457000809590959B01AC01BD01CF010895A29F4C
:10458000B001B39FC001A39F700D811D1124911D27
:10459000B29F700D811D1124911D089517E0C3E88D
:1045A000D7E004C0FE010E94EF1F2196C438D10756
:0645B000C9F7F894FFCFEB
:1045B600010101010C000C0001E803000000E1000C
:1045C6000000000000FFFFFFFF00005E0780000103
:1045D600000000030100000000EE106B1151110FE6
:1045E600112D11041100000000780BFB13151FFCA0
:1045F600FF0000521F0F0000C180810000004C45E3
:10460600465400524947485400444F574E00416CA7
:1046160061726D204F4E0A0D486F6C64204C454602
:104626005420746F207475726E204F464600416C9C
:1046360061726D204F46460A0D486F6C64204C45EA
:10464600465420746F207475726E204F4E003132BE
:104656006800323468002020414C41524D205345B9
:104666005454494E470A0D0055500020486F6C645B
:1046760020524947485420746F2053746F70205459
:10468600696D65720020486F6C6420524947485432
:1046960020746F205374617274002054494D455242
:1046A6002053455454494E47530A0D00486F6C64D5
:1046B60020524947485420746F2073746F70004825
:1046C6006F6C6420555020666F722054696D657258
:1046D60000486F6C6420444F574E20666F7220412D
:1046E6006C61726D004100420030002000504D00A8
:0646F6003A0020414D00D6
:00000001FF
