:100000000C94E4090C940C0A0C940C0A0C940C0A41
:100010000C940C0A0C940C0A0C940C0A0C940C0A08
:100020000C940C0A0C940C0A0C9412190C9484195C
:100030000C940C0A0C940C0A0C940C0A0C940C0AE8
:100040000C940C0A0C9462120C940C0A0C940C0A7A
:100050000C940C0A0C940C0A0C940C0A0C94FB11D2
:100060000C940C0A0C940C0A0C940C0A0C940C0AB8
:100070000C940C0A0C940C0A0C940C0A0C940C0AA8
:100080000C949E130C940C0A0C940C0A0C940C0AFD
:100090000C940C0A0C940C0A0C940C0A0C940C0A88
:1000A0000C940C0A0C940C0A0C940C0A4111441187
:1000B000331137113B1165116511651148114C1150
:1000C000501156115A1165116011000000002400F2
:1000D00027002A002D003000D5F08D14A1C881CF53
:1000E000D9F1AF20000408020110408040102040E8
:1000F000804080080204018040201002011080101E
:100100002040402000000000250028002B002E0089
:10011000310004040404040304050202020204037F
:100120000202020206060606060604040202020491
:10013000041402130212021502070208020A020A3C
:10014000010B020B010902090104010C0106010067
:10015000029A903E00A6904000A6904200A69040D1
:1001600000A6904300A6904200A6904000A6903EB4
:1001700000A6904500A6904300A6904200A690409D
:1001800000A69132904200A69134903E00A691368E
:10019000904500A6913400A69047913700A691366D
:1001A00000A69049913400379047003790490037B6
:1001B0009132904A00A6913990490053904A0053D9
:1001C0009137904900A691369047005390450053CF
:1001D0009134007D8000299049913600A6904A9183
:1001E0003200A6904C913900A6904900A6912D901E
:1001F0004E00A6904A00A69139904900A69047006B
:100200008A81001B9139904C00A6904900A6912D3F
:10021000904A00A6904700A69139904500A69044C8
:10022000008A81001B9139904C00A6904900A6914C
:100230002D904E00A6904A00A69139904900A690B4
:1002400047008A81001B9139904C00A6904900A676
:10025000912D904A00A6904700A69139904500A69E
:100260009044008A81001B9139904900A690470074
:10027000A6913B904A00A6904900A6913D90470068
:10028000A6904500A6913E904E00A6913D00A690F6
:1002900044914000A6913E00A69045913D00A69154
:1002A0003B00A6913D001B80001B90470037904506
:1002B0000037913E90440037904500379047001B2F
:1002C00080001B90479140014D913400A69045005D
:1002D000A69139904500A6913400A6913600A691CA
:1002E0003800A691398000A6913B00A6913D00A65A
:1002F000913B00A6904C913E00A6913D00A69051E6
:10030000913B00A6913900A6914000A6904700A617
:100310009134904900A6904B00A6904C8100A69085
:100320004E00A6904F00A6904E00A6913B90510023
:10033000A6904F00A69140904E00A6904C00A6902B
:100340005300A6913600A69047913800A6913A0036
:10035000A6913B8000A6913D00A6913E00A6913D4E
:1003600000A69042914000A6913E00A69047913D84
:1003700000A6913B00A6914200A6904600A69136A9
:10038000904700A6904900A69140904A00A6904C44
:1003900000A6913E904E00A6904C00A69147904F2B
:1003A00000A69146904E00A69147904C00A6904A18
:1003B00000A6913D904C00A6904A00A69146904E12
:1003C00000A69144904C00A69146904A00A6904900
:1003D00000A69147904A00A69145904900A69143F6
:1003E000904C00A69142904A00A69140904900A6E8
:1003F000913E904700A69140904900A6913E00A6EC
:10040000904691420053904400539140904600A67C
:10041000913E904700A6913D00A6913E00A69049CE
:100420009140008A80001B904991420053904A00FD
:1004300053904900A6913600A6904700A6913B0034
:10044000A6904200A69136904400A6904600A69140
:1004500032904700A6904900A6912F904A00A6909E
:100460004900A6904C00A6904A00A690498100A69B
:10047000904700A6904F00A6912F00A6913100A6AC
:10048000913300A6913400A6913600A6913700A6BC
:10049000913600A6913900A6913700A6913600A6A4
:1004A000913400A69139008A80001B904000A690EC
:1004B0004200A6904400A6904500A6904700A69052
:1004C0004900A6904700A6904A00A6904900A69031
:1004D0004700A6904500A6904E008A81001B912DF2
:1004E00000A6912F00A6913100A6913200A691346A
:1004F00000A6913600A6913400A6913700A6913649
:1005000000A6913400A6913200A69138008A80009E
:100510001B904700A6904C00A69134904A00A691EB
:1005200036904900A69138904700A691399049002D
:10053000A69138904700A69136904A00A691349033
:100540004900A69132904700A69136904500A691A9
:100550003490440053904500539132904400A6914A
:1005600031904000A6912F00A69045913100A690B1
:1005700047912D00A69049913900A6904700A69179
:1005800036904A00A6904900A69131904700A69067
:100590004500A69132904E00A6913100A6913400FC
:1005A000A69044913200A69045913100A6904491C6
:1005B0002F00A69045913100A6904A913200A69056
:1005C000479134014D912800A69045008A80001B78
:1005D0009045912D00A6913100A6913200A6904938
:1005E000913400A6904A913600A6904C913700A60F
:1005F0009042913900A6913700A69043913B00A606
:10060000913900A690479137005390450053913699
:1006100090430053904500539137904700A6913680
:1006200000A6904A91390053904900539137904762
:100630000053904900539136904A00A6913400A689
:10064000913600A69049913400A6904C913700A6AF
:10065000904A913600A69049913400A6904A913272
:1006600000A6904C913900A6904A00A6912D904981
:1006700000A6904700A690458100A6904300A69052
:100680004200A6904000A6904300A6904200A6908B
:100690004000A6903E00A6904500A6904300A6907C
:1006A0004200A6904000A69132904200A69134905C
:1006B0003E00A69136904500A6913400A690479141
:1006C0003700A6913600A690499134003790470034
:1006D00037904900379132904A00A69139904900ED
:1006E00053904A00539137904900A69136904700A5
:1006F00053904500539134007D800029904A9136F3
:1007000000A69132008A80001B904A913900A69180
:100710003600A6903E913B00A6913700A6904A91E4
:100720003600A69134008A80001B904A913900A6B9
:10073000913600A6903E913700A6913400A6904ACB
:10074000913200A69131008A80001B904A913900B5
:10075000A6913600A6903E913B00A6913700A69048
:100760004A913600A69134008A80001B904A913944
:1007700000A6913600A6903E913700A6913400A6BF
:10078000904A913200A6904C913100A6904E913241
:1007900000A6904C00A69134904F00A6904E00A663
:1007A0009136904C00A6904A00A69137905300A62F
:1007B000913600A69049913900A6913700A6904A3B
:1007C000913600A6913400A69136001B80001B9044
:1007D0004C0037904A0037913790490037904A00D3
:1007E00037904C002980000D904C9139014D912D8E
:1007F00000A6904A008A80001B904A912F00A69183
:100800002D00A6903E913000A6912F00A690439116
:100810002D00A6912B00A6913200A6903900A6903B
:100820003B00A6903D00A6903E00A6904000A690FA
:1008300042008A81001B9131904000A6912F904385
:1008400000A6912D904200A6912B904000A6912ADF
:10085000903E00A6912B904700A6912A00A6912DCC
:1008600000A6903D912B00A6903E912A00A6903DB7
:10087000912800A6903E912A00A69043912B00A6B5
:100880009040912D01F4903E008A80001B903E9193
:100890002607D08081F0C060B84CB4B64BB5B54BDC
:1008A000FF49B781010101010101010101010101BC
:1008B0000101010101010101010101010101010128
:1008C0000101010101010101010101010101010118
:1008D0000305DB25DB2525DB25DB05030101010104
:1008E00001010101010101010101010101010101F8
:1008F00001010101010101010101010101010101E8
:10090000010101010101010181B749FF4BB5B54B5F
:10091000B6B44CB860C0FF16150E15150E35B54EA1
:10092000FF4EB5B54EB5B54E35350E35350E1516EF
:100930000D16160E14140C14140C14140C14140CA0
:10094000140C0C0C0404040404040404040404043F
:100950000605060506050506050605060404040445
:1009600004040404040404040C0C0C140C14140CEF
:1009700014140C14140C14140E16160D16150E3532
:10098000350E35354EB5B54EB5B54EFF4EB5350EB7
:1009900015150E1516FFFF00000000000000AD52F7
:1009A000FF926D6D020101000000000000000000D8
:1009B0000000000000000000000000000000000037
:1009C0000000000000000000000000000000000027
:1009D0000000000000000000000000000000000017
:1009E0000000000000000000000000000000000007
:1009F00000000000000000000000000000000000F7
:100A000000000000000101026D6D92FF52AD000078
:100A10000000000000FFFF000000000000000007D1
:100A2000FFA45B00000000000000000000000000C8
:100A300000000000000000000000000000000000B6
:100A400000000000000000000000000000000000A6
:100A50000000000000000000000000000000000096
:100A60000000000000000000000000000000000086
:100A70000000000000000000000000000000000076
:100A80000000000000000000005BA4FF0700000061
:100A90000000000000FFFF0000000000000000E078
:100AA000FF24DB0000000000000000000000000048
:100AB0000000000000000000000000000000000036
:100AC0000000000000000000000000000000000026
:100AD0000000000000000000000000000000000016
:100AE0000000000000000000000000000000000006
:100AF00000000000000000000000000000000000F6
:100B0000000000000000000000DB24FFE000000007
:100B10000000000000FFFF00000000000000B54AD8
:100B2000FF49B6B6408080000000000000000000D1
:100B300000000000000000000000000000000000B5
:100B400000000000000000000000000000000000A5
:100B50000000000000000000000000000000000095
:100B60000000000000000000000000000000000085
:100B70000000000000000000000000000000000075
:100B80000000000000808040B6B649FF4AB5000072
:100B90000000000000FFFF68A870A8A870ACAD724C
:100BA000FF72ADAD72ADAD72ACAC70ACAC70A8689C
:100BB000B068687028283028283028283028283045
:100BC00028302830303020202020202020202020D5
:100BD00060A060A060A0A060A060A0602020202095
:100BE0002020202020203030302830283028283085
:100BF0002828302828302828706868B068A870AC89
:100C0000AC70ACAC72ADAD72ADAD72FF72ADAC702C
:100C1000A8A870A868FF03061D322D6DD2ADADD215
:100C2000FF92ED81808080808080808080808080C5
:100C300080808080808080808080808080808080B4
:100C400080808080808080808080808080808080A4
:100C5000C0A0DBA4DBA4A4DBA4DBA0C080808080D8
:100C60008080808080808080808080808080808084
:100C70008080808080808080808080808080808074
:100C8000808080808080808081ED92FFD2ADADD267
:100C90006D2D321D060310001000A07BE050F6DF22
:100CA00076C009140209A046A90040E9460008845C
:100CB0000000846414009FD9BB9F90B9BFF8F7A4CB
:100CC000A4EF171D1DFD0FAD0D0F8755050F00A4D7
:100CD0004A001ABA3A00FFB9B3E3FF95959FFF594E
:100CE0005916FF9B9BD9CF94F41FF92F5990FF28D9
:100CF00048F8FF9193FFFF55D5777FD9DDDF718FDE
:100D00008171FF88C8FF99D6B69907FC9407211610
:100D1000280080898F8070616200755756002676A2
:100D20003710A7B77300877206007027500073143E
:100D30006400775377007F15070047751F0032471F
:100D400032007364770015724500616A9700402F86
:100D50006020F0F9F6F606011501260137014A0177
:100D60005D01720188019F01B801D201EE010B0201
:100D70002A024B026E029302BA02E40210033F03FE
:100D80007003A403DC03170455049704DD0427054E
:100D90007505C80520067D06E0064907B8072D0839
:100DA000A9082D09B9094D0AEA0A900B400CFA0C62
:100DB000C00D910E6F0F5A1053115B1272139A14DB
:100DC000D41520178018F519801B231DDE1EB420B2
:100DD000A622B524E4263429A72B402E0031EA337D
:100DE0000037453ABC3D68414C456B49C84D685297
:100DF0004F57805C006210111213151617181A1C39
:100E00001D1F21232527292C2E3134373A3E4145F9
:100E1000494E52575C62686E757B838B939CA5AF7D
:100E2000B9C4D0DCE9F700000000003E5B4F5B3E38
:100E30003E6B4F6B3E1C3E7C3E1C183C7E3C181C9F
:100E4000577D571C1C5E7F5E1C00183C1800FFE796
:100E5000C3E7FF0018241800FFE7DBE7FF30483A3C
:100E6000060E2629792926407F050507407F05259E
:100E70003F5A3CE73C5A7F3E1C1C08081C1C3E7F26
:100E800014227F22145F5F005F5F06097F017F00ED
:100E90006689956A606060606094A2FFA29408040D
:100EA0007E040810207E201008082A1C08081C2A2E
:100EB00008081E101010100C1E0C1E0C30383E3886
:100EC00030060E3E0E06000000000000005F00002D
:100ED0000007000700147F147F14242A7F2A12239E
:100EE0001308646236495620500008070300001CAE
:100EF0002241000041221C002A1C7F1C2A08083EB7
:100F000008080080703000080808080800006060C9
:100F10000020100804023E5149453E00427F400037
:100F200072494949462141494D331814127F10270F
:100F3000454545393C4A494931412111090736495E
:100F4000494936464949291E000014000000403432
:100F50000000000814224114141414140041221437
:100F60000802015909063E415D594E7C1211127C5E
:100F70007F494949363E414141227F4141413E7FBF
:100F8000494949417F090909013E414151737F089F
:100F900008087F00417F41002040413F017F081445
:100FA00022417F404040407F021C027F7F040810A6
:100FB0007F3E4141413E7F090909063E4151215E84
:100FC0007F09192946264949493203017F01033F18
:100FD0004040403F1F2040201F3F4038403F6314A7
:100FE00008146303047804036159494D43007F41A9
:100FF00041410204081020004141417F04020102E6
:10100000044040404040000307080020545478400A
:101010007F284444383844444428384444287F389E
:101020005454541800087E090218A4A49C787F0820
:1010300004047800447D40002040403D007F10289B
:10104000440000417F40007C047804787C0804045C
:10105000783844444438FC1824241818242418FCF4
:101060007C08040408485454542404043F44243C99
:101070004040207C1C2040201C3C4030403C442808
:101080001028444C9090907C4464544C44000836A2
:101090004100000077000000413608000201020410
:1010A000023C2623263C1EA1A161123A4040207A30
:1010B000385454555921555579412154547841217A
:1010C0005554784020545579400C1E5272123955AF
:1010D00055555939545454593955545458000045AC
:1010E0007C410002457D420001457C40F0292429D5
:1010F000F0F0282528F07C545545002054547C54A9
:101100007C0A097F493249494932324848483232DB
:101110004A4848303A4141217A3A42402078009D7D
:10112000A0A07D39444444393D4040403D3C24FF2B
:101130002424487E4943662B2FFC2F2BFF0929F6D8
:1011400020C0887E090320545479410000447D4129
:101150003048484A32384040227A007A0A0A727D82
:101160000D19317D2629292F28262929292630489D
:101170004D4020380808080808080808382F10C80B
:10118000ACBA2F102834FA00007B000008142A148F
:101190002222142A14089500220095AA005500AABC
:1011A000AA55AA55AA000000FF00101010FF001455
:1011B0001414FF001010FF00FF1010F010F01414B2
:1011C00014FC001414F700FF0000FF00FF1414F4D7
:1011D00004FC141417101F10101F101F1414141FD8
:1011E00000101010F0000000001F101010101F1051
:1011F000101010F010000000FF1010101010101050
:101200001010FF10000000FF140000FF00FF00009E
:101210001F10170000FC04F414141710171414F412
:1012200004F40000FF00F714141414141414F7004D
:10123000F7141414171410101F101F141414F4149E
:101240001010F010F000001F101F0000001F14000D
:101250000000FC140000F010F01010FF10FF141438
:1012600014FF141010101F00000000F010FFFFFF0B
:10127000FFFFF0F0F0F0F0FFFFFF0000000000FFC4
:10128000FF0F0F0F0F0F38444438447C2A2A3E14B6
:101290007E02020606027E027E02635549416338E1
:1012A00044443C04407E201E2006027E020299A592
:1012B000E7A5991C2A492A1C4C7201724C304A4DF0
:1012C0004D303048784830BC625A463D3E49494925
:1012D000007E0101017E2A2A2A2A2A44445F4444CE
:1012E00040514A444040444A51400000FF0103E05D
:1012F00080FF000008086B6B083612362436060F94
:10130000090F06000018180000001010003040FF00
:101310000101001F01011E00191D1712003C3C3C79
:101320003C00000000000000000200090F00000364
:101330000401000C0000000000000000000000009C
:101340000000000000080B00020202010009040076
:101350000001020200000524001001052401010122
:10136000042402060524060001070581031000403D
:1013700009040100020A0000000705020240000003
:101380000705830240000004030904417264756983
:101390006E6F204C4C430041726475626F7900128D
:1013A00001000200000040412336800001010203D9
:1013B0000112010002EF02014041233680000101C9
:1013C000020301003E281A2811241FBECFEFDAE0E5
:1013D000DEBFCDBF11E0A0E0B1E0E6ECF7E502C072
:1013E00005900D92A23AB107D9F726E0A2EAB1E042
:1013F00001C01D92A63DB207E1F719E0C3EED9E0A6
:1014000004C02197FE010E94E328C23ED107C9F71C
:101410000E94E41B0C94D62B0C940000CF92DF9218
:10142000EF92FF9281E08093AE018093000161E032
:101430000E94B7160E94EF11C090DA01D090DB0134
:10144000E090DC01F090DD01209101016C157D053B
:101450008E059F0510F0222339F0222389F00E9487
:10146000F514109201010CC01092B6011092B70150
:101470001092DA011092DB011092DC011092DD0172
:10148000FF90EF90DF90CF900895CF93DF93EC0122
:101490006EE871E00E94EF168823B1F00E944512B9
:1014A00082FD75C00E94451287FD71C00E944512E1
:1014B00084FD6DC00E94451285FD69C00E944512E1
:1014C00086FD65C081E064C065E971E0CE010E94DF
:1014D000EF16882329F00E94451283FD58C0E2CF01
:1014E00067E671E0CE010E94EF16882349F00E9462
:1014F000451282FD4CC00E94451283FD48C0D6CFE4
:1015000062E671E0CE010E94EF16882369F00E9426
:10151000451282FD3CC00E94451287FD38C00E94E2
:10152000451283FD34C0C6CF67E571E0CE010E944D
:10153000EF16882389F00E94451282FD28C00E9480
:10154000451287FD24C00E94451284FD20C00E94E0
:10155000451283FD1CC0B2CF6CE571E0CE010E9444
:10156000EF168823A1F00E94451282FD10C00E9450
:10157000451287FD0CC00E94451284FD08C00E94E0
:10158000451285FD04C00E94451283FF9BCF80E079
:10159000DF91CF9108950E94451283FD16C00E94ED
:1015A000451282FD12C00E94451287FD0EC00E94A6
:1015B000451284FD0AC00E94451285FD06C00E94A6
:1015C000451286FD02C081E0089580E008956F9283
:1015D0007F928F929F92AF92BF92CF92DF92EF92C3
:1015E0000F93CF93DF9300D000D000D0CDB7DEB7FC
:1015F0006C015B014A0139016A30710518F467E931
:1016000071E002C06AE971E08AE292E00E94CA17C2
:101610008AE08816910418F467E971E002C06AE96B
:1016200071E084E292E00E94CA178AE068167104B1
:101630005CF469E971E08EE192E00E94CA17EE2045
:1016400089F067E971E00AC06AE971E08EE192E031
:101650000E94CA17EE2031F06AE971E08EE192E053
:101660000E94CA1780910201882389F0E1100FC0FF
:10167000002351F080910301882319F06EE971E095
:1016800008C069E871E005C080910401F5CF6AE9FE
:1016900071E082E192E00E94CA176EE172E0CE0131
:1016A00001960E94E318B301CE0101960E940E1725
:1016B00060E372E00E945D1764E272E00E945D17D1
:1016C000B4010E940E1760E372E00E945D176AE2A7
:1016D00072E00E945D17B5010E940E17BC01C601A1
:1016E0000E94E318CE0101960E94E117C6012696DA
:1016F0000FB6F894DEBF0FBECDBFDF91CF910F9133
:10170000EF90DF90CF90BF90AF909F908F907F90A1
:101710006F900895882359F080910301882319F070
:1017200010920301089581E0809303010895809150
:101730000401882319F010920401089581E0809338
:10174000040108951F93CF93DF9300D0CDB7DEB788
:10175000182F4A8369830E94F5144A8189811123D5
:1017600041F0642F0F900F90DF91CF911F910C9457
:101770008A142091DE013091DF012150310930932C
:10178000DF012093DE0141110EC0909102019923E7
:10179000B9F01216130674F08CE090E09093DF011C
:1017A0008093DE0119C037FF17C01092DF0110923D
:1017B000DE0112C02B30310579F40E948A0B0CC077
:1017C0002B303105D1F337FF07C027E130E03093EC
:1017D000DF012093DE01F1CF80E090E00F900F90C9
:1017E000DF91CF911F9108951F93CF93DF9300D086
:1017F000CDB7DEB7162F4A8389830E94F514209156
:10180000D8013091D90189814A818823B1F02F5FB5
:101810003F4F2C333105ACF01092D9011092D80112
:10182000411125C00E94F51460E0812F0F900F90A8
:10183000DF91CF911F910C948A142150310937FD0B
:1018400005C03093D9012093D80111C08BE390E0FB
:101850009093D9018093D801411109C0612F80E094
:101860000F900F90DF91CF911F910C94A20B0F90CE
:101870000F90DF91CF911F910895EF92FF920F93F8
:10188000CF937C01C22F9093D7018093D6017093A0
:10189000D9016093D8015093DF014093DE0101111B
:1018A0006BC00E94451286FF36C00E94451287FF1A
:1018B00032C080910201882371F10E94451283FD9C
:1018C0002AC00E94451282FD26C00E94451285FD55
:1018D00022C00E94451284FD1EC010920201809118
:1018E000DE019091DF018C30910509F07DC0C111BE
:1018F00056C080910501909106010C9709F459C0DA
:10190000C11161C080910401882309F45CC0109268
:10191000DF011092DE010E94451285FF2DC00E945A
:10192000451284FF29C080910201811125C00E94C7
:10193000451283FD21C00E94451282FD1DC00E94F8
:10194000451286FD19C00E94451287FD15C081E031
:10195000809302018091DE019091DF018D3091052D
:101960000CF082C0009709F0A7C08091DE01909131
:10197000DF01892B09F4BCC00E94451283FFEFC030
:101980000E94451287FFEBC00E94451282FDE7C00E
:101990000E94F514602F8C2F0E948A1452C18091EE
:1019A0000301882309F4A5CF1092DF011092DE0114
:1019B0000AC080910301882309F4A2CF1092060186
:1019C000109205019DCF80910701909108010C971D
:1019D00009F0A1CF80910401882309F49CCF1092D3
:1019E00008011092070197CF509103014091040123
:1019F000CC2341F0511106C00C969093DF018093E7
:101A0000DE0120C020910501309106012C30310506
:101A100049F051110DC0245F3F4F309306012093D0
:101A2000050106C0552321F0109206011092050110
:101A3000C11108C0411106C00C969093DF0180933C
:101A4000DE0169CF80910701909108018C309105EA
:101A500041F0411160CF0C969093080180930701EB
:101A60005ACF4111BCCF57CF0C97CC23A1F0909304
:101A7000DF018093DE0110920301809107019091B4
:101A800008018D3091050CF470CF0C9790930801EC
:101A90008093070161C020910501309106012D302E
:101AA00031050CF455C02C503109309306012093B8
:101AB0000501109203014CC00C9709F456CFCC23BA
:101AC00051F081E08093030180910701909108011A
:101AD000892B51F44ACF8091050190910601892B01
:101AE00019F081E08093030181E0809304013DCFF0
:101AF000CC23A9F02CE030E03093DF012093DE010D
:101B000081E0809303014091070150910801452B2A
:101B100009F032CF309308012093070116C080915D
:101B2000050190910601892B49F48CE090E0909397
:101B300006018093050181E0809303018CE090E031
:101B40009093DF018093DE0181E08093040114CF44
:101B50009093DF018093DE011092040106CF0E9472
:101B6000451283FF0EC00E94451284FF0AC00E94E6
:101B7000451282FD06C0402F6C2F80E00E94A20B10
:101B800060C00E94451282FF0EC00E94451287FF6E
:101B90000AC00E94451283FD06C0402F6C2F81E0D1
:101BA0000E94F40B4EC00E94451282FF0CC00E949E
:101BB000451284FF08C00E94451283FD04C0402FD7
:101BC0006C2F80E0EDCF0E94451283FF19C00E9468
:101BD000451282FF15C00E94451287FF11C00E9466
:101BE000F5148FEFE81AF80A8CE3E816F1042CF1EB
:101BF0001092D7011092D601011123C040E0CECF40
:101C00000E94451283FF1DC00E94451282FF19C029
:101C10000E94451284FF15C00E94F51481E0E81A65
:101C2000F108F7FE0AC08BE390E09093D701809310
:101C3000D601011106C040E0C3CFF092D701E09277
:101C4000D6018091D6019091D7019093D1018093D4
:101C5000D0018091D8019091D9019093D3018093C4
:101C6000D2018091DE019091DF019093D5018093A4
:101C7000D40180ED91E0CF910F91FF90EF90089506
:101C80003FB7F8948091FC019091FD01A091FE0175
:101C9000B091FF0126B5A89B05C02F3F19F0019612
:101CA000A11DB11D3FBFBA2FA92F982F8827820FE2
:101CB000911DA11DB11DBC01CD0142E0660F771F32
:101CC000881F991F4A95D1F708958091A201089520
:101CD0002F923F924F925F926F927F928F929F923C
:101CE000AF92BF92CF92DF92EF92FF920F931F932A
:101CF000CF93DF9300D000D000D0CDB7DEB7DC01AA
:101D00006A30A9F45C962C915C9758968D919C91C1
:101D1000599708E0209F800D911D112459969C939E
:101D20008E93589757961C921E925697D1C06D303D
:101D300009F4CEC05C96BC905C975B962C905B9748
:101D40005A963C905A9758962D913C9159973C83BE
:101D50002B8356968D919C91579780389105C4F0AE
:101D60005C962C915C97422F50E056968D919C91F9
:101D7000579736E0239F800D911D112457969C9311
:101D80008E9356975D962C915D9721118EC0A0C0C1
:101D90000B811C81003411051CF79C0115E0B19EDC
:101DA000200D311D112412161306D4F68B2C912C04
:101DB0002B813C8148E0B49E200D311D1124121668
:101DC000130674F6E5E06E9F2001112460E070E0D8
:101DD0006530710539F0FB01E40DF51DEA5DF14F49
:101DE000A49001C0A12CEB80FC8008E0702EA0FC28
:101DF00002C0622C01C0632C611009C0231007C00F
:101E0000A6947A94E80CF91C7110F1CF45C09C019E
:101E1000422F481B4B15A0F7A701E42FF42FFE1902
:101E2000FB15B8F52038310588F54034510570F5BB
:101E3000E695E695E695CE2ED12C8A0107701127FE
:101E40001A830983F601F695FE2FEE27F795E7959D
:101E5000E20FF31F8F01035C1D4F1E830D83E1E032
:101E6000F0E0098002C0EE0FFF1F0A94E2F7FA8348
:101E7000E983662029F0F801D080C980CD2805C00B
:101E8000CE2EC094F801D080CD20C0824F5F5F4F2E
:101E9000C4CF2F5F3F4FBCCF6F5F7F4F880D991D21
:101EA0006630710509F094CF5BCF6AEF640390014F
:101EB000659F300D112420583F4F2817390744F4EF
:101EC000CD01ED91FC910190F081E02D6AE0099542
:101ED00081E090E026960FB6F894DEBF0FBECDBF2E
:101EE000DF91CF911F910F91FF90EF90DF90CF90F6
:101EF000BF90AF909F908F907F906F905F904F902A
:101F00003F902F9008950895CF92DF92EF92FF9225
:101F10001F93CF93DF93E82FF0E0EA5DFE4F10812F
:101F2000E62FF0E0603330F4EA50F24FE491CE2F28
:101F3000D0E006C0EE0FFF1FEA50F34FC591D491D9
:101F40006E01E12CF12C60E074E284EF90E0A701D7
:101F500096010E944F2BDA01C9010197A109B1092D
:101F6000009721E0A207B10578F060E970ED83E009
:101F700090E0A70196010E944F2BDA01C901019759
:101F8000A109B10923E001C021E01130C9F01330EB
:101F900051F530919100387F232B2093910090933D
:101FA000990080939800D093F501C093F40181E0EB
:101FB0008093F3018091710082608093710013C05F
:101FC0003091F60131110FC030918100387F232B01
:101FD00020938100909389008093880080916F0006
:101FE000826080936F00DF91CF911F91FF90EF90FF
:101FF000DF90CF9008958F929F92AF92BF92CF9231
:10200000DF92EF92FF920F931F93CF93DF938C0198
:102010006B0198E0E92EF12CE42FE695E695E69524
:10202000F0E0CA0187709927892BC1F5D80116966F
:10203000CD91DC911797C6019927BE010E94CF2848
:10204000D80150964D915C915197992714966D91B6
:102050007C911597452B91F4EC9FA001ED9F500DBD
:10206000FC9F500D1124840F951FFB01E80FF91FF1
:10207000C22FC09520812C23208332C0EC9FA00169
:10208000ED9F500DFC9F500D1124840F951FFB01F7
:10209000E80FF91FC081C22BC08322C0C22FD0E03D
:1020A0004770A42EB12C4F0183E0880C991C8A95AF
:1020B000E1F79E0101C0220F4A95EAF7A401B6019B
:1020C000C8010E94FB0FC7018A199B0902C0D59560
:1020D000C7958A95E2F72C2FA401485F5F4F9CCFEC
:1020E000DF91CF911F910F91FF90EF90DF90CF90F4
:1020F000BF90AF909F908F9008958F929F92AF92D4
:10210000BF92CF92DF92EF92FF920F931F93CF93E4
:10211000FC016A3061F484859585938782872389E1
:1021200086859785820F911D9787868771C0C284A7
:10213000D384693031F449E0C40ED11CD386C28601
:1021400067C0C62F8C01E684F7845DEFC5165FEF8C
:10215000D5065CF4F801828990E0049622853385E7
:10216000820F931F9387828753C0FC0186819781DA
:10217000C816D9067CF7FDEFEF16FFEFFF0654F304
:10218000F80180859185E816F90624F7603208F495
:10219000CFE780EE8C0F9FE99C0F9A3118F4FFEF88
:1021A000EF1AFF0A8C3011F08B3119F44FEFE41A5B
:1021B000F40AA82EA694A69458E0A59E9001112496
:1021C000F901EA56F34F5F0180FF03C0F4E0AF0E60
:1021D000B11CC378C7FF03C0C150CC6FCF5F812C47
:1021E000912CF501E80DF91D2491C2300CF02295D7
:1021F0002F70B4016C0D7D1DA701C8010E94FB0F5B
:102200004FEF841A940A54E08516910451F7A2CF37
:1022100081E090E0CF911F910F91FF90EF90DF90C0
:10222000CF90BF90AF909F908F900895362F90E001
:10223000FC01EA5DFC4E4491FC01EB51FF4F2491FF
:10224000FC01EE5EFE4F8491882309F451C04423C3
:10225000E1F150E0FA013197EF30F105B0F5EA5ABB
:10226000FF4F0C94E328909180009F7707C09091D6
:1022700080009F7D03C090918000977F90938000A5
:1022800024C094B59F7702C094B59F7D94BD1DC0B6
:10229000909190009F7707C0909190009F7D03C020
:1022A00090919000977F909390000FC09091C00004
:1022B0009F7703C09091C0009F7D9093C00005C0A0
:1022C0009091C200977F9093C200E82FF0E0EE0F4C
:1022D000FF1FEC5FFE4FA591B4918FB7F894EC917E
:1022E000311103C020952E2301C02E2B2C938FBFBC
:1022F0000895CF93DF9390E0FC01EB51FF4F2491C1
:10230000FC01EE5EFE4F8491882361F190E0880F1E
:10231000991FFC01E653FF4FC591D491FC01EC5F7E
:10232000FE4FA591B491611109C09FB7F8948881BF
:10233000209582238883EC912E230BC0623061F4B8
:102340009FB7F8943881822F809583238883EC91FE
:102350002E2B2C939FBF06C08FB7F894E8812E2BAD
:1023600028838FBFDF91CF9108958F929F92AF9274
:10237000BF92CF92DF92EF92FF926B017C010E949D
:10238000400E4B015C01C114D104E104F104F1F0F1
:102390000E94400EDC01CB0188199909AA09BB09EA
:1023A000883E9340A105B10570F321E0C21AD1081F
:1023B000E108F10888EE880E83E0981EA11CB11C8C
:1023C000C114D104E104F10419F7DDCFFF90EF90BF
:1023D000DF90CF90BF90AF909F908F9008952FB7D0
:1023E000F8946091F8017091F9018091FA0190914F
:1023F000FB012FBF08951F920F920FB60F92112469
:102400002F933F938F939F93AF93BF938091F80146
:102410009091F901A091FA01B091FB013091F7017F
:1024200023E0230F2D3720F40196A11DB11D05C017
:1024300026E8230F0296A11DB11D2093F70180937A
:10244000F8019093F901A093FA01B093FB018091F8
:10245000FC019091FD01A091FE01B091FF01019658
:10246000A11DB11D8093FC019093FD01A093FE017D
:10247000B093FF01BF91AF919F918F913F912F91A9
:102480000F900FBE0F901F9018958FB12CB193B184
:1024900030E02095309520743327A90123E055952D
:1024A00047952A95E1F7292F30E020953095207146
:1024B00033273595279535952795242B8095807F53
:1024C000822B08951F920F920FB60F9211242F9313
:1024D0003F938F939F93AF93BF93EF93FF9380911D
:1024E000F601882309F44FC08091E6019091E7013D
:1024F000A091E801B091E901892B8A2B8B2B51F136
:102500008091E501E091E301F091E4019081892758
:1025100080838091E6019091E701A091E801B0915C
:10252000E901181619061A061B06D4F58091E60172
:102530009091E701A091E801B091E9010197A1090B
:10254000B1098093E6019093E701A093E801B0936D
:10255000E90126C01092F2011092F60180916F00FD
:102560008D7F80936F009091E501E091E301F09100
:10257000E4018081282F30E0892F90E080959095AC
:10258000822393230CC08091F101811109C08091B5
:10259000E501E091E301F091E401908189278083D6
:1025A000FF91EF91BF91AF919F918F913F912F91AB
:1025B0000F900FBE0F901F901895E82FF0E0EA5D86
:1025C000FE4F8081813019F0833089F00895809129
:1025D000F601811122C080916F008D7F80936F0082
:1025E0009091E501E091E301F091E4010CC01092BB
:1025F000F3018091F201811110C09091F001E091FE
:10260000EE01F091EF018081282F30E0892F90E0DA
:10261000809590958223932380830895CF93DF93B1
:10262000D1E0E091A301F091A4019F012F5F3F4F02
:102630003093A4012093A3018491982F907FC82FF9
:10264000CF70903821F48C2F0E94DD12EACF9039A0
:10265000F9F4E0910402F091050209958D27809329
:10266000F101E091A301F091A401CF0101969093B3
:10267000A4018093A30164918091A701C81788F6F3
:10268000C13009F052C08091E2018111CACF4DC022
:1026900097FD3AC03296F093A401E093A301F901AB
:1026A000249130E0382BA091F401B091F5010E9403
:1026B000C72B6C507E4F8F4F9F4F28EE33E040E08A
:1026C00050E00E94A52B2093EA013093EB01409348
:1026D000EC015093ED018091EA019091EB01A09102
:1026E000EC01B091ED01892B8A2B8B2B21F581E038
:1026F00090E0A0E0B0E08093EA019093EB01A0931A
:10270000EC01B093ED0117C0903E49F48091A50112
:102710009091A6019093A4018093A30182CF903F52
:1027200009F07FCF1092AF0106C067FD7ACF8C2FE2
:102730000E94840F76CFDF91CF9108951F920F9260
:102740000FB60F9211242F933F934F935F936F9384
:102750007F938F939F93AF93BF93EF93FF9380915A
:10276000F301882341F08091F201811104C080912E
:10277000F101882351F18091AF01882381F180918B
:10278000EA019091EB01A091EC01B091ED01892B50
:102790008A2B8B2B21F18091EA019091EB01A09182
:1027A000EC01B091ED010197A109B1098093EA0113
:1027B0009093EB01A093EC01B093ED01892B8A2B50
:1027C0008B2B69F40E940E130AC08091F001E091F6
:1027D000EE01F091EF01908189278083CCCFFF91AA
:1027E000EF91BF91AF919F918F917F916F915F9189
:1027F0004F913F912F910F900FBE0F901F90189502
:10280000CF93DF939091A701923009F480C0292FD4
:1028100030E0F901EA5DFE4FD081F901E052FE4F50
:102820008083913031F42091E001281302C090930D
:10283000E201C82F9F5F9093A70161E00E94791188
:10284000D13019F0D33061F162C080916400877F8C
:10285000809364001092800010928100809181002A
:1028600088608093810080918100816080938100E5
:102870008C2F90E0FC01EE5EFE4FE491F0E0EE0F55
:10288000FF1FEC5FFE4F259134913093E4012093BC
:10289000E301FC01EB51FF4F84918093E50137C0C8
:1028A00080916500877F8093650010929000109260
:1028B00091008091910088608093910080919100B7
:1028C0008160809391008C2F90E0FC01EE5EFE4FC2
:1028D000E491F0E0EE0FFF1FEC5FFE4F2591349185
:1028E0003093EF012093EE01FC01EB51FF4F8491F7
:1028F0008093F0018091A701882321F06CE380E0B0
:102900000E94840F80E0DF91CF910C94DD12DF9163
:10291000CF9108952091DE013091DF012F5F3F4F6D
:102920003093DF012093DE0161110AC09091020112
:10293000992381F02D303105D4F081E090E005C07D
:1029400024363105BCF083E690E09093DF0180935C
:10295000DE0110C02C30310539F02831310551F439
:102960001092DF011092DE010E948A0B03C02C300E
:102970003105D1F380E090E008958091AC01909111
:10298000AD019093B1018093B0018091AA01909123
:10299000AB019093B3018093B2018091A801909113
:1029A000A9019093B5018093B40108952DE332E01D
:1029B00046E958E080E090E0FA01E80FF91FE49161
:1029C000EE2331F0D901A80FB91F6C91E62BEC93DF
:1029D00001968038910581F740585F4F20583F4F4E
:1029E00086E02D33380731F708950E94EF11DC019E
:1029F000CB01805F984DAF4FBF4F8093DA0190932A
:102A0000DB01A093DC01B093DD010895FC0180910E
:102A10000302811103C08FEF9FEF08959FB7F894D1
:102A200082E08093E9002091F20030E01216130654
:102A300014F421E030E02115310559F0289884E69E
:102A4000809302028091F10080838091F2008823BC
:102A500019F09FBFC90108958BE68093E800F9CF74
:102A6000CF93DF931F92CDB7DEB76983DC01ED9181
:102A7000FC910280F381E02D41E050E0BE016F5FE8
:102A80007F4F09950F90DF91CF91089583E0809358
:102A9000E9008091F200882319F08AE38093E8002E
:102AA0000895CF93DF931F92CDB7DEB7FC018485E5
:102AB000958597FD05C02FEF3FEF358724870BC025
:102AC000CE0101960E940615019719F4898190E0C4
:102AD00002C08FEF9FEF0F90DF91CF9108950F937A
:102AE0001F93CF93DF931F92CDB7DEB78C01FC010C
:102AF0008485958597FF0EC0CE0101960E9406152C
:102B0000019719F4298130E002C02FEF3FEFF8015F
:102B100035872487F801848595850F90DF91CF91C3
:102B20001F910F910895FC018485958597FD0BC039
:102B30009FB7F89482E08093E9008091F2009FBFF4
:102B400090E0019608959FB7F89482E08093E900A1
:102B50008091F2009FBF90E008958F929F92AF9274
:102B6000BF92CF92DF92EF92FF920F931F93CF937A
:102B7000DF935C016B018A0180911701882309F4BE
:102B80005EC080910302882309F459C0809101023C
:102B900080FF05C08091E00082608093E000E80142
:102BA0008AEFF82E93E0E92E2FE3822E3AE3932E5C
:102BB000209709F43DC08FB7F894E092E900909116
:102BC000E80095FF06C09091F200282D291B922F56
:102BD00001C090E08FBF91110AC0FA94FF2079F1F3
:102BE00061E070E080E090E00E94B511E1CF292F14
:102BF00030E0C217D3070CF49C2F8FB7F894E09203
:102C0000E9002091E80025FF11C0292F30E0C21B08
:102C1000D30BF601915020F041914093F100FACF8F
:102C2000C20ED31E9091E80095FF13C08FBFC0CF96
:102C30005D9884E6809300021016110644F081E04E
:102C400090E0F5019383828380E090E005C0C801A5
:102C500003C09092E800EACFDF91CF911F910F91CE
:102C6000FF90EF90DF90CF90BF90AF909F908F90AC
:102C700008950E94F42ACF93DF93EC018881998113
:102C8000009711F00E949229198218821D821C82DD
:102C90001B821A82DF91CF9108950F931F93CF93D8
:102CA000DF93EC0188819981009729F02A813B818B
:102CB0002617370788F48B016F5F7F4F0E942A2AFF
:102CC000009761F0998388831B830A832C813D815F
:102CD000232B11F4FC01108281E001C080E0DF9120
:102CE000CF911F910F910895EF92FF920F931F9331
:102CF000CF93DF93FC01248135816115710511F4B7
:102D000080E019C041155105A9F07B01EC018A0151
:102D1000020F131FB8010E944D16882389F32881E2
:102D200039818C819D81B701820F931F0E940B2BEB
:102D30001D830C8381E0DF91CF911F910F91FF9054
:102D4000EF90089520E08DE392E0B22FB111BFEF34
:102D5000FC010024B193B193B193B1930394D1F7E3
:102D6000E1E5F6E0118E108E178A168A0895CF934A
:102D7000DF93D82FC62F61E08AE00E9416116D2FD5
:102D80008BE00E9416116C2F89E0DF91CF910C949B
:102D9000161180913D028EBDEEE3F2E081910DB4FB
:102DA00007FEFDCF8EBD86E0ED33F807B9F70DB411
:102DB00007FEFDCF08958091730681110DC082E05A
:102DC00080936F0684E080937006109272061092D2
:102DD000710681E0809373068FE696E00895FC010A
:102DE00024813581232B31F421E061157105A1F097
:102DF000FB0108C0FC01808191816115710531F4EE
:102E000021E0FC018081882339F005C00E94022B5B
:102E100021E0892B09F020E0822F0895EF92FF92A4
:102E20000F931F93CF93DF93CDB7DEB728970FB6DD
:102E3000F894DEBF0FBECDBF7C01CB014AE08E010E
:102E40000F5F1F4FB8010E94122BF8010190002064
:102E5000E9F73197AF01401B510BB801C7010E9440
:102E60007416811103C0C7010E943B16C701289642
:102E70000FB6F894DEBF0FBECDBFDF91CF911F918B
:102E80000F91FF90EF900895CF93DF93EC016115C0
:102E9000710561F0FB0101900020E9F73197AF0166
:102EA000461B570B0E947416811103C0CE010E946D
:102EB0003B16CE01DF91CF910895CF93DF93EC01C4
:102EC000FB0144815581608171810E9474168111DA
:102ED00003C0CE010E943B16CE01DF91CF91089531
:102EE0000F931F93CF93DF938C01EB01FC01808143
:102EF00091810097B1F0688179816115710579F050
:102F0000428153812C813D814217530740F00E943A
:102F10000B2B8C819D81F8019583848313C00E94C3
:102F2000922988819981F801918380838A819B818C
:102F3000938382838C819D819583848319821882F7
:102F40001B821A821D821C82DF91CF911F910F91EB
:102F50000895EF92FF920F931F93CF93DF93EC01AD
:102F60007B018A01BA010E944D16811104C0CE0175
:102F70000E943B1607C01D830C83B701888199818D
:102F80000E940B2BCE01DF91CF911F910F91FF90EB
:102F9000EF900895CF93DF93EC016115710559F01F
:102FA000FB0101900020E9F73197AF01461B570B59
:102FB0000E94A91702C00E943B16CE01DF91CF915B
:102FC0000895FC01808191810C949229089540918B
:102FD000D0065091D1062091CE063091CF064217EF
:102FE0005307B4F49091E8009570E1F39091E800F4
:102FF00092FD19C08093F1008091D0069091D10686
:1030000001968F739927892B19F48EEF8093E8002E
:103010008091D0069091D10601969093D10680932D
:10302000D00681E0089580E00895CF92DF92EF927C
:10303000FF920F931F93CF93DF931F92CDB7DEB70D
:10304000182F062FE42E862F880F8E5F99830E94FB
:10305000E71783E00E94E717F12EC12E9981D92E40
:103060008C2D8F19801798F4F601E7FE02C0849129
:1030700001C080810E94E717182F80E00E94E717A7
:103080008123FFEFCF1ADF0A8111EACF01C081E06F
:103090000F90DF91CF911F910F91FF90EF90DF90F4
:1030A000CF900895DF92EF92FF920F931F93CF93EB
:1030B000DF93D82E8A017B01E40EF51EEB01CE15BD
:1030C000DF0571F0D7FE03C0FE01849101C0888145
:1030D0000E94E71721968111F2CF8FEF9FEF01C079
:1030E000C801DF91CF911F910F91FF90EF90DF907A
:1030F0000895615030F02091F100FC012083019689
:10310000F8CF289884E6809302020895CF92DF9248
:10311000EF92FF920F931F93CF93DF936C017A018D
:103120008B01C0E0D0E0CE15DF0589F0D8016D91AC
:103130008D01D601ED91FC910190F081E02DC60149
:103140000995892B11F47E0102C02196ECCFC701AD
:10315000DF91CF911F910F91FF90EF90DF90CF9073
:1031600008950F931F93CF93DF931F92CDB7DEB7D0
:1031700082E0898342E450E065E473E180E80E94E4
:1031800052180E94DB16DC0112960D911C911397C8
:103190000115110569F0D801ED91FC910280F381D0
:1031A000E02DBE016F5F7F4FC801099597FF07C0F3
:1031B00089810F90DF91CF911F910F910895F801B0
:1031C00000851185E5CFFB01DC0111961C921E9252
:1031D00013961C921E92129715961C921E9214978B
:1031E0008617970749F0608171816115710521F09B
:1031F000448155810C94A9170895FC011182108215
:1032000013821282158214826115710551F0FB013F
:1032100001900020E9F73197AF01461B570B0C9442
:10322000A91708951F920F920FB60F9211248F9332
:103230009F938091E1009091E100937F9093E10052
:1032400083FF0FC01092E90091E09093EB00109281
:10325000EC0092E39093ED001092030298E09093BB
:10326000F00082FF20C093E09093E9009091F2007B
:10327000992319F09AE39093E80090910002992322
:1032800039F090910002915090930002992389F1B6
:1032900090910202992339F09091020291509093FB
:1032A0000202992341F184FF10C08091E2008E7EDA
:1032B00081608093E2008091E1008F7E8093E10045
:1032C000809101028E7E806111C080FF16C08091C6
:1032D000E2008E7E80618093E2008091E1008E7E2C
:1032E0008093E100809101028E7E816080930102D3
:1032F00004C05D9ACDCF289AD6CF9F918F910F9021
:103300000FBE0F901F9018951F920F920FB60F923D
:103310001124CF92DF92EF92FF920F931F932F937E
:103320003F934F935F936F937F938F939F93AF934D
:10333000BF93EF93FF93CF93DF93CDB7DEB76C9737
:10334000DEBFCDBF1092E9008091E80083FFFAC193
:1033500068E0CE0145960E94791882EF8093E800DC
:103360008D8987FF05C09091E80090FFFCCF03C0D6
:103370009EEF9093E800982F907609F0C6C09E8942
:103380002F89188D91110CC0803829F48091CC06BA
:103390008093F10002C01092F1001092F10047C139
:1033A000422F50E0512B913051F4811140C14130F6
:1033B000510509F03CC18091CC068D7F0BC0933044
:1033C00061F4811134C14130510509F030C180915F
:1033D000CC0682608093CC062AC1953041F480915E
:1033E000E80080FFFCCF20682093E30020C19630E6
:1033F00009F05FC0EB8CFC8C1092E9001092D106B2
:103400001092D006123091F51092CF061092CE068F
:103410000E94B11899E0BE016F5F7F4FDB01E92F79
:103420001D92EA95E9F799831A8391E09E8390EAC9
:1034300098879AEF99872091D0063091D106275F1F
:103440003F4F3C832B838D831092E9001092D1066D
:103450001092D006F092CF06E092CE0649E050E0FE
:1034600080E00E9452180E94B118E1C0F092CF068D
:10347000E092CE060E94DB16DC011296ED90FC90E5
:103480001397E114F10409F4C0C0D701ED91FC9148
:103490000480F581E02DBE016B5E7F4FC701099569
:1034A000009719F00CF0C3C0C6C0F701E084F184A6
:1034B000E8CF973009F4BFC0983021F481E08093C1
:1034C000F100B5C0993009F0B2C0837009F0B3C003
:1034D000E1E5F1E081E021E036E39081992361F0BC
:1034E0008093E9002093EB0091919093EC0030934E
:1034F000ED008F5F873089F78EE78093EA001092A6
:10350000EA008F898093030292C08B8D9C8D10926C
:10351000E9001092D1061092D0069093CF068093C6
:10352000CE06898D811156C08E899D89913A59F4B4
:10353000813209F080C047E050E060E171E080E056
:103540000E94521874C0913209F075C0833289F418
:10355000888D90E0982F88272F89822BA0E0B0E0FB
:103560008093180190931901A0931A01B0931B0145
:103570005EC0803269F48091E80082FFFCCF67E092
:1035800080E191E00E9479188BEF8093E80006C0FB
:10359000823209F04CC08F89809317018091CB064D
:1035A000882319F0EEEFFAE002C0E0E0F8E0809145
:1035B000100190911101A0911201B0911301803B73
:1035C0009440A105B10509F088C08091170180FFE2
:1035D000A0C083C00E94DB16DC0112960D911C91E5
:1035E00013970115110539F1D801ED91FC91019066
:1035F000F081E02DBE016B5E7F4FC80109958111FE
:1036000016C0F80100851185ECCF1130C1F01330E0
:1036100091F48F89882309F455C08230E9F440E899
:1036200067E087E993E10E941518882321F08EEF67
:103630008093E80087C081E28093EB0083C08B8D8C
:103640009C8D089711F41093CD068091CD068111C1
:1036500036C06FE973E138C0813029F440E86BE08F
:103660008BE893E1E0CF833031F70E94DB16DC0179
:103670001296ED90FC9013978E010F5F1F4F68011B
:10368000E114F10479F0D701ED91FC910680F78106
:10369000E02DB801C7010995080F111DF701E0845D
:1036A000F184EECFD8011C92F60101900020E9F7D9
:1036B0003197BF016C197D0940E0C601B4CF61EBC1
:1036C00073E102C067E873E16115710509F4B3CFD6
:1036D000FB01449150E080E833CF0FB6F894A895F1
:1036E00080916000886180936000109260000FBE3E
:1036F000A895EE3F2AE0F20739F08091FE0A9091FA
:10370000FF0A9183808393CF1092FF0A1092FE0AE2
:103710008ECFEE3F8AE0F80731F08081918190935F
:10372000FF0A8093FE0A87E797E7918380839BE0F7
:1037300088E10FB6F894A895809360000FBE90932F
:10374000600075CF6C960FB6F894DEBF0FBECDBF8C
:10375000DF91CF91FF91EF91BF91AF919F918F91A9
:103760007F916F915F914F913F912F911F910F9199
:10377000FF90EF90DF90CF900F900FBE0F901F90B3
:1037800018956115710579F0FB0101900020E9F7AA
:103790003197AF01461B570BDC01ED91FC91028084
:1037A000F381E02D099480E090E00895DC01ED9133
:1037B000FC91DB0114964D915C9115976D917C9174
:1037C0000280F381E02D0994CF93DF93CDB7DEB76C
:1037D00066970FB6F894DEBF0FBECDBF789484B560
:1037E000826084BD84B5816084BD85B5826085BDFD
:1037F00085B5816085BD80916E00816080936E008B
:10380000109281008091810082608093810080917C
:10381000810081608093810080918000816080932D
:10382000800080919100826080939100809191004E
:1038300081608093910080919000816080939000DE
:103840008091C10084608093C1008091C10082603A
:103850008093C1008091C10081608093C1008091FC
:10386000C30081608093C3008091C0008260809318
:10387000C0008091C20081608093C20080917A0074
:10388000846080937A0080917A00826080937A00CD
:1038900080917A00816080937A0080917A008068BC
:1038A00080937A00109203021092CC0610920102CB
:1038B0008091D70081608093D70080EA8093D80000
:1038C00089B5806189BD89B5826089BD09B400FE72
:1038D000FDCF61E070E080E090E00E94B511809142
:1038E000D8008F7C80618093D8008091E000807F39
:1038F0008093E0008091E1008E7E8093E1008DE076
:103900008093E200559A209AEEEFFFE7859194911B
:103910008B3F9C4D19F481E08093CB0685E00E949B
:1039200000148DE00E9400141FB7F8948091B80134
:10393000811127C0E3E2F1E08491E6EFF0E0949199
:10394000E82FF0E0EE0FFF1FE653FF4FA591B49173
:10395000EC91E92321F461E081E10E94161161E01C
:1039600081E10E9479118CB580618CBD8CB5806439
:103970008CBD61E08FE00E94791161E080E10E94DE
:1039800079118091B8018F5F8093B8011FBF01E367
:1039900011E0F80184910E5F1F4F319664918823E6
:1039A00019F00E947911F5CF61E086E00E941611AE
:1039B00061E070E080E090E00E94B51160E086E098
:1039C0000E9416116AE070E080E090E00E94B5115C
:1039D00061E086E00E941611EEE1F1E0E491F0E092
:1039E000EE0FFF1FEC5FFE4F859194919093BE0107
:1039F0008093BD01E1EFF0E0E491E093BC01E6E1EA
:103A0000F1E0E491F0E0EE0FFF1FEC5FFE4F8591D7
:103A100094919093BB018093BA01E9EEF0E0E491B8
:103A2000E093B9018CB58C7F8CBD8DB581608DBD67
:103A3000E091BD01F091BE0190818091BC01982B75
:103A40009083A091BA01B091BB012C919091B901E2
:103A5000909592239C939081809589238083E8EDB3
:103A6000F0E08DE08E0F94919EBD00000DB407FE36
:103A7000FDCF9EB531968E13F6CFE091BA01F0914D
:103A8000BB0190818091B901892B8083E091BD01B8
:103A9000F091BE0190818091BC0180958923808343
:103AA00080916400816080936400809164008260F2
:103AB00080936400809164008068809364008091AA
:103AC00064008064809364008091650081608093CD
:103AD000650082E480935C060E94A21661E085E0A6
:103AE0000E94791161E08DE00E94791181E080935C
:103AF000A2015FE0A52EB12C62E0C62ED12C7AE5A2
:103B0000272E312C29E1622E712C36E4432E512CC4
:103B100049E3842E912C0E94EF1100910C01109129
:103B20000D0120910E0130910F016017710782077E
:103B3000930708F480C0D901C80188519C4FAF4F4A
:103B4000BF4F80930C0190930D01A0930E01B09391
:103B50000F018091CE01882309F44AC08091B00101
:103B60009091B10101979093B1018093B00197FFBB
:103B70003FC08091B2019091B301009761F02BE3B7
:103B800030E03093B1012093B00101979093B301DD
:103B90008093B2012DC08091B4019091B50100973E
:103BA00081F02BE330E03093B1012093B0013093EA
:103BB000B3012093B20101979093B5018093B401B2
:103BC00017C01092B1011092B00180E591E090937E
:103BD000A6018093A5019093A4018093A3010E9464
:103BE0000E1381E08093AF011092CE010E94BD14AC
:103BF0000E94451283FF16C00E94451282FF12C028
:103C000080910B01882371F08091B70181110AC066
:103C10008091B601811106C0B0920A01A0920901FB
:103C20000C9430278091CC019091CD010196909316
:103C3000CD018093CC010E94EF11209165062223D3
:103C400091F020915D06F62FF21BF093660620910D
:103C50005806309159062F5F3F4F309359062093F5
:103C60005806109265060091610610916206209137
:103C7000630630916406601771078207930788F422
:103C8000061B023010F40C94302783B7817F83BF6A
:103C900083B7816083BF889583B78E7F83BF0C9481
:103CA0003027E0915C069B01AC012E0F311D411DB8
:103CB000511D209361063093620640936306509332
:103CC000640660935D0670935E0680935F06909332
:103CD000600611E0109365060E94A21610936D060F
:103CE0008091090190910A01009729F4B0920A018C
:103CF000A092090105C0019790930A0180930901E0
:103D00008091CC019091CD01CC9769F41092CD01B6
:103D10001092CC018091C6019091C70101969093B9
:103D2000C7018093C6012091C6013091C7018091DF
:103D3000CC019091CD012C33310581F4009771F4C1
:103D40001092C7011092C601209105013091060121
:103D50002F5F3F4F3093060120930501209105010D
:103D60003091060128313105D1F42091C6013091FE
:103D7000C701232B09F047C0009709F044C02091E8
:103D80000201211140C02091090130910A012F3018
:103D90003105C9F5109206011092050131C02B3092
:103DA000310589F52091C6013091C7012B333105CA
:103DB00051F58B33910591F420910201222371F08A
:103DC00020910301222351F02091090130910A0131
:103DD0002F30310519F41092030115C08B33910572
:103DE00091F420910201222371F02091030121110D
:103DF0000AC02091090130910A012F30310519F4D0
:103E000021E02093030120910501309106012D301E
:103E1000310594F02091C6013091C701232B61F444
:103E2000009751F420910201222331F021E030E08B
:103E30003093060120930501209105013091060180
:103E40002C30310534F040910201411102C0109232
:103E500003014091CA015091CB014817590769F5F8
:103E60004091C8015091C9018091C6019091C7014C
:103E70004817590711F580910701909108018217A1
:103E80009307D9F49091040180910301981315C010
:103E90008091C501882389F080E591E09093A60187
:103EA0008093A5019093A4018093A3010E940E1317
:103EB00081E08093AF011092C5010E94451285FFF9
:103EC000D9C70E94451286FFD5C70E94451283FDBF
:103ED000D1C70E94451282FDCDC70E94451287FDC1
:103EE000C9C70E94451284FDC5C70E94A2160E9440
:103EF000C91661E081E00E94B71610920B0181E0C3
:103F0000809300011092B7011092B60180910B01CD
:103F1000882309F4A5C70E94451285FF46C067E5BE
:103F200071E0CE0101960E94FD18CE0101960E941B
:103F3000450A182FCE0101960E94E1171123A9F11D
:103F40000E94F5148091AF01882361F010E0809108
:103F5000A701181728F4812F0E94DD121F5FF7CFE9
:103F60001092AF018091B601811119C00E94EF112A
:103F7000E090BF01F090C0010091C1011091C20119
:103F8000209100016E157F058007910708F492C704
:103F9000211190C78091AE018111A6C706C0809102
:103FA000CE01811102C00E94BD140E94CB0A811172
:103FB0000E940E0A0E94451286FF58C06CE571E00F
:103FC000CE0101960E94FD18CE0101960E94450A7D
:103FD000182FCE0101960E94E117112309F446C063
:103FE0000E94F5148091AF01882361F010E0809168
:103FF000A701181728F4812F0E94DD121F5FF7CF49
:104000001092AF018091B701811130C00E94EF1171
:10401000E090BF01F090C0010091C1011091C20178
:10402000209100016E157F058007910738F021115E
:1040300005C08091AE01811170C718C02223B1F074
:104040000E94EF11DC01CB0184529A4FAF4FBF4F5A
:104050008093BF019093C001A093C101B093C201AE
:104060001092000160E080E00E94B7160E94CB0A27
:1040700081110E940E0A0E94451284FF23C062E64D
:1040800071E0CE0101960E94FD18CE0101960E94BA
:10409000450A182F81111091AE01CE0101960E94A0
:1040A000E117112379F01092AE0181E080930101B4
:1040B0002091B6019091B701211165C791115EC79A
:1040C0008093B7010E94CB0A81110E940E0A0E94C0
:1040D000451287FF23C067E671E0CE0101960E947A
:1040E000FD18CE0101960E94450A182F81111091EA
:1040F000AE01CE0101960E94E117112379F01092D2
:10410000AE0181E0809301012091B6019091B70149
:10411000211142C7911147C78093B6018091B70121
:10412000882309F411C20E94A2160E94D614B092EC
:104130004A06A0924906B0924806A0924706D0923D
:104140004C06C0924B066AE671E08DE396E00E9451
:10415000C11B30924A0620924906309248062092AE
:104160004706D0924C06C0924B0660E771E08DE3A3
:1041700096E00E94C11B82E290E090934A068093F1
:104180004906909348068093470690924C06809289
:104190004B066AE671E08DE396E00E94C11B5092E7
:1041A0004A0640924906509248064092470690922D
:1041B0004C0680924B0666E771E08DE396E00E9424
:1041C000C11B8091CE01882381F08AE490E0909316
:1041D000680680936706D0926A06C092690681E0FD
:1041E00080936D066EE771E00FC087E490E09093D6
:1041F000680680936706D0926A06C092690681E0DD
:1042000080936D0661E871E081E596E00E94C11B34
:104210008091C501882309F49CC08CE290E09093C2
:10422000680680936706D0926A06C092690681E0AC
:1042300080936D066EE771E081E596E00E94C11BF8
:10424000D0924A06C0924906D0924806C0924706CC
:104250008EE090E090934C0680934B066AE571E007
:104260008DE396E00E94C11BD0924A06C092490697
:10427000D0924806C092470683E190E090934C06A6
:1042800080934B0665E871E08DE396E00E94C11BC8
:10429000D0924A06C0924906D0924806C09247067C
:1042A00088E190E090934C0680934B0664E771E0C0
:1042B0008DE396E00E94C11BD0924A06C092490647
:1042C000D0924806C09247068DE190E090934C064C
:1042D00080934B066FE771E08DE396E00E94C11B6F
:1042E000D0924A06C0924906D0924806C09247062C
:1042F00084E290E090934C0680934B0667E871E06F
:104300008DE396E00E94C11BD0924A06C0924906F6
:10431000D0924806C092470689E290E090934C06FE
:1043200080934B0663E871E08DE396E00E94C11B29
:10433000D0924A06C0924906D0924806C0924706DB
:104340008EE290E090934C0680934B0663E871E018
:1043500085C009E210E01093680600936706D092CA
:104360006A06C092690681E080936D0661E871E09B
:1043700081E596E00E94C11BD0924A06C092490690
:10438000D0924806C09247068EE090E090934C068B
:1043900080934B066AE571E08DE396E00E94C11BB5
:1043A000D0924A06C0924906D0924806C09247066B
:1043B00083E190E090934C0680934B0665E871E0B2
:1043C0008DE396E00E94C11BD0924A06C092490636
:1043D000D0924806C092470688E190E090934C0640
:1043E00080934B0664E771E08DE396E00E94C11B69
:1043F000D0924A06C0924906D0924806C09247061B
:104400008DE190E090934C0680934B066FE771E04E
:104410008DE396E00E94C11BD0924A06C0924906E5
:10442000D0924806C092470684E290E090934C06F2
:1044300080934B0667E871E08DE396E00E94C11B14
:10444000D0924A06C0924906D0924806C0924706CA
:1044500010934C0600934B066FE771E08DE396E0F6
:104460000E94C11B41E150E05093680640936706EB
:1044700070926A06609269064091070150910801A6
:104480006091C8017091C90100E020E08091CA01EB
:104490009091CB010E943D0CFC019093C40180934C
:1044A000C301608171817093CB016093CA01428125
:1044B00053815093C9014093C801248135813093C1
:1044C00008012093070182E080936D06E12CCE0164
:1044D00001960E94E70ABE016F5F7F4F81E596E07B
:1044E0000E94D61BCE0101960E94E11781E08093C5
:1044F0006D0680910201882309F4B0C48091040103
:10450000882379F08BE390E09093680680936706A8
:104510008CE290E090936A06809369066EE971E000
:104520000EC08BE390E090936806809367068CE260
:1045300090E090936A068093690669E871E081E5EE
:1045400096E00E94C11B8AC48091B601882309F4B9
:1045500012C20E94A2160E94D614B0924A06A092DD
:104560004906B0924806A0924706D0924C06C092E7
:104570004B066AE671E08DE396E00E94C11B309223
:104580004A06209249063092480620924706D09269
:104590004C06C0924B0660E771E08DE396E00E9406
:1045A000C11B82E290E090934A0680934906909363
:1045B00048068093470690924C0680924B0660E72F
:1045C00071E08DE396E00E94C11B50924A06409232
:1045D0004906509248064092470690924C068092B7
:1045E0004B0666E771E08DE396E00E94C11B809167
:1045F000CE01882309F462C08AE490E090936806B3
:1046000080936706D0926A06C092690681E0809323
:104610006D066EE771E081E596E00E94C11B0AE736
:1046200010E010934A060093490610934806009341
:10463000470686E190E090934C0680934B066CE829
:1046400071E08DE396E00E94C11B10934A0600932F
:10465000490610934806009347068BE190E090933B
:104660004C0680934B066AE571E08DE396E00E946C
:10467000C11B10934A060093490610934806009305
:10468000470680E290E090934C0680934B0667E8E3
:1046900071E08DE396E00E94C11B10934A060093DF
:1046A0004906109348060093470685E290E09093F0
:1046B0004C0680934B0668E671E0D8C087E490E032
:1046C0009093680680936706D0926A06C092690646
:1046D00081E080936D0661E871E081E596E00E94DB
:1046E000C11BD0924A06C0924906D0924806C09299
:1046F000470694E1E92EF12CF0924C06E0924B062D
:1047000064E771E08DE396E00E94C11BD0924A06F7
:10471000C0924906D0924806C092470670924C0655
:1047200060924B0663E971E08DE396E00E94C11B45
:10473000D0924A06C0924906D0924806C0924706D7
:10474000EEE1F0E0F0934C06E0934B066CE871E08C
:104750008DE396E00E94C11BD0924A06C0924906A2
:10476000D0924806C092470643E250E050934C0670
:1047700040934B0663E971E08DE396E04B8B5C8BD5
:104780000E94C11BD0924A06C0924906D0924806A8
:10479000C092470628E230E030934C0620934B0647
:1047A0006AE571E08DE396E02D8B3E8B0E94C11B84
:1047B0000AE710E010934A06009349061093480652
:1047C00000934706F0924C06E0924B066CE871E0CD
:1047D0008DE396E00E94C11B10934A0600934906A0
:1047E000109348060093470670924C0660924B0661
:1047F0006AE571E08DE396E00E94C11B10934A06C2
:104800000093490610934806009347068EE190E016
:1048100090934C0680934B066EE871E08DE396E032
:104820000E94C11B10934A06009349061093480644
:10483000009347064B895C8950934C0640934B0686
:1048400064E771E08DE396E00E94C11B10934A0675
:104850000093490610934806009347062D893E8928
:1048600030934C0620934B066AE571E08DE396E0A9
:104870000E94C11B8091C501882381F08CE290E0E9
:104880009093680680936706D0926A06C092690684
:1048900081E080936D066EE771E00FC089E290E0E1
:1048A0009093680680936706D0926A06C092690664
:1048B00081E080936D0661E871E081E596E00E94F9
:1048C000C11B8091CE01811127C04091B40150914C
:1048D000B5016091B2017091B30101E020E08091D7
:1048E000B0019091B1010E943D0CFC019093C40174
:1048F0008093C301808191819093B1018093B00135
:10490000828193819093B3018093B20184819581D8
:104910009093B5018093B401E1E1F0E0F093680673
:10492000E093670670926A066092690682E080935F
:104930006D062091B4013091B5014091B2015091C2
:10494000B3016091B0017091B101EE24E39400E0F5
:10495000CE0101960E94E70ABE016F5F7F4F81E59D
:1049600096E00E94D61BCE0101960E94E11781E0DD
:1049700080936D0673C26AE971E0CE010D960E94C4
:10498000FD186AE971E0CE0107960E94FD180E94A9
:10499000D614B0924A06A0924906B0924806A09258
:1049A0004706D0924C06C0924B066AE671E08DE352
:1049B00096E00E94C11B30924A062092490630922E
:1049C000480620924706D0924C06C0924B0660E7FC
:1049D00071E08DE396E00E94C11B8091CE01882397
:1049E00081F08AE490E09093680680936706D09205
:1049F0006A06C092690681E080936D066EE771E0F9
:104A00000FC087E490E09093680680936706D09289
:104A10006A06C092690681E080936D0661E871E0E4
:104A200081E596E00E94C11B8091C501882381F039
:104A30008CE290E09093680680936706D0926A06B5
:104A4000C092690681E080936D066EE771E00FC049
:104A500089E290E09093680680936706D0926A0698
:104A6000C092690681E080936D0661E871E081E59E
:104A700096E00E94C11B4091050150910601609192
:104A8000C6017091C70100E021E08091CC019091B6
:104A9000CD010E943D0CFC019093C4018093C301A1
:104AA000608171817093CD016093CC01428153810B
:104AB0005093C7014093C60124813581309306018C
:104AC0002093050182E080936D0681E190E0909350
:104AD00068068093670670926A0660926906E12C08
:104AE00001E0CE0101960E94E70ABE016F5F7F4F91
:104AF00086E392E00E947017CE0101960E94E117B2
:104B000066E372E081E596E00E94D61BE7E3F0E001
:104B1000F0934A06E0934906F0934806E09347066F
:104B20002DE030E030934C0620934B0660E971E0B5
:104B30008DE396E00E94C11B80910201882309F455
:104B400078C080910301882391F08BE390E09093EB
:104B50006806809367068CE290E090936A068093E3
:104B6000690681E080936D066EE971E011C08BE308
:104B700090E090936806809367068CE290E09093B3
:104B80006A068093690681E080936D0669E871E0AA
:104B900081E596E00E94C11B209107013091080138
:104BA0004091C8015091C9016091CA017091CB0137
:104BB000E12C00E0CE0101960E94E70ABE016F5F82
:104BC0007F4FCE010D960E947017CE0101960E9474
:104BD000E1178EE090E090934A0680934906909307
:104BE00048068093470690924C0680924B0680912F
:104BF0000401BE01635F7F4F882339F0CE01019627
:104C00000E94E3186EE871E006C0CE0101960E9492
:104C1000E31868E671E0CE0101960E944417BC01DA
:104C20008DE396E00E94D61BCE0101960E94E1170B
:104C300032C020910701309108014091C801509184
:104C4000C9016091CA017091CB01E12C00E0CE0155
:104C500001960E94E70ABE016F5F7F4FCE010D965D
:104C60000E947017CE0101960E94E1178EE090E03D
:104C700090934A068093490690934806809347068E
:104C800090924C0680924B06BE01635F7F4F8DE38E
:104C900096E00E94D61B2091B4013091B50140915D
:104CA000B2015091B3016091B0017091B101EE2455
:104CB000E39400E0CE0101960E94E70ABE016F5F17
:104CC0007F4FCE0107960E947017CE0101960E9479
:104CD000E11750924A064092490650924806409287
:104CE000470690924C0680924B06BE01695F7F4F4B
:104CF0008DE396E00E94D61B8091AF01882309F4D2
:104D0000A5C0D0924A06C0924906D0924806C092E9
:104D1000470646E150E050934C0640934B066FE93E
:104D200071E08DE396E00E94C11BD0924A06C092CA
:104D30004906D0924806C09247064BE150E0509396
:104D40004C0640934B0665E871E08DE396E04B8B93
:104D50005C8B0E94C11BD0924A06C0924906D09239
:104D60004806C092470620E230E030934C0620937C
:104D70004B066AE571E08DE396E02D8B3E8B0E9439
:104D8000C11BD0924A06C0924906D0924806C092F2
:104D9000470685E2E82EF12CF0924C06E0924B0695
:104DA00063E971E08DE396E00E94C11B0AE710E021
:104DB00010934A060093490610934806009347064D
:104DC00086E190E090934C0680934B066FE971E08A
:104DD0008DE396E00E94C11B10934A06009349069A
:104DE00010934806009347064B895C8950934C0604
:104DF00040934B0665E871E08DE396E00E94C11B8D
:104E000010934A06009349061093480600934706FC
:104E10002D893E8930934C0620934B066AE571E05C
:104E20008DE396E00E94C11B10934A060093490649
:104E30001093480600934706F0924C06E0924B060A
:104E400063E971E08DE396E00E94C11BCE010796F5
:104E50000E94E117CE010D960E94E1170E94C9162B
:104E600080E090E0892B11F40C948B1D0E940000CF
:104E70000C94821D0E94451287FF48C80E9445126B
:104E800084FF44C80E94451283FD40C80E94451219
:104E900082FD3CC80E94451285FD38C80E9445121B
:104EA00086FD34C861E081E00E94B71681E08093FE
:104EB0000B012CC8222309F478C80E94EF11DC01F1
:104EC000CB0184529A4FAF4FBF4F8093BF01909355
:104ED000C001A093C101B093C2011092000160E033
:104EE00081E00E94B71661C81092AE011092BF0116
:104EF0001092C0011092C1011092C20161E080E0E5
:104F00000E94B7168091C501882319F01092C5013F
:104F100051C881E08093C5014DC81092AE01109236
:104F2000BF011092C0011092C1011092C20161E054
:104F300080E00E94B7168091CE01882319F010926C
:104F4000CE0199C881E08093CE018091B00190910B
:104F5000B1019093AD018093AC018091B201909129
:104F6000B3019093AB018093AA018091B401909119
:104F7000B5019093A9018093A8017DC81092B70153
:104F80008093B6019FC891119DC81092B7011092ED
:104F9000B6011092010196C89111C0C88093B70163
:104FA0001092B601BBC81092B7011092B6011092D0
:104FB0000101B4C80F931F93CF93DF938C018AE054
:104FC00090E00E94472B9FEF980F9E3F58F522E3F9
:104FD00030E0D80157963C932E93569728E330E063
:104FE00059963C932E935897CBE0D0E0D801ED91A1
:104FF000FC910190F081E02D682FC8010995CE0148
:105000000E94472B2196C131D10581F70E94C91614
:105010006CED75E080E090E0DF91CF911F910F91F2
:105020000C94B511DF91CF911F910F9108950497C2
:105030000C94DA2786E092E00E94E1178CE092E07F
:105040000E94E11782E192E00E94E11788E192E07C
:105050000E94E1178EE192E00E94E11784E292E063
:105060000E94E1178AE292E00E94E11780E392E059
:105070000E94E11786E392E00C94E117EBE7F6E07B
:105080001382128288EE93E0A0E0B0E084839583DF
:10509000A683B7838CE291E0918380838FEF9FEFAB
:1050A00095878487E1E5F6E01382128211861286E5
:1050B00080E1838710861782108A118A128A138AE8
:1050C000148A84E491E0918380838EE491E0958357
:1050D0008483178A168A118E108E81E0828F138E38
:1050E000848F158EEDE3F6E0138212822CE331E01B
:1050F000318320832DE332E03583248320E830E0C0
:105100003783268320E430E03187208795E0938B36
:10511000828B15861486178616861386128681E082
:1051200090E0918B808B85E69EE0909305028093C2
:1051300004026AE971E086E392E00E94FD186BE9DF
:1051400071E080E392E00E94FD1867E971E08AE275
:1051500092E00E94FD1867E971E084E292E00E940B
:10516000FD1869E971E08EE192E00E94FD186AE99C
:1051700071E088E192E00E94FD186DE971E082E142
:1051800092E00E94FD186AE971E08CE092E00E94D2
:10519000FD186AE971E086E092E00C94FD1897FB37
:1051A000072E16F4009407D077FD09D00E94E92855
:1051B00007FC05D03EF4909581959F4F089570951A
:1051C00061957F4F0895EE0FFF1F0590F491E02D3C
:1051D0000994AA1BBB1B51E107C0AA1FBB1FA6173E
:1051E000B70710F0A61BB70B881F991F5A95A9F790
:1051F00080959095BC01CD010895CF93DF938230C7
:10520000910510F482E090E0E091D406F091D5068B
:1052100020E030E0C0E0D0E0309711F140815181D2
:1052200048175907C0F04817590761F482819381E4
:10523000209719F09B838A832BC09093D506809387
:10524000D40626C02115310519F04217530718F46A
:105250009A01BE01DF01EF010280F381E02DDCCF76
:105260002115310509F1281B390B2430310590F443
:1052700012968D919C9113976115710521F0FB0198
:105280009383828304C09093D5068093D406FD0156
:10529000329644C0FD01E20FF31F81939193225097
:1052A00031092D933C933AC02091D2063091D30618
:1052B000232B41F420911E0130911F013093D3061E
:1052C0002093D20620911C0130911D01211531053A
:1052D00041F42DB73EB74091200150912101241B8C
:1052E000350BE091D206F091D306E217F307A0F454
:1052F0002E1B3F0B2817390778F0AC014E5F5F4F2C
:105300002417350748F04E0F5F1F5093D306409384
:10531000D2068193919302C0E0E0F0E0CF01DF91EB
:10532000CF9108950F931F93CF93DF93009709F4C4
:105330008CC0FC013297138212820091D406109126
:10534000D5060115110581F420813181820F931F4B
:105350002091D2063091D3062817390779F5F093BA
:10536000D306E093D20671C0D80140E050E0AE17FA
:10537000BF0750F412962D913C911397AD01211562
:10538000310509F1D901F3CF9D01DA01338322837D
:1053900060817181860F971F8217930769F4EC0172
:1053A00028813981260F371F2E5F3F4F318320839D
:1053B0008A819B8193838283452B29F4F093D506C0
:1053C000E093D40642C01396FC93EE931297ED013E
:1053D000499159919E01240F351FE217F30771F48B
:1053E00080819181840F951F029611969C938E93D4
:1053F0008281938113969C938E931297E0E0F0E064
:10540000D80112968D919C911397009719F0F8018D
:105410008C01F6CF8D919C9198012E5F3F4F820FAA
:10542000931F2091D2063091D3062817390769F4CB
:10543000309729F41092D5061092D40602C0138238
:1054400012821093D3060093D206DF91CF911F9161
:105450000F910895A0E0B0E0E0E3FAE20C94722B23
:10546000EC01009721F4CB010E94FD28B8C0FC019B
:10547000E60FF71F9C0122503109E217F30708F4E9
:10548000ACC0D9010D911C91119706171707B0F008
:105490000530110508F49FC0C801049786179707C7
:1054A00008F499C002501109061B170B01931193C0
:1054B0006D937C93CF010E9492298DC05B01A01A4D
:1054C000B10A4C01800E911EA091D406B091D50670
:1054D00040E050E0E12CF12C109709F44AC0A815E7
:1054E000B905D1F56D907C901197630182E0C80EEB
:1054F000D11CCA14DB0480F1A3014A195B096A01BB
:1055000082E0C80ED11C1296BC9012971396AC91F3
:10551000B5E0CB16D10440F0B282A383518340831F
:10552000D9016D937C930AC00E5F1F4FC301800F9A
:10553000911FF90191838083EB2DFA2FE114F1047F
:1055400031F0D7011396FC93EE93129744C0F09379
:10555000D506E093D4063FC08D919C9111974817D2
:10556000590708F4AC017D0112960D90BC91A02D55
:10557000B3CF8091D2069091D30688159905E1F4B6
:1055800046175707C8F480911C0190911D010097A0
:1055900041F48DB79EB74091200150912101841BA9
:1055A000950BE817F907C8F4F093D306E093D206F9
:1055B000F901718360830FC0CB010E94FD287C013B
:1055C000009759F0A801BE010E94F92ACE010E945D
:1055D0009229C70104C0CE0102C080E090E0CDB79F
:1055E000DEB7EEE00C948E2B81E090E0F8940C9402
:1055F000D62BFB01DC0102C001900D9241505040BE
:10560000D8F70895FB01DC018D91019080190110FC
:10561000D9F3990B0895FB01DC0101900D92002054
:10562000E1F70895BB274A3031F4992322F4BDE213
:10563000909581959F4F0C941E2BBB27FB015527FE
:10564000AA27880F991FAA1FA41710F0A41B8395DF
:105650005051B9F7A05DAA3308F0A95DA193009756
:1056600079F7B111B1931192CB010C94372BDC0176
:10567000FC01672F71917723E1F7329704C07C9189
:105680006D9370836291AE17BF07C8F30895F999BF
:10569000FECF92BD81BDF89A992780B50895052E59
:1056A00097FB1EF400940E94662B57FD07D00E94C2
:1056B000A52B07FC03D04EF40C94662B5095409517
:1056C000309521953F4F4F4F5F4F089590958095AE
:1056D000709561957F4F8F4F9F4F08952F923F9206
:1056E0004F925F926F927F928F929F92AF92BF92F2
:1056F000CF92DF92EF92FF920F931F93CF93DF939E
:10570000CDB7DEB7CA1BDB0B0FB6F894DEBF0FBEFA
:10571000CDBF09942A88398848885F846E847D8447
:105720008C849B84AA84B984C884DF80EE80FD8049
:105730000C811B81AA81B981CE0FD11D0FB6F894BF
:10574000DEBF0FBECDBFED010895A1E21A2EAA1B48
:10575000BB1BFD010DC0AA1FBB1FEE1FFF1FA21721
:10576000B307E407F50720F0A21BB30BE40BF50B1E
:10577000661F771F881F991F1A9469F760957095A7
:10578000809590959B01AC01BD01CF010895A29F2A
:10579000B001B39FC001A39F700D811D1124911D05
:1057A000B29F700D811D1124911D089519E0C3EE63
:1057B000D9E004C0FE010E94E3282196C43ED1072F
:0657C000C9F7F894FFCFC9
:1057C60001010101010C000C000F0001E8030000BB
:1057D60000E1000000000000FFFFFFFF0000D6060A
:1057E6008000010000000301000000003015AD1527
:1057F600931551156F154615000000007D1086188B
:1058060000000000680E8618DA27FCFF0000172843
:1058160000C180810000004C45465400524947486B
:105826005400444F574E00555000414C41524D00D4
:1058360054494D45520053455454494E47004F4E26
:10584600004F46460055004F00504D0053004100A2
:1058560054494D45004200300020003A0020414D99
:02586600000040
:00000001FF
