:100000000C94BA090C94E2090C94E2090C94E209EC
:100010000C94E2090C94E2090C94E2090C94E209B4
:100020000C94E2090C94E2090C94001B0C94721BD2
:100030000C94E2090C94E2090C94E2090C94E20994
:100040000C94E2090C943D170C94E2090C94E2091B
:100050000C94E2090C94E2090C94E2090C949B15AF
:100060000C94E2090C94E2090C94E2090C94E20964
:100070000C94E2090C94E2090C94E2090C94E20954
:100080000C9479180C94E2090C94E2090C94E2099E
:100090000C94E2090C94E2090C94E2090C94E20934
:1000A0000C94E2090C94E2090C94E209029A903E45
:1000B00000A6904000A6904200A6904000A6904363
:1000C00000A6904200A6904000A6903E00A6904553
:1000D00000A6904300A6904200A6904000A6913250
:1000E000904200A69134903E00A69136904500A61D
:1000F000913400A69047913700A6913600A690490A
:100100009134003790470037904900379132904A38
:1001100000A6913990490053904A00539137904975
:1001200000A6913690470053904500539134007DCE
:100130008000299049913600A6904A913200A690FD
:100140004C913900A6904900A6912D904E00A690A2
:100150004A00A69139904900A69047008A81001B69
:100160009139904C00A6904900A6912D904A00A686
:10017000904700A69139904500A69044008A8100DE
:100180001B9139904C00A6904900A6912D904E00ED
:10019000A6904A00A69139904900A69047008A810E
:1001A000001B9139904C00A6904900A6912D904AD1
:1001B00000A6904700A69139904500A69044008A79
:1001C00081001B9139904900A6904700A6913B9071
:1001D0004A00A6904900A6913D904700A690450090
:1001E000A6913E904E00A6913D00A69044914000FD
:1001F000A6913E00A69045913D00A6913B00A69198
:100200003D001B80001B9047003790450037913E12
:1002100090440037904500379047001B80001B90AA
:10022000479140014D913400A6904500A691399028
:100230004500A6913400A6913600A6913800A691FB
:10024000398000A6913B00A6913D00A6913B00A6F7
:10025000904C913E00A6913D00A69051913B00A686
:10026000913900A6914000A6904700A6913490498C
:1002700000A6904B00A6904C8100A6904E00A69040
:100280004F00A6904E00A6913B905100A6904F00C3
:10029000A69140904E00A6904C00A6905300A691C7
:1002A0003600A69047913800A6913A00A6913B806F
:1002B00000A6913D00A6913E00A6913D00A6904269
:1002C000914000A6913E00A69047913D00A6913B2B
:1002D00000A6914200A6904600A69136904700A63F
:1002E000904900A69140904A00A6904C00A6913EED
:1002F000904E00A6904C00A69147904F00A69146C4
:10030000904E00A69147904C00A6904A00A6913DC1
:10031000904C00A6904A00A69146904E00A69144AB
:10032000904C00A69146904A00A6904900A691479D
:10033000904A00A69145904900A69143904C00A692
:100340009142904A00A69140904900A6913E904764
:1003500000A69140904900A6913E00A69046914289
:100360000053904400539140904600A6913E904720
:1003700000A6913D00A6913E00A690499140008ABA
:1003800080001B904991420053904A0053904900CD
:10039000A6913600A6904700A6913B00A690420089
:1003A000A69136904400A6904600A6913290470050
:1003B000A6904900A6912F904A00A6904900A690C9
:1003C0004C00A6904A00A690498100A6904700A63E
:1003D000904F00A6912F00A6913100A6913300A660
:1003E000913400A6913600A6913700A6913600A65A
:1003F000913900A6913700A6913600A6913400A647
:100400009139008A80001B904000A6904200A6907F
:100410004400A6904500A6904700A6904900A690EB
:100420004700A6904A00A6904900A6904700A690D3
:100430004500A6904E008A81001B912D00A6912FA9
:1004400000A6913100A6913200A6913400A6913603
:1004500000A6913400A6913700A6913600A69134EB
:1004600000A6913200A69138008A80001B904700B8
:10047000A6904C00A69134904A00A691369049006F
:10048000A69138904700A69139904900A6913890DE
:100490004700A69136904A00A69134904900A69153
:1004A00032904700A69136904500A69134904400C2
:1004B00053904500539132904400A69131904000F2
:1004C000A6912F00A69045913100A69047912D004E
:1004D000A69049913900A6904700A69136904A000F
:1004E000A6904900A69131904700A6904500A6919C
:1004F00032904E00A6913100A6913400A69044910E
:100500003200A69045913100A69044912F00A6900C
:1005100045913100A6904A913200A690479134014E
:100520004D912800A69045008A80001B9045912D92
:1005300000A6913100A6913200A69049913400A600
:10054000904A913600A6904C913700A6904291397E
:1005500000A6913700A69043913B00A6913900A6D2
:100560009047913700539045005391369043005384
:10057000904500539137904700A6913600A6904AC7
:100580009139005390490053913790470053904957
:1005900000539136904A00A6913400A6913600A6E9
:1005A0009049913400A6904C913700A6904A91361C
:1005B00000A69049913400A6904A913200A6904C32
:1005C000913900A6904A00A6912D904900A6904727
:1005D00000A690458100A6904300A6904200A690F8
:1005E0004000A6904300A6904200A6904000A6902E
:1005F0003E00A6904500A6904300A6904200A6901B
:100600004000A69132904200A69134903E00A691FF
:1006100036904500A6913400A69047913700A691E8
:100620003600A69049913400379047003790490032
:10063000379132904A00A6913990490053904A0070
:10064000539137904900A69136904700539045004A
:10065000539134007D800029904A913600A6913252
:10066000008A80001B904A913900A6913600A6901E
:100670003E913B00A6913700A6904A913600A69184
:1006800034008A80001B904A913900A6913600A65A
:10069000903E913700A6913400A6904A913200A670
:1006A0009131008A80001B904A913900A691360052
:1006B000A6903E913B00A6913700A6904A91360045
:1006C000A69134008A80001B904A913900A6913689
:1006D00000A6903E913700A6913400A6904A913230
:1006E00000A6904C913100A6904E913200A6904CFD
:1006F00000A69134904F00A6904E00A69136904CE3
:1007000000A6904A00A69137905300A6913600A605
:100710009049913900A6913700A6904A913600A6DB
:10072000913400A69136001B80001B904C0037903E
:100730004A0037913790490037904A0037904C0073
:100740002980000D904C9139014D912D00A6904AC1
:10075000008A80001B904A912F00A6912D00A69040
:100760003E913000A6912F00A69043912D00A691B6
:100770002B00A6913200A6903900A6903B00A690CF
:100780003D00A6903E00A6904000A69042008A81BF
:10079000001B9131904000A6912F904300A6912D0F
:1007A000904200A6912B904000A6912A903E00A670
:1007B000912B904700A6912A00A6912D00A6903D6E
:1007C000912B00A6903E912A00A6903D912800A66C
:1007D000903E912A00A69043912B00A69040912D27
:1007E00001F4903E008A80001B903E912607D08045
:1007F00081F0C060B84CB4B64BB5B54BFF49B7817A
:1008000001010101010101010101010101010101D8
:1008100001010101010101010101010101010101C8
:100820000101010101010101010101010305DB25B4
:10083000DB2525DB25DB05030101010101010101A8
:100840000101010101010101010101010101010198
:100850000101010101010101010101010101010188
:100860000101010181B749FF4BB5B54BB6B44CB896
:1008700060C0FF16150E15150E35B54EFF4EB5B5F9
:100880004EB5B54E35350E35350E15160D16160E00
:1008900014140C14140C14140C14140C140C0C0C50
:1008A0000404040404040404040404040605060502
:1008B00006050506050605060404040404040404EC
:1008C000040404040C0C0C140C14140C14140C1458
:1008D000140C14140E16160D16150E35350E35356E
:1008E0004EB5B54EB5B54EFF4EB5350E15150E15B8
:1008F00016FFFF00000000000000AD52FF926D6D7A
:1009000002010100000000000000000000000000E3
:1009100000000000000000000000000000000000D7
:1009200000000000000000000000000000000000C7
:1009300000000000000000000000000000000000B7
:1009400000000000000000000000000000000000A7
:100950000000000000000000000000000000000097
:10096000000101026D6D92FF52AD00000000000019
:1009700000FFFF000000000000000007FFA45B0074
:100980000000000000000000000000000000000067
:100990000000000000000000000000000000000057
:1009A0000000000000000000000000000000000047
:1009B0000000000000000000000000000000000037
:1009C0000000000000000000000000000000000027
:1009D0000000000000000000000000000000000017
:1009E00000000000005BA4FF070000000000000002
:1009F00000FFFF0000000000000000E0FF24DB001B
:100A000000000000000000000000000000000000E6
:100A100000000000000000000000000000000000D6
:100A200000000000000000000000000000000000C6
:100A300000000000000000000000000000000000B6
:100A400000000000000000000000000000000000A6
:100A50000000000000000000000000000000000096
:100A60000000000000DB24FFE000000000000000A8
:100A700000FFFF00000000000000B54AFF49B6B6C5
:100A80004080800000000000000000000000000026
:100A90000000000000000000000000000000000056
:100AA0000000000000000000000000000000000046
:100AB0000000000000000000000000000000000036
:100AC0000000000000000000000000000000000026
:100AD0000000000000000000000000000000000016
:100AE00000808040B6B649FF4AB500000000000013
:100AF00000FFFF68A870A8A870ACAD72FF72ADAD22
:100B000072ADAD72ACAC70ACAC70A868B068687017
:100B10002828302828302828302828302830283025
:100B200030302020202020202020202060A060A025
:100B300060A0A060A060A0602020202020202020B5
:100B400020203030302830283028283028283028FD
:100B500028302828706868B068A870ACAC70ACAC5D
:100B600072ADAD72ADAD72FF72ADAC70A8A870A8D9
:100B700068FF03061D322D6DD2ADADD2FF92ED811F
:100B80008080808080808080808080808080808065
:100B90008080808080808080808080808080808055
:100BA000808080808080808080808080C0A0DBA466
:100BB000DBA4A4DBA4DBA0C0808080808080808058
:100BC0008080808080808080808080808080808025
:100BD0008080808080808080808080808080808015
:100BE0008080808081ED92FFD2ADADD26D2D321D1F
:100BF000060300000000240027002A002D0030001A
:100C000000000000250028002B002E003100040801
:100C10000201104080401020408040800802040102
:100C20008040201002011080102040402004040465
:100C30000404030405020202020403020202020683
:100C40000606060606040402020204040601150153
:100C5000260137014A015D01720188019F01B80137
:100C6000D201EE010B022A024B026E029302BA027B
:100C7000E40210033F037003A403DC0317045504CC
:100C80009704DD0427057505C80520067D06E006E6
:100C90004907B8072D08A9082D09B9094D0AEA0A1C
:100CA000900B400CFA0CC00D910E6F0F5A1053119F
:100CB0005B1272139A14D41520178018F519801B33
:100CC000231DDE1EB420A622B524E4263429A72B3A
:100CD000402E0031EA330037453ABC3D68414C456F
:100CE0006B49C84D68524F57805C00621011121357
:100CF000151617181A1C1D1F21232527292C2E31E4
:100D000034373A3E4145494E52575C62686E757BB6
:100D1000838B939CA5AFB9C4D0DCE9F7010204082A
:100D20001020408000000000003E5B4F5B3E3E6BA9
:100D30004F6B3E1C3E7C3E1C183C7E3C181C577D75
:100D4000571C1C5E7F5E1C00183C1800FFE7C3E7C1
:100D5000FF0018241800FFE7DBE7FF30483A060ED3
:100D60002629792926407F050507407F05253F5A1A
:100D70003CE73C5A7F3E1C1C08081C1C3E7F14228A
:100D80007F22145F5F005F5F06097F017F00668935
:100D9000956A606060606094A2FFA29408047E047B
:100DA0000810207E201008082A1C08081C2A0808A1
:100DB0001E101010100C1E0C1E0C30383E38300661
:100DC0000E3E0E06000000000000005F000000075D
:100DD000000700147F147F14242A7F2A122313088B
:100DE000646236495620500008070300001C224167
:100DF000000041221C002A1C7F1C2A08083E08080B
:100E000000807030000808080808000060600020BA
:100E1000100804023E5149453E00427F400072499D
:100E20004949462141494D331814127F1027454541
:100E300045393C4A49493141211109073649494957
:100E400036464949291E00001400000040340000C5
:100E5000000814224114141414140041221408022E
:100E6000015909063E415D594E7C1211127C7F49A1
:100E70004949363E414141227F4141413E7F4949F6
:100E800049417F090909013E414151737F08080822
:100E90007F00417F41002040413F017F08142241F3
:100EA0007F404040407F021C027F7F0408107F3E4D
:100EB0004141413E7F090909063E4151215E7F09BA
:100EC000192946264949493203017F01033F404021
:100ED000403F1F2040201F3F4038403F631408140C
:100EE0006303047804036159494D43007F41414144
:100EF0000204081020004141417F04020102044025
:100F000040404040000307080020545478407F28A8
:100F10004444383844444428384444287F3854549E
:100F2000541800087E090218A4A49C787F080404C1
:100F30007800447D40002040403D007F1028440060
:100F400000417F40007C047804787C0804047838F1
:100F500044444438FC1824241818242418FC7C0821
:100F6000040408485454542404043F44243C40409E
:100F7000207C1C2040201C3C4030403C4428102851
:100F8000444C9090907C4464544C4400083641009A
:100F90000000770000004136080002010204023C14
:100FA0002623263C1EA1A161123A4040207A3854E3
:100FB000545559215555794121545478412155545E
:100FC000784020545579400C1E52721239555555AF
:100FD00059395454545939555454580000457C419A
:100FE0000002457D420001457C40F0292429F0F0B3
:100FF000282528F07C545545002054547C547C0A04
:10100000097F4932494949323248484832324A48D0
:1010100048303A4141217A3A42402078009DA0A0D0
:101020007D39444444393D4040403D3C24FF242424
:10103000487E4943662B2FFC2F2BFF0929F620C041
:10104000887E090320545479410000447D41304892
:10105000484A32384040227A007A0A0A727D0D19D5
:10106000317D2629292F28262929292630484D4037
:1010700020380808080808080808382F10C8ACBA33
:101080002F102834FA00007B000008142A142222B2
:10109000142A14089500220095AA005500AAAA5502
:1010A000AA55AA000000FF00101010FF001414142D
:1010B000FF001010FF00FF1010F010F0141414FCCB
:1010C000001414F700FF0000FF00FF1414F404FCE8
:1010D000141417101F10101F101F1414141F0010C9
:1010E0001010F0000000001F101010101F10101042
:1010F00010F010000000FF10101010101010101051
:10110000FF10000000FF140000FF00FF00001F1090
:10111000170000FC04F414141710171414F404F44A
:101120000000FF00F714141414141414F700F7143B
:101130001414171410101F101F141414F41410108A
:10114000F010F000001F101F0000001F140000002E
:10115000FC140000F010F01010FF10FF141414FF26
:10116000141010101F00000000F010FFFFFFFFFF21
:10117000F0F0F0F0F0FFFFFF0000000000FFFF0FB5
:101180000F0F0F0F38444438447C2A2A3E147E0245
:10119000020606027E027E026355494163384444DA
:1011A0003C04407E201E2006027E020299A5E7A58F
:1011B000991C2A492A1C4C7201724C304A4D4D3000
:1011C0003048784830BC625A463D3E494949007E25
:1011D0000101017E2A2A2A2A2A44445F44444051BC
:1011E0004A444040444A51400000FF0103E080FF70
:1011F000000008086B6B083612362436060F090FFC
:1012000006000018180000001010003040FF010117
:10121000001F01011E00191D1712003C3C3C3C0040
:1012200000000000D5F08D14A1C881CFD9F1AF2006
:1012300000080B0002020201000904000001020282
:101240000000052400100105240101010424020608
:101250000524060001070581031000400904010070
:10126000020A000000070502024000000705830291
:101270004000000403090441726475696E6F204CDC
:101280004C430041726475626F79001201000200E4
:1012900000004041233680000101020301120100D9
:1012A00002EF0201404123368000010102030100E8
:1012B000B00000A170E150964F26900F1D070C0062
:1012C0009669004AE44A0048444000806810000FD4
:1012D00099FB8F99BDBBF977D4D4DF1F1A1AFE7F13
:1012E0005D5DFF805A0000A0A4AA0010BA3400FF80
:1012F0005953F3FF9B9B9EFFB9B996FF9595D19FDC
:10130000F4940FFC295F91FF1838F8FF9294FFFFC7
:1013100095D5F77FD5DDD7F18F81F1F788C8F779BB
:10132000C6467909FD9B090196F8008281828050AA
:101330007162007756560076763700A2B7730107C0
:101340007206007827500073347400775176007F5E
:1013500055F700477110003247720073647300152F
:10136000A2750061679400009F6060F4F2F6F200DD
:101370009C2E712F11241FBECFEFDAE0DEBFCDBF50
:1013800011E0A0E0B1E0E0E3F6E602C005900D92C6
:10139000A03FB107D9F727E0A0EFB1E001C01D924F
:1013A000A033B207E1F719E0C9EBD9E004C02197F7
:1013B000FE010E94BD2FC83BD107C9F70E94A82299
:1013C0000C940B330C940000CF93DF9300D000D02B
:1013D00000D0CDB7DEB725E632E042EF57E080E03F
:1013E00090E0FA01E80FF91FE491EE2331F0D90102
:1013F000A80FB91F6C91E62BEC93019680389105EC
:1014000081F740585F4F20583F4F86E02536380718
:1014100031F76AE771E0CE0101960E94EB1AAE0146
:101420004F5F5F4F62E070E08FE090E00E94A62186
:10143000CE0101960E94A5146FE871E0CE010196DD
:101440000E94EB1AAE014F5F5F4F62E070E08AE5E9
:1014500090E00E94A621CE0101960E94A5148091E1
:101460000E02882391F08AE490E090939006809396
:101470008F0682E090E0909392068093910681E03F
:101480008093950687EC91E011C087E490E09093FB
:10149000900680938F0682E090E09093920680936E
:1014A000910681E0809395068AEC91E00E948D136D
:1014B00080910702882391F08CE290E0909390064F
:1014C00080938F0682E090E090939206809391063D
:1014D00081E08093950687EC91E011C089E290E06D
:1014E0009093900680938F0682E090E0909392060E
:1014F0008093910681E0809395068AEC91E00E94AA
:101500008D1326960FB6F894DEBF0FBECDBFDF91C8
:10151000CF9108950E948F15DC01CB01805F984D1B
:10152000AF4FBF4F8093240290932502A0932602D1
:10153000B09327020895CF92DF92EF92FF9281E05D
:101540008093FA018093030161E00E94AA110E9436
:101550008F15C0902402D0902502E0902602F090D2
:101560002702209104016C157D058E059F0510F062
:10157000222339F02223A9F00E948A0A1092040142
:1015800010C010920C0210920D02109204021092E0
:101590000302109224021092250210922602109249
:1015A0002702FF90EF90DF90CF900895CF93DF93C5
:1015B000EC0167E971E00E94B3138823B1F00E9447
:1015C000E51582FD75C00E94E51587FD71C00E947A
:1015D000E51584FD6DC00E94E51585FD69C00E947A
:1015E000E51586FD65C081E064C069E971E0CE0162
:1015F0000E94B313882329F00E94E51583FD58C08B
:10160000E2CF67E771E0CE010E94B313882349F06F
:101610000E94E51582FD4CC00E94E51583FD48C07F
:10162000D6CF62E771E0CE010E94B313882369F040
:101630000E94E51582FD3CC00E94E51587FD38C07B
:101640000E94E51583FD34C0C6CF6DE671E0CE0182
:101650000E94B313882389F00E94E51582FD28C0FB
:101660000E94E51587FD24C00E94E51584FD20C079
:101670000E94E51583FD1CC0B2CF6CED71E0CE0178
:101680000E94B3138823A1F00E94E51582FD10C0CB
:101690000E94E51587FD0CC00E94E51584FD08C079
:1016A0000E94E51585FD04C00E94E51583FF9BCFD0
:1016B00080E0DF91CF9108950F931F930E94E5156D
:1016C00083FD4DC00E94E51582FD49C00E94E515CD
:1016D00087FD45C00E94E51584FD41C00E94E515C7
:1016E00085FD3DC00E94E51586FD39C0809105024B
:1016F000882389F10E948F15009120021091210208
:10170000209122023091230260177107820793070C
:1017100068F080910601882329F010920F010E9441
:10172000021619C081E08093060215C00F3F1F4FBB
:101730002F4F3F4F81F40E948F15DC01CB01805D5C
:101740009A48AF4FBF4F8093200290932102A093FD
:101750002202B093230281E08093FA010CC08FEF44
:101760009FEFDC018093200290932102A09322023C
:10177000B093230280E01F910F910895CF92DF92E2
:10178000EF92FF921F93CF93DF9300D000D000D051
:10179000CDB7DEB70E94E51586FF56C06CED71E04F
:1017A000CE0101960E94EB1ACE0101960E94D60A44
:1017B000182FCE0101960E94A514112309F444C0EC
:1017C0000E948A0A8091FC01882361F010E08091D8
:1017D000F501181728F4812F0E94B8171F5FF7CF63
:1017E0001092FC0190910D028091040291111FC092
:1017F00081111DC08091030281111FC00E948F15AD
:10180000C090F601D090F701E090F801F090F90156
:10181000209103016C157D058E059F0508F453C0CA
:10182000211151C01091FA01111117C00DC0882368
:1018300021F081E08093060107C080910302882394
:1018400019F081E08093FB010E945C0B882321F05A
:101850000E949B0A80E051C050C01092FA01109281
:10186000F6011092F7011092F8011092F90161E06F
:1018700080E00E94AA118091060281113EC09091E1
:101880000E02992319F010920E0237C081E0809366
:101890000E028091FD019091FE0190931F078093AD
:1018A0001E078091FF019091000290931D07809385
:1018B0001C07809101029091020290931B07809374
:1018C0001A07812F1AC0222309F4BECF0E948F1558
:1018D000DC01CB0184529A4FAF4FBF4F8093F6018A
:1018E0009093F701A093F801B093F90110920301CE
:1018F00060E080E00E94AA11A7CF26960FB6F89468
:10190000DEBF0FBECDBFDF91CF911F91FF90EF9053
:10191000DF90CF9008954F925F926F927F928F9257
:101920009F92AF92BF92CF92EF920F93CF93DF939C
:1019300000D000D000D0CDB7DEB75C012B014A014A
:1019400039016A30710518F46AEB71E002C063EE88
:1019500071E082E592E00E948E148AE0881691047C
:1019600018F46AEB71E002C063EE71E08CE492E07F
:101970000E948E148AE0681671045CF462EE71E0D5
:1019800086E492E00E948E14EE2089F06AEB71E00A
:101990000AC063EE71E086E492E00E948E14EE20AD
:1019A00031F063EE71E086E492E00E948E14809143
:1019B0000501882389F0E1100FC0002351F08091C8
:1019C0000701882319F067EE71E008C06CE871E048
:1019D00005C080910801F5CF63EE71E08AE392E0E3
:1019E0000E948E1466E472E0CE010196C1101CC004
:1019F0000E94D11AB301CE0101960E94D21368E56C
:101A000072E00E9421146CE472E00E942114B4017F
:101A10000E94D21368E572E00E94211462E572E030
:101A20000E942114B20110C00E94D11AB301CE014C
:101A300001960E94D21368E572E00E9421146CE4C2
:101A400072E00E942114B4010E94D213BC01C501AE
:101A50000E94D11ACE0101960E94A514C5012696B6
:101A60000FB6F894DEBF0FBECDBFDF91CF910F91BF
:101A7000EF90CF90BF90AF909F908F907F906F909E
:101A80005F904F900895882359F080910701882333
:101A900019F010920701089581E0809307010895DD
:101AA00080910801882319F010920801089581E0BF
:101AB0008093080108951F93CF93DF9300D0CDB793
:101AC000DEB7182F4A8369830E948A0A4A81898176
:101AD000112341F0642F0F900F90DF91CF911F9150
:101AE0000C94732120912A0730912B072150310942
:101AF00030932B0720932A0741110EC090910501C6
:101B00009923B9F01216130674F08CE090E09093CC
:101B10002B0780932A0719C037FF17C010922B0795
:101B200010922A0712C02B30310579F40E94430D20
:101B30000CC02B303105D1F337FF07C027E130E06F
:101B400030932B0720932A07F1CF80E090E00F908D
:101B50000F90DF91CF911F9108951F93CF93DF9343
:101B600000D0CDB7DEB7162F4A8389830E948A0A38
:101B700020911E0230911F0289814A818823B1F091
:101B80002F5F3F4F2C333105ACF010921F021092A3
:101B90001E02411125C00E948A0A60E0812F0F9029
:101BA0000F90DF91CF911F910C9473212150310937
:101BB00037FD05C030931F0220931E0211C08BE336
:101BC00090E090931F0280931E02411109C0612F83
:101BD00080E00F900F90DF91CF911F910C945B0DDF
:101BE0000F900F90DF91CF911F910895EF92FF9288
:101BF0000F93CF937C01C22F90931D0280931C0200
:101C000070931F0260931E0250932B0740932A0784
:101C100001116BC00E94E51586FF36C00E94E515D4
:101C200087FF32C080910501882371F10E94E5157C
:101C300083FD2AC00E94E51582FD26C00E94E5159D
:101C400085FD22C00E94E51584FD1EC0109205018D
:101C500080912A0790912B078C30910509F07DC067
:101C6000C11156C08091090190910A010C9709F4A5
:101C700059C0C11161C080910801882309F45CC07A
:101C800010922B0710922A070E94E51585FF2DC0A0
:101C90000E94E51584FF29C080910501811125C0AE
:101CA0000E94E51583FD21C00E94E51582FD1DC03F
:101CB0000E94E51586FD19C00E94E51587FD15C037
:101CC00081E08093050180912A0790912B078D3048
:101CD00091050CF082C0009709F0A7C080912A07F7
:101CE00090912B07892B09F4BCC00E94E51583FF56
:101CF000EFC00E94E51587FFEBC00E94E51582FD4D
:101D0000E7C00E948A0A602F8C2F0E94732152C163
:101D100080910701882309F4A5CF10922B07109218
:101D20002A070AC080910701882309F4A2CF1092E4
:101D30000A01109209019DCF80910B0190910C0135
:101D40000C9709F0A1CF80910801882309F49CCF5A
:101D500010920C0110920B0197CF50910701409106
:101D60000801CC2341F0511106C00C9690932B072B
:101D700080932A0720C02091090130910A012C305C
:101D8000310549F051110DC0245F3F4F30930A01D6
:101D90002093090106C0552321F010920A011092E8
:101DA0000901C11108C0411106C00C9690932B0780
:101DB00080932A0769CF80910B0190910C018C30A0
:101DC000910541F0411160CF0C9690930C018093E6
:101DD0000B015ACF4111BCCF57CF0C97CC23A1F0A8
:101DE00090932B0780932A071092070180910B0193
:101DF00090910C018D3091050CF470CF0C9790935D
:101E00000C0180930B0161C02091090130910A01FE
:101E10002D3031050CF455C02C50310930930A0196
:101E200020930901109207014CC00C9709F456CF7A
:101E3000CC2351F081E08093070180910B019091B8
:101E40000C01892B51F44ACF8091090190910A012C
:101E5000892B19F081E08093070181E080930801CC
:101E60003DCFCC23A9F02CE030E030932B0720931A
:101E70002A0781E08093070140910B0150910C01EA
:101E8000452B09F032CF30930C0120930B0116C083
:101E90008091090190910A01892B49F48CE090E02E
:101EA00090930A018093090181E0809307018CE0FF
:101EB00090E090932B0780932A0781E0809308019C
:101EC00014CF90932B0780932A071092080106CF16
:101ED0000E94E51583FF0EC00E94E51584FF0AC02D
:101EE0000E94E51582FD06C0402F6C2F80E00E9405
:101EF0005B0D60C00E94E51582FF0EC00E94E515D3
:101F000087FF0AC00E94E51583FD06C0402F6C2F95
:101F100081E00E94AD0D4EC00E94E51582FF0CC00D
:101F20000E94E51584FF08C00E94E51583FD04C0EA
:101F3000402F6C2F80E0EDCF0E94E51583FF19C084
:101F40000E94E51582FF15C00E94E51587FF11C0AC
:101F50000E948A0A8FEFE81AF80A8CE3E816F10467
:101F60002CF110921D0210921C02011123C040E0BE
:101F7000CECF0E94E51583FF1DC00E94E51582FFAC
:101F800019C00E94E51584FF15C00E948A0A81E0ED
:101F9000E81AF108F7FE0AC08BE390E090931D0267
:101FA00080931C02011106C040E0C3CFF0921D02D5
:101FB000E0921C0280911C0290911D0290931702E6
:101FC0008093160280911E0290911F029093190235
:101FD0008093180280912A0790912B0790931B02FF
:101FE00080931A0286E192E0CF910F91FF90EF90DB
:101FF0000895FC0180912B02811103C08FEF9FEFA8
:1020000008959FB7F89482E08093E9002091F20050
:1020100030E01216130614F421E030E021153105EA
:1020200059F0289884E680932A028091F1008083F9
:102030008091F200882319F09FBFC90108958BE6B3
:102040008093E800F9CFCF93DF931F92CDB7DEB72F
:102050006983DC01ED91FC910280F381E02D41E088
:1020600050E0BE016F5F7F4F09950F90DF91CF91D8
:10207000089583E08093E9008091F200882319F0AD
:102080008AE38093E8000895CF93DF931F92CDB742
:10209000DEB7FC018485958597FD05C02FEF3FEFE6
:1020A000358724870BC0CE0101960E94F90F019756
:1020B00019F4898190E002C08FEF9FEF0F90DF91BC
:1020C000CF9108950F931F93CF93DF931F92CDB7B6
:1020D000DEB78C01FC018485958597FF0EC0CE018B
:1020E00001960E94F90F019719F4298130E002C08E
:1020F0002FEF3FEFF80135872487F8018485958518
:102100000F90DF91CF911F910F910895FC0184856D
:10211000958597FD0BC09FB7F89482E08093E90006
:102120008091F2009FBF90E0019608959FB7F894C8
:1021300082E08093E9008091F2009FBF90E00895D3
:102140008F929F92AF92BF92CF92DF92EF92FF92C7
:102150000F931F93CF93DF935C016B018A018091F2
:102160001B01882309F45EC080912B02882309F4A7
:1021700059C08091290280FF05C08091E0008260F3
:102180008093E000E8018AEFF82E93E0E92E2FE338
:10219000822E3AE3932E209709F43DC08FB7F8942E
:1021A000E092E9009091E80095FF06C09091F2005E
:1021B000282D291B922F01C090E08FBF91110AC0DA
:1021C000FA94FF2079F161E070E080E090E00E94F5
:1021D0005015E1CF292F30E0C217D3070CF49C2F04
:1021E0008FB7F894E092E9002091E80025FF11C034
:1021F000292F30E0C21BD30BF601915020F0419102
:102200004093F100FACFC20ED31E9091E80095FFE3
:1022100013C08FBFC0CF5D9884E68093280210164C
:10222000110644F081E090E0F5019383828380E021
:1022300090E005C0C80103C09092E800EACFDF91AA
:10224000CF911F910F91FF90EF90DF90CF90BF90B3
:10225000AF909F908F9008950E94BA31CF93DF93F3
:10226000EC0188819981009711F00E945830198201
:1022700018821D821C821B821A82DF91CF910895E1
:102280000F931F93CF93DF93EC018881998100977F
:1022900029F02A813B812617370788F48B016F5F6D
:1022A0007F4F0E94F030009761F0998388831B83F1
:1022B0000A832C813D81232B11F4FC01108281E0E3
:1022C00001C080E0DF91CF911F910F910895EF92AF
:1022D000FF920F931F93CF93DF93FC0124813581ED
:1022E0006115710511F480E019C041155105A9F07F
:1022F0007B01EC018A01020F131FB8010E944011FB
:10230000882389F3288139818C819D81B701820FCF
:10231000931F0E94D1311D830C8381E0DF91CF9107
:102320001F910F91FF90EF90089520E085E692E0D5
:10233000B22FB111BFEFFC010024B193B193B1935F
:10234000B1930394D1F7E9E7F6E0118E108E178A66
:10235000168A08952E9A882311F02F9A01C02F987B
:10236000662311F02D9A08952D98089580916502A5
:102370008EBDE6E6F2E081910DB407FEFDCF8EBD85
:1023800086E0E536F807B9F70DB407FEFDCF0895EE
:10239000EF92FF920F931F93CF93DF937C018B01FA
:1023A000040F111DEB0177FF0EC0C0E0D0E00BC0A1
:1023B000C217D3077CF421E0AE01B7018DE796E0A8
:1023C0000E94301621969801013411058CF320E407
:1023D00030E0EECFDF91CF911F910F91FF90EF9002
:1023E00008952F923F924F925F926F927F928F92B9
:1023F0009F92AF92BF92CF92DF92EF92FF920F9394
:102400001F93CF93DF9300D000D0CDB7DEB78C0100
:102410007B01242F30E03C832B8381E090E05C0142
:10242000A21AB30AC9019195819591091C01220C48
:10243000331CA901460F571F21E0B8018DE796E034
:102440000E943016A7018B819C81481B590B21E00B
:10245000B8018DE796E00E9430166B817C81600F99
:10246000711F21E0A7018DE796E00E943016B801A8
:10247000EB81FC816E1B7F0B21E0A7018DE796E0CD
:102480000E943016C12CD12C21E030E03A83298300
:102490002B813C81C216D3060CF06EC0B7FC0AC07B
:1024A0008B819C8101979C838B8392E0290E311C48
:1024B000A20CB31CEFEFCE1ADE0A29813A812E5FFF
:1024C0003F4F3A832983A20EB31E3601600E711E60
:1024D00021E08B809C808E0C9F1CA401B3018DE7B2
:1024E00096E00E94301628014C185D0821E0A401F6
:1024F000B2018DE796E00E94301621E047018B8102
:102500009C81881A990AA401B3018DE796E00E9484
:10251000301621E0A401B2018DE796E00E9430164A
:1025200046018E0C9F1C21E0A4016B807C80600E14
:10253000711EB3018DE796E00E94301621E0A401E0
:102540002801EB81FC814E1A5F0AB2018DE796E00B
:102550000E94301647018C189D0821E0A401B301A8
:102560008DE796E00E94301621E0A401B2018DE7CC
:1025700096E00E9430168CCF0F900F900F900F9026
:10258000DF91CF911F910F91FF90EF90DF90CF904F
:10259000BF90AF909F908F907F906F905F904F9083
:1025A0003F902F9008959C01240F311D12161306A1
:1025B00074F5803891055CF5FC0197FF02C0E0E0FE
:1025C000F0E02138310514F020E830E02E1BAB019B
:1025D0004770552781E001C0880F4A95EAF777FFD9
:1025E00002C0695F7F4F93E0759567959A95E1F713
:1025F0007695762F662777956795E60FF71FEB5947
:10260000FD4F215020F09081982B9193FACF08959F
:102610005F926F927F928F929F92AF92BF92CF9272
:10262000DF92EF92FF920F931F93CF93DF93EC0112
:102630008B017A01A901461B570B57FF03C0519527
:1026400041955109C7018C1B9D0B97FF03C09195C4
:1026500081959109552453948417950714F0512CB2
:102660000AC09E2D8F2D7901292F382F9C2F8D2F59
:10267000E801092F182FEC16FD0654F4902F812F36
:102680008901292F382F9C2F8D2FE701E92EF82E55
:1026900037016C1A7D0A5901A01AB10AB7FE03C0AE
:1026A000B194A194B108630177FE03C08FEFC81AFB
:1026B000D80AD594C7940217130714F08FEF01C0FE
:1026C00081E0882E880F9908EC16FD06B4F021E011
:1026D000552019F0AE01B80102C0A801BE018DE776
:1026E00096E00E943016CA18DB08D7FE04C0080D19
:1026F000191DC60CD71C2196E7CFDF91CF911F91F2
:102700000F91FF90EF90DF90CF90BF90AF909F9090
:102710008F907F906F905F900895009769F0FC0113
:1027200001900020E9F73197AF01481B590BBC011C
:1027300089E796E00C94741A80E090E00895809107
:102740009B0681110DC082E08093970684E0809300
:10275000980610929A061092990681E080939B0643
:1027600087E996E00895FC0124813581232B31F41B
:1027700021E061157105A1F0FB0108C0FC01808119
:1027800091816115710531F421E0FC01808188237C
:1027900039F005C00E94C83121E0892B09F020E002
:1027A000822F0895EF92FF920F931F93CF93DF93A1
:1027B000CDB7DEB728970FB6F894DEBF0FBECDBFFA
:1027C0007C01CB014AE08E010F5F1F4FB8010E94D0
:1027D0003432F80101900020E9F73197AF01401B36
:1027E000510BB801C7010E946711811103C0C701D5
:1027F0000E942E11C70128960FB6F894DEBF0FBEB7
:10280000CDBFDF91CF911F910F91FF90EF90089571
:10281000CF93DF93EC016115710561F0FB0101902D
:102820000020E9F73197AF01461B570B0E94671153
:10283000811103C0CE010E942E11CE01DF91CF91F4
:102840000895CF93DF93EC01FB01448155816081B2
:1028500071810E946711811103C0CE010E942E1167
:10286000CE01DF91CF9108950F931F93CF93DF9304
:102870008C01EB01FC01808191810097B1F06881AE
:1028800079816115710579F0428153812C813D81F7
:102890004217530740F00E94D1318C819D81F8018D
:1028A0009583848313C00E94583088819981F801F0
:1028B000918380838A819B81938382838C819D8194
:1028C00095838483198218821B821A821D821C823E
:1028D000DF91CF911F910F910895EF92FF920F9387
:1028E0001F93CF93DF93EC017B018A01BA010E9411
:1028F0004011811104C0CE010E942E1107C01D831A
:102900000C83B701888199810E94D131CE01DF917A
:10291000CF911F910F91FF90EF900895CF93DF9388
:10292000EC016115710559F0FB0101900020E9F7F8
:102930003197AF01461B570B0E946D1402C00E94D5
:102940002E11CE01DF91CF910895FC0180819181FC
:102950000C9458303FB7F89480910F07909110076E
:10296000A0911107B091120726B5A89B05C02F3F73
:1029700019F00196A11DB11D3FBFBA2FA92F982FA5
:102980008827820F911DA11DB11DBC01CD0142E020
:10299000660F771F881F991F4A95D1F708958EBD3E
:1029A00000000DB407FEFDCF08958091F001089559
:1029B0000895CF92DF92EF92FF921F93CF93DF9310
:1029C000E82FF0E0EC59FE4F1081E62FF0E0603385
:1029D00030F4E451F34FE491CE2FD0E006C0EE0F77
:1029E000FF1FE451F44FC591D4916E01E12CF12CFD
:1029F00060E074E284EF90E0A70196010E947132DA
:102A0000DA01C9010197A109B109009721E0A207E4
:102A1000B10578F060E970ED83E090E0A7019601E0
:102A20000E947132DA01C9010197A109B10923E0BD
:102A300001C021E01130C9F0133051F530919100FF
:102A4000387F232B209391009093990080939800D6
:102A5000D0930807C093070781E080930607809111
:102A6000710082608093710013C0309109073111A9
:102A70000FC030918100387F232B209381009093E9
:102A800089008093880080916F00826080936F003E
:102A9000DF91CF911F91FF90EF90DF90CF9008953D
:102AA0008F929F92AF92BF92CF92DF92EF92FF925E
:102AB0006B017C010E94AA144B015C01C114D1047A
:102AC000E104F104F1F00E94AA14DC01CB018819A1
:102AD0009909AA09BB09883E9340A105B10570F385
:102AE00021E0C21AD108E108F10888EE880E83E0DF
:102AF000981EA11CB11CC114D104E104F10419F702
:102B0000DDCFFF90EF90DF90CF90BF90AF909F9080
:102B10008F900895BC0180E090E00C9450152FB781
:102B2000F89460910B0770910C0780910D079091BC
:102B30000E072FBF08951F920F920FB60F92112408
:102B40002F933F938F939F93AF93BF9380910B07E6
:102B500090910C07A0910D07B0910E0730910A07D4
:102B600023E0230F2D3720F40196A11DB11D05C0D0
:102B700026E8230F0296A11DB11D20930A0780931A
:102B80000B0790930C07A0930D07B0930E0780914D
:102B90000F0790911007A0911107B09112070196AD
:102BA000A11DB11D80930F0790931007A0931107EB
:102BB000B0931207BF91AF919F918F913F912F9149
:102BC0000F900FBE0F901F9018958FB12CB193B13D
:102BD00030E02095309520743327A90123E05595E6
:102BE00047952A95E1F7292F30E0209530952071FF
:102BF00033273595279535952795242B8095807F0C
:102C0000822B08955C988EEA0E94CF148DE80E9472
:102C1000CF1480E10E94CF148AEF90E00E948A15C1
:102C20005F9808951F93CF93DF9385E090E00E9413
:102C30008A155F9A85E090E00E948A155E985C98FC
:102C4000C4E2D2E11C2F135FFE0184910E94CF14D5
:102C500021961C13F9CF5C9ADF91CF911F910895B3
:102C600060387105D0F440345105B8F4ECE1FDE072
:102C700080E1849FD001A0781124A60F4770E40F53
:102C8000F11DE491AB59BD4F222319F04C91E42B77
:102C900003C0E0954C91E423EC9308952F923F926A
:102CA0004F925F926F927F928F929F92AF92BF925C
:102CB000CF92DF92EF92FF920F931F93CF93DF9308
:102CC000CDB7DEB729970FB6F894DEBF0FBECDBFE4
:102CD000FC016A3069F4248D808D918D38E0239F4A
:102CE000800D911D1124918F808F178A168AAAC09A
:102CF0006D3009F4A7C099878887F48C338C228CB7
:102D0000608C718C0689178900381105C4F0A8857C
:102D1000B9855C962C915C97422F50E056968D9128
:102D20009C915797B6E02B9F800D911D1124E8854B
:102D3000F985978B868B258D21116EC083C0F0E4B9
:102D40006F16710424F7C80125E0F29E800D911DD5
:102D5000112418161906DCF68F2D90E09C838B83C6
:102D6000C301A8E0FA9E800D911D112418161906C2
:102D700074F6B5E06B9FB0011124FB01EC5DF24FDE
:102D8000FA83E98330E08885998504969E838D8354
:102D9000E981FA81E490353009F4E12C430188E0BF
:102DA000482EE0FC02C0532C01C0522C51100BC025
:102DB000321009C0E6944A948B819C81880E991E3A
:102DC0004110EFCF1BC068018C2D801B8F1590F731
:102DD00054018A2D88198F1568F4252DA501B60197
:102DE0008D819E813F830E9430169FEFA91AB90AF8
:102DF0003F81EFCFAFEFCA1ADA0AE6CF3F5FEB8130
:102E0000FC810E0F1F1F89819A8101969A83898305
:102E1000363009F0BDCF7BCF6AEF64039001659F28
:102E2000300D112420583F4F281739075CF4A8852E
:102E3000B985ED91FC9111970190F081E02D6AE048
:102E4000CD01099581E090E029960FB6F894DEBF98
:102E50000FBECDBFDF91CF911F910F91FF90EF90EB
:102E6000DF90CF90BF90AF909F908F907F906F90AA
:102E70005F904F903F902F9008951F920F920FB642
:102E80000F9211242F933F938F939F93AF93BF93F0
:102E9000EF93FF9380910907882309F44FC0809135
:102EA000F9069091FA06A091FB06B091FC06892BD9
:102EB0008A2B8B2B51F18091F806E091F606F09168
:102EC000F7069081892780838091F9069091FA0610
:102ED000A091FB06B091FC06181619061A061B06EF
:102EE000D4F58091F9069091FA06A091FB06B09175
:102EF000FC060197A109B1098093F9069093FA069F
:102F0000A093FB06B093FC0626C010920507109212
:102F1000090780916F008D7F80936F009091F80674
:102F2000E091F606F091F7068081282F30E0892F96
:102F300090E080959095822393230CC080910407A4
:102F4000811109C08091F806E091F606F091F7062C
:102F5000908189278083FF91EF91BF91AF919F91DD
:102F60008F913F912F910F900FBE0F901F9018954A
:102F7000E82FF0E0EC59FE4F8081813019F083306A
:102F800089F0089580910907811122C080916F0016
:102F90008D7F80936F009091F806E091F606F09196
:102FA000F7060CC01092060780910507811110C02A
:102FB00090910307E0910107F09102078081282F8B
:102FC00030E0892F90E08095909582239323808331
:102FD0000895CF93DF93D1E0E091F101F091F201F8
:102FE0009F012F5F3F4F3093F2012093F1018491B5
:102FF000982F907FC82FCF70903821F48C2F0E948B
:10300000B817EACF9039F9F4E0912C02F0912D0233
:1030100009958D2780930407E091F101F091F20169
:10302000CF0101969093F2018093F1016491809118
:10303000F501C81788F6C13009F052C08091F50635
:103040008111CACF4DC097FD3AC03296F093F2017C
:10305000E093F101F901249130E0382BA0910707AA
:10306000B09108070E94FC326C507E4F8F4F9F4FEB
:1030700028EE33E040E050E00E94DA322093FD0673
:103080003093FE064093FF06509300078091FD06A3
:103090009091FE06A091FF06B0910007892B8A2B24
:1030A0008B2B21F581E090E0A0E0B0E08093FD065D
:1030B0009093FE06A093FF06B093000717C0903EC2
:1030C00049F48091F3019091F4019093F20180937F
:1030D000F10182CF903F09F07FCF1092FC0106C032
:1030E00067FD7ACF8C2F0E94D91476CFDF91CF91D4
:1030F00008951F920F920FB60F9211242F933F93B2
:103100004F935F936F937F938F939F93AF93BF93EF
:10311000EF93FF9380910607882341F08091050784
:10312000811104C080910407882351F18091FC0132
:10313000882381F18091FD069091FE06A091FF0603
:10314000B0910007892B8A2B8B2B21F18091FD06F2
:103150009091FE06A091FF06B09100070197A1098A
:10316000B1098093FD069093FE06A093FF06B093ED
:103170000007892B8A2B8B2B69F40E94E9170AC060
:1031800080910307E0910107F09102079081892760
:103190008083CCCFFF91EF91BF91AF919F918F91A1
:1031A0007F916F915F914F913F912F910F900FBE43
:1031B0000F901F9018959091F501923009F471C00D
:1031C000292F30E0F901EC59FE4F4081F901ED5013
:1031D000F94F8083913031F42091F306281302C017
:1031E0009093F5069F5F9093F50190E0FC01E35DFD
:1031F000F34F2491FC01E25FF34F849130E0220F02
:10320000331FF901E050F44F65917491F901EE50CC
:10321000F44FA591B4919C91982B9C93413019F057
:103220004330D9F0089590916400977F90936400A3
:10323000109280001092810090918100986090938C
:103240008100909181009160909381007093F706C6
:103250006093F6068093F806089590916500977F35
:1032600090936500109290001092910090919100BF
:10327000986090939100909191009160909391004B
:103280007093020760930107809303078091F50113
:10329000882321F06CE380E00E94D91480E00C9434
:1032A000B81708958F929F92AF92BF92CF92DF92FC
:1032B000EF92FF920F931F93CF93DF938C016B01DB
:1032C00098E0E92EF12CE42FE695E695E695F0E0FE
:1032D000CA0187709927892BC1F5D8011696CD911F
:1032E000DC911797C6019927BE010E94952FD8013E
:1032F00050964D915C915197992714966D917C91C0
:103300001597452B91F4EC9FA001ED9F500DFC9F6C
:10331000500D1124840F951FFB01E80FF91FC22FD8
:10332000C09520812C23208332C0EC9FA001ED9F0B
:10333000500DFC9F500D1124840F951FFB01E80FC9
:10334000F91FC081C22BC08322C0C22FD0E04770BA
:10335000A42EB12C4F0183E0880C991C8A95E1F7CB
:103360009E0101C0220F4A95EAF7A401B601C801E7
:103370000E945219C7018A199B0902C0D595C795A9
:103380008A95E2F72C2FA401485F5F4F9CCFDF9115
:10339000CF911F910F91FF90EF90DF90CF90BF9052
:1033A000AF909F908F900895089540911807509185
:1033B0001907209116073091170742175307B4F4E5
:1033C0009091E8009570E1F39091E80092FD19C0AA
:1033D0008093F100809118079091190701968F73DF
:1033E0009927892B19F48EEF8093E80080911807B4
:1033F000909119070196909319078093180781E01F
:10340000089580E00895CF92DF92EF92FF920F939C
:103410001F93CF93DF931F92CDB7DEB7182F062FE0
:10342000E42E862F880F8E5F99830E94D51983E042
:103430000E94D519F12EC12E9981D92E8C2D8F196C
:10344000801798F4F601E7FE02C0849101C08081E4
:103450000E94D519182F80E00E94D5198123FFEF13
:10346000CF1ADF0A8111EACF01C081E00F90DF910E
:10347000CF911F910F91FF90EF90DF90CF90089523
:10348000DF92EF92FF920F931F93CF93DF93D82E8B
:103490008A017B01E40EF51EEB01CE15DF0571F00C
:1034A000D7FE03C0FE01849101C088810E94D51916
:1034B00021968111F2CF8FEF9FEF01C0C801DF91FC
:1034C000CF911F910F91FF90EF90DF900895615081
:1034D00030F02091F100FC0120830196F8CF28986C
:1034E00084E680932A020895CF92DF92EF92FF92B2
:1034F0000F931F93CF93DF936C017A018B01C0E090
:10350000D0E0CE15DF0589F0D8016D918D01D6018F
:10351000ED91FC910190F081E02DC6010995892B78
:1035200011F47E0102C02196ECCFC701DF91CF914B
:103530001F910F91FF90EF90DF90CF9008950F9320
:103540001F93CF93DF931F92CDB7DEB782E08983BD
:1035500042E450E061E372E180E80E94401A0E9478
:103560009F13DC0112960D911C9113970115110503
:1035700069F0D801ED91FC910280F381E02DBE014C
:103580006F5F7F4FC801099597FF07C089810F9032
:10359000DF91CF911F910F910895F801008511855A
:1035A000E5CFFB01DC0111961C921E9213961C9232
:1035B0001E92129715961C921E92149786179707C3
:1035C00049F0608171816115710521F04481558157
:1035D0000C946D140895FC011182108213821282E2
:1035E000158214826115710551F0FB0101900020D4
:1035F000E9F73197AF01461B570B0C946D140895F2
:103600001F920F920FB60F9211248F939F93809168
:10361000E1009091E100937F9093E10083FF0FC060
:103620001092E90091E09093EB001092EC0092E38D
:103630009093ED0010922B0298E09093F00082FF9F
:1036400020C093E09093E9009091F200992319F043
:103650009AE39093E80090912802992339F0909191
:103660002802915090932802992389F190912A027F
:10367000992339F090912A02915090932A0299232C
:1036800041F184FF10C08091E2008E7E81608093C2
:10369000E2008091E1008F7E8093E1008091290219
:1036A0008E7E806111C080FF16C08091E2008E7E08
:1036B00080618093E2008091E1008E7E8093E10042
:1036C000809129028E7E81608093290204C05D9AD8
:1036D000CDCF289AD6CF9F918F910F900FBE0F908C
:1036E0001F9018951F920F920FB60F921124CF9230
:1036F000DF92EF92FF920F931F932F933F934F937D
:103700005F936F937F938F939F93AF93BF93EF9349
:10371000FF93CF93DF93CDB7DEB76C97DEBFCDBFFE
:103720001092E9008091E80083FFFAC168E0CE01C1
:1037300045960E94671A82EF8093E8008D8987FF83
:1037400005C09091E80090FFFCCF03C09EEF9093DE
:10375000E800982F907609F0C6C09E892F89188DB1
:1037600091110CC0803829F4809114078093F100E6
:1037700002C01092F1001092F10047C1422F50E0B8
:10378000512B913051F4811140C14130510509F064
:103790003CC1809114078D7F0BC0933061F481117F
:1037A00034C14130510509F030C180911407826065
:1037B000809314072AC1953041F48091E80080FF7E
:1037C000FCCF20682093E30020C1963009F05FC051
:1037D000EB8CFC8C1092E9001092190710921807DC
:1037E000123091F510921707109216070E949F1A37
:1037F00099E0BE016F5F7F4FDB01E92F1D92EA95D3
:10380000E9F799831A8391E09E8390EA98879AEF6B
:1038100099872091180730911907275F3F4F3C8304
:103820002B838D831092E9001092190710921807CC
:10383000F0921707E092160749E050E080E00E94FE
:10384000401A0E949F1AE1C0F0921707E0921607F3
:103850000E949F13DC011296ED90FC901397E114E7
:10386000F10409F4C0C0D701ED91FC910480F58109
:10387000E02DBE016B5E7F4FC7010995009719F0DF
:103880000CF0C3C0C6C0F701E084F184E8CF9730E4
:1038900009F4BFC0983021F481E08093F100B5C0F5
:1038A000993009F0B2C0837009F0B3C0E7E6F1E0E7
:1038B00081E021E036E39081992361F08093E90073
:1038C0002093EB0091919093EC003093ED008F5F8B
:1038D000873089F78EE78093EA001092EA008F899B
:1038E00080932B0292C08B8D9C8D1092E9001092D8
:1038F0001907109218079093170780931607898D60
:10390000811156C08E899D89913A59F4813209F00E
:1039100080C047E050E064E171E080E00E94401A1E
:1039200074C0913209F075C0833289F4888D90E0BB
:10393000982F88272F89822BA0E0B0E080931C016C
:1039400090931D01A0931E01B0931F015EC08032B1
:1039500069F48091E80082FFFCCF67E084E191E0A8
:103960000E94671A8BEF8093E80006C0823209F04C
:103970004CC08F8980931B0180911307882319F015
:10398000EEEFFAE002C0E0E0F8E0809114019091DF
:103990001501A0911601B0911701803B9440A1053B
:1039A000B10509F088C080911B0180FFA0C083C0D1
:1039B0000E949F13DC0112960D911C911397011523
:1039C000110539F1D801ED91FC910190F081E02DC4
:1039D000BE016B5E7F4FC8010995811116C0F801C9
:1039E00000851185ECCF1130C1F0133091F48F892F
:1039F000882309F455C08230E9F440E867E083E8A1
:103A000092E10E94031A882321F08EEF8093E80050
:103A100087C081E28093EB0083C08B8D9C8D0897DB
:103A200011F41093150780911507811136C06BE8CA
:103A300072E138C0813029F440E86BE087E792E119
:103A4000E0CF833031F70E949F13DC011296ED9096
:103A5000FC9013978E010F5F1F4F6801E114F10472
:103A600079F0D701ED91FC910680F781E02DB80146
:103A7000C7010995080F111DF701E084F184EECF0D
:103A8000D8011C92F60101900020E9F73197BF019F
:103A90006C197D0940E0C601B4CF6DE972E102C046
:103AA00063E772E16115710509F4B3CFFB0144913D
:103AB00050E080E833CF0FB6F894A895809160006D
:103AC000886180936000109260000FBEA895EE3F61
:103AD0002AE0F20739F08091FE0A9091FF0A918363
:103AE000808393CF1092FF0A1092FE0A8ECFEE3F92
:103AF0008AE0F80731F0808191819093FF0A8093EA
:103B0000FE0A87E797E7918380839BE088E10FB601
:103B1000F894A895809360000FBE9093600075CFD5
:103B20006C960FB6F894DEBF0FBECDBFDF91CF917C
:103B3000FF91EF91BF91AF919F918F917F916F9185
:103B40005F914F913F912F911F910F91FF90EF90B7
:103B5000DF90CF900F900FBE0F901F901895DC0153
:103B6000ED91FC91DB0114964D915C9115976D914F
:103B70007C910280F381E02D09948F929F92AF9205
:103B8000BF92CF92DF92EF92FF920F931F93CF934A
:103B9000DF9300D000D000D0CDB7DEB76091260112
:103BA0007091270142E080912801909129010E94A3
:103BB000F111E0902801F090290167012FEFC21A5E
:103BC000D20A0091260110912701580131E0A31A71
:103BD000B1080F5F1F4F470181E0881A91089501D6
:103BE000A701B801C4010E9408139801A601B501FC
:103BF000C7010E9408139801A401B801C6010E94E0
:103C0000081340E860E070E080E090E00E94D3128A
:103C100040E86FE370E080E090E00E94D31240E45F
:103C200060E070E080E090E00E94C81140E460E055
:103C300070E08FE790E00E94C81140E460E070E01F
:103C40008FE390E00E94C81140E26FE170E08FEFD7
:103C50009FEF0E94F11140E26FE170E081E890E097
:103C60000E94F1110E94E51583FF0AC080E1809354
:103C7000840681E090E090932D0180932C0103C095
:103C800082E480938406409100015091010180916B
:103C90002C0190912D01489F9001499F300D589F14
:103CA000300D11248091280190912901280F391F8E
:103CB00030932901209328010091200110912101C6
:103CC00080912A0190912B01089FA001099F500D1E
:103CD000189F500D11248091260190912701840F87
:103CE000951F90932701809326012F373105CCF043
:103CF0002091220130912301A901415F5F4F4817B4
:103D000059071CF08217930764F481E00E94652232
:103D10008091220790912307019690932307809327
:103D2000220780912801909129010297ECF42091BB
:103D30002601309127018091240190912501AC0149
:103D4000415F5F4F421753071CF02817390764F48F
:103D500081E00E94652280912007909121070196C1
:103D6000909321078093200720912601309127010D
:103D70002C3331051CF4253031053CF411950195A7
:103D80001109109321010093200180912401909149
:103D90002501AC01425051092417350744F14196E1
:103DA0008217930724F180912801909129010797A8
:103DB000F4F48091020181110EC080910001909174
:103DC00001019195819591099093010180930001E2
:103DD00081E0809302010E94243265E070E00E943D
:103DE000952F90932907809328070E943B222091CA
:103DF0002601309127018091220190912301AC018D
:103E0000425051092417350744F141968217930710
:103E100024F1809128019091290189379105ECF0D6
:103E200080910201882369F0809100019091010145
:103E300091958195910990930101809300011092D1
:103E400002010E94243265E070E00E94952F909359
:103E50002907809328070E943B220E94E51587FFCF
:103E60000AC00E94E51583FF06C08091240190914D
:103E70002501039767C00E94E51584FF04C00E94D6
:103E8000E51583FD5AC0809124019091250182306F
:103E900091051CF481E090E004C0C09734F080E309
:103EA00090E09093250180932401809122019091CC
:103EB0002301823091051CF481E090E004C0C0979A
:103EC00034F080E390E090932301809322010091ED
:103ED0002401109125014FE0B80184E090E00E9498
:103EE000C8114FE0B80183E090E00E94C811009132
:103EF0002201109123014FE0B8018BE790E00E946E
:103F0000C8114FE0B8018CE790E00E94C811809181
:103F100000019091010197FF1AC0809128079091AC
:103F20002907892BA1F00E94E51583FD10C080911F
:103F300026019091270107972EC18091240190912D
:103F40002501039690932501809324019CCF8091B5
:103F500000019091010197FF04C00E94E51583FFC5
:103F600015C18091000190910101181619068CF479
:103F700020912807309129078091260190912701EF
:103F8000232B11F0079701C007969093230180938C
:103F9000220169E3E62EF12C00E010E07AE0C72E62
:103FA000D12C80912207909123079601281B390B71
:103FB0000217130770F421E0A7016CE370E08DE7AE
:103FC00096E00E9430160F5F1F4F22E0E21AF108C0
:103FD000E8CF49E3E42EF12C00E010E05AE0C52ED2
:103FE000D12C80912007909121079601281B390B35
:103FF0000217130770F421E0A70162E470E08DE777
:1040000096E00E9430160F5F1F4F32E0E31AF1086E
:10401000E8CF2CE3E22EF12C00E010E03AE0C32ED2
:10402000D12C80912607909127079601281B390BE8
:104030000217130760F441E06CE370E0C7010E94CF
:10404000F1110F5F1F4F34E0E31AF108EACF82E469
:10405000E82EF12C00E010E09AE0C92ED12C8091DE
:104060002407909125079601281B390B0217130787
:1040700060F441E06CE370E0C7010E94F1110F5F52
:104080001F4F34E0E30EF11CEACF81E390E0909300
:10409000900680938F0682E090E090939206809342
:1040A00091062091090130910A0140910802509136
:1040B000090260910A0270910B02CC24C394E12C96
:1040C00000E0CE0101960E948B0CBE016F5F7F4F16
:1040D00089E796E00E94AF1DCE0101960E94A514CB
:1040E00080912207909123070B9754F08091260727
:1040F00090912707019690932707809326070FC07A
:1041000080912007909121070B97DCF08091240784
:10411000909125070196909325078093240710928C
:10412000230710922207109221071092200781E0A6
:1041300090E090932D0180932C0190932B0180931C
:104140002A0180912607909127070B974CF58091C3
:104150002407909125070B971CF50E94E51582FD19
:104160001FC00E94B61126960FB6F894DEBF0FBE90
:10417000CDBFDF91CF911F910F91FF90EF90DF9016
:10418000CF90BF90AF909F908F900895809126011F
:104190009091270107969093250180932401E1CE09
:1041A00080E00E946522DDCF80911E0790911F075D
:1041B0009093FE018093FD0180911C0790911D0753
:1041C000909300028093FF0180911A0790911B0742
:1041D000909302028093010208958F929F92AF9272
:1041E000BF92CF92DF92EF92FF921F93CF93DF9314
:1041F000EC016A3061F48C859D859B878A872B89C9
:104200008E859F85820F911D9F878E875EC0AA84B1
:10421000BB84693031F489E0A80EB11CBB86AA8644
:1042200054C0EE84FF849DEFA9169FEFB90654F4A5
:104230008A8990E004962A853B85820F931F9B878D
:104240008A8743C08E819F81A816B9068CF78DEFAF
:10425000E8168FEFF80664F388859985E816F90665
:104260003CF7603208F46FE780EE860F9FE9960F07
:104270009A3118F49FEFE91AF90A8C3011F08B315A
:1042800019F49FEFE91AF90A869594E0899F600175
:104290001124812C912C162F1170F401EC0DFD1DB1
:1042A000E155FD4E2491111122952F70B4016A0D34
:1042B0007B1DA701CE010E9452198FEF881A980A20
:1042C00094E08916910449F7B3CF81E090E0DF9143
:1042D000CF911F91FF90EF90DF90CF90BF90AF9064
:1042E0009F908F90089520912A0730912B072F5F80
:1042F0003F4F30932B0720932A0761110AC09091FA
:104300000501992381F02D303105D4F081E090E052
:1043100005C024363105BCF083E690E090932B076E
:1043200080932A0710C02C30310539F0283131052F
:1043300051F410922B0710922A070E94430D03C0DC
:104340002C303105D1F380E090E00895E5E6F6E009
:10435000958784879387828777876687BA01CF019D
:104360000C94AF1DCF92EF920F93CF93DF9300D0B9
:1043700000D000D0CDB7DEB76AEE71E0CE01019675
:104380000E94EB1AAE014F5F5F4F6DE070E087E374
:1043900090E00E94A621CE0101960E94A514809172
:1043A0000501882349F180910701882391F08BE36F
:1043B00090E09093900680938F068CE290E090932B
:1043C00092068093910681E08093950687EE91E0B6
:1043D00011C08BE390E09093900680938F068CE25F
:1043E00090E0909392068093910681E080939506E9
:1043F0008CE891E00E948D1382E08093950681E124
:1044000090E09093900680938F0689E190E09093DE
:104410009206809391062091090130910A01409102
:1044200008025091090260910A0270910B02C12C9E
:10443000E12C01E0CE0101960E948B0CBE016F5F62
:104440007F4F8EE592E00E943414CE0101960E94C7
:10445000A5146EE572E089E796E00E94AF1D2696EE
:104460000FB6F894DEBF0FBECDBFDF91CF910F9195
:10447000EF90CF900895CF93DF930E942432C5E050
:10448000D0E0BE010E94952F892B51F00E9424326A
:10449000BE010E94952F019690932D0180932C01CF
:1044A0000E94243265E070E00E94952F892B51F024
:1044B0000E94243264E070E00E94952F90932B01BB
:1044C00080932A01DF91CF91089520E430E030936A
:1044D00029012093280120E230E030932701209326
:1044E000260125E030E0309329072093280720910A
:1044F000000130910101319521953109309301017D
:10450000209300011216130624F491E09093020107
:1045100002C01092020181111AC083E090E09093D2
:104520002D0180932C0190932B0180932A011092EE
:104530002707109226071092250710922407109241
:104540002307109222071092210710922007089546
:10455000CF93DF93CDB7DEB768970FB6F894DEBF81
:104560000FBECDBF789484B5826084BD84B5816070
:1045700084BD85B5826085BD85B5816085BD80912E
:104580006E00816080936E001092810080918100A6
:10459000826080938100809181008160809381009E
:1045A0008091800081608093800080919100826082
:1045B000809391008091910081608093910080911F
:1045C00090008160809390008091C100846080930E
:1045D000C1008091C10082608093C1008091C100C0
:1045E00081608093C1008091C30081608093C3008B
:1045F0008091C00082608093C0008091C200816081
:104600008093C20080917A00846080937A008091C8
:104610007A00826080937A0080917A008160809332
:104620007A0080917A00806880937A0010922B0241
:1046300010921407109229028091D7008160809314
:10464000D70080EA8093D80089B5806189BD89B59B
:10465000826089BD09B400FEFDCF61E070E080E0BA
:1046600090E00E9450158091D8008F7C80618093EB
:10467000D8008091E000807F8093E0008091E1008D
:104680008E7E8093E1008DE08093E200559A209A1F
:10469000EEEFFFE7859194918B3F9C4D19F481E0FB
:1046A0008093130785E00E94DB188DE00E94DB18E1
:1046B00081EC80937C0085B1806F85B9249884B1AA
:1046C000866E84B95E9A5F988AB1806D8AB9769A4F
:1046D0006E9881B3806F81BB899880B38D7080BBE9
:1046E00080E58CBD11E01DBD0E94121681E880930B
:1046F00064001093650082E4809384060E94951103
:104700003E9A3F9A1093F0010E9424328091020158
:104710001827109302018091000190910101919559
:104720008195910990930101809300013CEA832EC9
:1047300030E0932E4BE3A42EB12C5CE2652E712C5D
:1047400011E082E0F82E22242394312C20E0422E26
:1047500020E0522E0E948F152091100130911101FE
:104760004091120150911301621773078407950756
:1047700008F47BC0DA01C90188519C4FAF4FBF4F8D
:104780008093100190931101A0931201B093130133
:1047900080910E02882309F443C08091FD0190911D
:1047A000FE0101979093FE018093FD0197FF38C0B1
:1047B0008091FF0190910002009751F0B092FE01AC
:1047C000A092FD010197909300028093FF0128C001
:1047D0008091010290910202009771F0B092FE0167
:1047E000A092FD01B0920002A092FF010197909368
:1047F00002028093010214C01092FE011092FD018A
:104800009092F4018092F3019092F2018092F10172
:104810000E94E9171093FC0110920E020E94D4200E
:104820000E94E51583FF18C00E94E51582FF14C0A1
:1048300080910F01882381F080910D0281110CC0BD
:1048400080910C02811108C08FE090E090930E01DE
:1048500080930D010C94192E80910A0290910B0205
:10486000019690930B0280930A020E948F1520916B
:10487000890630918A0640918B0650918C06E09112
:104880008D06EE2349F020918506621B60938E060B
:1048900010928D060C94192E6217730784079507E2
:1048A00088F4261B223010F40C94192E83B7817FD4
:1048B00083BF83B7816083BF889583B78E7F83BFB3
:1048C0000C94192E10938D066093850670938606BE
:1048D000809387069093880620918406DC01CB01A3
:1048E000820F911DA11DB11D8093890690938A06A8
:1048F000A0938B06B0938C068091800690918106E0
:10490000019690938106809380060E9495111093E2
:10491000950680910D0190910E01009719F48FE09A
:1049200090E001C0019790930E0180930D0180915A
:104930000A0290910B02CC9769F410920B0210922C
:104940000A0280910802909109020196909309024F
:1049500080930802209108023091090280910A0296
:1049600090910B022C33310581F4009771F4109271
:104970000902109208022091090130910A012F5F6B
:104980003F4F30930A012093090120910901309192
:104990000A0128313105D1F4209108023091090231
:1049A000232B09F046C0009709F043C02091050170
:1049B00021113FC020910D0130910E012F303105A2
:1049C000C1F510920A011092090131C02B30310556
:1049D00081F520910802309109022B33310549F508
:1049E0008B33910591F420910501222371F02091E0
:1049F0000701222351F020910D0130910E012F303B
:104A0000310519F41092070114C08B33910589F414
:104A100020910501222369F020910701211109C08D
:104A200020910D0130910E012F30310511F41093BA
:104A300007012091090130910A012D30310584F0E0
:104A40002091080230910902232B51F4009741F480
:104A500020910501222321F030920A0120920901C0
:104A60002091090130910A012C30310534F0409138
:104A70000501411102C010920701409113025091AB
:104A800014024817590751F5409111025091120232
:104A9000809108029091090248175907F9F4809112
:104AA0000B0190910C0182179307C1F490910801BA
:104AB00080910701981312C080910702882371F03A
:104AC0009092F4018092F3019092F2018092F101B0
:104AD0000E94E9171093FC01109207020E94E5154D
:104AE00085FD02C00C94222E0E94E51586FD02C0B1
:104AF0000C94222E0E94E51583FF02C00C94222EF6
:104B00000E94E51582FF02C00C94222E0E94E5153A
:104B100087FF02C00C94222E0E94E51584FF02C07C
:104B20000C94222E0E9495110E94B61161E081E042
:104B30000E94AA1110920F010E9402161093030105
:104B400010920D0210920C020E945C0B80910F01DA
:104B5000882311F40C94192E80910602882381F089
:104B60008091060181110CC00E94BD1D0E94BE0BE8
:104B7000882311F40C94192E109206020C94192E0D
:104B80000E94E51585FF8BC06DE671E0CE010196B0
:104B90000E94EB1ACE0101960E94D60A082FCE0180
:104BA00001960E94A514002309F479C00E948A0A84
:104BB0008091FC01882361F000E08091F5010817E5
:104BC00028F4802F0E94B8170F5FF7CF1092FC01D6
:104BD00080910C0290910402811107C0911105C0CF
:104BE00080910302882349F055C0992309F44FC0EE
:104BF0009091060191110C948D2E0E948F15209199
:104C0000F6013091F7014091F8015091F9016217D6
:104C100073078407950700F18091030181111CC07F
:104C20008091FA018823C1F01092FA011092F601E6
:104C30001092F7011092F8011092F90161E080E002
:104C40000E94AA1180910402882311F40C94502E22
:104C50001092040210930602809103018823F9F058
:104C60000E948F15DC01CB0184529A4FAF4FBF4F8A
:104C70008093F6019093F701A093F801B093F901A6
:104C80001092030160E081E00E94AA1108C0811126
:104C90000C948F2E8091030281111092FB010E94CF
:104CA0005C0B81110E949B0A0E94BE0B0E94E515BD
:104CB00084FF2AC062E771E0CE0101960E94EB1AE0
:104CC000CE0101960E94D60A082F81110091FA01A7
:104CD000CE0101960E94A5140023B1F01092FA01B2
:104CE0001093040180910D028111E6C780910C029E
:104CF0008111E7C7809104028111E8C78091030206
:104D00008111E9C710930D020E945C0B81110E9472
:104D10009B0A0E94E51587FF2AC067E771E0CE0174
:104D200001960E94EB1ACE0101960E94D60A082F26
:104D300081110091FA01CE0101960E94A514002371
:104D4000B1F01092FA011093040180910D0290913C
:104D500003028111C3C720910C022111BFC720910A
:104D600004022111BBC79111B9C7109303020E941D
:104D70005C0B81110E949B0A80910D02882309F42B
:104D80007EC10E9495110E94E4096AE771E0CE019C
:104D900001960E94EB1AAE014F5F5F4F69E370E02E
:104DA00082E290E00E94A621CE0101960E94A51405
:104DB00060E871E0CE0101960E94EB1AAE014F5FF0
:104DC0005F4F69E370E086E490E00E94A621CE0187
:104DD00001960E94A5148091070260E771E0882384
:104DE00009F47CC0CE0101960E94EB1AAE014F5F20
:104DF0005F4F6EE070E082E090E00E94A621CE015D
:104E000001960E94A51468E871E0CE0101960E9407
:104E1000EB1AAE014F5F5F4F63E170E082E090E01C
:104E20000E94A621CE0101960E94A51463E971E0BB
:104E3000CE0101960E94EB1AAE014F5F5F4F68E111
:104E400070E082E090E00E94A621CE0101960E94CF
:104E5000A51462EA71E0CE0101960E94EB1AAE0140
:104E60004F5F5F4F6DE170E082E090E00E94A6210D
:104E7000CE0101960E94A5146AE871E0CE01019668
:104E80000E94EB1AAE014F5F5F4F64E270E082E078
:104E900090E00E94A621CE0101960E94A5146CEC20
:104EA00071E0CE0101960E94EB1AAE014F5F5F4F99
:104EB00069E270E082E090E00E94A621CE010196B6
:104EC0000E94A5146CEC71E0CE0101960E94EB1AD1
:104ED000AE014F5F5F4F6EE270E068C0CE01019699
:104EE0000E94EB1AAE014F5F5F4F6EE070E082E010
:104EF00090E00E94A621CE0101960E94A51468E8C8
:104F000071E0CE0101960E94EB1AAE014F5F5F4F38
:104F100063E170E082E090E00E94A621CE0101965C
:104F20000E94A51463E971E0CE0101960E94EB1A7C
:104F3000AE014F5F5F4F68E170E082E090E00E9459
:104F4000A621CE0101960E94A51462EA71E0CE016D
:104F500001960E94EB1AAE014F5F5F4F6DE170E06A
:104F600082E090E00E94A621CE0101960E94A51445
:104F70006AE871E0CE0101960E94EB1AAE014F5F24
:104F80005F4F64E270E082E090E00E94A621CE01D3
:104F900001960E94A51462EA71E0CE0101960E947A
:104FA000EB1AAE014F5F5F4F69E270E082E090E084
:104FB0000E94A621CE0101960E94A51481E190E0F5
:104FC0009093900680938F0689E190E090939206EB
:104FD0008093910640910B0150910C016091110258
:104FE0007091120200E020E080911302909114026F
:104FF0000E94F60DFC019093100280930F026081D5
:105000007181709314026093130242815381509313
:105010001202409311022481358130930C012093B8
:105020000B01F0929506C12CE12CCE0101960E9455
:105030008B0CBE016F5F7F4F89E796E00E94AF1D2A
:10504000CE0101960E94A51410939506809105014A
:10505000882309F4ECC580910801B0929006A092D3
:105060008F067092920660929106882319F087EE5F
:1050700091E002C08CE891E00E948D13D8C5809128
:105080000C02882309F48DC10E9495110E94E40945
:105090006FE871E0CE0101960E94EB1AAE014F5FFE
:1050A0005F4F69E370E082E290E00E94A621CE01AA
:1050B00001960E94A51460E871E0CE0101960E945D
:1050C000EB1AAE014F5F5F4F69E370E086E490E05A
:1050D0000E94A621CE0101960E94A51480910E0285
:1050E000882309F445C065E971E0CE0101960E946C
:1050F000EB1AAE014F5F5F4F66E170E08AE790E028
:105100000E94A621CE0101960E94A51460E771E0DD
:10511000CE0101960E94EB1AAE014F5F5F4F6BE12B
:1051200070E08AE790E00E94A621CE0101960E94DD
:10513000A5146AE871E0CE0101960E94EB1AAE0157
:105140004F5F5F4F60E270E08AE790E00E94A62127
:10515000CE0101960E94A51468E771E0CE01019688
:105160000E94EB1AAE014F5F5F4F65E270E0B6C080
:1051700063E971E0CE0101960E94EB1AAE014F5F28
:105180005F4F64E170E082E090E00E94A621CE01D2
:1051900001960E94A51461ED71E0CE0101960E9476
:1051A000EB1AAE014F5F5F4F69E170E082E090E083
:1051B0000E94A621CE0101960E94A51465E971E026
:1051C000CE0101960E94EB1AAE014F5F5F4F6EE178
:1051D00070E082E090E00E94A621CE0101960E943C
:1051E000A51461ED71E0CE0101960E94EB1AAE01AB
:1051F0004F5F5F4F63E270E082E090E00E94A62183
:10520000CE0101960E94A51460E771E0CE010196DF
:105210000E94EB1AAE014F5F5F4F68E270E082E0E0
:1052200090E00E94A621CE0101960E94A51465E996
:1052300071E0CE0101960E94EB1AAE014F5F5F4F05
:1052400064E170E08AE790E00E94A621CE01019619
:105250000E94A51460E771E0CE0101960E94EB1A4E
:10526000AE014F5F5F4F69E170E08AE790E00E9416
:10527000A621CE0101960E94A51467E971E0CE0136
:1052800001960E94EB1AAE014F5F5F4F6EE170E036
:105290008AE790E00E94A621CE0101960E94A51403
:1052A00063E971E0CE0101960E94EB1AAE014F5FF7
:1052B0005F4F63E270E08AE790E00E94A621CE0192
:1052C00001960E94A51460E771E0CE0101960E944C
:1052D000EB1AAE014F5F5F4F68E270E08AE790E043
:1052E0000E94A621CE0101960E94A51480910E0273
:1052F000811127C040910102509102026091FF018B
:105300007091000201E020E08091FD019091FE018A
:105310000E94F60DFC019093100280930F02808191
:1053200091819093FE018093FD01828193819093FE
:1053300000028093FF018481958190930202809303
:10534000010281E190E09093900680938F0689E1BD
:1053500090E09093920680939106F09295062091AA
:105360000102309102024091FF01509100026091D0
:10537000FD017091FE01C12CEE24E39400E0CE010A
:1053800001960E948B0CBE016F5F7F4F89E796E00C
:105390000E94AF1DCE0101960E94A51410939506A0
:1053A00046C480910402882309F4A0C10E94E40944
:1053B00068E771E0CE0101960E94EB1AAE014F5FE3
:1053C0005F4F66E170E082E090E00E94A621CE018E
:1053D00001960E94A5146AE871E0CE0101960E9430
:1053E000EB1AAE014F5F5F4F6BE170E082E090E03F
:1053F0000E94A621CE0101960E94A51462EA71E0E6
:10540000CE0101960E94EB1AAE014F5F5F4F60E242
:1054100070E082E090E00E94A621CE0101960E94F9
:10542000A51466E871E0CE0101960E94EB1AAE0168
:105430004F5F5F4F65E270E082E090E00E94A6213E
:10544000CE0101960E94A51469E971E0CE01019692
:105450000E94EB1AAE014F5F5F4F64E170E08CE099
:1054600090E00E94A621CE0101960E94A5146BE94E
:1054700071E0CE0101960E94EB1AAE014F5F5F4FC3
:1054800069E170E08CE090E00E94A621CE010196D7
:105490000E94A51467E971E0CE0101960E94EB1A03
:1054A000AE014F5F5F4F6EE170E08CE090E00E94D4
:1054B000A621CE0101960E94A51462EA71E0CE01F8
:1054C00001960E94EB1AAE014F5F5F4F63E270E0FE
:1054D0008CE090E00E94A621CE0101960E94A514C6
:1054E00065EC71E0CE0101960E94EB1AAE014F5FB0
:1054F0005F4F68E270E08CE090E00E94A621CE0150
:1055000001960E94A5146DE971E0CE0101960E94FA
:10551000EB1AAE014F5F5F4F69E370E08DE190E001
:105520000E94A621CE0101960E94A51464EA71E0B2
:10553000CE0101960E94EB1AAE014F5F5F4F69E307
:1055400070E086E490E00E94A621CE0101960E94C0
:10555000A5146AEA71E0CE0101960E94EB1AAE0131
:105560004F5F5F4F6EE070E085E290E00E94A62101
:10557000CE0101960E94A514809106014FE262E1DE
:1055800070E081114FC088E290E00E94D3124FE199
:1055900062E170E088E290E00E94C8114FE261E3AE
:1055A00070E088E290E00E94D3124FE162E170E087
:1055B00087E590E00E94C81146E067E170E08AE26A
:1055C00090E00E94C81146E067E270E085E590E057
:1055D0000E94C81141E060E270E08FE390E00E9419
:1055E000F11166EB71E0CE0101960E94EB1AAE015B
:1055F0004F5F5F4F64E170E084E390E00E94A6217A
:10560000CE0101960E94A5146CEB71E0CE010196CB
:105610000E94EB1AAE014F5F5F4F6BE270E087E3D1
:1056200090E026C088E290E00E94D3124FE162E150
:1056300070E088E290E00E94C8114FE261E370E000
:1056400088E290E00E94D3124FE162E170E087E5CA
:1056500090E00E94C81161EC71E0CE0101960E94B9
:10566000EB1AAE014F5F5F4F60E270E084E390E0C1
:105670000E94A621CE0101960E94A5140E94E51564
:1056800083FF1BC067E971E0CE0101960E94EB1A0F
:10569000CE0101960E94D60A082F81110091FA01CD
:1056A000CE0101960E94A514002339F080910502D5
:1056B0008127809305021092FA01809105028823C8
:1056C00019F067EC71E002C06AEC71E0CE0101965E
:1056D0000E94EB1AAE014F5F5F4F69E370E082E614
:1056E00090E00E94A621CE0101969FC28091030204
:1056F000882309F426C10E94E4096EEC71E0CE0112
:1057000001960E94EB1AAE014F5F5F4F69E370E0B4
:1057100087E290E00E94A621CE0101960E94A51486
:1057200063ED71E0CE0101960E94EB1AAE014F5F6E
:105730005F4F69E370E086E490E00E94A621CE010D
:1057400001960E94A51468ED71E0CE0101960E94B9
:10575000EB1AAE014F5F5F4F6FE070E082E090E0C8
:105760000E94A621CE0101960E94A5146AED71E067
:10577000CE0101960E94EB1AAE014F5F5F4F64E1CC
:1057800070E082E090E00E94A621CE0101960E9486
:10579000A51466E871E0CE0101960E94EB1AAE01F5
:1057A0004F5F5F4F69E170E082E090E00E94A621C8
:1057B000CE0101960E94A5146AED71E0CE0101961A
:1057C0000E94EB1AAE014F5F5F4F6EE170E082E026
:1057D00090E00E94A621CE0101960E94A51460E7E8
:1057E00071E0CE0101960E94EB1AAE014F5F5F4F50
:1057F00063E270E082E090E00E94A621CE01019673
:105800000E94A51467E971E0CE0101960E94EB1A8F
:10581000AE014F5F5F4F68E270E082E090E00E946F
:10582000A621CE0101960E94A5146BE971E0CE017C
:1058300001960E94EB1AAE014F5F5F4F6DE270E080
:1058400082E090E00E94A621CE0101960E94A5145C
:1058500067E971E0CE0101960E94EB1AAE014F5F3D
:105860005F4F61E170E08AE790E00E94A621CE01DF
:1058700001960E94A51462EA71E0CE0101960E9491
:10588000EB1AAE014F5F5F4F66E170E08AE790E090
:105890000E94A621CE0101960E94A51467E971E03D
:1058A000CE0101960E94EB1AAE014F5F5F4F6BE194
:1058B00070E08AE790E00E94A621CE0101960E9446
:1058C000A5146BE971E0CE0101960E94EB1AAE01BE
:1058D0004F5F5F4F60E270E08AE790E00E94A62190
:1058E000CE0101960E94A5146AE871E0CE010196EE
:1058F0000E94EB1AAE014F5F5F4F65E270E08AE7EE
:1059000090E00E94A621CE0101960E94A51466E8AF
:1059100071E0CE0101960E94EB1AAE014F5F5F4F1E
:105920006AE270E08AE790E00E94A621CE0101962B
:105930000E94A5148091FB01811179C10E94B221BE
:1059400076C163EE71E0CE0143960E94EB1A63EEDE
:1059500071E0CE010D960E94EB1A0E94E40940917D
:10596000090150910A01609108027091090200E05A
:1059700021E080910A0290910B020E94F60DFC0139
:105980009093100280930F028081918190930B027B
:1059900080930A0282819381909309028093080286
:1059A0008481958190930A01809309018091FB0184
:1059B000811102C00E94B22120910B0130910C0193
:1059C00040911102509112026091130270911402E1
:1059D000C12CE12C00E0CE0101960E948B0CBE018F
:1059E0006F5F7F4FCE0143960E943414CE01019623
:1059F0000E94A51480910501882369F18091080116
:105A0000BE016D5E7F4F882339F0CE0107960E945C
:105A1000D11A67E971E006C0CE0107960E94D11A3B
:105A200068E771E0CE0107960E940814BC01CE0120
:105A300001960E94D11AAE014F5F5F4F69E370E09B
:105A40008EE090E00E94A621CE0101960E94A5144E
:105A5000CE01079612C0BE016D5E7F4FCE0101964A
:105A60000E94D11AAE014F5F5F4F69E370E08EE094
:105A700090E00E94A621CE0101960E94A5142091DB
:105A80000102309102024091FF01509100026091A9
:105A9000FD017091FE01C12CEE24E39400E0CE01E3
:105AA00001960E948B0CBE016F5F7F4FCE010D9659
:105AB0000E943414CE0101960E94A514BE01635FBA
:105AC0007F4FCE0101960E94D11AAE014F5F5F4F0A
:105AD00069E370E086E490E00E94A621CE01019681
