:100000000C9484070C94AC070C94AC070C94AC07CC
:100010000C94AC070C94AC070C94AC070C94AC0794
:100020000C94AC070C94AC070C9478140C94EA1460
:100030000C94AC070C94AC070C94AC070C94AC0774
:100040000C94AC070C94610E0C94AC070C94AC07A8
:100050000C94AC070C94AC070C94AC070C94E10D19
:100060000C94AC070C94AC070C94AC070C94AC0744
:100070000C94AC070C94AC070C94AC070C94AC0734
:100080000C949D0F0C94AC070C94AC070C94AC072B
:100090000C94AC070C94AC070C94AC070C94AC0714
:1000A0000C94AC070C94AC070C94AC07270D2A0DEC
:1000B000190D1D0D210D4B0D4B0D4B0D2E0D320D40
:1000C000360D3C0D400D4B0D460D00000000240088
:1000D00027002A002D003000D5F08D14A1C881CF53
:1000E000D9F1AF20000408020110408040102040E8
:1000F000804080080204018040201002011080101E
:100100002040402000000000250028002B002E0089
:10011000310004040404040304050202020204037F
:100120000202020206060606060604040202020491
:10013000041402130212021502070208020A020A3C
:10014000010B020B010902090104010C0106010067
:10015000029A903E00A6904000A6904200A69040D1
:1001600000A6904300A6904200A6904000A6903EB4
:1001700000A6904500A6904300A6904200A690409D
:1001800000A69132904200A69134903E00A691368E
:10019000904500A6913400A69047913700A691366D
:1001A00000A69049913400379047003790490037B6
:1001B0009132904A00A6913990490053904A0053D9
:1001C0009137904900A691369047005390450053CF
:1001D0009134007D8000299049913600A6904A9183
:1001E0003200A6904C913900A6904900A6912D901E
:1001F0004E00A6904A00A69139904900A69047006B
:100200008A81001B9139904C00A6904900A6912D3F
:10021000904A00A6904700A69139904500A69044C8
:10022000008A81001B9139904C00A6904900A6914C
:100230002D904E00A6904A00A69139904900A690B4
:1002400047008A81001B9139904C00A6904900A676
:10025000912D904A00A6904700A69139904500A69E
:100260009044008A81001B9139904900A690470074
:10027000A6913B904A00A6904900A6913D90470068
:10028000A6904500A6913E904E00A6913D00A690F6
:1002900044914000A6913E00A69045913D00A69154
:1002A0003B00A6913D001B80001B90470037904506
:1002B0000037913E90440037904500379047001B2F
:1002C00080001B90479140014D913400A69045005D
:1002D000A69139904500A6913400A6913600A691CA
:1002E0003800A691398000A6913B00A6913D00A65A
:1002F000913B00A6904C913E00A6913D00A69051E6
:10030000913B00A6913900A6914000A6904700A617
:100310009134904900A6904B00A6904C8100A69085
:100320004E00A6904F00A6904E00A6913B90510023
:10033000A6904F00A69140904E00A6904C00A6902B
:100340005300A6913600A69047913800A6913A0036
:10035000A6913B8000A6913D00A6913E00A6913D4E
:1003600000A69042914000A6913E00A69047913D84
:1003700000A6913B00A6914200A6904600A69136A9
:10038000904700A6904900A69140904A00A6904C44
:1003900000A6913E904E00A6904C00A69147904F2B
:1003A00000A69146904E00A69147904C00A6904A18
:1003B00000A6913D904C00A6904A00A69146904E12
:1003C00000A69144904C00A69146904A00A6904900
:1003D00000A69147904A00A69145904900A69143F6
:1003E000904C00A69142904A00A69140904900A6E8
:1003F000913E904700A69140904900A6913E00A6EC
:10040000904691420053904400539140904600A67C
:10041000913E904700A6913D00A6913E00A69049CE
:100420009140008A80001B904991420053904A00FD
:1004300053904900A6913600A6904700A6913B0034
:10044000A6904200A69136904400A6904600A69140
:1004500032904700A6904900A6912F904A00A6909E
:100460004900A6904C00A6904A00A690498100A69B
:10047000904700A6904F00A6912F00A6913100A6AC
:10048000913300A6913400A6913600A6913700A6BC
:10049000913600A6913900A6913700A6913600A6A4
:1004A000913400A69139008A80001B904000A690EC
:1004B0004200A6904400A6904500A6904700A69052
:1004C0004900A6904700A6904A00A6904900A69031
:1004D0004700A6904500A6904E008A81001B912DF2
:1004E00000A6912F00A6913100A6913200A691346A
:1004F00000A6913600A6913400A6913700A6913649
:1005000000A6913400A6913200A69138008A80009E
:100510001B904700A6904C00A69134904A00A691EB
:1005200036904900A69138904700A691399049002D
:10053000A69138904700A69136904A00A691349033
:100540004900A69132904700A69136904500A691A9
:100550003490440053904500539132904400A6914A
:1005600031904000A6912F00A69045913100A690B1
:1005700047912D00A69049913900A6904700A69179
:1005800036904A00A6904900A69131904700A69067
:100590004500A69132904E00A6913100A6913400FC
:1005A000A69044913200A69045913100A6904491C6
:1005B0002F00A69045913100A6904A913200A69056
:1005C000479134014D912800A69045008A80001B78
:1005D0009045912D00A6913100A6913200A6904938
:1005E000913400A6904A913600A6904C913700A60F
:1005F0009042913900A6913700A69043913B00A606
:10060000913900A690479137005390450053913699
:1006100090430053904500539137904700A6913680
:1006200000A6904A91390053904900539137904762
:100630000053904900539136904A00A6913400A689
:10064000913600A69049913400A6904C913700A6AF
:10065000904A913600A69049913400A6904A913272
:1006600000A6904C913900A6904A00A6912D904981
:1006700000A6904700A690458100A6904300A69052
:100680004200A6904000A6904300A6904200A6908B
:100690004000A6903E00A6904500A6904300A6907C
:1006A0004200A6904000A69132904200A69134905C
:1006B0003E00A69136904500A6913400A690479141
:1006C0003700A6913600A690499134003790470034
:1006D00037904900379132904A00A69139904900ED
:1006E00053904A00539137904900A69136904700A5
:1006F00053904500539134007D800029904A9136F3
:1007000000A69132008A80001B904A913900A69180
:100710003600A6903E913B00A6913700A6904A91E4
:100720003600A69134008A80001B904A913900A6B9
:10073000913600A6903E913700A6913400A6904ACB
:10074000913200A69131008A80001B904A913900B5
:10075000A6913600A6903E913B00A6913700A69048
:100760004A913600A69134008A80001B904A913944
:1007700000A6913600A6903E913700A6913400A6BF
:10078000904A913200A6904C913100A6904E913241
:1007900000A6904C00A69134904F00A6904E00A663
:1007A0009136904C00A6904A00A69137905300A62F
:1007B000913600A69049913900A6913700A6904A3B
:1007C000913600A6913400A69136001B80001B9044
:1007D0004C0037904A0037913790490037904A00D3
:1007E00037904C002980000D904C9139014D912D8E
:1007F00000A6904A008A80001B904A912F00A69183
:100800002D00A6903E913000A6912F00A690439116
:100810002D00A6912B00A6913200A6903900A6903B
:100820003B00A6903D00A6903E00A6904000A690FA
:1008300042008A81001B9131904000A6912F904385
:1008400000A6912D904200A6912B904000A6912ADF
:10085000903E00A6912B904700A6912A00A6912DCC
:1008600000A6903D912B00A6903E912A00A6903DB7
:10087000912800A6903E912A00A69043912B00A6B5
:100880009040912D01F4903E008A80001B903E9193
:100890002607D08081F006011501260137014A01A3
:1008A0005D01720188019F01B801D201EE010B02C6
:1008B0002A024B026E029302BA02E40210033F03C3
:1008C0007003A403DC03170455049704DD04270513
:1008D0007505C80520067D06E0064907B8072D08FE
:1008E000A9082D09B9094D0AEA0A900B400CFA0C27
:1008F000C00D910E6F0F5A1053115B1272139A14A0
:10090000D41520178018F519801B231DDE1EB42076
:10091000A622B524E4263429A72B402E0031EA3341
:100920000037453ABC3D68414C456B49C84D68525B
:100930004F57805C006210111213151617181A1CFD
:100940001D1F21232527292C2E3134373A3E4145BE
:10095000494E52575C62686E757B838B939CA5AF42
:10096000B9C4D0DCE9F700000000003E5B4F5B3EFD
:100970003E6B4F6B3E1C3E7C3E1C183C7E3C181C64
:10098000577D571C1C5E7F5E1C00183C1800FFE75B
:10099000C3E7FF0018241800FFE7DBE7FF30483A01
:1009A000060E2629792926407F050507407F052563
:1009B0003F5A3CE73C5A7F3E1C1C08081C1C3E7FEB
:1009C00014227F22145F5F005F5F06097F017F00B2
:1009D0006689956A606060606094A2FFA2940804D2
:1009E0007E040810207E201008082A1C08081C2AF3
:1009F00008081E101010100C1E0C1E0C30383E384B
:100A000030060E3E0E06000000000000005F0000F1
:100A10000007000700147F147F14242A7F2A122362
:100A20001308646236495620500008070300001C72
:100A30002241000041221C002A1C7F1C2A08083E7B
:100A4000080800807030000808080808000060608E
:100A50000020100804023E5149453E00427F4000FC
:100A600072494949462141494D331814127F1027D4
:100A7000454545393C4A4949314121110907364923
:100A8000494936464949291E0000140000004034F7
:100A900000000008142241141414141400412214FC
:100AA0000802015909063E415D594E7C1211127C23
:100AB0007F494949363E414141227F4141413E7F84
:100AC000494949417F090909013E414151737F0864
:100AD00008087F00417F41002040413F017F08140A
:100AE00022417F404040407F021C027F7F0408106B
:100AF0007F3E4141413E7F090909063E4151215E49
:100B00007F09192946264949493203017F01033FDC
:100B10004040403F1F2040201F3F4038403F63146B
:100B200008146303047804036159494D43007F416D
:100B300041410204081020004141417F04020102AA
:100B400004404040404000030708002054547840CF
:100B50007F284444383844444428384444287F3863
:100B60005454541800087E090218A4A49C787F08E5
:100B700004047800447D40002040403D007F102860
:100B8000440000417F40007C047804787C08040421
:100B9000783844444438FC1824241818242418FCB9
:100BA0007C08040408485454542404043F44243C5E
:100BB0004040207C1C2040201C3C4030403C4428CD
:100BC0001028444C9090907C4464544C4400083667
:100BD00041000000770000004136080002010204D5
:100BE000023C2623263C1EA1A161123A4040207AF5
:100BF000385454555921555579412154547841213F
:100C00005554784020545579400C1E527212395573
:100C10005555593954545459395554545800004570
:100C20007C410002457D420001457C40F029242999
:100C3000F0F0282528F07C545545002054547C546D
:100C40007C0A097F493249494932324848483232A0
:100C50004A4848303A4141217A3A42402078009D42
:100C6000A0A07D39444444393D4040403D3C24FFF0
:100C70002424487E4943662B2FFC2F2BFF0929F69D
:100C800020C0887E090320545479410000447D41EE
:100C90003048484A32384040227A007A0A0A727D47
:100CA0000D19317D2629292F282629292926304862
:100CB0004D4020380808080808080808382F10C8D0
:100CC000ACBA2F102834FA00007B000008142A1454
:100CD0002222142A14089500220095AA005500AA81
:100CE000AA55AA55AA000000FF00101010FF00141A
:100CF0001414FF001010FF00FF1010F010F0141477
:100D000014FC001414F700FF0000FF00FF1414F49B
:100D100004FC141417101F10101F101F1414141F9C
:100D200000101010F0000000001F101010101F1015
:100D3000101010F010000000FF1010101010101014
:100D40001010FF10000000FF140000FF00FF000063
:100D50001F10170000FC04F414141710171414F4D7
:100D600004F40000FF00F714141414141414F70012
:100D7000F7141414171410101F101F141414F41463
:100D80001010F010F000001F101F0000001F1400D2
:100D90000000FC140000F010F01010FF10FF1414FD
:100DA00014FF141010101F00000000F010FFFFFFD0
:100DB000FFFFF0F0F0F0F0FFFFFF0000000000FF89
:100DC000FF0F0F0F0F0F38444438447C2A2A3E147B
:100DD0007E02020606027E027E02635549416338A6
:100DE00044443C04407E201E2006027E020299A557
:100DF000E7A5991C2A492A1C4C7201724C304A4DB5
:100E00004D303048784830BC625A463D3E494949E9
:100E1000007E0101017E2A2A2A2A2A44445F444492
:100E200040514A444040444A51400000FF0103E021
:100E300080FF000008086B6B083612362436060F58
:100E4000090F06000018180000001010003040FFC5
:100E50000101001F01011E00191D1712003C3C3C3E
:100E60003C00000000000000000200090F00000329
:100E70000401000C00000000000000000000000061
:100E80000000000000080B0002020201000904003B
:100E900000010202000005240010010524010101E7
:100EA0000424020605240600010705810310004002
:100EB00009040100020A00000007050202400000C8
:100EC0000705830240000004030904417264756948
:100ED0006E6F204C4C430041726475626F79001252
:100EE000010002000000404123368000010102039E
:100EF0000112010002EF020140412336800001018E
:100F0000020301003C1F181F11241FBECFEFDAE0BF
:100F1000DEBFCDBF12E0A0E0B1E0ECE3F5E402C03B
:100F200005900D92A834B107D9F727E0A8E4B2E004
:100F300001C01D92A236B207E1F717E0C3E8D7E07F
:100F400004C02197FE010E94B21FC238D107C9F721
:100F50000E9427170C9491220C940000CF93DF93EA
:100F6000EC0165E372E00E9467128823B1F00E94F1
:100F70002B0E82FD75C00E942B0E87FD71C00E9452
:100F80002B0E84FD6DC00E942B0E85FD69C00E9452
:100F90002B0E86FD65C081E064C067E372E0CE0180
:100FA0000E946712882329F00E942B0E83FD58C0EF
:100FB000E2CF68EB71E0CE010E946712882349F00E
:100FC0000E942B0E82FD4CC00E942B0E83FD48C058
:100FD000D6CF69E571E0CE010E946712882369F0DF
:100FE0000E942B0E82FD3CC00E942B0E87FD38C054
:100FF0000E942B0E83FD34C0C6CF6EE471E0CE019B
:101000000E946712882389F00E942B0E82FD28C05F
:101010000E942B0E87FD24C00E942B0E84FD20C051
:101020000E942B0E83FD1CC0B2CF63E571E0CE01A0
:101030000E9467128823A1F00E942B0E82FD10C02F
:101040000E942B0E87FD0CC00E942B0E84FD08C051
:101050000E942B0E85FD04C00E942B0E83FF9BCFA8
:1010600080E0DF91CF9108950E942B0E83FD16C082
:101070000E942B0E82FD12C00E942B0E87FD0EC017
:101080000E942B0E84FD0AC00E942B0E85FD06C017
:101090000E942B0E86FD02C081E0089580E0089535
:1010A0006F927F928F929F92AF92BF92CF92DF9278
:1010B000EF920F93CF93DF9300D000D000D0CDB745
:1010C000DEB76C015B014A0139016A30710518F421
:1010D00069E372E002C067EB71E088EC96E00E9481
:1010E00030138AE08816910418F469E372E002C0B4
:1010F00067EB71E082EC96E00E9430138AE068169C
:1011000071041CF46BE372E002C067EB71E08CEBDE
:1011100096E00E94301380910001882389F0E1104D
:101120000FC0002351F080910201882319F06DE374
:1011300072E008C061E472E005C080910301F5CF60
:1011400067EB71E080EB96E00E9430136CEB76E089
:10115000CE0101960E944914B301CE0101960E946E
:10116000C6126EEC76E00E94FC1262EC76E00E9401
:10117000FC12B4010E94C6126EEC76E00E94FC12D2
:1011800068EC76E00E94FC12B5010E94C61260EB8A
:1011900076E00E94FC12BC01C6010E944914CE01F7
:1011A00001960E944713C60126960FB6F894DEBF3B
:1011B0000FBECDBFDF91CF910F91EF90DF90CF9019
:1011C000BF90AF909F908F907F906F9008958823ED
:1011D00059F080910201882319F0109202010895BC
:1011E00081E080930201089580910301882319F022
:1011F00010920301089581E0809303010895962FD2
:10120000882349F120917C0230917D022F5F3F4F6E
:1012100030937D0220937C02411121C08091000116
:10122000882389F02D3031053CF081E090E09093E7
:101230007D0280937C0208952C30310581F4862F45
:101240000E94E70808952831310549F410927D0283
:1012500010927C020895642F892F0C9489100895B0
:10126000962F20917A0230917B02882361F02F5FC4
:101270003F4F2C3331055CF010927B0210927A02C2
:1012800081E00C94FF082150310937FD05C03093EF
:101290007B0220937A02089541110AC02BE330E0CB
:1012A00030937B0220937A0260E0892F0C9489109E
:1012B00010927B0210927A0208950F93CF93C22F5F
:1012C000909379028093780270937B0260937A0204
:1012D00050937D0240937C0280910001882319F095
:1012E0008CE090E002C088E190E090934A02809305
:1012F000490201116DC00E942B0E86FF36C00E946C
:101300002B0E87FF32C080910001882371F10E946B
:101310002B0E83FD2AC00E942B0E82FD26C00E9448
:101320002B0E85FD22C00E942B0E84FD1EC0109244
:10133000000180917C0290917D028C30910509F032
:101340007EC0C11157C080910401909105010C9796
:1013500009F45AC0C11162C080910301882309F4C5
:101360005DC010927D0210927C020E942B0E85FFC0
:101370002FC00E942B0E84FF2BC080910001811191
:1013800027C00E942B0E83FD23C00E942B0E82FDDE
:101390001FC00E942B0E86FD1BC00E942B0E87FDD6
:1013A00017C021E02093000180917C0290917D0282
:1013B0008C3091050CF07EC0CC2309F4A2C02093A0
:1013C000020180917C0290917D02892B09F49CC0DE
:1013D0000E942B0E83FFC7C00E942B0E87FFC3C045
:1013E0000E942B0E82FDBFC0402F6C2F81E00E9417
:1013F000FF082AC180910201882309F4A4CF10922A
:101400007D0210927C020AC080910201882309F4B7
:10141000A1CF10920501109204019CCF809106018A
:10142000909107010C9709F0A0CF809103018823C8
:1014300009F49BCF109207011092060196CFCC239E
:1014400051F020910201211106C00C9690937D026B
:1014500080937C021DC020910401309105012C3045
:10146000310551F040910201411106C0245F3F4F08
:101470003093050120930401C1110AC0209103019A
:10148000211106C00C9690937D0280937C026DCF53
:1014900080910601909107018C30910509F465CF88
:1014A00020910301211161CF0C9690930701809345
:1014B00006015BCF0C97CC23A1F090937D02809323
:1014C0007C021092020180910601909107018D30FB
:1014D00091050CF476CF0C97909307018093060149
:1014E00038C020910401309105012D3031056CF197
:1014F0002C50310930930501209304011092020110
:1015000024C0209303015DCFCC2391F08CE090E0C8
:1015100090937D0280937C0220910401309105011B
:10152000232B09F055CF909305018093040150CFF0
:101530008091060190910701892B71F48CE090E075
:10154000909307018093060107C090937D028093DA
:101550007C021092030135CF8CE090E090937D02E5
:1015600080937C0235CF0E942B0E83FF0DC00E941A
:101570002B0E84FF09C00E942B0E82FD05C0602F38
:101580008C2F0E94891060C00E942B0E82FF08C021
:101590000E942B0E87FF04C00E942B0E83FF20C0E9
:1015A0000E942B0E82FF04C00E942B0E84FD1EC0E1
:1015B0000E942B0E83FF22C00E942B0E82FF1EC0B2
:1015C0000E942B0E87FF1AC08091780290917902B9
:1015D00001968C339105A4F1109279021092780251
:1015E000402F6C2F81E00E9430092EC00E942B0EEC
:1015F00083FDDECF402F6C2F80E0F5CF0E942B0EB5
:1016000083FF22C00E942B0E82FF1EC00E942B0E61
:1016100084FF1AC08091780290917902019797FF18
:101620000FC0011108C08BE390E090937902809382
:10163000780240E0E0CF109279021092780204C064
:101640009093790280937802809178029091790248
:10165000909373028093720280917A0290917B0240
:10166000909375028093740280917C0290917D0228
:10167000909377028093760282E792E0CF910F9168
:1016800008953FB7F89480919A0290919B02A0919F
:101690009C02B0919D0226B5A89B05C02F3F19F072
:1016A0000196A11DB11D3FBFBA2FA92F982F8827E2
:1016B000820F911DA11DB11DBC01CD0142E0660F3D
:1016C000771F881F991F4A95D1F708958091480286
:1016D00008952F923F924F925F926F927F928F92D6
:1016E0009F92AF92BF92CF92DF92EF92FF920F93B1
:1016F0001F93CF93DF9300D000D000D0CDB7DEB7DB
:10170000DC016A30A9F45C962C915C9758968D9117
:101710009C91599708E0209F800D911D11245996A6
:101720009C938E93589757961C921E925697D1C0B1
:101730006D3009F4CEC05C96BC905C975B962C90A3
:101740005B975A963C905A9758962D913C91599791
:101750003C832B8356968D919C91579780389105A9
:10176000C4F05C962C915C97422F50E056968D9178
:101770009C91579736E0239F800D911D1124579619
:101780009C938E9356975D962C915D9721118EC0F8
:10179000A0C00B811C81003411051CF79C0115E0D1
:1017A000B19E200D311D112412161306D4F68B2C78
:1017B000912C2B813C8148E0B49E200D311D1124D9
:1017C0001216130674F6E5E06E9F2001112460E006
:1017D00070E06530710539F0FB01E40DF51DEA5943
:1017E000F64FA49001C0A12CEB80FC8008E0702E85
:1017F000A0FC02C0622C01C0632C611009C0231040
:1018000007C0A6947A94E80CF91C7110F1CF45C07A
:101810009C01422F481B4B15A0F7A701E42FF42F82
:10182000FE19FB15B8F52038310588F5403451050F
:1018300070F5E695E695E695CE2ED12C8A010770D7
:1018400011271A830983F601F695FE2FEE27F795E7
:10185000E795E20FF31F8F010E551D4F1E830D8379
:10186000E1E0F0E0098002C0EE0FFF1F0A94E2F70A
:10187000FA83E983662029F0F801D080C980CD2859
:1018800005C0CE2EC094F801D080CD20C0824F5F1D
:101890005F4FC4CF2F5F3F4FBCCF6F5F7F4F880D2F
:1018A000991D6630710509F094CF5BCF6AEF640330
:1018B0009001659F300D112420583F4F281739079C
:1018C00044F4CD01ED91FC910190F081E02D6AE0AE
:1018D000099581E090E026960FB6F894DEBF0FBE22
:1018E000CDBFDF91CF911F910F91FF90EF90DF90CF
:1018F000CF90BF90AF909F908F907F906F905F90B0
:101900004F903F902F9008950895CF92DF92EF92DD
:10191000FF921F93CF93DF93E82FF0E0ED5DFE4F32
:101920001081E62FF0E0603330F4EA5CF64FE4918A
:10193000CE2FD0E006C0EE0FFF1FEA5CF74FC59137
:10194000D4916E01E12CF12C60E074E284EF90E020
:10195000A70196010E940A22DA01C9010197A10993
:10196000B109009721E0A207B10578F060E970EDB8
:1019700083E090E0A70196010E940A22DA01C901E2
:101980000197A109B10923E001C021E01130C9F09C
:10199000133051F530919100387F232B2093910023
:1019A0009093990080939800D0939302C0939202F1
:1019B00081E0809391028091710082608093710038
:1019C00013C03091940231110FC030918100387FE3
:1019D000232B20938100909389008093880080912D
:1019E0006F00826080936F00DF91CF911F91FF9015
:1019F000EF90DF90CF900895362F90E0FC01EA59E8
:101A0000F14F4491FC01EB51FF4F2491FC01EE5E3C
:101A1000FE4F8491882309F451C04423E1F150E042
:101A2000FA013197EF30F105B0F5EA5AFF4F0C9407
:101A3000B21F909180009F7707C0909180009F7D9A
:101A400003C090918000977F9093800024C094B54C
:101A50009F7702C094B59F7D94BD1DC0909190006A
:101A60009F7707C0909190009F7D03C09091900058
:101A7000977F909390000FC09091C0009F7703C014
:101A80009091C0009F7D9093C00005C09091C200CE
:101A9000977F9093C200E82FF0E0EE0FFF1FEC5FFE
:101AA000FE4FA591B4918FB7F894EC91311103C01A
:101AB00020952E2301C02E2B2C938FBF0895CF93FA
:101AC000DF9390E0FC01EB51FF4F2491FC01EE5EAF
:101AD000FE4F8491882361F190E0880F991FFC01EB
:101AE000E653FF4FC591D491FC01EC5FFE4FA591E9
:101AF000B491611109C09FB7F89488812095822321
:101B00008883EC912E230BC0623061F49FB7F89468
:101B10003881822F809583238883EC912E2B2C9300
:101B20009FBF06C08FB7F894E8812E2B28838FBF04
:101B3000DF91CF9108958F929F92AF92BF92CF92F3
:101B4000DF92EF92FF926B017C010E94410B4B01EF
:101B50005C01C114D104E104F104F1F00E94410BD5
:101B6000DC01CB0188199909AA09BB09883E934079
:101B7000A105B10570F321E0C21AD108E108F1080E
:101B800088EE880E83E0981EA11CB11CC114D104FC
:101B9000E104F10419F7DDCFFF90EF90DF90CF90D3
:101BA000BF90AF909F908F9008952FB7F894609159
:101BB00096027091970280919802909199022FBF9E
:101BC00008951F920F920FB60F9211242F933F93F7
:101BD0008F939F93AF93BF938091960290919702BA
:101BE000A0919802B09199023091950223E0230FC1
:101BF0002D3720F40196A11DB11D05C026E8230F45
:101C00000296A11DB11D2093950280939602909398
:101C10009702A0939802B093990280919A029091B2
:101C20009B02A0919C02B0919D020196A11DB11D45
:101C300080939A0290939B02A0939C02B0939D0282
:101C4000BF91AF919F918F913F912F910F900FBEB8
:101C50000F901F9018958FB12CB193B130E0209563
:101C6000309520743327A90123E0559547952A958F
:101C7000E1F7292F30E020953095207133273595F5
:101C8000279535952795242B8095807F822B089565
:101C90001F93CF93DF931F92CDB7DEB7162F682F18
:101CA0008AE049830E94FC0C612F8BE00E94FC0CAF
:101CB0004981642F89E00F90DF91CF911F910C949F
:101CC000FC0C1F920F920FB60F9211242F933F938B
:101CD0008F939F93AF93BF93EF93FF938091940261
:101CE000882309F44FC08091840290918502A091CD
:101CF0008602B0918702892B8A2B8B2B51F1809120
:101D00008302E0918102F091820290818927808391
:101D10008091840290918502A0918602B091870201
:101D2000181619061A061B06D4F5809184029091A4
:101D30008502A0918602B09187020197A109B1099D
:101D40008093840290938502A0938602B0938702C9
:101D500026C0109290021092940280916F008D7FA5
:101D600080936F0090918302E0918102F091820252
:101D70008081282F30E0892F90E0809590958223F4
:101D800093230CC080918F02811109C0809183023E
:101D9000E0918102F0918202908189278083FF91F6
:101DA000EF91BF91AF919F918F913F912F910F90A4
:101DB0000FBE0F901F901895E82FF0E0ED5DFE4FDD
:101DC0008081813019F0833089F0089580919402E8
:101DD000811122C080916F008D7F80936F00909160
:101DE0008302E0918102F09182020CC01092910274
:101DF00080919002811110C090918E02E0918C022E
:101E0000F0918D028081282F30E0892F90E080951D
:101E100090958223932380830895CF93DF93D1E01D
:101E2000E0914B02F0914C029F012F5F3F4F3093A6
:101E30004C0220934B028491982F907FC82FCF7033
:101E4000903821F48C2F0E94DC0EEACF9039F9F4FF
:101E5000E091A206F091A30609958D2780938F0249
:101E6000E0914B02F0914C02CF01019690934C020D
:101E700080934B02649180915002C81788F6C1305C
:101E800009F052C0809180028111CACF4DC097FDE8
:101E90003AC03296F0934C02E0934B02F901249140
:101EA00030E0382BA0919202B09193020E948222DE
:101EB0006C507E4F8F4F9F4F28EE33E040E050E054
:101EC0000E946022209388023093890240938A0204
:101ED00050938B028091880290918902A0918A028E
:101EE000B0918B02892B8A2B8B2B21F581E090E01E
:101EF000A0E0B0E08093880290938902A0938A02C8
:101F0000B0938B0217C0903E49F480914D0290919E
:101F10004E0290934C0280934B0282CF903F09F087
:101F20007FCF10924F0206C067FD7ACF8C2F0E94A0
:101F3000850C76CFDF91CF9108951F920F920FB647
:101F40000F9211242F933F934F935F936F937F933F
:101F50008F939F93AF93BF93EF93FF9380919102E1
:101F6000882341F080919002811104C080918F02FA
:101F7000882351F180914F02882381F1809188025A
:101F800090918902A0918A02B0918B02892B8A2BB1
:101F90008B2B21F18091880290918902A0918A0275
:101FA000B0918B020197A109B109809388029093A7
:101FB0008902A0938A02B0938B02892B8A2B8B2BE8
:101FC00069F40E940D0F0AC080918E02E0918C028C
:101FD000F0918D02908189278083CCCFFF91EF9182
:101FE000BF91AF919F918F917F916F915F914F9131
:101FF0003F912F910F900FBE0F901F901895CF9388
:10200000DF9390915002923009F480C0292F30E084
:10201000F901ED5DFE4FD081F901E258FD4F80835B
:10202000913031F420917E02281302C090938002F7
:10203000C82F9F5F9093500261E00E945F0DD130E6
:1020400019F0D33061F162C080916400877F809382
:10205000640010928000109281008091810088605D
:1020600080938100809181008160809381008C2F1A
:1020700090E0FC01EE5EFE4FE491F0E0EE0FFF1FFA
:10208000EC5FFE4F259134913093820220938102C0
:10209000FC01EB51FF4F84918093830237C0809104
:1020A0006500877F809365001092900010929100E8
:1020B000809191008860809391008091910081606F
:1020C000809391008C2F90E0FC01EE5EFE4FE49136
:1020D000F0E0EE0FFF1FEC5FFE4F2591349130933F
:1020E0008D0220938C02FC01EB51FF4F8491809371
:1020F0008E0280915002882321F06CE380E00E94E0
:10210000850C80E0DF91CF910C94DC0EDF91CF91B4
:10211000089520917C0230917D0221503109309345
:102120007D0220937C02611119C0909100019923D6
:1021300061F0121613061CF08CE090E00AC02B3000
:10214000310591F40E94E708089537FF0DC087E13B
:1021500090E090937D0280937C02089537FF04C045
:1021600010927D0210927C020895FC018091A102E0
:10217000811103C08FEF9FEF08959FB7F89482E01D
:102180008093E9002091F20030E01216130614F457
:1021900021E030E02115310559F0289884E680933C
:1021A000A0028091F10080838091F200882319F0D1
:1021B0009FBFC90108958BE68093E800F9CFCF93C4
:1021C000DF931F92CDB7DEB76983DC01ED91FC91FF
:1021D0000280F381E02D41E050E0BE016F5F7F4F50
:1021E00009950F90DF91CF91089583E08093E900E6
:1021F0008091F200882319F08AE38093E800089523
:10220000CF93DF931F92CDB7DEB7FC018485958510
:1022100097FD05C02FEF3FEF358724870BC0CE0118
:1022200001960E94B510019719F4898190E002C0CF
:102230008FEF9FEF0F90DF91CF9108950F931F9332
:10224000CF93DF931F92CDB7DEB78C01FC0184855D
:10225000958597FF0EC0CE0101960E94B51001979B
:1022600019F4298130E002C02FEF3FEFF8013587E4
:102270002487F801848595850F90DF91CF911F9178
:102280000F910895FC018485958597FD0BC09FB73C
:10229000F89482E08093E9008091F2009FBF90E083
:1022A000019608959FB7F89482E08093E9008091A9
:1022B000F2009FBF90E008958F929F92AF92BF92DD
:1022C000CF92DF92EF92FF920F931F93CF93DF9302
:1022D0005C016B018A0180911401882309F45EC0BE
:1022E0008091A102882309F459C080919F0280FF48
:1022F00005C08091E00082608093E000E8018AEFF1
:10230000F82E93E0E92E2FE3822E3AE3932E2097C6
:1023100009F43DC08FB7F894E092E9009091E8008D
:1023200095FF06C09091F200282D291B922F01C025
:1023300090E08FBF91110AC0FA94FF2079F161E01B
:1023400070E080E090E00E949B0DE1CF292F30E00B
:10235000C217D3070CF49C2F8FB7F894E092E900D2
:102360002091E80025FF11C0292F30E0C21BD30BBC
:10237000F601915020F041914093F100FACFC20E46
:10238000D31E9091E80095FF13C08FBFC0CF5D981A
:1023900084E680939E021016110644F081E090E0DE
:1023A000F5019383828380E090E005C0C80103C0FB
:1023B0009092E800EACFDF91CF911F910F91FF90AB
:1023C000EF90DF90CF90BF90AF909F908F90089547
:1023D0000E94AF210F931F93CF93DF93EC0188816D
:1023E0009981009729F02A813B812617370788F4C5
:1023F0008B016F5F7F4F0E94E520009761F099830A
:1024000088831B830A832C813D81232B11F4FC01DB
:10241000108281E001C080E0DF91CF911F910F9188
:10242000089520E082EA92E0B22FB111BFEFFC01E3
:102430000024B193B193B193B1930394D1F7EDED2F
:10244000F6E0118E108E178A168A08958091A202E6
:102450008EBDE3EAF2E081910DB407FEFDCF8EBDA3
:1024600086E0E23AF807B9F70DB407FEFDCF08950C
:10247000FC0144815581608171818DED96E00C9461
:10248000EC13009769F0FC0101900020E9F7319707
:10249000AF01481B590BBC018DED96E00C94EC1379
:1024A00080E090E008958091FF0681110DC082E0E8
:1024B0008093FB0684E08093FC061092FE06109247
:1024C000FD0681E08093FF068BEF96E00895FC0106
:1024D00024813581232B31F421E061157105A1F0B0
:1024E000FB0108C0FC01808191816115710531F407
:1024F00021E0FC018081882339F005C00E94BD21C4
:1025000021E0892B09F020E0822F0895EF92FF92BD
:102510000F931F93CF93DF93FC01248135816115C5
:10252000710511F480E019C041155105A9F07B0136
:10253000EC018A01020F131FB8010E94EA118823DF
:1025400089F3288139818C819D81B701820F931F86
:102550000E94C6211D830C8381E0DF91CF911F91E2
:102560000F91FF90EF900895CF93DF93EC01888156
:102570009981009711F00E944D20198218821D82C6
:102580001C821B821A82DF91CF910895EF92FF92F5
:102590000F931F93CF93DF93CDB7DEB728970FB676
:1025A000F894DEBF0FBECDBF7C01CB014AE08E01A7
:1025B0000F5F1F4FB8010E94CD21F801019000204C
:1025C000E9F73197AF01401B510BB801C7010E94D9
:1025D0008612811103C0C7010E94B412C701289658
:1025E0000FB6F894DEBF0FBECDBFDF91CF911F9124
:1025F0000F91FF90EF900895CF93DF93EC01FB01D3
:1026000044815581608171810E948612811103C0CD
:10261000CE010E94B412CE01DF91CF910895EF92C6
:10262000FF920F931F93CF93DF93EC017B018A01FD
:10263000BA010E94EA11811104C0CE010E94B412B5
:1026400007C01D830C83B701888199810E94C62130
:10265000CE01DF91CF911F910F91FF90EF900895E0
:10266000CF93DF93EC016115710559F0FB010190E7
:102670000020E9F73197AF01461B570B0E940F135B
:1026800002C00E94B412CE01DF91CF910895FC01E7
:10269000808191810C944D20089540915C07509168
:1026A0005D0720915A0730915B0742175307B4F436
:1026B0009091E8009570E1F39091E80092FD19C0C7
:1026C0008093F10080915C0790915D0701968F7374
:1026D0009927892B19F48EEF8093E80080915C078D
:1026E00090915D07019690935D0780935C0781E070
:1026F000089580E00895CF92DF92EF92FF920F93BA
:102700001F93CF93DF931F92CDB7DEB7182F062FFD
:10271000E42E862F880F8E5F99830E944D1383E0ED
:102720000E944D13F12EC12E9981D92E8C2D8F1917
:10273000801798F4F601E7FE02C0849101C0808101
:102740000E944D13182F80E00E944D138123FFEF4C
:10275000CF1ADF0A8111EACF01C081E00F90DF912B
:10276000CF911F910F91FF90EF90DF90CF90089540
:10277000DF92EF92FF920F931F93CF93DF93D82EA8
:102780008A017B01E40EF51EEB01CE15DF0571F029
:10279000D7FE03C0FE01849101C088810E944D13C1
:1027A00021968111F2CF8FEF9FEF01C0C801DF9119
:1027B000CF911F910F91FF90EF90DF90089561509E
:1027C00030F02091F100FC0120830196F8CF289889
:1027D00084E68093A0020895CF92DF92EF92FF9259
:1027E0000F931F93CF93DF936C017A018B01C0E0AD
:1027F000D0E0CE15DF0589F0D8016D918D01D601AD
:10280000ED91FC910190F081E02DC6010995892B95
:1028100011F47E0102C02196ECCFC701DF91CF9168
:102820001F910F91FF90EF90DF90CF9008950F933D
:102830001F93CF93DF931F92CDB7DEB782E08983DA
:1028400042E450E065E87EE080E80E94B8130E9410
:102850005312DC0112960D911C911397011511056D
:1028600069F0D801ED91FC910280F381E02DBE0169
:102870006F5F7F4FC801099597FF07C089810F904F
:10288000DF91CF911F910F910895F8010085118577
:10289000E5CFFB01DC0111961C921E9213961C924F
:1028A0001E92129715961C921E92149786179707E0
:1028B00049F0608171816115710521F04481558174
:1028C0000C940F130895FC0111821082138212825E
:1028D000158214826115710551F0FB0101900020F1
:1028E000E9F73197AF01461B570B0C940F1308956E
:1028F0001F920F920FB60F9211248F939F93809186
:10290000E1009091E100937F9093E10083FF0FC07D
:102910001092E90091E09093EB001092EC0092E3AA
:102920009093ED001092A10298E09093F00082FF46
:1029300020C093E09093E9009091F200992319F060
:102940009AE39093E80090919E02992339F0909138
:102950009E02915090939E02992389F19091A0023A
:10296000992339F09091A00291509093A00299235D
:1029700041F184FF10C08091E2008E7E81608093DF
:10298000E2008091E1008F7E8093E10080919F02C0
:102990008E7E806111C080FF16C08091E2008E7E25
:1029A00080618093E2008091E1008E7E8093E1005F
:1029B00080919F028E7E816080939F0204C05D9A09
:1029C000CDCF289AD6CF9F918F910F900FBE0F90A9
:1029D0001F9018951F920F920FB60F921124CF924D
:1029E000DF92EF92FF920F931F932F933F934F939A
:1029F0005F936F937F938F939F93AF93BF93EF9367
:102A0000FF93CF93DF93CDB7DEB76C97DEBFCDBF1B
:102A10001092E9008091E80083FFFAC168E0CE01DE
:102A200045960E94DF1382EF8093E8008D8987FF2F
:102A300005C09091E80090FFFCCF03C09EEF9093FB
:102A4000E800982F907609F0C6C09E892F89188DCE
:102A500091110CC0803829F4809158078093F100BF
:102A600002C01092F1001092F10047C1422F50E0D5
:102A7000512B913051F4811140C14130510509F081
:102A80003CC1809158078D7F0BC0933061F4811158
:102A900034C14130510509F030C18091580782603E
:102AA000809358072AC1953041F48091E80080FF57
:102AB000FCCF20682093E30020C1963009F05FC06E
:102AC000EB8CFC8C1092E90010925D0710925C0771
:102AD000123091F510925B0710925A070E9417145A
:102AE00099E0BE016F5F7F4FDB01E92F1D92EA95F0
:102AF000E9F799831A8391E09E8390EA98879AEF89
:102B0000998720915C0730915D07275F3F4F3C8399
:102B10002B838D831092E90010925D0710925C0761
:102B2000F0925B07E0925A0749E050E080E00E9493
:102B3000B8130E941714E1C0F0925B07E0925A07A5
:102B40000E945312DC011296ED90FC901397E11451
:102B5000F10409F4C0C0D701ED91FC910480F58126
:102B6000E02DBE016B5E7F4FC7010995009719F0FC
:102B70000CF0C3C0C6C0F701E084F184E8CF973001
:102B800009F4BFC0983021F481E08093F100B5C012
:102B9000993009F0B2C0837009F0B3C0E8E4F1E005
:102BA00081E021E036E39081992361F08093E90090
:102BB0002093EB0091919093EC003093ED008F5FA8
:102BC000873089F78EE78093EA001092EA008F89B8
:102BD0008093A10292C08B8D9C8D1092E90010927F
:102BE0005D0710925C0790935B0780935A07898D6D
:102BF000811156C08E899D89913A59F4813209F02C
:102C000080C047E050E06DE071E080E00E94B813C2
:102C100074C0913209F075C0833289F4888D90E0D8
:102C2000982F88272F89822BA0E0B0E08093150190
:102C300090931601A0931701B09318015EC08032E3
:102C400069F48091E80082FFFCCF67E08DE091E0BD
:102C50000E94DF138BEF8093E80006C0823209F0F8
:102C60004CC08F898093140180915707882319F0F5
:102C7000EEEFFAE002C0E0E0F8E080910D01909103
:102C80000E01A0910F01B0911001803B9440A1056D
:102C9000B10509F088C08091140180FFA0C083C0F5
:102CA0000E945312DC0112960D911C91139701158D
:102CB000110539F1D801ED91FC910190F081E02DE1
:102CC000BE016B5E7F4FC8010995811116C0F801E6
:102CD00000851185ECCF1130C1F0133091F48F894C
:102CE000882309F455C08230E9F440E867E087EDB5
:102CF0009EE00E947B13882321F08EEF8093E800F2
:102D000087C081E28093EB0083C08B8D9C8D0897F8
:102D100011F41093590780915907811136C06FED56
:102D20007EE038C0813029F440E86BE08BEC9EE017
:102D3000E0CF833031F70E945312DC011296ED9000
:102D4000FC9013978E010F5F1F4F6801E114F1048F
:102D500079F0D701ED91FC910680F781E02DB80163
:102D6000C7010995080F111DF701E084F184EECF2A
:102D7000D8011C92F60101900020E9F73197BF01BC
:102D80006C197D0940E0C601B4CF61EF7EE002C05E
:102D900067EC7EE06115710509F4B3CFFB01449146
:102DA00050E080E833CF0FB6F894A895809160008A
:102DB000886180936000109260000FBEA895EE3F7E
:102DC0002AE0F20739F08091FE0A9091FF0A918380
:102DD000808393CF1092FF0A1092FE0A8ECFEE3FAF
:102DE0008AE0F80731F0808191819093FF0A809307
:102DF000FE0A87E797E7918380839BE088E10FB61F
:102E0000F894A895809360000FBE9093600075CFF2
:102E10006C960FB6F894DEBF0FBECDBFDF91CF9199
:102E2000FF91EF91BF91AF919F918F917F916F91A2
:102E30005F914F913F912F911F910F91FF90EF90D4
:102E4000DF90CF900F900FBE0F901F901895CF93EB
:102E5000DF93CDB7DEB760970FB6F894DEBF0FBE35
:102E6000CDBF789484B5826084BD84B5816084BD13
:102E700085B5826085BD85B5816085BD80916E0018
:102E8000816080936E001092810080918100826049
:102E90008093810080918100816080938100809186
:102EA0008000816080938000809191008260809397
:102EB00091008091910081608093910080919000B9
:102EC0008160809390008091C10084608093C100F4
:102ED0008091C10082608093C1008091C1008160B7
:102EE0008093C1008091C30081608093C300809172
:102EF000C00082608093C0008091C2008160809396
:102F0000C20080917A00846080937A0080917A0078
:102F1000826080937A0080917A00816080937A0049
:102F200080917A00806880937A001092A1021092BA
:102F3000580710929F028091D70081608093D7003C
:102F400080EA8093D80089B5806189BD89B58260A7
:102F500089BD09B400FEFDCF61E070E080E090E043
:102F60000E949B0D8091D8008F7C80618093D80057
:102F70008091E000807F8093E0008091E1008E7E70
:102F80008093E1008DE08093E200559A209AEEEF65
:102F9000FFE7859194918B3F9C4D19F481E08093DC
:102FA000570785E00E94FF0F8DE00E94FF0F0FB7CB
:102FB000F89480915102811127C0E3E2F1E08491FD
:102FC000E6EFF0E09491E82FF0E0EE0FFF1FE653FC
:102FD000FF4FA591B491EC91E92321F461E081E1E7
:102FE0000E94FC0C61E081E10E945F0D8CB5806164
:102FF0008CBD8CB580648CBD61E08FE00E945F0D5C
:1030000061E080E10E945F0D809151028F5F8093AB
:1030100051020FBFE1E3CE2EE1E0DE2EF6018491F6
:10302000F2E0CF0ED11CF60131976491882319F09C
:103030000E945F0DF3CF61E086E00E94FC0C61E02E
:1030400070E080E090E00E949B0D60E086E00E94CE
:10305000FC0C6AE070E080E090E00E949B0D61E073
:1030600086E00E94FC0CEEE1F1E0E491F0E0EE0F6E
:10307000FF1FEC5FFE4F85919491909357028093D0
:103080005602E1EFF0E0E491E0935502E6E1F1E071
:10309000E491F0E0EE0FFF1FEC5FFE4F85919491FD
:1030A0009093540280935302E9EEF0E0E491E093B0
:1030B00052028CB58C7F8CBD8DB581608DBDE09149
:1030C0005602F0915702908180915502982B90837F
:1030D000A0915302B09154022C919091520290957C
:1030E00092239C939081809589238083E8EDF0E082
:1030F0008DE08E0F94919EBD00000DB407FEFDCFB4
:103100009EB531968E13F6CFE0915302F0915402A2
:10311000908180915202892B8083E0915602F09138
:1031200057029081809155028095892380838091F8
:103130006400816080936400809164008260809369
:1031400064008091640080688093640080916400D2
:103150008064809364008091650081608093650045
:1031600082E48093E8060E94111261E085E00E94EB
:103170005F0D61E08DE00E945F0D81E08093480269
:1031800035E1432E512C40E2C42ED12C59E2852E3C
:10319000912C80E5A82E81E0B82E9FE0292E312CBD
:1031A0002BE3622E712C0E9411120E94D50D2091EA
:1031B000090130910A0140910B0150910C016217F5
:1031C00073078407950708F477C0DA01C9018851AD
:1031D0009C4FAF4FBF4F8093090190930A01A0937A
:1031E0000B01B0930C0180917002882309F442C056
:1031F00080915F02909160020197909360028093AA
:103200005F0297FF37C08091610290916202009740
:1032100051F07092600260925F0201979093620297
:103220008093610227C080916302909164020097AD
:1032300071F07092600260925F027092620260921E
:1032400061020197909364028093630213C010920D
:10325000600210925F02B0924E02A0924D02B092B4
:103260004C02A0924B020E940D0F81E080934F020E
:10327000109270020E942B0E83FF15C00E942B0E2D
:1032800082FF11C080910801882369F080916F024C
:10329000811109C080916E02811105C03092DB0658
:1032A0002092DA06A9C280916C0290916D0201967B
:1032B00090936D0280936C020E94D50D2091F106CF
:1032C000222391F02091E906362F321B3093F2062B
:1032D0002091E4063091E5062F5F3F4F3093E506DD
:1032E0002093E4061092F1062091ED063091EE064F
:1032F0004091EF065091F006621773078407950717
:1033000078F4261B223008F477C283B7817F83BF0D
:1033100083B7816083BF889583B78E7F83BF6CC27C
:10332000E091E8069B01AC012E0F311D411D511D9E
:103330002093ED063093EE064093EF065093F0068F
:103340006093E9067093EA068093EB069093EC068F
:1033500081E08093F1068091DA069091DB06009778
:1033600029F43092DB062092DA0605C0019790938B
:10337000DB068093DA0680916C0290916D02CC9707
:1033800069F410926D0210926C0280916602909125
:10339000670201969093670280936602209166020D
:1033A0003091670280916C0290916D022C3331054F
:1033B00081F4009771F410926702109266022091D6
:1033C0000401309105012F5F3F4F30930501209399
:1033D00004012091490230914A0240910401509128
:1033E00005014217530709F040C040916602509111
:1033F0006702452BD1F5009781F4409100014111FE
:103400000CC04091DA065091DB064F30510529F48B
:10341000109205011092040125C0009791F440918B
:103420000001442371F040910201442351F0409186
:10343000DA065091DB064F30510519F41092020163
:1034400014C0009791F440910001442371F0409121
:10345000020141110AC04091DA065091DB064F305B
:10346000510519F441E0409302014091040150914B
:1034700005012417350794F4209166023091670204
:10348000232B61F4009751F420910001222331F0A5
:1034900041E050E050930501409304012091040164
:1034A000309105012C30310534F04091000141117B
:1034B00002C01092020140916A0250916B024817BB
:1034C000590749F54091680250916902809166025E
:1034D0009091670248175907F1F480910601909185
:1034E000070182179307B9F49091030180910201BB
:1034F000981311C080916502882369F0B0924E0242
:10350000A0924D02B0924C02A0924B020E940D0F6D
:1035100081E080934F020E942B0E85FF75C10E94AF
:103520002B0E86FF71C10E942B0E83FD6DC10E9480
:103530002B0E82FD69C10E942B0E87FD65C10E9482
:103540002B0E84FD61C10E9411120E94261210925E
:1035500008010E942B0E85FF2DC06EE471E0CE01A4
:1035600001960E946314CE0101960E94AE07082FB7
:10357000882309F465C100916E0281E0082760C1CB
:1035800010924F020E94D50D2091590230915A029B
:1035900040915B0250915C02E09101016217730758
:1035A0008407950708F47FC1E1117DC1809158021D
:1035B00081115DC10E943408882349F081E0809325
:1035C00058028093010141E061E00E94480E0E9490
:1035D0002B0E86FF2DC063E571E0CE0101960E949F
:1035E0006314CE0101960E94AE07082F882309F4C8
:1035F00075C100916F0281E0082770C110924F02DF
:103600000E94D50D2091590230915A0240915B02DF
:1036100050915C02E09101016217730784079507DE
:1036200008F48FC1E1118DC18091580281116DC1E3
:103630000E943408882349F081E0809358028093E7
:10364000010141E061E00E94480E80910801882359
:1036500009F4D2C00E942B0E84FF2FC069E571E0EF
:10366000CE0101960E946314CE0101960E94AE071E
:10367000082F882321F000916E0281E00827CE01F7
:1036800001960E9447130023C1F00E94D50D20919E
:10369000590230915A0240915B0250915C02E091D4
:1036A0000101621773078407950708F47CC1E111D3
:1036B0007AC10091580201115FC10E943408882329
:1036C00051F081E0809358028093010141E061E074
:1036D0000E94480E02C0111109C010916F02111111
:1036E000D8C17CC181E080936F02102F0E9411121B
:1036F00067EB71E0CE0107960E946314809165022A
:10370000882309F4C8C16EE571E0CE0107960E94D6
:10371000301380910001882309F4C0C16EE971E083
:1037200086EB96E00E9430131092F4061092F30696
:103730001092F6061092F50666EB76E0CE01019641
:103740000E94491441E150E066EA71E0CE01019621
:103750000E948612882309F4A4C1BE01695F7F4FCD
:10376000CE0101960E94FC120E943812CE010196F1
:103770000E944713D092F406C092F3069092F60688
:103780008092F50640910601509107016091680210
:103790007091690200E020E080916A0290916B02D2
:1037A0000E945D09FC0190935E0280935D0260813E
:1037B000718170936B0260936A02428153815093CE
:1037C0006902409368022481358130930701209378
:1037D0000601E12CCE0101960E945008CE0101960F
:1037E0000E943812CE0101960E944713CE0107961F
:1037F0000E9447130E94261220E030E0232B09F498
:10380000D2CC0E940000C5CC0E942B0E87FFA1CE17
:103810000E942B0E84FF9DCE0E942B0E83FD99CE1D
:103820000E942B0E82FD95CE0E942B0E85FD91CE1F
:103830000E942B0E86FD8DCE81E08093080189CEFB
:10384000CE0101960E944713002309F4B3CE809164
:103850004F02882309F496CE00E0809150020817A9
:1038600008F08ECE802F0E94DC0E0F5FF6CF1092F4
:1038700058021092590210925A0210925B02109252
:103880005C0241E060E081E00E94480E80916502A8
:10389000882319F0109265029ACE81E08093650228
:1038A00010926F0294CEEE2309F484CE0E94D50DBF
:1038B000DC01CB0184529A4FAF4FBF4F8093590226
:1038C00090935A02A0935B02B0935C0210920101A4
:1038D00040E061E081E00E94480E6CCECE0101968E
:1038E0000E944713002309F4A3CE80914F0288233E
:1038F00009F486CE00E080915002081708F07ECED1
:10390000802F0E94DC0E0F5FF6CF109258021092AB
:10391000590210925A0210925B0210925C0241E02E
:1039200060E081E00E94480E80917002882319F0C7
:10393000109270028ACE81E08093700210926E0223
:1039400084CEEE2309F474CE0E94D50DDC01CB01A8
:1039500084529A4FAF4FBF4F8093590290935A02AF
:10396000A0935B02B0935C021092010140E060E022
:1039700081E00E94480E5CCE1092580210925902CB
:1039800010925A0210925B0210925C0241E060E0D9
:1039900081E00E94480E80916F02882309F4A2CE34
:1039A00010926F029ACEEE2309F487CE0E94D50DB5
:1039B000DC01CB0184529A4FAF4FBF4F8093590225
:1039C00090935A02A0935B02B0935C0210920101A3
:1039D00041E061E080E00E94480E6FCE0E942B0E15
:1039E00087FF42C068EB71E0CE0101960E9463142C
:1039F000CE0101960E94AE07082FCE0101960E94CB
:103A00004713002389F10E94D50D2091590230916E
:103A10005A0240915B0250915C02E09101016217F1
:103A200073078407950738F0E11105C0009158022B
:103A300001113CC019C0EE23B9F00E94D50DDC0184
:103A4000CB0184529A4FAF4FBF4F8093590290934E
:103A50005A02A0935B02B0935C021092010141E014
:103A600060E080E00E94480E0E943408882351F0F4
:103A700081E0809358028093010141E061E00E945F
:103A8000480E02C0F11021C1F0906E02F1101CC16D
:103A900028C010E02BCE6EE771E037CE62EA71E00D
:103AA0003FCECE0101960E94B41257CE109258021A
:103AB0001092590210925A0210925B0210925C020C
:103AC00041E060E081E00E94480E80916E02882310
:103AD00019F010926E02D8CF81E080936E02F02E22
:103AE000F4C080917002882391F11092F406109234
:103AF000F3065092F6064092F5068CEF91E00E9494
:103B00004112D092F406C092F3064FE150E0509378
:103B1000F6064093F50620916302309164024091CD
:103B200061025091620260915F0270916002EE2426
:103B3000E39400E0CE0101960E945008CE01019668
:103B40000E943812CE0101960E9447130CC01092B9
:103B5000F4061092F3065092F6064092F5068FE0B6
:103B600092E00E944112809165021092F406109238
:103B7000F3069092F6068092F506882349F188E6CE
:103B800091E00E944112D092F406C092F30683E3C2
:103B900090E09093F6068093F5062091060130910F
:103BA0000701409168025091690260916A02709128
:103BB0006B02E12C00E0CE0101960E945008CE017C
:103BC00001960E943812CE0101960E94471304C04C
:103BD00081E292E00E94411240910401509105015E
:103BE000609166027091670200E021E080916C02B2
:103BF00090916D020E945D09FC0190935E0280939A
:103C00005D026081718170936D0260936C024281EC
:103C1000538150936702409366022481358130932B
:103C2000050120930401D092F406C092F306E9E066
:103C3000F0E0F093F606E093F506E12C01E0CE010A
:103C400001960E9450088091D4069091D506009765
:103C5000C9F069817A816115710591F04091D606AC
:103C60005091D7062D813E814217530748F00E949C
:103C7000C6218D819E819093D9068093D80618C065
:103C80000E944D2089819A819093D5068093D40615
:103C90008B819C819093D7068093D6068D819E81DF
:103CA0009093D9068093D8061A8219821C821B82AF
:103CB0001E821D82CE0101960E94471384ED96E07C
:103CC0000E94381210E096CDF12C0E94111267EB81
:103CD00071E0CE0107960E946314809170028823E0
:103CE00019F06BEB71E002C065ED71E0CE01079653
:103CF0000E9430131092F4061092F3061092F6060A
:103D00001092F5066AEE71E0CE0101960E946314EE
:103D1000BE01695F7F4FCE0101960E94FC120E9496
:103D20003812CE0101960E944713809170028111D2
:103D300027C04091630250916402609161027091CA
:103D4000620201E020E080915F02909160020E9497
:103D50005D09FC0190935E0280935D0280819181F8
:103D60009093600280935F028281938190936202BC
:103D700080936102848195819093640280936302B1
:103D8000D092F406C092F3069092F6068092F50661
:103D9000209163023091640240916102509162026D
:103DA00060915F0270916002EE24E39400E012CD16
:103DB0000F931F93CF93DF938C018AE090E00E94D2
:103DC00002229FEF980F9E3F58F522E330E0D80182
:103DD00057963C932E93569728E330E059963C93A0
:103DE0002E935897CBE0D0E0D801ED91FC91019053
:103DF000F081E02D682FC8010995CE010E940222B2
:103E00002196C131D10581F70E9426126CED75E033
:103E100080E090E0DF91CF911F910F910C949B0D6A
:103E2000DF91CF911F910F91089504970C94D81EA4
:103E300084EA96E00E9447138AEA96E00E944713BC
:103E400080EB96E00E94471386EB96E00E944713B2
:103E50008CEB96E00E94471382EC96E00E94471399
:103E600088EC96E00E9447138EEC96E00E94471380
:103E700084ED96E00C944713E7E0F7E0138212829A
:103E800088EE93E0A0E0B0E084839583A683B783B7
:103E900089E291E0918380838FEF9FEF95878487FC
:103EA000EDEDF6E0138212821186128680E183879F
:103EB00010861782108A118A128A138A148A89E35B
:103EC00091E09183808383E491E095838483178AD2
:103ED000168A118E108E81E0828F138E848F158E3C
:103EE00086E69BE09093A3068093A2068FE090E085
:103EF0009093DB068093DA0667EB71E084ED96E041
:103F00000E94631465E472E08EEC96E00E946314F4
:103F100069E372E088EC96E00E94631469E372E062
:103F200082EC96E00E9463146BE372E08CEB96E007
:103F30000E94631467EB71E086EB96E00E946314C5
:103F40006DE372E080EB96E00E94631467EB71E032
:103F50008AEA96E00E94631467EB71E084EA96E0D7
:103F60000C946314EE0FFF1F0590F491E02D09945B
:103F7000CF93DF938230910510F482E090E0E091DE
:103F80006007F091610720E030E0C0E0D0E03097BA
:103F900011F14081518148175907C0F0481759075E
:103FA00061F482819381209719F09B838A832BC0CF
:103FB000909361078093600726C02115310519F0A1
:103FC0004217530718F49A01BE01DF01EF01028086
:103FD000F381E02DDCCF2115310509F1281B390BC8
:103FE0002430310590F412968D919C9113976115B0
:103FF000710521F0FB019383828304C090936107D4
:1040000080936007FD01329644C0FD01E20FF31F6B
:1040100081939193225031092D933C933AC0209182
:104020005E0730915F07232B41F420911B013091F3
:104030001C0130935F0720935E0720911901309196
:104040001A012115310541F42DB73EB740911D01EC
:1040500050911E01241B350BE0915E07F0915F0724
:10406000E217F307A0F42E1B3F0B2817390778F04F
:10407000AC014E5F5F4F2417350748F04E0F5F1FAE
:1040800050935F0740935E078193919302C0E0E0F5
:10409000F0E0CF01DF91CF9108950F931F93CF935D
:1040A000DF93009709F48CC0FC01329713821282CF
:1040B00000916007109161070115110581F42081BD
:1040C0003181820F931F20915E0730915F0728177F
:1040D000390779F5F0935F07E0935E0771C0D80167
:1040E00040E050E0AE17BF0750F412962D913C917E
:1040F0001397AD012115310509F1D901F3CF9D01C8
:10410000DA013383228360817181860F971F8217C2
:10411000930769F4EC0128813981260F371F2E5F40
:104120003F4F318320838A819B8193838283452BF8
:1041300029F4F0936107E093600742C01396FC9363
:10414000EE931297ED01499159919E01240F351F6D
:10415000E217F30771F480819181840F951F029615
:1041600011969C938E938281938113969C938E9348
:104170001297E0E0F0E0D80112968D919C91139790
:10418000009719F0F8018C01F6CF8D919C91980160
:104190002E5F3F4F820F931F20915E0730915F0784
:1041A0002817390769F4309729F4109261071092A3
:1041B000600702C01382128210935F0700935E07AC
:1041C000DF91CF911F910F910895A0E0B0E0EBEE49
:1041D000F0E20C942D22EC01009721F4CB010E9417
:1041E000B81FB8C0FC01E60FF71F9C01225031092F
:1041F000E217F30708F4ACC0D9010D911C91119797
:1042000006171707B0F00530110508F49FC0C80164
:1042100004978617970708F499C002501109061BE6
:10422000170B019311936D937C93CF010E944D2046
:104230008DC05B01A01AB10A4C01800E911EA091A5
:104240006007B091610740E050E0E12CF12C10973D
:1042500009F44AC0A815B905D1F56D907C90119765
:10426000630182E0C80ED11CCA14DB0480F1A301F3
:104270004A195B096A0182E0C80ED11C1296BC90F3
:1042800012971396AC91B5E0CB16D10440F0B282F0
:10429000A38351834083D9016D937C930AC00E5F41
:1042A0001F4FC301800F911FF90191838083EB2D74
:1042B000FA2FE114F10431F0D7011396FC93EE9339
:1042C000129744C0F0936107E09360073FC08D915F
:1042D0009C9111974817590708F4AC017D0112967B
:1042E0000D90BC91A02DB3CF80915E0790915F0798
:1042F00088159905E1F446175707C8F4809119010C
:1043000090911A01009741F48DB79EB740911D011D
:1043100050911E01841B950BE817F907C8F4F09320
:104320005F07E0935E07F901718360830FC0CB01E3
:104330000E94B81F7C01009759F0A801BE010E949D
:10434000B421CE010E944D20C70104C0CE0102C09D
:1043500080E090E0CDB7DEB7EEE00C94492281E03A
:1043600090E0F8940C949122FB01DC0102C00190D2
:104370000D9241505040D8F70895FB01DC018D911A
:10438000019080190110D9F3990B0895FB01DC010C
:1043900001900D920020E1F70895BB274A3031F4D7
:1043A000992322F4BDE2909581959F4F0C94D921D9
:1043B000BB27FB015527AA27880F991FAA1FA417FF
:1043C00010F0A41B83955051B9F7A05DAA3308F0F3
:1043D000A95DA193009779F7B111B1931192CB0127
:1043E0000C94F221DC01FC01672F71917723E1F736
:1043F000329704C07C916D9370836291AE17BF07B2
:10440000C8F30895F999FECF92BD81BDF89A992716
:1044100080B50895052E97FB1EF400940E9421227A
:1044200057FD07D00E94602207FC03D04EF40C9485
:10443000212250954095309521953F4F4F4F5F4F2A
:10444000089590958095709561957F4F8F4F9F4F00
:1044500008952F923F924F925F926F927F928F9228
:104460009F92AF92BF92CF92DF92EF92FF920F9303
:104470001F93CF93DF93CDB7DEB7CA1BDB0B0FB60D
:10448000F894DEBF0FBECDBF09942A8839884888CA
:104490005F846E847D848C849B84AA84B984C88460
:1044A000DF80EE80FD800C811B81AA81B981CE0F57
:1044B000D11D0FB6F894DEBF0FBECDBFED0108953C
:1044C000A1E21A2EAA1BBB1BFD010DC0AA1FBB1F18
:1044D000EE1FFF1FA217B307E407F50720F0A21B8A
:1044E000B30BE40BF50B661F771F881F991F1A94F7
:1044F00069F760957095809590959B01AC01BD0121
:10450000CF010895A29FB001B39FC001A39F700D7A
:10451000811D1124911DB29F700D811D1124911DCB
:10452000089517E0C3E8D7E004C0FE010E94B21F5F
:0C4530002196C438D107C9F7F894FFCFDA
:10453C00010101010C000C0001E803000000E10086
:10454C000000000000FFFFFFFF0000620780000179
:10455C00000000030100000000DF105C114211009C
:10456C00111E11F51000000000690BEC13D81EFC95
:10457C00FF0000151F0F0000C180810000004C459A
:10458C00465400524947485400444F574E00416C22
:10459C0061726D204F4E0A0D486F6C64204C45467D
:1045AC005420746F207475726E204F464600416C17
:1045BC0061726D204F46460A0D486F6C64204C4565
:1045CC00465420746F207475726E204F4E00313239
:1045DC006800323468002020414C41524D20534534
:1045EC005454494E470A0D0055500020486F6C64D6
:1045FC0020524947485420746F2053746F702054D4
:10460C00696D65720020486F6C64205249474854AC
:10461C0020746F205374617274002054494D4552BC
:10462C002053455454494E47530A0D00486F6C644F
:10463C0020524947485420746F2073746F7000489F
:10464C006F6C6420555020666F722054696D6572D2
:10465C0000486F6C6420444F574E20666F722041A7
:10466C006C61726D00410042003000200020414D11
:08467C000020504D003A00003F
:00000001FF
