:100000000C94BA090C94E2090C94E2090C94E209EC
:100010000C94E2090C94E2090C94E2090C94E209B4
:100020000C94E2090C94E2090C94A91E0C941B1F79
:100030000C94E2090C94E2090C94E2090C94E20994
:100040000C94E2090C942F170C94E2090C94E20929
:100050000C94E2090C94E2090C94E2090C948D15BD
:100060000C94E2090C94E2090C94E2090C94E20964
:100070000C94E2090C94E2090C94E2090C94E20954
:100080000C946B180C94E2090C94E2090C94E209AC
:100090000C94E2090C94E2090C94E2090C94E20934
:1000A0000C94E2090C94E2090C94E209029A903E45
:1000B00000A6904000A6904200A6904000A6904363
:1000C00000A6904200A6904000A6903E00A6904553
:1000D00000A6904300A6904200A6904000A6913250
:1000E000904200A69134903E00A69136904500A61D
:1000F000913400A69047913700A6913600A690490A
:100100009134003790470037904900379132904A38
:1001100000A6913990490053904A00539137904975
:1001200000A6913690470053904500539134007DCE
:100130008000299049913600A6904A913200A690FD
:100140004C913900A6904900A6912D904E00A690A2
:100150004A00A69139904900A69047008A81001B69
:100160009139904C00A6904900A6912D904A00A686
:10017000904700A69139904500A69044008A8100DE
:100180001B9139904C00A6904900A6912D904E00ED
:10019000A6904A00A69139904900A69047008A810E
:1001A000001B9139904C00A6904900A6912D904AD1
:1001B00000A6904700A69139904500A69044008A79
:1001C00081001B9139904900A6904700A6913B9071
:1001D0004A00A6904900A6913D904700A690450090
:1001E000A6913E904E00A6913D00A69044914000FD
:1001F000A6913E00A69045913D00A6913B00A69198
:100200003D001B80001B9047003790450037913E12
:1002100090440037904500379047001B80001B90AA
:10022000479140014D913400A6904500A691399028
:100230004500A6913400A6913600A6913800A691FB
:10024000398000A6913B00A6913D00A6913B00A6F7
:10025000904C913E00A6913D00A69051913B00A686
:10026000913900A6914000A6904700A6913490498C
:1002700000A6904B00A6904C8100A6904E00A69040
:100280004F00A6904E00A6913B905100A6904F00C3
:10029000A69140904E00A6904C00A6905300A691C7
:1002A0003600A69047913800A6913A00A6913B806F
:1002B00000A6913D00A6913E00A6913D00A6904269
:1002C000914000A6913E00A69047913D00A6913B2B
:1002D00000A6914200A6904600A69136904700A63F
:1002E000904900A69140904A00A6904C00A6913EED
:1002F000904E00A6904C00A69147904F00A69146C4
:10030000904E00A69147904C00A6904A00A6913DC1
:10031000904C00A6904A00A69146904E00A69144AB
:10032000904C00A69146904A00A6904900A691479D
:10033000904A00A69145904900A69143904C00A692
:100340009142904A00A69140904900A6913E904764
:1003500000A69140904900A6913E00A69046914289
:100360000053904400539140904600A6913E904720
:1003700000A6913D00A6913E00A690499140008ABA
:1003800080001B904991420053904A0053904900CD
:10039000A6913600A6904700A6913B00A690420089
:1003A000A69136904400A6904600A6913290470050
:1003B000A6904900A6912F904A00A6904900A690C9
:1003C0004C00A6904A00A690498100A6904700A63E
:1003D000904F00A6912F00A6913100A6913300A660
:1003E000913400A6913600A6913700A6913600A65A
:1003F000913900A6913700A6913600A6913400A647
:100400009139008A80001B904000A6904200A6907F
:100410004400A6904500A6904700A6904900A690EB
:100420004700A6904A00A6904900A6904700A690D3
:100430004500A6904E008A81001B912D00A6912FA9
:1004400000A6913100A6913200A6913400A6913603
:1004500000A6913400A6913700A6913600A69134EB
:1004600000A6913200A69138008A80001B904700B8
:10047000A6904C00A69134904A00A691369049006F
:10048000A69138904700A69139904900A6913890DE
:100490004700A69136904A00A69134904900A69153
:1004A00032904700A69136904500A69134904400C2
:1004B00053904500539132904400A69131904000F2
:1004C000A6912F00A69045913100A69047912D004E
:1004D000A69049913900A6904700A69136904A000F
:1004E000A6904900A69131904700A6904500A6919C
:1004F00032904E00A6913100A6913400A69044910E
:100500003200A69045913100A69044912F00A6900C
:1005100045913100A6904A913200A690479134014E
:100520004D912800A69045008A80001B9045912D92
:1005300000A6913100A6913200A69049913400A600
:10054000904A913600A6904C913700A6904291397E
:1005500000A6913700A69043913B00A6913900A6D2
:100560009047913700539045005391369043005384
:10057000904500539137904700A6913600A6904AC7
:100580009139005390490053913790470053904957
:1005900000539136904A00A6913400A6913600A6E9
:1005A0009049913400A6904C913700A6904A91361C
:1005B00000A69049913400A6904A913200A6904C32
:1005C000913900A6904A00A6912D904900A6904727
:1005D00000A690458100A6904300A6904200A690F8
:1005E0004000A6904300A6904200A6904000A6902E
:1005F0003E00A6904500A6904300A6904200A6901B
:100600004000A69132904200A69134903E00A691FF
:1006100036904500A6913400A69047913700A691E8
:100620003600A69049913400379047003790490032
:10063000379132904A00A6913990490053904A0070
:10064000539137904900A69136904700539045004A
:10065000539134007D800029904A913600A6913252
:10066000008A80001B904A913900A6913600A6901E
:100670003E913B00A6913700A6904A913600A69184
:1006800034008A80001B904A913900A6913600A65A
:10069000903E913700A6913400A6904A913200A670
:1006A0009131008A80001B904A913900A691360052
:1006B000A6903E913B00A6913700A6904A91360045
:1006C000A69134008A80001B904A913900A6913689
:1006D00000A6903E913700A6913400A6904A913230
:1006E00000A6904C913100A6904E913200A6904CFD
:1006F00000A69134904F00A6904E00A69136904CE3
:1007000000A6904A00A69137905300A6913600A605
:100710009049913900A6913700A6904A913600A6DB
:10072000913400A69136001B80001B904C0037903E
:100730004A0037913790490037904A0037904C0073
:100740002980000D904C9139014D912D00A6904AC1
:10075000008A80001B904A912F00A6912D00A69040
:100760003E913000A6912F00A69043912D00A691B6
:100770002B00A6913200A6903900A6903B00A690CF
:100780003D00A6903E00A6904000A69042008A81BF
:10079000001B9131904000A6912F904300A6912D0F
:1007A000904200A6912B904000A6912A903E00A670
:1007B000912B904700A6912A00A6912D00A6903D6E
:1007C000912B00A6903E912A00A6903D912800A66C
:1007D000903E912A00A69043912B00A69040912D27
:1007E00001F4903E008A80001B903E912607D08045
:1007F00081F000B00000A170E150964F26900F1DCF
:10080000070C009669004AE44A00484440008068AA
:1008100010000F99FB8F99BDBBF977D4D4DF1F1A55
:100820001AFE7F5D5DFF805A0000A0A4AA0010BAE6
:100830003400FF5953F3FF9B9B9EFFB9B996FF9578
:1008400095D19FF4940FFC295F91FF1838F8FF921F
:1008500094FFFF95D5F77FD5DDD7F18F81F1F7882C
:10086000C8F779C6467909FD9B090196F80082818F
:100870008280507162007756560076763700A2B7B4
:1008800073010772060078275000733474007751A3
:1008900076007F55F700477110003247720073648D
:1008A000730015A2750061679400009F6060F4F208
:1008B000F6F200000000240027002A002D0030007E
:1008C00000000000250028002B002E003100040845
:1008D0000201104080401020408040800802040146
:1008E00080402010020110801020404020040404A9
:1008F00004040304050202020204030202020206C7
:100900000606060606040402020204040601150196
:10091000260137014A015D01720188019F01B8017A
:10092000D201EE010B022A024B026E029302BA02BE
:10093000E40210033F037003A403DC03170455040F
:100940009704DD0427057505C80520067D06E00629
:100950004907B8072D08A9082D09B9094D0AEA0A5F
:10096000900B400CFA0CC00D910E6F0F5A105311E2
:100970005B1272139A14D41520178018F519801B76
:10098000231DDE1EB420A622B524E4263429A72B7D
:10099000402E0031EA330037453ABC3D68414C45B2
:1009A0006B49C84D68524F57805C0062101112139A
:1009B000151617181A1C1D1F21232527292C2E3127
:1009C00034373A3E4145494E52575C62686E757BFA
:1009D000838B939CA5AFB9C4D0DCE9F7010204086E
:1009E0001020408000000000003E5B4F5B3E3E6BED
:1009F0004F6B3E1C3E7C3E1C183C7E3C181C577DB9
:100A0000571C1C5E7F5E1C00183C1800FFE7C3E704
:100A1000FF0018241800FFE7DBE7FF30483A060E16
:100A20002629792926407F050507407F05253F5A5D
:100A30003CE73C5A7F3E1C1C08081C1C3E7F1422CD
:100A40007F22145F5F005F5F06097F017F00668978
:100A5000956A606060606094A2FFA29408047E04BE
:100A60000810207E201008082A1C08081C2A0808E4
:100A70001E101010100C1E0C1E0C30383E383006A4
:100A80000E3E0E06000000000000005F00000007A0
:100A9000000700147F147F14242A7F2A12231308CE
:100AA000646236495620500008070300001C2241AA
:100AB000000041221C002A1C7F1C2A08083E08084E
:100AC00000807030000808080808000060600020FE
:100AD000100804023E5149453E00427F40007249E1
:100AE0004949462141494D331814127F1027454585
:100AF00045393C4A4949314121110907364949499B
:100B000036464949291E0000140000004034000008
:100B10000008142241141414141400412214080271
:100B2000015909063E415D594E7C1211127C7F49E4
:100B30004949363E414141227F4141413E7F494939
:100B400049417F090909013E414151737F08080865
:100B50007F00417F41002040413F017F0814224136
:100B60007F404040407F021C027F7F0408107F3E90
:100B70004141413E7F090909063E4151215E7F09FD
:100B8000192946264949493203017F01033F404064
:100B9000403F1F2040201F3F4038403F631408144F
:100BA0006303047804036159494D43007F41414187
:100BB0000204081020004141417F04020102044068
:100BC00040404040000307080020545478407F28EC
:100BD0004444383844444428384444287F385454E2
:100BE000541800087E090218A4A49C787F08040405
:100BF0007800447D40002040403D007F10284400A4
:100C000000417F40007C047804787C080404783834
:100C100044444438FC1824241818242418FC7C0864
:100C2000040408485454542404043F44243C4040E1
:100C3000207C1C2040201C3C4030403C4428102894
:100C4000444C9090907C4464544C440008364100DD
:100C50000000770000004136080002010204023C57
:100C60002623263C1EA1A161123A4040207A385426
:100C700054555921555579412154547841215554A1
:100C8000784020545579400C1E52721239555555F2
:100C900059395454545939555454580000457C41DD
:100CA0000002457D420001457C40F0292429F0F0F6
:100CB000282528F07C545545002054547C547C0A47
:100CC000097F4932494949323248484832324A4814
:100CD00048303A4141217A3A42402078009DA0A014
:100CE0007D39444444393D4040403D3C24FF242468
:100CF000487E4943662B2FFC2F2BFF0929F620C085
:100D0000887E090320545479410000447D413048D5
:100D1000484A32384040227A007A0A0A727D0D1918
:100D2000317D2629292F28262929292630484D407A
:100D300020380808080808080808382F10C8ACBA76
:100D40002F102834FA00007B000008142A142222F5
:100D5000142A14089500220095AA005500AAAA5545
:100D6000AA55AA000000FF00101010FF0014141470
:100D7000FF001010FF00FF1010F010F0141414FC0E
:100D8000001414F700FF0000FF00FF1414F404FC2B
:100D9000141417101F10101F101F1414141F00100C
:100DA0001010F0000000001F101010101F10101085
:100DB00010F010000000FF10101010101010101094
:100DC000FF10000000FF140000FF00FF00001F10D4
:100DD000170000FC04F414141710171414F404F48E
:100DE0000000FF00F714141414141414F700F7147F
:100DF0001414171410101F101F141414F4141010CE
:100E0000F010F000001F101F0000001F1400000071
:100E1000FC140000F010F01010FF10FF141414FF69
:100E2000141010101F00000000F010FFFFFFFFFF64
:100E3000F0F0F0F0F0FFFFFF0000000000FFFF0FF8
:100E40000F0F0F0F38444438447C2A2A3E147E0288
:100E5000020606027E027E0263554941633844441D
:100E60003C04407E201E2006027E020299A5E7A5D2
:100E7000991C2A492A1C4C7201724C304A4D4D3043
:100E80003048784830BC625A463D3E494949007E68
:100E90000101017E2A2A2A2A2A44445F44444051FF
:100EA0004A444040444A51400000FF0103E080FFB3
:100EB000000008086B6B083612362436060F090F3F
:100EC00006000018180000001010003040FF01015B
:100ED000001F01011E00191D1712003C3C3C3C0084
:100EE00000000000D5F08D14A1C881CFD9F1AF204A
:100EF00000C060B84CB4B64BB5B54BFF49B78101E3
:100F000001010101010101010101010101010101D1
:100F100001010101010101010101010101010101C1
:100F200001010101010101010101010305DB25DBD3
:100F30002525DB25DB05030101010101010101017B
:100F40000101010101010101010101010101010191
:100F50000101010101010101010101010101010181
:100F600001010181B749FF4BB5B54BB6B44CB86030
:100F7000C0FF16150E15150E35B54EFF4EB5B54E04
:100F8000B5B54E35350E35350E15160D16160E1433
:100F9000140C14140C14140C14140C140C0C0C0459
:100FA00004040404040404040404040605060506F9
:100FB00005050605060506040404040404040404E7
:100FC0000404040C0C0C140C14140C14140C141441
:100FD0000C14140E16160D16150E35350E35354E2D
:100FE000B5B54EB5B54EFF4EB5350E15150E1516E9
:100FF000FFFF00000000000000AD52FF926D6D0287
:1010000001010000000000000000000000000000DE
:1010100000000000000000000000000000000000D0
:1010200000000000000000000000000000000000C0
:1010300000000000000000000000000000000000B0
:1010400000000000000000000000000000000000A0
:101050000000000000000000000000000000000090
:101060000101026D6D92FF52AD0000000000000012
:10107000FFFF000000000000000007FFA45B00006D
:101080000000000000000000000000000000000060
:101090000000000000000000000000000000000050
:1010A0000000000000000000000000000000000040
:1010B0000000000000000000000000000000000030
:1010C0000000000000000000000000000000000020
:1010D0000000000000000000000000000000000010
:1010E000000000005BA4FF070000000000000000FB
:1010F000FFFF0000000000000000E0FF24DB000014
:1011000000000000000000000000000000000000DF
:1011100000000000000000000000000000000000CF
:1011200000000000000000000000000000000000BF
:1011300000000000000000000000000000000000AF
:10114000000000000000000000000000000000009F
:10115000000000000000000000000000000000008F
:1011600000000000DB24FFE00000000000000000A1
:10117000FFFF00000000000000B54AFF49B6B6407E
:10118000808000000000000000000000000000005F
:10119000000000000000000000000000000000004F
:1011A000000000000000000000000000000000003F
:1011B000000000000000000000000000000000002F
:1011C000000000000000000000000000000000001F
:1011D000000000000000000000000000000000000F
:1011E000808040B6B649FF4AB5000000000000000C
:1011F000FFFF68A870A8A870ACAD72FF72ADAD72A9
:10120000ADAD72ACAC70ACAC70A868B0686870285A
:101210002830282830282830282830283028303016
:10122000302020202020202020202060A060A060EE
:10123000A0A060A060A060202020202020202020EE
:1012400020303030283028302828302828302828EE
:10125000302828706868B068A870ACAC70ACAC720C
:10126000ADAD72ADAD72FF72ADAC70A8A870A868DC
:10127000FF03061D322D6DD2ADADD2FF92ED818000
:10128000808080808080808080808080808080805E
:10129000808080808080808080808080808080804E
:1012A0008080808080808080808080C0A0DBA4DB04
:1012B000A4A4DBA4DBA0C0808080808080808080AC
:1012C000808080808080808080808080808080801E
:1012D000808080808080808080808080808080800E
:1012E00080808081ED92FFD2ADADD26D2D321D0692
:1012F00003080B00020202010009040000010202BF
:101300000000052400100105240101010424020647
:1013100005240600010705810310004009040100AF
:10132000020A0000000705020240000007058302D0
:101330004000000403090441726475696E6F204C1B
:101340004C430041726475626F7900120100020023
:101350000000404123368000010102030112010018
:1013600002EF020140412336800001010203010027
:10137000FC2ED12F11241FBECFEFDAE0DEBFCDBF90
:1013800011E0A0E0B1E0E0EFF6E602C005900D92BA
:10139000A23EB107D9F727E0A2EEB1E001C01D924D
:1013A000A032B207E1F719E0C9EBD9E004C02197F8
:1013B000FE010E941D30C83BD107C9F70E947B2166
:1013C0000C946B330C940000CF93DF93EC016EE927
:1013D00071E00E949D128823B1F00E94D71582FD12
:1013E00075C00E94D71587FD71C00E94D71584FD76
:1013F0006DC00E94D71585FD69C00E94D71586FD76
:1014000065C081E064C060EA71E0CE010E949D1277
:10141000882329F00E94D71583FD58C0E2CF67E7E3
:1014200071E0CE010E949D12882349F00E94D715D9
:1014300082FD4CC00E94D71583FD48C0D6CF62E71D
:1014400071E0CE010E949D12882369F00E94D71599
:1014500082FD3CC00E94D71587FD38C00E94D71579
:1014600083FD34C0C6CF6DE671E0CE010E949D12AF
:10147000882389F00E94D71582FD28C00E94D715C5
:1014800087FD24C00E94D71584FD20C00E94D71577
:1014900083FD1CC0B2CF63ED71E0CE010E949D12AE
:1014A0008823A1F00E94D71582FD10C00E94D71595
:1014B00087FD0CC00E94D71584FD08C00E94D71577
:1014C00085FD04C00E94D71583FF9BCF80E0DF918C
:1014D000CF9108950F931F930E94D71583FD4DC0A0
:1014E0000E94D71582FD49C00E94D71587FD45C0CF
:1014F0000E94D71584FD41C00E94D71585FD3DC0CF
:101500000E94D71586FD39C08091F501882389F1A5
:101510000E94811500911002109111022091120277
:1015200030911302601771078207930768F080916A
:101530000601882329F010920F010E94F41519C0AA
:1015400081E08093F60115C00F3F1F4F2F4F3F4F93
:1015500081F40E948115DC01CB01805D9A48AF4F78
:10156000BF4F8093100290931102A0931202B09388
:10157000130281E08093EC010CC08FEF9FEFDC0140
:101580008093100290931102A0931202B093130261
:1015900080E01F910F910895CF92DF92EF92FF921A
:1015A0001F93CF93DF9300D000D000D0CDB7DEB72C
:1015B0000E94D71586FF48C063ED71E0CE01019609
:1015C0000E94941ECE0101960E94E409182FCE01BC
:1015D00001960E948F131123B9F10E94331D80914F
:1015E000ED01882361F010E08091E701181728F4DD
:1015F000812F0E94AA171F5FF7CF1092ED019091E3
:10160000FC018091F40191111AC0811118C00E944F
:101610008115C090E801D090E901E090EA01F090D6
:10162000EB01209103016C157D058E059F05A8F047
:10163000211113C01091EC01111128C005C088239D
:1016400019F081E0809306010E946A0A882321F044
:101650000E94441D80E04FC04EC02223A9F30E9487
:101660008115DC01CB0184529A4FAF4FBF4F80935D
:10167000E8019093E901A093EA01B093EB01109285
:10168000030160E080E00E94A610DECF1092EC0122
:101690001092E8011092E9011092EA011092EB0118
:1016A00061E080E00E94A6108091F601811123C0C4
:1016B0009091FD01992319F01092FD011CC081E069
:1016C0008093FD018091EE019091EF0190931007BE
:1016D00080930F078091F0019091F10190930E0794
:1016E00080930D078091F2019091F30190930C0784
:1016F00080930B07812F26960FB6F894DEBF0FBE9E
:10170000CDBFDF91CF911F91FF90EF90DF90CF90F1
:1017100008954F925F926F927F928F929F92AF92B5
:10172000BF92CF92EF920F93CF93DF9300D000D070
:1017300000D0CDB7DEB75C012B014A0139016A3018
:10174000710518F461EC71E002C06AED71E08EE39E
:1017500092E00E9478138AE08816910418F461ECF4
:1017600071E002C06AED71E088E392E00E947813B4
:101770008AE0681671045CF469ED71E082E392E03E
:101780000E947813EE2089F061EC71E00AC06AEDE6
:1017900071E082E392E00E947813EE2031F06AED6E
:1017A00071E082E392E00E94781380910501882322
:1017B00089F0E1100FC0002351F0809107018823C8
:1017C00019F06EED71E008C069E971E005C0809123
:1017D0000801F5CF6AED71E086E292E00E9478138D
:1017E00062E372E0CE010196C1101CC00E947A1E15
:1017F000B301CE0101960E94BC1264E472E00E9423
:101800000B1368E372E00E940B13B4010E94BC1238
:1018100064E472E00E940B136EE372E00E940B130B
:10182000B20110C00E947A1EB301CE0101960E943F
:10183000BC1264E472E00E940B1368E372E00E9441
:101840000B13B4010E94BC12BC01C5010E947A1E98
:10185000CE0101960E948F13C50126960FB6F8940B
:10186000DEBF0FBECDBFDF91CF910F91EF90CF9034
:10187000BF90AF909F908F907F906F905F904F90B0
:101880000895882359F080910701882319F0109258
:101890000701089581E08093070108958091080170
:1018A000882319F010920801089581E080930801BF
:1018B00008951F93CF93DF9300D0CDB7DEB7182FD5
:1018C0004A8369830E94331D4A818981112341F033
:1018D000642F0F900F90DF91CF911F910C944419BA
:1018E0002091E9063091EA06215031093093EA0649
:1018F0002093E90641110EC0909105019923B9F09A
:101900001216130674F08CE090E09093EA06809330
:10191000E90619C037FF17C01092EA061092E906CF
:1019200012C02B30310579F40E94410C0CC02B30D1
:101930003105D1F337FF07C027E130E03093EA06E5
:101940002093E906F1CF80E090E00F900F90DF91B7
:10195000CF911F9108951F93CF93DF9300D0CDB700
:10196000DEB7162F4A8389830E94331D20910E0211
:1019700030910F0289814A818823B1F02F5F3F4F58
:101980002C333105ACF010920F0210920E0241116F
:1019900025C00E94331D60E0812F0F900F90DF91D2
:1019A000CF911F910C9444192150310937FD05C086
:1019B00030930F0220930E0211C08BE390E09093BE
:1019C0000F0280930E02411109C0612F80E00F9039
:1019D0000F90DF91CF911F910C94590C0F900F90A5
:1019E000DF91CF911F910895EF92FF920F93CF93C4
:1019F0007C01C22F90930D0280930C0270930F0212
:101A000060930E025093EA064093E90601116BC001
:101A10000E94D71586FF36C00E94D71587FF32C0B7
:101A200080910501882371F10E94D71583FD2AC09A
:101A30000E94D71582FD26C00E94D71585FD22C0C1
:101A40000E94D71584FD1EC0109205018091E90601
:101A50009091EA068C30910509F07DC0C11156C005
:101A60008091090190910A010C9709F459C0C111A4
:101A700061C080910801882309F45CC01092EA06D5
:101A80001092E9060E94D71585FF2DC00E94D71538
:101A900084FF29C080910501811125C00E94D715BE
:101AA00083FD21C00E94D71582FD1DC00E94D7155D
:101AB00086FD19C00E94D71587FD15C081E080936F
:101AC00005018091E9069091EA068D3091050CF0B0
:101AD00082C0009709F0A7C08091E9069091EA06BC
:101AE000892B09F4BCC00E94D71583FFEFC00E9468
:101AF000D71587FFEBC00E94D71582FDE7C00E9473
:101B0000331D602F8C2F0E94441952C18091070110
:101B1000882309F4A5CF1092EA061092E9060AC0BC
:101B200080910701882309F4A2CF10920A01109234
:101B300009019DCF80910B0190910C010C9709F048
:101B4000A1CF80910801882309F49CCF10920C0149
:101B500010920B0197CF5091070140910801CC23BF
:101B600041F0511106C00C969093EA068093E90665
:101B700020C02091090130910A012C30310549F033
:101B800051110DC0245F3F4F30930A01209309018A
:101B900006C0552321F010920A0110920901C111CB
:101BA00008C0411106C00C969093EA068093E9069E
:101BB00069CF80910B0190910C018C30910541F01F
:101BC000411160CF0C9690930C0180930B015ACF7A
:101BD0004111BCCF57CF0C97CC23A1F09093EA06CC
:101BE0008093E9061092070180910B0190910C01FE
:101BF0008D3091050CF470CF0C9790930C0180936D
:101C00000B0161C02091090130910A012D3031058D
:101C10000CF455C02C50310930930A01209309016E
:101C2000109207014CC00C9709F456CFCC2351F009
:101C300081E08093070180910B0190910C01892B29
:101C400051F44ACF8091090190910A01892B19F032
:101C500081E08093070181E0809308013DCFCC2390
:101C6000A9F02CE030E03093EA062093E90681E009
:101C70008093070140910B0150910C01452B09F015
:101C800032CF30930C0120930B0116C080910901D3
:101C900090910A01892B49F48CE090E090930A011D
:101CA0008093090181E0809307018CE090E090939C
:101CB000EA068093E90681E08093080114CF9093AF
:101CC000EA068093E9061092080106CF0E94D71514
:101CD00083FF0EC00E94D71584FF0AC00E94D7154B
:101CE00082FD06C0402F6C2F80E00E94590C60C01E
:101CF0000E94D71582FF0EC00E94D71587FF0AC029
:101D00000E94D71583FD06C0402F6C2F81E00E94F2
:101D1000AB0C4EC00E94D71582FF0CC00E94D71595
:101D200084FF08C00E94D71583FD04C0402F6C2F8C
:101D300080E0EDCF0E94D71583FF19C00E94D71510
:101D400082FF15C00E94D71587FF11C00E94331D66
:101D50008FEFE81AF80A8CE3E816F1042CF11092E0
:101D60000D0210920C02011123C040E0CECF0E9460
:101D7000D71583FF1DC00E94D71582FF19C00E948E
:101D8000D71584FF15C00E94331D81E0E81AF108C1
:101D9000F7FE0AC08BE390E090930D0280930C0253
:101DA000011106C040E0C3CFF0920D02E0920C0298
:101DB00080910C0290910D0290930702809306028D
:101DC00080910E0290910F02909309028093080275
:101DD0008091E9069091EA0690930B0280930A02A3
:101DE00086E092E0CF910F91FF90EF900895FC0173
:101DF00080911702811103C08FEF9FEF08959FB765
:101E0000F89482E08093E9002091F20030E012160D
:101E1000130614F421E030E02115310559F028981B
:101E200084E6809316028091F10080838091F20015
:101E3000882319F09FBFC90108958BE68093E800BD
:101E4000F9CFCF93DF931F92CDB7DEB76983DC0163
:101E5000ED91FC910280F381E02D41E050E0BE0164
:101E60006F5F7F4F09950F90DF91CF91089583E0C9
:101E70008093E9008091F200882319F08AE380932F
:101E8000E8000895CF93DF931F92CDB7DEB7FC0132
:101E90008485958597FD05C02FEF3FEF3587248713
:101EA0000BC0CE0101960E94F70E019719F48981AB
:101EB00090E002C08FEF9FEF0F90DF91CF910895D8
:101EC0000F931F93CF93DF931F92CDB7DEB78C0193
:101ED000FC018485958597FF0EC0CE0101960E9476
:101EE000F70E019719F4298130E002C02FEF3FEF80
:101EF000F80135872487F801848595850F90DF9157
:101F0000CF911F910F910895FC018485958597FDD0
:101F10000BC09FB7F89482E08093E9008091F200B3
:101F20009FBF90E0019608959FB7F89482E0809358
:101F3000E9008091F2009FBF90E008958F929F92F8
:101F4000AF92BF92CF92DF92EF92FF920F931F93C7
:101F5000CF93DF935C016B018A0180911B01882381
:101F600009F45EC080911702882309F459C080915A
:101F7000150280FF05C08091E00082608093E00040
:101F8000E8018AEFF82E93E0E92E2FE3822E3AE360
:101F9000932E209709F43DC08FB7F894E092E900A2
:101FA0009091E80095FF06C09091F200282D291B22
:101FB000922F01C090E08FBF91110AC0FA94FF20C8
:101FC00079F161E070E080E090E00E944215E1CF9D
:101FD000292F30E0C217D3070CF49C2F8FB7F89449
:101FE000E092E9002091E80025FF11C0292F30E0A0
:101FF000C21BD30BF601915020F041914093F100A8
:10200000FACFC20ED31E9091E80095FF13C08FBF88
:10201000C0CF5D9884E6809314021016110644F038
:1020200081E090E0F5019383828380E090E005C039
:10203000C80103C09092E800EACFDF91CF911F91D1
:102040000F91FF90EF90DF90CF90BF90AF909F9057
:102050008F9008950E941A32CF93DF93EC0188810C
:102060009981009711F00E94B830198218821D8260
:102070001C821B821A82DF91CF9108950F931F93C8
:10208000CF93DF93EC0188819981009729F02A8111
:102090003B812617370788F48B016F5F7F4F0E94C3
:1020A0005031009761F0998388831B830A832C81C8
:1020B0003D81232B11F4FC01108281E001C080E0FE
:1020C000DF91CF911F910F910895EF92FF920F939F
:1020D0001F93CF93DF93FC01248135816115710536
:1020E00011F480E019C041155105A9F07B01EC0104
:1020F0008A01020F131FB8010E943E10882389F342
:10210000288139818C819D81B701820F931F0E94A4
:1021100031321D830C8381E0DF91CF911F910F91AC
:10212000FF90EF90089580E0E1E5F2E081118FEFFC
:10213000002481938193819381930394D1F7E5E601
:10214000F6E0118E108E178A168A08952E9A88232B
:1021500011F02F9A01C02F98662311F02D9A08953F
:102160002D980895809151028EBDE2E5F2E08191B3
:102170000DB407FEFDCF8EBD86E0E135F807B9F757
:102180000DB407FEFDCF0895EF92FF920F931F93BA
:10219000CF93DF937C018B01040F111DEB0177FFBF
:1021A0000EC0C0E0D0E00BC0C217D3077CF421E022
:1021B000AE01B70189E696E00E94221621969801A9
:1021C000013411058CF320E430E0EECFDF91CF91A4
:1021D0001F910F91FF90EF9008952F923F924F9291
:1021E0005F926F927F928F929F92AF92BF92CF92A7
:1021F000DF92EF92FF920F931F93CF93DF9300D064
:1022000000D0CDB7DEB78C017B01242F30E03C83BA
:102210002B8381E090E05C01A21AB30AC901919579
:10222000819591091C01220C331CA901460F571FEF
:1022300021E0B80189E696E00E942216A7018B8171
:102240009C81481B590B21E0B80189E696E00E9469
:1022500022166B817C81600F711F21E0A70189E646
:1022600096E00E942216B801EB81FC816E1B7F0B69
:1022700021E0A70189E696E00E942216C12CD12C0C
:1022800021E030E03A8329832B813C81C216D306BA
:102290000CF06EC0B7FC0AC08B819C8101979C83B7
:1022A0008B8392E0290E311CA20CB31CEFEFCE1AE7
:1022B000DE0A29813A812E5F3F4F3A832983A20E9D
:1022C000B31E3601600E711E21E08B809C808E0C47
:1022D0009F1CA401B30189E696E00E942216280102
:1022E0004C185D0821E0A401B20189E696E00E9445
:1022F000221621E047018B819C81881A990AA4014A
:10230000B30189E696E00E94221621E0A401B20101
:1023100089E696E00E94221646018E0C9F1C21E061
:10232000A4016B807C80600E711EB30189E696E08B
:102330000E94221621E0A4012801EB81FC814E1AA3
:102340005F0AB20189E696E00E94221647018C18C6
:102350009D0821E0A401B30189E696E00E942216BF
:1023600021E0A401B20189E696E00E9422168CCFFA
:102370000F900F900F900F90DF91CF911F910F91C1
:10238000FF90EF90DF90CF90BF90AF909F908F9095
:102390007F906F905F904F903F902F9008959C0199
:1023A000240F311D1216130674F5803891055CF563
:1023B000FC0197FF02C0E0E0F0E02138310514F0A5
:1023C00020E830E02E1BAB014770552781E001C0AB
:1023D000880F4A95EAF777FF02C0695F7F4F93E065
:1023E000759567959A95E1F77695762F6627779597
:1023F0006795E60FF71FEF5AFD4F215020F09081AF
:10240000982B9193FACF08955F926F927F928F925B
:102410009F92AF92BF92CF92DF92EF92FF920F9373
:102420001F93CF93DF93EC018B017A01A901461B27
:10243000570B57FF03C0519541955109C7018C1B9C
:102440009D0B97FF03C09195819591095524539455
:102450008417950714F0512C0AC09E2D8F2D7901F9
:10246000292F382F9C2F8D2FE801092F182FEC16BC
:10247000FD0654F4902F812F8901292F382F9C2F8E
:102480008D2FE701E92EF82E37016C1A7D0A5901CC
:10249000A01AB10AB7FE03C0B194A194B1086301B8
:1024A00077FE03C08FEFC81AD80AD594C7940217D5
:1024B000130714F08FEF01C081E0882E880F990870
:1024C000EC16FD06B4F021E0552019F0AE01B8017C
:1024D00002C0A801BE0189E696E00E942216CA1831
:1024E000DB08D7FE04C0080D191DC60CD71C2196A9
:1024F000E7CFDF91CF911F910F91FF90EF90DF9089
:10250000CF90BF90AF909F908F907F906F905F9093
:1025100008958091870681110DC082E08093830623
:1025200084E080938406109286061092850681E0EE
:102530008093870683E896E00895FC012481358125
:10254000232B31F421E061157105A1F0FB0108C0D6
:10255000FC01808191816115710531F421E0FC015C
:102560008081882339F005C00E94283221E0892B20
:1025700009F020E0822F0895EF92FF920F931F93AE
:10258000CF93DF93CDB7DEB728970FB6F894DEBFB1
:102590000FBECDBF7C01CB014AE08E010F5F1F4F04
:1025A000B8010E949432F80101900020E9F73197B8
:1025B000AF01401B510BB801C7010E94651081118A
:1025C00003C0C7010E942C10C70128960FB6F894CB
:1025D000DEBF0FBECDBFDF91CF911F910F91FF9056
:1025E000EF900895CF93DF93EC016115710561F0D1
:1025F000FB0101900020E9F73197AF01461B570B13
:102600000E946510811103C0CE010E942C10CE01E2
:10261000DF91CF910895CF93DF93EC01FB014481CB
:102620005581608171810E946510811103C0CE01C6
:102630000E942C10CE01DF91CF9108950F931F932C
:10264000CF93DF938C01EB01FC0180819181009796
:10265000B1F0688179816115710579F0428153810A
:102660002C813D814217530740F00E9431328C810A
:102670009D81F8019583848313C00E94B8308881BE
:102680009981F801918380838A819B8193838283DE
:102690008C819D8195838483198218821B821A8282
:1026A0001D821C82DF91CF911F910F910895EF92AF
:1026B000FF920F931F93CF93DF93EC017B018A016D
:1026C000BA010E943E10811104C0CE010E942C105C
:1026D00007C01D830C83B701888199810E94313224
:1026E000CE01DF91CF911F910F91FF90EF90089550
:1026F000CF93DF93EC016115710559F0FB01019057
:102700000020E9F73197AF01461B570B0E94571382
:1027100002C00E942C10CE01DF91CF910895FC01E0
:10272000808191810C94B8303FB7F894809107076D
:1027300090910807A0910907B0910A0726B5A89BB8
:1027400005C02F3F19F00196A11DB11D3FBFBA2F43
:10275000A92F982F8827820F911DA11DB11DBC01A3
:10276000CD0142E0660F771F881F991F4A95D1F768
:1027700008958EBD00000DB407FEFDCF0895809131
:10278000E20108950895CF92DF92EF92FF921F9396
:10279000CF93DF93E82FF0E0EC59FE4F1081E62F46
:1027A000F0E0603330F4E455F64FE491CE2FD0E002
:1027B00006C0EE0FFF1FE455F74FC591D4916E018F
:1027C000E12CF12C60E074E284EF90E0A701960127
:1027D0000E94D132DA01C9010197A109B10900971C
:1027E00021E0A207B10578F060E970ED83E090E0A8
:1027F000A70196010E94D132DA01C9010197A1090E
:10280000B10923E001C021E01130C9F0133051F5C6
:1028100030919100387F232B209391009093990061
:1028200080939800D0930007C093FF0681E08093C7
:10283000FE068091710082608093710013C0309118
:10284000010731110FC030918100387F232B209375
:102850008100909389008093880080916F0082604E
:1028600080936F00DF91CF911F91FF90EF90DF90E9
:10287000CF9008958F929F92AF92BF92CF92DF92A6
:10288000EF92FF920F931F93CF93DF938C016B0115
:1028900098E0E92EF12CE42FE695E695E695F0E038
:1028A000CA0187709927892BC1F5D8011696CD9159
:1028B000DC911797C6019927BE010E94F52FD80118
:1028C00050964D915C915197992714966D917C91FA
:1028D0001597452B91F4EC9FA001ED9F500DFC9FA7
:1028E000500D1124840F951FFB01E80FF91FC22F13
:1028F000C09520812C23208332C0EC9FA001ED9F46
:10290000500DFC9F500D1124840F951FFB01E80F03
:10291000F91FC081C22BC08322C0C22FD0E04770F4
:10292000A42EB12C4F0183E0880C991C8A95E1F705
:102930009E0101C0220F4A95EAF7A401B601C80121
:102940000E943A14C7018A199B0902C0D595C79500
:102950008A95E2F72C2FA401485F5F4F9CCFDF914F
:10296000CF911F910F91FF90EF90DF90CF90BF908C
:10297000AF909F908F9008958F929F92AF92BF9249
:10298000CF92DF92EF92FF921F93CF93DF93EC01F0
:102990006A3061F48C859D859B878A872B898E851B
:1029A0009F85820F911D9F878E875EC0AA84BB84FE
:1029B000693031F489E0A80EB11CBB86AA8654C0E8
:1029C000EE84FF849DEFA9169FEFB90654F48A891F
:1029D00090E004962A853B85820F931F9B878A8708
:1029E00043C08E819F81A816B9068CF78DEFE8163B
:1029F0008FEFF80664F388859985E816F9063CF7A9
:102A0000603208F46FE780EE860F9FE9960F9A31E7
:102A100018F49FEFE91AF90A8C3011F08B3119F490
:102A20009FEFE91AF90A869594E0899F60011124C5
:102A3000812C912C162F1170F401EC0DFD1DEE5020
:102A4000F84F2491111122952F70B4016A0D7B1D4E
:102A5000A701CE010E943A148FEF881A980A94E0D9
:102A60008916910449F7B3CF81E090E0DF91CF91CF
:102A70001F91FF90EF90DF90CF90BF90AF909F900D
:102A80008F9008958F929F92AF92BF92CF92DF92D4
:102A9000EF92FF926B017C010E9494134B015C0149
:102AA000C114D104E104F104F1F00E949413DC019B
:102AB000CB0188199909AA09BB09883E9340A10551
:102AC000B10570F321E0C21AD108E108F10888EEDF
:102AD000880E83E0981EA11CB11CC114D104E1042E
:102AE000F10419F7DDCFFF90EF90DF90CF90BF900A
:102AF000AF909F908F900895BC0180E090E00C947F
:102B000042152FB7F89460910307709104078091E4
:102B10000507909106072FBF08951F920F920FB6D9
:102B20000F9211242F933F938F939F93AF93BF9353
:102B30008091030790910407A0910507B0910607C3
:102B40003091020723E0230F2D3720F40196A11DB9
:102B5000B11D05C026E8230F0296A11DB11D2093CB
:102B600002078093030790930407A0930507B0938F
:102B700006078091070790910807A0910907B09177
:102B80000A070196A11DB11D8093070790930807BE
:102B9000A0930907B0930A07BF91AF919F918F91BE
:102BA0003F912F910F900FBE0F901F9018958FB1EE
:102BB0002CB193B130E02095309520743327A901D2
:102BC00023E0559547952A95E1F7292F30E0209588
:102BD0003095207133273595279535952795242BEA
:102BE0008095807F822B08955C988EEA0E94B913AD
:102BF0008DE80E94B91380E10E94B9138AEF90E03A
:102C00000E947C155F9808951F93CF93DF9385E012
:102C100090E00E947C155F9A85E090E00E947C1510
:102C20005E985C98C4EEDEE01C2F135FFE01849179
:102C30000E94B91321961C13F9CF5C9ADF91CF91B2
:102C40001F91089560387105D0F440345105B8F4EF
:102C5000ECEDF9E080E1849FD001A0781124A60F6B
:102C60004770E40FF11D8491AF5ABD4F222319F034
:102C70006C91862B03C080956C9186238C9308956C
:102C80002F923F924F925F926F927F928F929F927C
:102C9000AF92BF92CF92DF92EF92FF920F931F936A
:102CA000CF93DF93CDB7DEB729970FB6F894DEBF89
:102CB0000FBECDBFFC016A3069F4248D808D918DEB
:102CC00038E0239F800D911D1124918F808F178AEA
:102CD000168AAAC06D3009F4A7C099878887F48C3A
:102CE000338C228C608C718C068917890038110511
:102CF000C4F0A885B9855C962C915C97422F50E072
:102D000056968D919C915797B6E02B9F800D911D03
:102D10001124E885F985978B868B258D21116EC04E
:102D200083C0F0E46F16710424F7C80125E0F29E19
:102D3000800D911D112418161906DCF68F2D90E0D8
:102D40009C838B83C301A8E0FA9E800D911D112402
:102D50001816190674F6B5E06B9FB0011124FB013B
:102D6000EC51F64FFA83E98330E088859985049623
:102D70009E838D83E981FA81E490353009F4E12C5A
:102D8000430188E0482EE0FC02C0532C01C0522CC5
:102D900051100BC0321009C0E6944A948B819C817B
:102DA000880E991E4110EFCF1BC068018C2D801B2F
:102DB0008F1590F754018A2D88198F1568F4252DE9
:102DC000A501B6018D819E813F830E9422169FEF4F
:102DD000A91AB90A3F81EFCFAFEFCA1ADA0AE6CFD4
:102DE0003F5FEB81FC810E0F1F1F89819A81019645
:102DF0009A838983363009F0BDCF7BCF6AEF6403B5
:102E00009001659F300D112420583F4F2817390736
:102E10005CF4A885B985ED91FC9111970190F08142
:102E2000E02D6AE0CD01099581E090E029960FB68A
:102E3000F894DEBF0FBECDBFDF91CF911F910F91F0
:102E4000FF90EF90DF90CF90BF90AF909F908F90CA
:102E50007F906F905F904F903F902F9008951F92BA
:102E60000F920FB60F9211242F933F938F939F933E
:102E7000AF93BF93EF93FF9380910107882309F4E9
:102E80004FC08091F1069091F206A091F306B091A7
:102E9000F406892B8A2B8B2B51F18091F006E0915F
:102EA000EE06F091EF069081892780838091F106EC
:102EB0009091F206A091F306B091F4061816190647
:102EC0001A061B06D4F58091F1069091F206A091A6
:102ED000F306B091F4060197A109B1098093F106B8
:102EE0009093F206A093F306B093F40626C01092D6
:102EF000FD061092010780916F008D7F80936F0017
:102F00009091F006E091EE06F091EF068081282F77
:102F100030E0892F90E080959095822393230CC018
:102F20008091FC06811109C08091F006E091EE06C7
:102F3000F091EF06908189278083FF91EF91BF91F7
:102F4000AF919F918F913F912F910F900FBE0F9056
:102F50001F901895E82FF0E0EC59FE4F80818130EA
:102F600019F0833089F0089580910107811122C002
:102F700080916F008D7F80936F009091F006E091BB
:102F8000EE06F091EF060CC01092FE068091FD0651
:102F9000811110C09091FB06E091F906F091FA06BC
:102FA0008081282F30E0892F90E0809590958223B2
:102FB000932380830895CF93DF93D1E0E091E301E1
:102FC000F091E4019F012F5F3F4F3093E401209384
:102FD000E3018491982F907FC82FCF70903821F40F
:102FE0008C2F0E94AA17EACF9039F9F4E0911802C9
:102FF000F091190209958D278093FC06E091E30179
:10300000F091E401CF0101969093E4018093E301F4
:1030100064918091E701C81788F6C13009F052C069
:103020008091ED068111CACF4DC097FD3AC032960E
:10303000F093E401E093E301F901249130E0382BAF
:10304000A091FF06B09100070E945C336C507E4F48
:103050008F4F9F4F28EE33E040E050E00E943A331C
:103060002093F5063093F6064093F7065093F80642
:103070008091F5069091F606A091F706B091F806BA
:10308000892B8A2B8B2B21F581E090E0A0E0B0E02A
:103090008093F5069093F606A093F706B093F80692
:1030A00017C0903E49F48091E5019091E60190931C
:1030B000E4018093E30182CF903F09F07FCF10922B
:1030C000ED0106C067FD7ACF8C2F0E94C31376CF27
:1030D000DF91CF9108951F920F920FB60F92112496
:1030E0002F933F934F935F936F937F938F939F9310
:1030F000AF93BF93EF93FF938091FE06882341F037
:103100008091FD06811104C08091FC06882351F155
:103110008091ED01882381F18091F5069091F6066A
:10312000A091F706B091F806892B8A2B8B2B21F101
:103130008091F5069091F606A091F706B091F806F9
:103140000197A109B1098093F5069093F606A09323
:10315000F706B093F806892B8A2B8B2B69F40E9413
:10316000DB170AC08091FB06E091F906F091FA06A0
:10317000908189278083CCCFFF91EF91BF91AF9150
:103180009F918F917F916F915F914F913F912F917F
:103190000F900FBE0F901F9018959091E7019230FD
:1031A00009F471C0292F30E0F901EC59FE4F40813C
:1031B000F901E551F94F8083913031F42091EB060C
:1031C000281302C09093ED069F5F9093E70190E073
:1031D000FC01E351F74F2491FC01E253F74F849136
:1031E00030E0220F331FF901E054F74F65917491DD
:1031F000F901EE54F74FA591B4919C91982B9C93B3
:10320000413019F04330D9F0089590916400977FD0
:103210009093640010928000109281009091810040
:1032200098609093810090918100916090938100CB
:103230007093EF066093EE068093F00608959091E8
:103240006500977F90936500109290001092910016
:10325000909191009860909391009091910091606D
:10326000909391007093FA066093F9068093FB06A1
:103270008091E701882321F06CE380E00E94C31372
:1032800080E00C94AA1708952091E9063091EA068F
:103290002F5F3F4F3093EA062093E90661110AC081
:1032A00090910501992381F02D303105D4F081E012
:1032B00090E005C024363105BCF083E690E09093A1
:1032C000EA068093E90610C02C30310539F0283128
:1032D000310551F41092EA061092E9060E94410C61
:1032E00003C02C303105D1F380E090E00895CF93F6
:1032F000DF930E948432C5E0D0E0BE010E94F52F2A
:10330000892B51F00E948432BE010E94F52F019654
:1033100090932301809322010E94843265E070E043
:103320000E94F52F892B51F00E94843264E070E0F6
:103330000E94F52F9093210180932001DF91CF917E
:10334000089520E430E030931F0120931E0120E215
:1033500030E030931D0120931C0125E030E03093D4
:10336000E8062093E7062091000130910101319594
:1033700021953109309301012093000112161306A3
:1033800024F491E09093020102C010920201811195
:103390001AC083E090E090932301809322019093E0
:1033A0002101809320011092E6061092E50610920A
:1033B000E4061092E3061092E2061092E1061092E3
:1033C000E0061092DF0608958F929F92AF92BF920F
:1033D000CF92DF92EF92FF920F931F93CF93DF93E1
:1033E00000D000D000D0CDB7DEB760911C01709145
:1033F0001D0142E080911E0190911F010E94ED107D
:10340000E0901E01F0901F0167012FEFC21AD20A4F
:1034100000911C0110911D01580131E0A31AB1085F
:103420000F5F1F4F470181E0881A91089501A7019E
:10343000B801C4010E9404129801A601B501C70198
:103440000E9404129801A401B801C6010E9404124E
:1034500040E860E070E080E090E00E94CF1140E83A
:103460006FE370E080E090E00E94CF1140E460E004
:1034700070E080E090E00E94C41040E460E070E002
:103480008FE790E00E94C41040E460E070E08FE3BA
:1034900090E00E94C41040E26FE170E08FEF9FEF78
:1034A0000E94ED1040E26FE170E081E890E00E9440
:1034B000ED100E94D71583FF0AC080E1809370064B
:1034C00081E090E0909323018093220103C082E485
:1034D000809370064091000150910101809122017A
:1034E00090912301489F9001499F300D589F300DC6
:1034F000112480911E0190911F01280F391F3093D4
:103500001F0120931E01009124011091250180913B
:10351000200190912101089FA001099F500D189F43
:10352000500D112480911C0190911D01840F951F55
:1035300090931D0180931C012F373105CCF0209111
:10354000260130912701A901415F5F4F48175907B4
:103550001CF08217930764F481E00E94A119809106
:10356000E1069091E20601969093E2068093E106CF
:1035700080911E0190911F010297ECF420911C0193
:1035800030911D018091280190912901AC01415F8A
:103590005F4F421753071CF02817390764F481E086
:1035A0000E94A1198091DF069091E0060196909308
:1035B000E0068093DF0620911C0130911D012C3321
:1035C00031051CF4253031053CF4119501951109A4
:1035D00010932501009324018091280190912901E5
:1035E000AC01425051092417350744F14196821726
:1035F000930724F180911E0190911F010797F4F425
:103600008091020181110EC0809100019091010111
:10361000919581959109909301018093000181E03A
:10362000809302010E94843265E070E00E94F52FD1
:103630009093E8068093E7060E94771920911C0179
:1036400030911D018091260190912701AC014250DB
:1036500051092417350744F141968217930724F145
:1036600080911E0190911F0189379105ECF08091A6
:103670000201882369F080910001909101019195E8
:1036800081959109909301018093000110920201AC
:103690000E94843265E070E00E94F52F9093E80666
:1036A0008093E7060E9477190E94D71587FF0AC00A
:1036B0000E94D71583FF06C08091280190912901AF
:1036C000039767C00E94D71584FF04C00E94D715D6
:1036D00083FD5AC080912801909129018230910583
:1036E0001CF481E090E004C0C09734F080E390E0E7
:1036F00090932901809328018091260190912701C0
:10370000823091051CF481E090E004C0C09734F051
:1037100080E390E090932701809326010091280197
:10372000109129014FE0B80184E090E00E94C4109C
:103730004FE0B80183E090E00E94C41000912601A0
:10374000109127014FE0B8018BE790E00E94C41070
:103750004FE0B8018CE790E00E94C4108091000116
:103760009091010197FF1AC08091E7069091E806B9
:10377000892BA1F00E94D71583FD10C080911C01F8
:1037800090911D0107972EC18091280190912901E8
:10379000039690932901809328019CCF809100018A
:1037A0009091010197FF04C00E94D71583FF15C1B6
:1037B0008091000190910101181619068CF4209156
:1037C000E7063091E80680911C0190911D01232BA2
:1037D00011F0079701C00796909327018093260167
:1037E00069E3E62EF12C00E010E07AE0C72ED12C40
:1037F0008091E1069091E2069601281B390B021791
:10380000130770F421E0A7016CE370E089E696E00D
:103810000E9422160F5F1F4F22E0E21AF108E8CF44
:1038200049E3E42EF12C00E010E05AE0C52ED12C43
:103830008091DF069091E0069601281B390B021754
:10384000130770F421E0A70162E470E089E696E0D6
:103850000E9422160F5F1F4F32E0E31AF108E8CFF3
:103860002CE3E22EF12C00E010E03AE0C32ED12C44
:103870008091E5069091E6069601281B390B021708
:10388000130760F441E06CE370E0C7010E94ED10A3
:103890000F5F1F4F34E0E31AF108EACF82E4E82E0D
:1038A000F12C00E010E09AE0C92ED12C8091E306C3
:1038B0009091E4069601281B390B0217130760F458
:1038C00041E06CE370E0C7010E94ED100F5F1F4FF5
:1038D00034E0E30EF11CEACF81E390E090937C06A4
:1038E00080937B0682E090E090937E0680937D0635
:1038F0002091090130910A014091F7015091F8019E
:103900006091F9017091FA01CC24C394E12C00E09C
:10391000CE0101960E94890BBE016F5F7F4F85E645
:1039200096E00E946D21CE0101960E948F13809136
:10393000E1069091E2060B9754F08091E506909194
:10394000E60601969093E6068093E5060FC0809107
:10395000DF069091E0060B97DCF08091E3069091F2
:10396000E40601969093E4068093E3061092E20643
:103970001092E1061092E0061092DF0681E090E0DE
:103980009093230180932201909321018093200141
:103990008091E5069091E6060B974CF58091E30641
:1039A0009091E4060B971CF50E94D71582FD1FC06D
:1039B0000E94B21026960FB6F894DEBF0FBECDBFA0
:1039C000DF91CF911F910F91FF90EF90DF90CF90FB
:1039D000BF90AF909F908F90089580911C0190911F
:1039E0001D0107969093290180932801E1CE80E084
:1039F0000E94A119DDCF80910F079091100790933D
:103A0000EF018093EE0180910D0790910E07909346
:103A1000F1018093F00180910B0790910C07909336
:103A2000F3018093F201089521E532E041EF5EE079
:103A300080E090E0FA01E80FF91FE491EE2331F005
:103A4000D901A80FB91F6C91E62BEC930196803831
:103A5000910581F740585F4F20583F4F86E0213550
:103A6000380731F708950E948115DC01CB01805F92
:103A7000984DAF4FBF4F8093110790931207A093BB
:103A80001307B09314070895CF92DF92EF92FF923D
:103A900081E08093EC018093030161E00E94A61015
:103AA0000E948115C0901107D0901207E090130773
:103AB000F0901407209104016C157D058E059F057B
:103AC00010F0222339F0222399F00E94331D109226
:103AD00004010EC01092FB011092FC011092F4013F
:103AE00010921107109212071092130710921407E8
:103AF000FF90EF90DF90CF900895089540911A07BE
:103B000050911B072091180730911907421753074E
:103B1000B4F49091E8009570E1F39091E80092FD83
:103B200019C08093F10080911A0790911B070196AC
:103B30008F739927892B19F48EEF8093E800809179
:103B40001A0790911B07019690931B0780931A0701
:103B500081E0089580E00895CF92DF92EF92FF9286
:103B60000F931F93CF93DF931F92CDB7DEB7182F1C
:103B7000062FE42E862F880F8E5F99830E947E1D6C
:103B800083E00E947E1DF12EC12E9981D92E8C2DAD
:103B90008F19801798F4F601E7FE02C0849101C0E6
:103BA00080810E947E1D182F80E00E947E1D81234F
:103BB000FFEFCF1ADF0A8111EACF01C081E00F9039
:103BC000DF91CF911F910F91FF90EF90DF90CF90F9
:103BD0000895DF92EF92FF920F931F93CF93DF939D
:103BE000D82E8A017B01E40EF51EEB01CE15DF0510
:103BF00071F0D7FE03C0FE01849101C088810E944C
:103C00007E1D21968111F2CF8FEF9FEF01C0C80179
:103C1000DF91CF911F910F91FF90EF90DF9008956A
:103C2000615030F02091F100FC0120830196F8CF23
:103C3000289884E6809316020895CF92DF92EF923F
:103C4000FF920F931F93CF93DF936C017A018B0147
:103C5000C0E0D0E0CE15DF0589F0D8016D918D016F
:103C6000D601ED91FC910190F081E02DC6010995FE
:103C7000892B11F47E0102C02196ECCFC701DF91A0
:103C8000CF911F910F91FF90EF90DF90CF9008950B
:103C90000F931F93CF93DF931F92CDB7DEB782E0D0
:103CA000898342E450E061EF72E180E80E94E91DFF
:103CB0000E948912DC0112960D911C911397011537
:103CC000110569F0D801ED91FC910280F381E02D9E
:103CD000BE016F5F7F4FC801099597FF07C08981BB
:103CE0000F90DF91CF911F910F910895F8010085FA
:103CF0001185E5CFFB01DC0111961C921E921396F3
:103D00001C921E92129715961C921E92149786175B
:103D1000970749F0608171816115710521F0448137
:103D200055810C9457130895FC011182108213825F
:103D30001282158214826115710551F0FB01019008
:103D40000020E9F73197AF01461B570B0C9457132E
:103D500008951F920F920FB60F9211248F939F9385
:103D60008091E1009091E100937F9093E10083FFC7
:103D70000FC01092E90091E09093EB001092EC00DC
:103D800092E39093ED001092170298E09093F00068
:103D900082FF20C093E09093E9009091F200992374
:103DA00019F09AE39093E80090911402992339F066
:103DB00090911402915090931402992389F190915B
:103DC0001602992339F090911602915090931602A1
:103DD000992341F184FF10C08091E2008E7E8160C2
:103DE0008093E2008091E1008F7E8093E1008091DA
:103DF00015028E7E806111C080FF16C08091E200A6
:103E00008E7E80618093E2008091E1008E7E8093BF
:103E1000E100809115028E7E81608093150204C0BE
:103E20005D9ACDCF289AD6CF9F918F910F900FBEDC
:103E30000F901F9018951F920F920FB60F9211249A
:103E4000CF92DF92EF92FF920F931F932F933F93A6
:103E50004F935F936F937F938F939F93AF93BF9392
:103E6000EF93FF93CF93DF93CDB7DEB76C97DEBFB1
:103E7000CDBF1092E9008091E80083FFFAC168E0AD
:103E8000CE0145960E94101E82EF8093E8008D8936
:103E900087FF05C09091E80090FFFCCF03C09EEF24
:103EA0009093E800982F907609F0C6C09E892F89DC
:103EB000188D91110CC0803829F4809116078093D9
:103EC000F10002C01092F1001092F10047C1422FA0
:103ED00050E0512B913051F4811140C141305105D6
:103EE00009F03CC1809116078D7F0BC0933061F4BF
:103EF000811134C14130510509F030C1809116075C
:103F00008260809316072AC1953041F48091E800C1
:103F100080FFFCCF20682093E30020C1963009F099
:103F20005FC0EB8CFC8C1092E90010921B07109282
:103F30001A07123091F510921907109218070E9473
:103F4000481E99E0BE016F5F7F4FDB01E92F1D9294
:103F5000EA95E9F799831A8391E09E8390EA98871E
:103F60009AEF998720911A0730911B07275F3F4FDF
:103F70003C832B838D831092E90010921B071092D3
:103F80001A07F0921907E092180749E050E080E024
:103F90000E94E91D0E94481EE1C0F0921907E092BC
:103FA00018070E948912DC011296ED90FC9013977D
:103FB000E114F10409F4C0C0D701ED91FC91048033
:103FC000F581E02DBE016B5E7F4FC701099500971B
:103FD00019F00CF0C3C0C6C0F701E084F184E8CF4B
:103FE000973009F4BFC0983021F481E08093F1004C
:103FF000B5C0993009F0B2C0837009F0B3C0E7E6EC
:10400000F1E081E021E036E39081992361F0809333
:10401000E9002093EB0091919093EC003093ED0038
:104020008F5F873089F78EE78093EA001092EA006D
:104030008F898093170292C08B8D9C8D1092E9001E
:1040400010921B0710921A07909319078093180774
:10405000898D811156C08E899D89913A59F481329A
:1040600009F080C047E050E064E171E080E00E9428
:10407000E91D74C0913209F075C0833289F4888DCE
:1040800090E0982F88272F89822BA0E0B0E08093C2
:104090002A0190932B01A0932C01B0932D015EC0B7
:1040A000803269F48091E80082FFFCCF67E084E110
:1040B00091E00E94101E8BEF8093E80006C08232D0
:1040C00009F04CC08F8980931B01809115078823CC
:1040D00019F0EEEFFAE002C0E0E0F8E080911401A0
:1040E00090911501A0911601B0911701803B944069
:1040F000A105B10509F088C080911B0180FFA0C017
:1041000083C00E948912DC0112960D911C911397B5
:104110000115110539F1D801ED91FC910190F08163
:10412000E02DBE016B5E7F4FC8010995811116C05D
:10413000F80100851185ECCF1130C1F0133091F4F6
:104140008F89882309F455C08230E9F440E867E09C
:1041500083E493E10E94AC1D882321F08EEF8093CD
:10416000E80087C081E28093EB0083C08B8D9C8D3B
:10417000089711F41093170780911707811136C023
:104180006BE473E138C0813029F440E86BE087E3E9
:1041900093E1E0CF833031F70E948912DC0112965F
:1041A000ED90FC9013978E010F5F1F4F6801E11493
:1041B000F10479F0D701ED91FC910680F781E02DB3
:1041C000B801C7010995080F111DF701E084F184BA
:1041D000EECFD8011C92F60101900020E9F731974B
:1041E000BF016C197D0940E0C601B4CF6DE573E1F4
:1041F00002C063E373E16115710509F4B3CFFB01FC
:10420000449150E080E833CF0FB6F894A8958091A0
:104210006000886180936000109260000FBEA895D6
:10422000EE3F2AE0F20739F08091FE0A9091FF0AF2
:104230009183808393CF1092FF0A1092FE0A8ECF53
:10424000EE3F8AE0F80731F0808191819093FF0A78
:104250008093FE0A87E797E7918380839BE088E15C
:104260000FB6F894A895809360000FBE90936000FD
:1042700075CF6C960FB6F894DEBF0FBECDBFDF9141
:10428000CF91FF91EF91BF91AF919F918F917F91CE
:104290006F915F914F913F912F911F910F91FF90DF
:1042A000EF90DF90CF900F900FBE0F901F9018955A
:1042B0006115710579F0FB0101900020E9F7319754
:1042C000AF01461B570BDC01ED91FC910280F3819D
:1042D000E02D099480E090E00895DC01ED91FC91DF
:1042E000DB0114964D915C9115976D917C91028044
:1042F000F381E02D0994CF93DF93CDB7DEB76497B8
:104300000FB6F894DEBF0FBECDBF789484B582603F
:1043100084BD84B5816084BD85B5826085BD85B569
:10432000816085BD80916E00816080936E001092E7
:104330008100809181008260809381008091810062
:1043400081608093810080918000816080938000F3
:1043500080919100826080939100809191008160B2
:104360008093910080919000816080939000809173
:10437000C10084608093C1008091C10082608093FD
:10438000C1008091C10081608093C1008091C30011
:1043900081608093C3008091C00082608093C000E0
:1043A0008091C20081608093C20080917A00846015
:1043B00080937A0080917A00826080937A00809165
:1043C0007A00816080937A0080917A00806880937F
:1043D0007A0010921702109216071092150280911F
:1043E000D70081608093D70080EA8093D80089B598
:1043F000806189BD89B5826089BD09B400FEFDCFA9
:1044000061E070E080E090E00E9442158091D80069
:104410008F7C80618093D8008091E000807F8093C2
:10442000E0008091E1008E7E8093E1008DE080933A
:10443000E200559A209AEEEFFFE7859194918B3F29
:104440009C4D19F481E08093150785E00E94CD18FA
:104450008DE00E94CD1881EC80937C0085B1806F47
:1044600085B9249884B1866E84B95E9A5F988AB1C2
:10447000806D8AB9769A6E9881B3806F81BB899876
:1044800080B38D7080BB80E58CBD11E01DBD0E94A6
:10449000041681E8809364001093650082E48093A1
:1044A00070060E9493103E9A3F9A1093E2010E9478
:1044B000843280910201182710930201809100013B
:1044C00090910101919581959109909301018093BB
:1044D0000001BFE02B2E312C12E0A12EB12CF6E40E
:1044E0004F2E512CA9E38A2E912C0E948115009108
:1044F00010011091110120911201309113016017E8
:1045000071078207930708F480C0D901C801885158
:104510009C4FAF4FBF4F8093100190931101A09318
:104520001201B09313018091FD01882309F44AC060
:104530008091EE019091EF0101979093EF018093AC
:10454000EE0197FF3FC08091F0019091F10100973B
:1045500061F02BE330E03093EF012093EE010197FF
:104560009093F1018093F0012DC08091F201909120
:10457000F301009781F02BE330E03093EF012093BB
:10458000EE013093F1012093F00101979093F30134
:104590008093F20117C01092EF011092EE018CEAA5
:1045A00090E09093E6018093E5019093E40180937D
:1045B000E3010E94DB1781E08093ED011092FD0181
:1045C0000E94FB1C0E94D71583FF16C00E94D715BE
:1045D00082FF12C080910F01882371F08091FC014D
:1045E00081110AC08091FB01811106C030920E0139
:1045F00020920D010C94812E8091F9019091FA0185
:1046000001969093FA018093F9010E94811500911F
:1046100075061091760620917706309178064091C4
:104620007906442349F020917106621B60937A0653
:10463000109279060C94812E6017710782079307F8
:1046400088F4061B023010F40C94812E83B7817F0E
:1046500083BF83B7816083BF889583B78E7F83BF15
:104660000C94812E11E0109379066093710670937B
:104670007206809373069093740620917006DC0195
:10468000CB01820F911DA11DB11D809375069093E2
:104690007606A0937706B093780680916C06909189
:1046A0006D06019690936D0680936C060E949310A0
:1046B0001093810680910D0190910E01009729F4CD
:1046C00030920E0120920D0105C0019790930E01CA
:1046D00080930D018091F9019091FA01CC9769F4D2
:1046E0001092FA011092F9018091F7019091F8016E
:1046F00001969093F8018093F7012091F701309192
:10470000F8018091F9019091FA012C33310581F47F
:10471000009771F41092F8011092F70120910901AD
:1047200030910A012F5F3F4F30930A012093090116
:104730002091090130910A0128313105D1F42091ED
:10474000F7013091F801232B09F047C0009709F0D9
:1047500044C020910501211140C020910D013091EC
:104760000E012F303105C9F510920A01109209018E
:1047700031C02B30310589F52091F7013091F801D6
:104780002B33310551F58B33910591F420910501BF
:10479000222371F020910701222351F020910D0175
:1047A00030910E012F30310519F41092070115C018
:1047B0008B33910591F420910501222371F0209112
:1047C000070121110AC020910D0130910E012F30F7
:1047D000310519F421E0209307012091090130915E
:1047E0000A012D30310594F02091F7013091F80144
:1047F000232B61F4009751F420910501222331F01D
:1048000021E030E030930A01209309012091090151
:1048100030910A012C30310534F0409105014111ED
:1048200002C0109207014091030250910402481700
:10483000590769F540910102509102028091F701F8
:104840009091F8014817590711F580910B0190914B
:104850000C0182179307D9F4909108018091070108
:10486000981315C080910002882389F08CEA90E0AB
:104870009093E6018093E5019093E4018093E30136
:104880000E94DB1781E08093ED01109200020E94EC
:10489000D71585FD02C00C948B2E0E94D71586FD7E
:1048A00002C00C948B2E0E94D71583FF02C00C947B
:1048B0008B2E0E94D71582FF02C00C948B2E0E9473
:1048C000D71587FF02C00C948B2E0E94D71584FF4A
:1048D00002C00C948B2E0E9493100E94B21061E0D3
:1048E00081E00E94A61010920F010E94F41581E051
:1048F000809303011092FC011092FB010E946A0A4E
:1049000080910F01882311F40C94812E8091F6017F
:10491000882381F08091060181110CC00E94E41966
:104920000E94CC0A882311F40C94812E1092F60177
:104930000C94812E0E94D71585FF89C06DE671E029
:10494000CE0101960E94941ECE0101960E94E409B8
:10495000182FCE0101960E948F13112309F477C0FE
:104960000E94331D8091ED01882361F010E0809159
:10497000E701181728F4812F0E94AA171F5FF7CFAD
:104980001092ED018091FB019091F401811102C020
:10499000992341F0992311F40C94F72E909106017C
:1049A00091114BC00E9481150091E8011091E9011D
:1049B0002091EA013091EB0160177107820793079C
:1049C00008F18091030181111DC08091EC018823C1
:1049D000C9F01092EC011092E8011092E9011092D6
:1049E000EA011092EB0161E080E00E94A610809144
:1049F000F401882311F40C94BA2E1092F40181E092
:104A00008093F60180910301882309F10E948115AA
:104A1000DC01CB0184529A4FAF4FBF4F8093E80126
:104A20009093E901A093EA01B093EB011092030186
:104A300060E081E00E94A6100AC0882311F40C9463
:104A4000F32E8091FD01811102C00E94FB1C0E9487
:104A50006A0A81110E94441D0E94CC0A0E94D71547
:104A600084FF2AC062E771E0CE0101960E94941E85
:104A7000CE0101960E94E409182F81111091EC01DA
:104A8000CE0101960E948F131123B1F01092EC0118
:104A900081E0809304019091FC0191110C94C72E48
:104AA0009091FB0191110C94CD2E9091F4019111F4
:104AB0000C94D32E8093FC010E946A0A81110E94FB
:104AC000441D0E94D71587FF2AC067E771E0CE0119
:104AD00001960E94941ECE0101960E94E409182FAF
:104AE00081111091EC01CE0101960E948F131123C8
:104AF000B1F01092EC0121E0209304018091FC01BF
:104B00009091F40181110C94D72E3091FB01311159
:104B10000C94D72E91110C94D72E2093F4010E945F
:104B20006A0A81110E94441D8091FC01882309F4C6
:104B300014C20E9493100E94141D30925E062092AF
:104B40005D0630925C0620925B06B0926006A092F1
:104B50005F066AE771E081E596E00E9458218AE5E8
:104B600090E090935E0680935D0690935C06809340
:104B70005B06B0926006A0925F0660E871E081E596
:104B800096E00E94582182E290E090935E06809326
:104B90005D0690935C0680935B069092600680921F
:104BA0005F066AE771E081E596E00E945821509225
:104BB0005E0640925D0650925C0640925B069092C3
:104BC000600680925F0666E871E081E596E00E94EB
:104BD00058218091FD01882381F08AE490E0909330
:104BE0007C0680937B06B0927E06A0927D0681E0D3
:104BF000809381066EE871E00FC087E490E09093A7
:104C00007C0680937B06B0927E06A0927D0681E0B2
:104C10008093810661E971E085E696E00E94582163
:104C200080910002882309F49CC08CE290E090936C
:104C30007C0680937B06B0927E06A0927D0681E082
:104C4000809381066EE871E085E696E00E94582127
:104C5000B0925E06A0925D06B0925C06A0925B06E2
:104C60008EE090E09093600680935F0660E771E0CD
:104C700081E596E00E945821B0925E06A0925D0602
:104C8000B0925C06A0925B0683E190E09093600690
:104C900080935F0665E971E081E596E00E94582106
:104CA000B0925E06A0925D06B0925C06A0925B0692
:104CB00088E190E09093600680935F0664E871E07D
:104CC00081E596E00E945821B0925E06A0925D06B2
:104CD000B0925C06A0925B068DE190E09093600636
:104CE00080935F0669EA71E081E596E00E945821B1
:104CF000B0925E06A0925D06B0925C06A0925B0642
:104D000084E290E09093600680935F0667E971E02B
:104D100081E596E00E945821B0925E06A0925D0661
:104D2000B0925C06A0925B0689E290E090936006E8
:104D300080935F0663E971E081E596E00E94582167
:104D4000B0925E06A0925D06B0925C06A0925B06F1
:104D50008EE290E09093600680935F0663E971E0D5
:104D600085C009E210E010937C0600937B06B092A8
:104D70007E06A0927D0681E08093810661E971E064
:104D800085E696E00E945821B0925E06A0925D06EC
:104D9000B0925C06A0925B068EE090E09093600675
:104DA00080935F0660E771E081E596E00E945821FC
:104DB000B0925E06A0925D06B0925C06A0925B0681
:104DC00083E190E09093600680935F0665E971E06F
:104DD00081E596E00E945821B0925E06A0925D06A1
:104DE000B0925C06A0925B0688E190E0909360062A
:104DF00080935F0664E871E081E596E00E945821A7
:104E0000B0925E06A0925D06B0925C06A0925B0630
:104E10008DE190E09093600680935F0669EA71E00F
:104E200081E596E00E945821B0925E06A0925D0650
:104E3000B0925C06A0925B0684E290E090936006DC
:104E400080935F0667E971E081E596E00E94582152
:104E5000B0925E06A0925D06B0925C06A0925B06E0
:104E60001093600600935F0669EA71E081E596E0C1
:104E70000E94582181E190E090937C0680937B060C
:104E800089E190E090937E0680937D0640910B012E
:104E900050910C01609101027091020200E020E04B
:104EA00080910302909104020E94F40CFC01909303
:104EB000FF018093FE016081718170930402609311
:104EC00003024281538150930202409301022481E4
:104ED000358130930C0120930B0182E08093810691
:104EE000C12CE12CCE0101960E94890BBE016F5F9F
:104EF0007F4F85E696E00E946D21CE0101960E94CB
:104F00008F1381E08093810680910501882309F445
:104F1000F6C680910801882379F08BE390E09093A6
:104F20007C0680937B068CE290E090937E068093D3
:104F30007D066EED71E00EC08BE390E090937C06F1
:104F400080937B068CE290E090937E0680937D06B2
:104F500069E971E085E696E049C48091FB01882308
:104F600009F417C20E9493100E94141D30925E062D
:104F700020925D0630925C0620925B06B09260063D
:104F8000A0925F066AE771E081E596E00E945821F1
:104F90008AE590E090935E0680935D0690935C06B0
:104FA00080935B06B0926006A0925F0660E871E0B5
:104FB00081E596E00E94582182E290E090935E069F
:104FC00080935D0690935C0680935B0690926006EA
:104FD00080925F0660E871E081E596E00E945821CA
:104FE00050925E0640925D0650925C0640925B06CF
:104FF0009092600680925F0666E871E081E596E037
:105000000E9458218091FD01882309F462C08AE43E
:1050100090E090937C0680937B06B0927E06A092EF
:105020007D0681E0809381066EE871E085E696E07A
:105030000E9458210AE710E010935E0600935D0677
:1050400010935C0600935B0686E190E09093600607
:1050500080935F066CE971E081E596E00E9458213B
:1050600010935E0600935D0610935C0600935B064A
:105070008BE190E09093600680935F0660E771E0BB
:1050800081E596E00E94582110935E0600935D062C
:1050900010935C0600935B0680E290E090936006BC
:1050A00080935F0667E971E081E596E00E945821F0
:1050B00010935E0600935D0610935C0600935B06FA
:1050C00085E290E09093600680935F0668E771E068
:1050D000D8C087E490E090937C0680937B06B092E2
:1050E0007E06A0927D0681E08093810661E971E0F1
:1050F00085E696E00E945821B0925E06A0925D0679
:10510000B0925C06A0925B0624E130E0309360062A
:1051100020935F0664E871E081E596E02B8B3C8B81
:105120000E945821B0925E06A0925D06B0925C0685
:10513000A0925B0689E190E09093600680935F0601
:1051400061ED71E081E596E00E945821B0925E0623
:10515000A0925D06B0925C06A0925B066EE1662EA0
:10516000712C7092600660925F066CE971E081E5D7
:1051700096E00E945821B0925E06A0925D06B09221
:105180005C06A0925B0673E2C72ED12CD09260061B
:10519000C0925F0661ED71E081E596E00E945821C2
:1051A000B0925E06A0925D06B0925C06A0925B068D
:1051B000E8E2EE2EF12CF0926006E0925F0660E7E6
:1051C00071E081E596E00E9458210AE710E0109313
:1051D0005E0600935D0610935C0600935B062B89C8
:1051E0003C893093600620935F066CE971E081E5AD
:1051F00096E00E94582110935E0600935D0610937E
:105200005C0600935B0689E190E0909360068093D2
:105210005F0660E771E081E596E00E9458211093F7
:105220005E0600935D0610935C0600935B06709229
:10523000600660925F066EE971E081E596E00E948B
:10524000582110935E0600935D0610935C06009350
:105250005B06D0926006C0925F0664E871E081E56B
:1052600096E00E94582110935E0600935D0610930D
:105270005C0600935B06F0926006E0925F0660E7D2
:1052800071E081E596E00E94582180910002882318
:1052900081F08CE290E090937C0680937B06B09244
:1052A0007E06A0927D0681E0809381066EE871E023
:1052B0000FC089E290E090937C0680937B06B092C9
:1052C0007E06A0927D0681E08093810661E971E00F
:1052D00085E696E00E9458218091FD01811127C04A
:1052E0004091F2015091F3016091F0017091F10150
:1052F00001E020E08091EE019091EF010E94F40C1A
:10530000FC019093FF018093FE0180819181909335
:10531000EF018093EE01828193819093F10180935C
:10532000F001848195819093F3018093F20181E1F2
:1053300090E090937C0680937B0689E190E09093C7
:105340007E0680937D0682E0809381062091F201A3
:105350003091F3014091F0015091F1016091EE0123
:105360007091EF01C12CEE24E39400E0CE01019690
:105370000E94890BBE016F5F7F4F85E696E00E9419
:105380006D21CE0101960E948F1381E080938106EA
:10539000B6C48091F401882309F43CC20E94141D14
:1053A00030925E0620925D0630925C0620925B068B
:1053B000B0926006A0925F066AE771E081E596E030
:1053C0000E9458218AE590E090935E0680935D06E6
:1053D00090935C0680935B06B0926006A0925F0695
:1053E00060E871E081E596E00E9458218091FD011E
:1053F000882381F08AE490E090937C0680937B067A
:10540000B0927E06A0927D0681E0809381066EE8D0
:1054100071E00FC087E490E090937C0680937B0658
:10542000B0927E06A0927D0681E08093810661E9BC
:1054300071E085E696E00E94582180910002882361
:1054400081F08CE290E090937C0680937B06B09292
:105450007E06A0927D0681E0809381066EE871E071
:105460000FC089E290E090937C0680937B06B09217
:105470007E06A0927D0681E08093810661E971E05D
:1054800085E696E00E945821B0925E06A0925D06E5
:10549000B0925C06A0925B0686E190E09093600675
:1054A00080935F0668E771E081E596E00E945821ED
:1054B000B0925E06A0925D06B0925C06A0925B067A
:1054C0008BE190E09093600680935F0667E971E05E
:1054D00081E596E00E945821B0925E06A0925D069A
:1054E000B0925C06A0925B0630E2E32EF12CF092C3
:1054F0006006E0925F0669EA71E081E596E00E944D
:105500005821B0925E06A0925D06B0925C06A09211
:105510005B0645E2642E712C7092600660925F0615
:105520006CE871E081E596E00E9458210AE710E0FE
:1055300010935E0600935D0610935C0600935B0675
:1055400054E1C52ED12CD0926006C0925F0660EA6D
:1055500071E081E596E00E94582110935E06009369
:105560005D0610935C0600935B0689E190E09093E2
:10557000600680935F0662EA71E081E596E00E9432
:10558000582110935E0600935D0610935C0600930D
:105590005B068EE190E09093600680935F066EE973
:1055A00071E081E596E00E94582110935E06009319
:1055B0005D0610935C0600935B0683E290E0909397
:1055C000600680935F0669EA71E081E596E00E94DB
:1055D000582110935E0600935D0610935C060093BD
:1055E0005B0688E290E09093600680935F066CEC27
:1055F00071E081E596E00E9458218DE190E0909362
:105600005E0680935D0690935C0680935B069092A5
:10561000600680925F0664EA71E081E596E00E9490
:10562000582150925E0640925D0650925C06409270
:105630005B069092600680925F066BEA71E081E5FE
:1056400096E00E94582170925E0660925D0670920C
:105650005C0660925B068EE090E09093600680931B
:105660005F0661EB71E081E596E00E945821809130
:1056700006014FE262E170E0811155C088E290E0DE
:105680000E94CF114FE162E170E088E290E00E9459
:10569000C4104FE261E370E088E290E00E94CF1115
:1056A0004FE162E170E087E590E00E94C41046E0BF
:1056B00067E170E08AE290E00E94C41046E067E291
:1056C00070E085E590E00E94C41041E060E270E087
:1056D0008FE390E00E94ED1084E390E090935E06EB
:1056E00080935D0690935C0680935B06D092600683
:1056F000C0925F066DEB71E081E596E00E94582153
:1057000087E390E090935E0680935D0690935C063D
:1057100080935B068BE290E09093600680935F0637
:1057200063EC71E029C088E290E00E94CF114FE164
:1057300062E170E088E290E00E94C4104FE261E311
:1057400070E088E290E00E94CF114FE162E170E0EA
:1057500087E590E00E94C41084E390E090935E0699
:1057600080935D0690935C0680935B06F0926006E2
:10577000E0925F0668EC71E081E596E00E945821B6
:105780000E94D71583FF1CC06EE971E0CE0101961F
:105790000E94941ECE0101960E94E409182F8111E7
:1057A0001091EC01CE0101960E948F13112341F05C
:1057B0009091F50181E089278093F5011092EC0129
:1057C0008091F5018823A9F082E690E090935E062F
:1057D00080935D0690935C0680935B0690926006D2
:1057E00080925F066EE871E081E596E00E945821A4
:1057F00086C282E690E090935E0680935D06909369
:105800005C0680935B069092600680925F0661E979
:1058100071E0EACF6AED71E0CE010D960E94941E10
:105820006AED71E0CE0107960E94941E0E94141D3D
:1058300030925E0620925D0630925C0620925B06F6
:10584000B0926006A0925F066AE771E081E596E09B
:105850000E9458218AE590E090935E0680935D0651
:1058600090935C0680935B06B0926006A0925F0600
:1058700060E871E081E596E00E9458218091FD0189
:10588000882381F08AE490E090937C0680937B06E5
:10589000B0927E06A0927D0681E0809381066EE83C
:1058A00071E00FC087E490E090937C0680937B06C4
:1058B000B0927E06A0927D0681E08093810661E928
:1058C00071E085E696E00E945821809100028823CD
:1058D00081F08CE290E090937C0680937B06B092FE
:1058E0007E06A0927D0681E0809381066EE871E0DD
:1058F0000FC089E290E090937C0680937B06B09283
:105900007E06A0927D0681E08093810661E971E0C8
:1059100085E696E00E9458214091090150910A01C4
:105920006091F7017091F80100E021E08091F901A8
:105930009091FA010E94F40CFC019093FF01809376
:10594000FE01608171817093FA016093F9014281D7
:1059500053815093F8014093F701248135813093AE
:105960000A012093090182E08093810681E190E0A1
:1059700090937C0680937B0689E190E090937E066D
:1059800080937D06C12CE12C01E0CE0101960E949E
:10599000890BBE016F5F7F4F8AE492E00E941E1365
:1059A000CE0101960E948F136AE472E085E696E0CC
:1059B0000E946D2187E390E090935E0680935D06E0
:1059C00090935C0680935B068DE090E09093600678
:1059D00080935F066EEC71E081E596E00E945821AD
:1059E00080910501882309F479C0809107018823FB
:1059F00091F08BE390E090937C0680937B068CE2A1
:105A000090E090937E0680937D0681E080938106EE
:105A10006EED71E011C08BE390E090937C06809373
:105A20007B068CE290E090937E0680937D0681E079
:105A30008093810669E971E085E696E00E9458212D
:105A400020910B0130910C01409101025091020212
:105A50006091030270910402C12CE12C00E0CE01A0
:105A600001960E94890BBE016F5F7F4FCE010D969C
:105A70000E941E13CE0101960E948F138EE090E0CB
:105A800090935E0680935D0690935C0680935B0620
:105A90009092600680925F0680910801BE01635F6C
:105AA0007F4F882339F0CE0101960E947A1E6EE95D
:105AB00071E006C0CE0101960E947A1E68E771E08F
:105AC000CE0101960E94F212BC0181E596E00E948F
:105AD0006D21CE0101960E948F1333C020910B01DE
