:100000000C94E4090C940C0A0C940C0A0C940C0A41
:100010000C940C0A0C940C0A0C940C0A0C940C0A08
:100020000C940C0A0C940C0A0C9470140C94E214AA
:100030000C940C0A0C940C0A0C940C0A0C940C0AE8
:100040000C940C0A0C94491A0C940C0A0C940C0A8B
:100050000C940C0A0C940C0A0C940C0A0C946B195A
:100060000C940C0A0C940C0A0C940C0A0C940C0AB8
:100070000C940C0A0C940C0A0C940C0A0C940C0AA8
:100080000C94851B0C940C0A0C940C0A0C940C0A0E
:100090000C940C0A0C940C0A0C940C0A0C940C0A88
:1000A0000C940C0A0C940C0A0C940C0AB118B41899
:1000B000A318A718AB18D518D518D518B818BC1898
:1000C000C018C618CA18D518D0180000000024009F
:1000D00027002A002D003000D5F08D14A1C881CF53
:1000E000D9F1AF20000408020110408040102040E8
:1000F000804080080204018040201002011080101E
:100100002040402000000000250028002B002E0089
:10011000310004040404040304050202020204037F
:100120000202020206060606060604040202020491
:10013000041402130212021502070208020A020A3C
:10014000010B020B010902090104010C0106010067
:10015000029A903E00A6904000A6904200A69040D1
:1001600000A6904300A6904200A6904000A6903EB4
:1001700000A6904500A6904300A6904200A690409D
:1001800000A69132904200A69134903E00A691368E
:10019000904500A6913400A69047913700A691366D
:1001A00000A69049913400379047003790490037B6
:1001B0009132904A00A6913990490053904A0053D9
:1001C0009137904900A691369047005390450053CF
:1001D0009134007D8000299049913600A6904A9183
:1001E0003200A6904C913900A6904900A6912D901E
:1001F0004E00A6904A00A69139904900A69047006B
:100200008A81001B9139904C00A6904900A6912D3F
:10021000904A00A6904700A69139904500A69044C8
:10022000008A81001B9139904C00A6904900A6914C
:100230002D904E00A6904A00A69139904900A690B4
:1002400047008A81001B9139904C00A6904900A676
:10025000912D904A00A6904700A69139904500A69E
:100260009044008A81001B9139904900A690470074
:10027000A6913B904A00A6904900A6913D90470068
:10028000A6904500A6913E904E00A6913D00A690F6
:1002900044914000A6913E00A69045913D00A69154
:1002A0003B00A6913D001B80001B90470037904506
:1002B0000037913E90440037904500379047001B2F
:1002C00080001B90479140014D913400A69045005D
:1002D000A69139904500A6913400A6913600A691CA
:1002E0003800A691398000A6913B00A6913D00A65A
:1002F000913B00A6904C913E00A6913D00A69051E6
:10030000913B00A6913900A6914000A6904700A617
:100310009134904900A6904B00A6904C8100A69085
:100320004E00A6904F00A6904E00A6913B90510023
:10033000A6904F00A69140904E00A6904C00A6902B
:100340005300A6913600A69047913800A6913A0036
:10035000A6913B8000A6913D00A6913E00A6913D4E
:1003600000A69042914000A6913E00A69047913D84
:1003700000A6913B00A6914200A6904600A69136A9
:10038000904700A6904900A69140904A00A6904C44
:1003900000A6913E904E00A6904C00A69147904F2B
:1003A00000A69146904E00A69147904C00A6904A18
:1003B00000A6913D904C00A6904A00A69146904E12
:1003C00000A69144904C00A69146904A00A6904900
:1003D00000A69147904A00A69145904900A69143F6
:1003E000904C00A69142904A00A69140904900A6E8
:1003F000913E904700A69140904900A6913E00A6EC
:10040000904691420053904400539140904600A67C
:10041000913E904700A6913D00A6913E00A69049CE
:100420009140008A80001B904991420053904A00FD
:1004300053904900A6913600A6904700A6913B0034
:10044000A6904200A69136904400A6904600A69140
:1004500032904700A6904900A6912F904A00A6909E
:100460004900A6904C00A6904A00A690498100A69B
:10047000904700A6904F00A6912F00A6913100A6AC
:10048000913300A6913400A6913600A6913700A6BC
:10049000913600A6913900A6913700A6913600A6A4
:1004A000913400A69139008A80001B904000A690EC
:1004B0004200A6904400A6904500A6904700A69052
:1004C0004900A6904700A6904A00A6904900A69031
:1004D0004700A6904500A6904E008A81001B912DF2
:1004E00000A6912F00A6913100A6913200A691346A
:1004F00000A6913600A6913400A6913700A6913649
:1005000000A6913400A6913200A69138008A80009E
:100510001B904700A6904C00A69134904A00A691EB
:1005200036904900A69138904700A691399049002D
:10053000A69138904700A69136904A00A691349033
:100540004900A69132904700A69136904500A691A9
:100550003490440053904500539132904400A6914A
:1005600031904000A6912F00A69045913100A690B1
:1005700047912D00A69049913900A6904700A69179
:1005800036904A00A6904900A69131904700A69067
:100590004500A69132904E00A6913100A6913400FC
:1005A000A69044913200A69045913100A6904491C6
:1005B0002F00A69045913100A6904A913200A69056
:1005C000479134014D912800A69045008A80001B78
:1005D0009045912D00A6913100A6913200A6904938
:1005E000913400A6904A913600A6904C913700A60F
:1005F0009042913900A6913700A69043913B00A606
:10060000913900A690479137005390450053913699
:1006100090430053904500539137904700A6913680
:1006200000A6904A91390053904900539137904762
:100630000053904900539136904A00A6913400A689
:10064000913600A69049913400A6904C913700A6AF
:10065000904A913600A69049913400A6904A913272
:1006600000A6904C913900A6904A00A6912D904981
:1006700000A6904700A690458100A6904300A69052
:100680004200A6904000A6904300A6904200A6908B
:100690004000A6903E00A6904500A6904300A6907C
:1006A0004200A6904000A69132904200A69134905C
:1006B0003E00A69136904500A6913400A690479141
:1006C0003700A6913600A690499134003790470034
:1006D00037904900379132904A00A69139904900ED
:1006E00053904A00539137904900A69136904700A5
:1006F00053904500539134007D800029904A9136F3
:1007000000A69132008A80001B904A913900A69180
:100710003600A6903E913B00A6913700A6904A91E4
:100720003600A69134008A80001B904A913900A6B9
:10073000913600A6903E913700A6913400A6904ACB
:10074000913200A69131008A80001B904A913900B5
:10075000A6913600A6903E913B00A6913700A69048
:100760004A913600A69134008A80001B904A913944
:1007700000A6913600A6903E913700A6913400A6BF
:10078000904A913200A6904C913100A6904E913241
:1007900000A6904C00A69134904F00A6904E00A663
:1007A0009136904C00A6904A00A69137905300A62F
:1007B000913600A69049913900A6913700A6904A3B
:1007C000913600A6913400A69136001B80001B9044
:1007D0004C0037904A0037913790490037904A00D3
:1007E00037904C002980000D904C9139014D912D8E
:1007F00000A6904A008A80001B904A912F00A69183
:100800002D00A6903E913000A6912F00A690439116
:100810002D00A6912B00A6913200A6903900A6903B
:100820003B00A6903D00A6903E00A6904000A690FA
:1008300042008A81001B9131904000A6912F904385
:1008400000A6912D904200A6912B904000A6912ADF
:10085000903E00A6912B904700A6912A00A6912DCC
:1008600000A6903D912B00A6903E912A00A6903DB7
:10087000912800A6903E912A00A69043912B00A6B5
:100880009040912D01F4903E008A80001B903E9193
:100890002607D08081F010001000A07BE050F6DF2A
:1008A00076C009140209A046A90040E94600088460
:1008B0000000846414009FD9BB9F90B9BFF8F7A4CF
:1008C000A4EF171D1DFD0FAD0D0F8755050F00A4DB
:1008D0004A001ABA3A00FFB9B3E3FF95959FFF5952
:1008E0005916FF9B9BD9CF94F41FF92F5990FF28DD
:1008F00048F8FF9193FFFF55D5777FD9DDDF718FE2
:100900008171FF88C8FF99D6B69907FC9407211614
:10091000280080898F8070616200755756002676A6
:100920003710A7B773008772060070275000731442
:100930006400775377007F15070047751F00324723
:1009400032007364770015724500616A9700402F8A
:100950006020F0F9F6F6C060B84CB4B64BB5B54BB4
:10096000FF49B781010101010101010101010101FB
:100970000101010101010101010101010101010167
:100980000101010101010101010101010101010157
:100990000305DB25DB2525DB25DB05030101010143
:1009A0000101010101010101010101010101010137
:1009B0000101010101010101010101010101010127
:1009C000010101010101010181B749FF4BB5B54B9F
:1009D000B6B44CB860C0FF16150E15150E35B54EE1
:1009E000FF4EB5B54EB5B54E35350E35350E15162F
:1009F0000D16160E14140C14140C14140C14140CE0
:100A0000140C0C0C0404040404040404040404047E
:100A10000605060506050506050605060404040484
:100A200004040404040404040C0C0C140C14140C2E
:100A300014140C14140C14140E16160D16150E3571
:100A4000350E35354EB5B54EB5B54EFF4EB5350EF6
:100A500015150E1516FFFF00000000000000AD5236
:100A6000FF926D6D02010100000000000000000017
:100A70000000000000000000000000000000000076
:100A80000000000000000000000000000000000066
:100A90000000000000000000000000000000000056
:100AA0000000000000000000000000000000000046
:100AB0000000000000000000000000000000000036
:100AC00000000000000101026D6D92FF52AD0000B8
:100AD0000000000000FFFF00000000000000000711
:100AE000FFA45B0000000000000000000000000008
:100AF00000000000000000000000000000000000F6
:100B000000000000000000000000000000000000E5
:100B100000000000000000000000000000000000D5
:100B200000000000000000000000000000000000C5
:100B300000000000000000000000000000000000B5
:100B40000000000000000000005BA4FF07000000A0
:100B50000000000000FFFF0000000000000000E0B7
:100B6000FF24DB0000000000000000000000000087
:100B70000000000000000000000000000000000075
:100B80000000000000000000000000000000000065
:100B90000000000000000000000000000000000055
:100BA0000000000000000000000000000000000045
:100BB0000000000000000000000000000000000035
:100BC000000000000000000000DB24FFE000000047
:100BD0000000000000FFFF00000000000000B54A18
:100BE000FF49B6B640808000000000000000000011
:100BF00000000000000000000000000000000000F5
:100C000000000000000000000000000000000000E4
:100C100000000000000000000000000000000000D4
:100C200000000000000000000000000000000000C4
:100C300000000000000000000000000000000000B4
:100C40000000000000808040B6B649FF4AB50000B1
:100C50000000000000FFFF68A870A8A870ACAD728B
:100C6000FF72ADAD72ADAD72ACAC70ACAC70A868DB
:100C7000B068687028283028283028283028283084
:100C80002830283030302020202020202020202014
:100C900060A060A060A0A060A060A06020202020D4
:100CA00020202020202030303028302830282830C4
:100CB0002828302828302828706868B068A870ACC8
:100CC000AC70ACAC72ADAD72ADAD72FF72ADAC706C
:100CD000A8A870A868FF03061D322D6DD2ADADD255
:100CE000FF92ED8180808080808080808080808005
:100CF00080808080808080808080808080808080F4
:100D000080808080808080808080808080808080E3
:100D1000C0A0DBA4DBA4A4DBA4DBA0C08080808017
:100D200080808080808080808080808080808080C3
:100D300080808080808080808080808080808080B3
:100D4000808080808080808081ED92FFD2ADADD2A6
:100D50006D2D321D0603080B00020202010009047A
:100D60000000010202000005240010010524010119
:100D70000104240206052406000107058103100072
:100D80004009040100020A000000070502024000B9
:100D900000070583024000000403090441726475E2
:100DA000696E6F204C4C430041726475626F79002C
:100DB00012010002000000404123368000010102C0
:100DC000030112010002EF020140412336800001BD
:100DD0000102030106011501260137014A015D01E7
:100DE000720188019F01B801D201EE010B022A02B3
:100DF0004B026E029302BA02E40210033F03700337
:100E0000A403DC03170455049704DD0427057505C6
:100E1000C80520067D06E0064907B8072D08A90881
:100E20002D09B9094D0AEA0A900B400CFA0CC00DC5
:100E3000910E6F0F5A1053115B1272139A14D4153E
:100E400020178018F519801B231DDE1EB420A62252
:100E5000B524E4263429A72B402E0031EA3300378D
:100E6000453ABC3D68414C456B49C84D68524F57A7
:100E7000805C006210111213151617181A1C1D1F22
:100E800021232527292C2E3134373A3E4145494E1E
:100E900052575C62686E757B838B939CA5AFB9C417
:100EA000D0DCE9F700000000003E5B4F5B3E3E6B8C
:100EB0004F6B3E1C3E7C3E1C183C7E3C181C577DF4
:100EC000571C1C5E7F5E1C00183C1800FFE7C3E740
:100ED000FF0018241800FFE7DBE7FF30483A060E52
:100EE0002629792926407F050507407F05253F5A99
:100EF0003CE73C5A7F3E1C1C08081C1C3E7F142209
:100F00007F22145F5F005F5F06097F017F006689B3
:100F1000956A606060606094A2FFA29408047E04F9
:100F20000810207E201008082A1C08081C2A08081F
:100F30001E101010100C1E0C1E0C30383E383006DF
:100F40000E3E0E06000000000000005F00000007DB
:100F5000000700147F147F14242A7F2A1223130809
:100F6000646236495620500008070300001C2241E5
:100F7000000041221C002A1C7F1C2A08083E080889
:100F80000080703000080808080800006060002039
:100F9000100804023E5149453E00427F400072491C
:100FA0004949462141494D331814127F10274545C0
:100FB00045393C4A494931412111090736494949D6
:100FC00036464949291E0000140000004034000044
:100FD00000081422411414141414004122140802AD
:100FE000015909063E415D594E7C1211127C7F4920
:100FF0004949363E414141227F4141413E7F494975
:1010000049417F090909013E414151737F080808A0
:101010007F00417F41002040413F017F0814224171
:101020007F404040407F021C027F7F0408107F3ECB
:101030004141413E7F090909063E4151215E7F0938
:10104000192946264949493203017F01033F40409F
:10105000403F1F2040201F3F4038403F631408148A
:101060006303047804036159494D43007F414141C2
:101070000204081020004141417F040201020440A3
:1010800040404040000307080020545478407F2827
:101090004444383844444428384444287F3854541D
:1010A000541800087E090218A4A49C787F08040440
:1010B0007800447D40002040403D007F10284400DF
:1010C00000417F40007C047804787C080404783870
:1010D00044444438FC1824241818242418FC7C08A0
:1010E000040408485454542404043F44243C40401D
:1010F000207C1C2040201C3C4030403C44281028D0
:10110000444C9090907C4464544C44000836410018
:101110000000770000004136080002010204023C92
:101120002623263C1EA1A161123A4040207A385461
:1011300054555921555579412154547841215554DC
:10114000784020545579400C1E527212395555552D
:1011500059395454545939555454580000457C4118
:101160000002457D420001457C40F0292429F0F031
:10117000282528F07C545545002054547C547C0A82
:10118000097F4932494949323248484832324A484F
:1011900048303A4141217A3A42402078009DA0A04F
:1011A0007D39444444393D4040403D3C24FF2424A3
:1011B000487E4943662B2FFC2F2BFF0929F620C0C0
:1011C000887E090320545479410000447D41304811
:1011D000484A32384040227A007A0A0A727D0D1954
:1011E000317D2629292F28262929292630484D40B6
:1011F00020380808080808080808382F10C8ACBAB2
:101200002F102834FA00007B000008142A14222230
:10121000142A14089500220095AA005500AAAA5580
:10122000AA55AA000000FF00101010FF00141414AB
:10123000FF001010FF00FF1010F010F0141414FC49
:10124000001414F700FF0000FF00FF1414F404FC66
:10125000141417101F10101F101F1414141F001047
:101260001010F0000000001F101010101F101010C0
:1012700010F010000000FF101010101010101010CF
:10128000FF10000000FF140000FF00FF00001F100F
:10129000170000FC04F414141710171414F404F4C9
:1012A0000000FF00F714141414141414F700F714BA
:1012B0001414171410101F101F141414F414101009
:1012C000F010F000001F101F0000001F14000000AD
:1012D000FC140000F010F01010FF10FF141414FFA5
:1012E000141010101F00000000F010FFFFFFFFFFA0
:1012F000F0F0F0F0F0FFFFFF0000000000FFFF0F34
:101300000F0F0F0F38444438447C2A2A3E147E02C3
:10131000020606027E027E02635549416338444458
:101320003C04407E201E2006027E020299A5E7A50D
:10133000991C2A492A1C4C7201724C304A4D4D307E
:101340003048784830BC625A463D3E494949007EA3
:101350000101017E2A2A2A2A2A44445F444440513A
:101360004A444040444A51400000FF0103E080FFEE
:10137000000008086B6B083612362436060F090F7A
:1013800006000018180000001010003040FF010196
:10139000001F01011E00191D1712003C3C3C3C00BF
:1013A000000000000000000200090F00000304011B
:1013B000000C000000000000000000000000000021
:1013C00000000000EE27CA2711241FBECFEFDAE08D
:1013D000DEBFCDBF11E0A0E0B1E0E2EBF7E502C077
:1013E00005900D92A23AB107D9F726E0A2EAB1E042
:1013F00001C01D92A33DB207E1F719E0C3EED9E0A9
:1014000004C02197FE010E94D928C23ED107C9F726
:101410000E94E71B0C94CC2B0C9400008F929F929F
:10142000AF92BF92CF92DF92EF92FF920F931F93F2
:10143000CF93DF938C016B0198E0E92EF12CE42F20
:10144000E695E695E695F0E0CA0187709927892B25
:10145000C1F5D8011696CD91DC911797C601992751
:10146000BE010E94C528D80150964D915C915197BC
:10147000992714966D917C911597452B91F4EC9FCB
:10148000A001ED9F500DFC9F500D1124840F951F5E
:10149000FB01E80FF91FC22FC09520812C23208368
:1014A00032C0EC9FA001ED9F500DFC9F500D112408
:1014B000840F951FFB01E80FF91FC081C22BC08369
:1014C00022C0C22FD0E04770A42EB12C4F0183E080
:1014D000880C991C8A95E1F79E0101C0220F4A955C
:1014E000EAF7A401B601C8010E940E0AC7018A19D1
:1014F0009B0902C0D595C7958A95E2F72C2FA401C8
:10150000485F5F4F9CCFDF91CF911F910F91FF906C
:10151000EF90DF90CF90BF90AF909F908F90089505
:101520008F929F92AF92BF92CF92DF92EF92FF92F3
:101530000F931F93CF93FC016A3061F484859585E6
:1015400093878287238986859785820F911D978748
:10155000868771C0C284D384693031F449E0C40EF7
:10156000D11CD386C28667C0C62F8C01E684F7845F
:101570005DEFC5165FEFD5065CF4F801828990E057
:10158000049622853385820F931F9387828753C0E9
:10159000FC0186819781C816D9067CF7FDEFEF160E
:1015A000FFEFFF0654F3F80180859185E816F906F0
:1015B00024F7603208F4CFE780EE8C0F9FE99C0F90
:1015C0009A3118F4FFEFEF1AFF0A8C3011F08B31CB
:1015D00019F44FEFE41AF40AA82EA694A69458E042
:1015E000A59E90011124F901EA56F74F5F0180FF93
:1015F00003C0F4E0AF0EB11CC378C7FF03C0C150F5
:10160000CC6FCF5F812C912CF501E80DF91D249151
:10161000C2300CF022952F70B4016C0D7D1DA70116
:10162000C8010E940E0A4FEF841A940A54E08516EE
:10163000910451F7A2CF81E090E0CF911F910F91DB
:10164000FF90EF90DF90CF90BF90AF909F908F90E2
:101650000895882359F080910301882319F010928E
:101660000301089581E080930301089580910401AE
:10167000882319F010920401089581E080930401F9
:1016800008950F931F93CF93DF931F92CDB7DEB7CB
:10169000182F062F49830E945F19DC01CB01805F60
:1016A000984DAF4FBF4F8093D6019093D701A09331
:1016B000D801B093D9012091D2013091D301498151
:1016C0001123F1F02F5F3F4F3093D3012093D201CC
:1016D00041110BC080910201882359F12D30310551
:1016E0000CF441C081E090E006C0243631050CF4D2
:1016F00041C083E690E09093D3018093D2013AC039
:10170000215031093093D3012093D20141110AC0F5
:10171000809102018823C1F01216130644F18CE077
:1017200090E0E9CF37FF26C01092D3011092D2018A
:1017300021C02C30310599F028313105D9F41092AF
:10174000D3011092D2010BC02B30310541F037FF8D
:1017500011C087E190E09093D3018093D201802F54
:101760000E94290B07C02C30310521F4F8CF2B3013
:101770003105A9F380E090E00F90DF91CF911F91A8
:101780000F9108950F931F93CF93DF931F92CDB7BF
:10179000DEB7182F062F49830E945F19DC01CB01A9
:1017A000805F984DAF4FBF4F8093D6019093D70184
:1017B000A093D801B093D9012091D4013091D501E3
:1017C0004981C901112369F001968C33910564F0B8
:1017D0001092D5011092D40141111CC0602F81E0FC
:1017E00012C0019797FD05C09093D5018093D40155
:1017F00011C08BE390E09093D5018093D401411107
:1018000009C0602F80E00F90DF91CF911F910F9161
:101810000C94410B0F90DF91CF911F910F91089580
:10182000CF93DF939091A701923009F480C0292FC4
:1018300030E0F901EB5AFE4FD081F901E652FE4F3C
:101840008083913031F42091DA01281302C0909303
:10185000B106C82F9F5F9093A70161E00E94E9182D
:10186000D13019F0D33061F162C080916400877F7C
:10187000809364001092800010928100809181001A
:1018800088608093810080918100816080938100D5
:101890008C2F90E0FC01EE5EFE4FE491F0E0EE0F45
:1018A000FF1FEC5FFE4F259134913093B3062093D8
:1018B000B206FC01EB51FF4F84918093B40637C010
:1018C00080916500877F8093650010929000109250
:1018D00091008091910088608093910080919100A7
:1018E0008160809391008C2F90E0FC01EE5EFE4FB2
:1018F000E491F0E0EE0FFF1FEC5FFE4F2591349175
:101900003093B6062093B506FC01EB51FF4F84914E
:101910008093B7068091A701882321F06CE380E0D3
:101920000E94D21980E0DF91CF910C94C41ADF910C
:10193000CF910895CF92DF92EF92FF9281E0809352
:10194000A8018093000161E00E94E1110E945F19EB
:10195000C090D601D090D701E090D801F090D90185
:10196000209101016C157D058E059F0510F0222345
:10197000A9F02223F9F00E945F19DC01CB01805FFE
:10198000984DAF4FBF4F8093D6019093D701A0934E
:10199000D801B093D901109201010CC01092AA0194
:1019A0001092AB011092D6011092D7011092D8017B
:1019B0001092D901FF90EF90DF90CF900895CF93D0
:1019C000DF93EC016EE871E00E944D128823B1F0C4
:1019D0000E94B51982FD75C00E94B51987FD71C0BE
:1019E0000E94B51984FD6DC00E94B51985FD69C0BE
:1019F0000E94B51986FD65C081E064C065E971E0AB
:101A0000CE010E944D12882329F00E94B51983FD52
:101A100058C0E2CF67E671E0CE010E944D128823E4
:101A200049F00E94B51982FD4CC00E94B51983FD92
:101A300048C0D6CF62E671E0CE010E944D128823E5
:101A400069F00E94B51982FD3CC00E94B51987FD5E
:101A500038C00E94B51983FD34C0C6CF67E571E078
:101A6000CE010E944D12882389F00E94B51982FD93
:101A700028C00E94B51987FD24C00E94B51984FDB5
:101A800020C00E94B51983FD1CC0B2CF6CE571E087
:101A9000CE010E944D128823A1F00E94B51982FD4B
:101AA00010C00E94B51987FD0CC00E94B51984FDB5
:101AB00008C00E94B51985FD04C00E94B51983FFB6
:101AC0009BCF80E0DF91CF9108950E94B51983FDEF
:101AD00016C00E94B51982FD12C00E94B51987FD7B
:101AE0000EC00E94B51984FD0AC00E94B51985FD7B
:101AF00006C00E94B51986FD02C081E0089580E00D
:101B000008956F927F928F929F92AF92BF92CF92E1
:101B1000DF92EF920F93CF93DF9300D000D000D0ED
:101B2000CDB7DEB76C015B014A0139016A3071053E
:101B300018F467E971E002C06AE971E087E092E0B9
:101B40000E9428138AE08816910418F467E971E06E
:101B500002C06AE971E081E092E00E9428138AE005
:101B6000681671045CF469E971E08BEF91E00E9402
:101B70002813EE2089F067E971E00AC06AE971E094
:101B80008BEF91E00E942813EE2031F06AE971E0BA
:101B90008BEF91E00E94281380910201882389F045
:101BA000E1100FC0002351F080910301882319F048
:101BB0006EE971E008C069E871E005C08091040138
:101BC000F5CF6AE971E08FEE91E00E9428136BEF88
:101BD00071E0CE0101960E944114B301CE0101963D
:101BE0000E946C126DE072E00E94BB1261E072E034
:101BF0000E94BB12B4010E946C126DE072E00E9460
:101C0000BB1267E072E00E94BB12B5010E946C1229
:101C1000BC01C6010E944114CE0101960E943F13EF
:101C2000C60126960FB6F894DEBF0FBECDBFDF917A
:101C3000CF910F91EF90DF90CF90BF90AF909F909A
:101C40008F907F906F900895CF92DF92EF92FF92E6
:101C50000F93CF937C016A01C22F9093D10180939F
:101C6000D0017093D5016093D4015093D301409378
:101C7000D201011168C00E94B51986FF33C00E94CD
:101C8000B51987FF2FC080910201882359F10E9466
:101C9000B51983FD27C00E94B51982FD23C00E949B
:101CA000B51985FD1FC00E94B51984FD1BC0109297
:101CB00002018CE0C816D10409F07AC0C11153C0EA
:101CC00080910501909106010C9709F456C0C1114D
:101CD0005EC080910401882309F459C01092D30199
:101CE0001092D2010E94B51985FF2DC00E94B5192E
:101CF00084FF29C080910201811125C00E94B5197D
:101D000083FD21C00E94B51982FD1DC00E94B51936
:101D100086FD19C00E94B51987FD15C081E080932A
:101D200002018091D2019091D3018D3091050CF088
:101D300082C0009709F0A7C08091D2019091D30191
:101D4000892B09F4BCC00E94B51983FFEFC00E9423
:101D5000B51987FFEBC00E94B51982FDE7C0402F7F
:101D60006C2F81E0F2C080910301882309F4A8CF91
:101D70001092D3011092D2010AC0809103018823EE
:101D800009F4A5CF1092060110920501A0CF809111
:101D90000701909108010C9709F0A4CF80910401EC
:101DA000882309F49FCF10920801109207019ACF5F
:101DB0003091030120910401CC2351F0311108C06E
:101DC0008CE0C80ED11CD092D301C092D20121C0A8
:101DD00080910501909106018C30910541F03111FF
:101DE0000CC00C96909306018093050106C0332326
:101DF00021F01092060110920501C1110AC02111B3
:101E000008C08CE0C80ED11CD092D301C092D20180
:101E100069CF80910701909108018C30910541F0C4
:101E2000211160CF0C9690930801809307015ACF3F
:101E30002111B9CF57CF0C97CC23A1F09093D301A8
:101E40008093D201109203018091070190910801C3
:101E50008D3091050CF470CF0C979093080180930E
:101E6000070161C020910501309106012D30310537
:101E70000CF455C02C503109309306012093050114
:101E8000109203014CC00C9709F456CFCC2351F0AB
:101E900081E0809303018091070190910801892BD3
:101EA00051F44ACF8091050190910601892B19F0D8
:101EB00081E08093030181E0809304013DCFCC2336
:101EC000A9F02CE030E03093D3012093D20181E0DF
:101ED000809303014091070150910801452B09F0BF
:101EE00032CF309308012093070116C0809105017D
:101EF00090910601892B49F48CE090E090930601C3
:101F00008093050181E0809303018CE090E0909341
:101F1000D3018093D20181E08093040114CF909388
:101F2000D3018093D2011092040106CF0E94B5190B
:101F300083FF0EC00E94B51984FF0AC00E94B51924
:101F400082FD06C0402F6C2F80E00E94410B7CC0B8
:101F50000E94B51982FF0EC00E94B51987FF0AC002
:101F60000E94B51983FD06C0402F6C2F81E00E94AE
:101F7000C20B6AC00E94B51982FF0CC00E94B5193D
:101F800084FF08C00E94B51983FD04C0402F6C2F48
:101F900080E0EDCF0E94B51983FF27C00E94B519DC
:101FA00082FF23C00E94B51987FF1FC00E945F19DE
:101FB000DC01CB01805F984DAF4FBF4F8093D601BE
:101FC0009093D701A093D801B093D9018FEFE81A6D
:101FD000F80A8CE3E816F1049CF11092D1011092FA
:101FE000D001011131C040E0C0CF0E94B51983FF7C
:101FF0002BC00E94B51982FF27C00E94B51984FF2B
:1020000023C00E945F19DC01CB01805F984DAF4F68
:10201000BF4F8093D6019093D701A093D801B0937E
:10202000D90181E0E81AF108F7FE0AC08BE390E0DD
:102030009093D1018093D001011106C040E0A7CF59
:10204000F092D101E092D0018091D0019091D10124
:102050009093CB018093CA018091D4019091D501D6
:102060009093CD018093CC018091D2019091D301C6
:102070009093CF018093CE018AEC91E0CF910F91A4
:10208000FF90EF90DF90CF900895FC018091DF01E9
:10209000811103C08FEF9FEF08959FB7F89482E0FE
:1020A0008093E9002091F20030E01216130614F438
:1020B00021E030E02115310559F0289884E680931D
:1020C000DE018091F10080838091F200882319F075
:1020D0009FBFC90108958BE68093E800F9CFCF93A5
:1020E000DF931F92CDB7DEB76983DC01ED91FC91E0
:1020F0000280F381E02D41E050E0BE016F5F7F4F31
:1021000009950F90DF91CF91089583E08093E900C6
:102110008091F200882319F08AE38093E800089503
:10212000CF93DF931F92CDB7DEB7FC0184859585F1
:1021300097FD05C02FEF3FEF358724870BC0CE01F9
:1021400001960E944510019719F4898190E002C020
:102150008FEF9FEF0F90DF91CF9108950F931F9313
:10216000CF93DF931F92CDB7DEB78C01FC0184853E
:10217000958597FF0EC0CE0101960E9445100197EC
:1021800019F4298130E002C02FEF3FEFF8013587C5
:102190002487F801848595850F90DF91CF911F9159
:1021A0000F910895FC018485958597FD0BC09FB71D
:1021B000F89482E08093E9008091F2009FBF90E064
:1021C000019608959FB7F89482E08093E90080918A
:1021D000F2009FBF90E008958F929F92AF92BF92BE
:1021E000CF92DF92EF92FF920F931F93CF93DF93E3
:1021F0005C016B018A0180911501882309F45EC09E
:102200008091DF01882309F459C08091DD0180FFAE
:1022100005C08091E00082608093E000E8018AEFD1
:10222000F82E93E0E92E2FE3822E3AE3932E2097A7
:1022300009F43DC08FB7F894E092E9009091E8006E
:1022400095FF06C09091F200282D291B922F01C006
:1022500090E08FBF91110AC0FA94FF2079F161E0FC
:1022600070E080E090E00E942519E1CF292F30E056
:10227000C217D3070CF49C2F8FB7F894E092E900B3
:102280002091E80025FF11C0292F30E0C21BD30B9D
:10229000F601915020F041914093F100FACFC20E27
:1022A000D31E9091E80095FF13C08FBFC0CF5D98FB
:1022B00084E68093DC011016110644F081E090E082
:1022C000F5019383828380E090E005C0C80103C0DC
:1022D0009092E800EACFDF91CF911F910F91FF908C
:1022E000EF90DF90CF90BF90AF909F908F90089528
:1022F0000E94EA2ACF93DF93EC01888199810097AD
:1023000011F00E948829198218821D821C821B826A
:102310001A82DF91CF9108950F931F93CF93DF938C
:10232000EC0188819981009729F02A813B81261749
:10233000370788F48B016F5F7F4F0E94202A009738
:1023400061F0998388831B830A832C813D81232B31
:1023500011F4FC01108281E001C080E0DF91CF9197
:102360001F910F910895EF92FF920F931F93CF93B8
:10237000DF93FC01248135816115710511F480E042
:1023800019C041155105A9F07B01EC018A01020F2A
:10239000131FB8010E948C11882389F32881398189
:1023A0008C819D81B701820F931F0E94012B1D8399
:1023B0000C8381E0DF91CF911F910F91FF90EF90FF
:1023C0000895CF93DF93D82FC62F61E08AE00E9453
:1023D00086186D2F8BE00E9486186C2F89E0DF91A4
:1023E000CF910C94861820E08CE192E0B22FB111CD
:1023F000BFEFFC010024B193B193B193B193039467
:10240000D1F7E0E3F6E0118E108E178A168A089550
:1024100080911C028EBDEDE1F2E081910DB407FECA
:10242000FDCF8EBD86E0EC31F807B9F70DB407FE9D
:10243000FDCF08952CE132E046E559E080E090E0E0
:10244000FA01E80FF91FE491EE2331F0D901A80F4A
:10245000B91F6C91E62BEC9301968038910581F7BA
:1024600040585F4F20583F4F86E02C31380731F7F6
:1024700008958091520681110DC082E080934E062E
:1024800084E080934F06109251061092500681E02E
:10249000809352068EE496E00895FC0124813581F4
:1024A000232B31F421E061157105A1F0FB0108C077
:1024B000FC01808191816115710531F421E0FC01FD
:1024C0008081882339F005C00E94F82A21E0892BF9
:1024D00009F020E0822F0895EF92FF920F931F934F
:1024E000CF93DF93CDB7DEB728970FB6F894DEBF52
:1024F0000FBECDBF7C01CB014AE08E010F5F1F4FA5
:10250000B8010E94082BF80101900020E9F73197EB
:10251000AF01401B510BB801C7010E94B3118111DB
:1025200003C0C7010E947A11C70128960FB6F8941C
:10253000DEBF0FBECDBFDF91CF911F910F91FF90F6
:10254000EF900895CF93DF93EC016115710561F071
:10255000FB0101900020E9F73197AF01461B570BB3
:102560000E94B311811103C0CE010E947A11CE01E5
:10257000DF91CF910895CF93DF93EC01FB0144816C
:102580005581608171810E94B311811103C0CE0118
:102590000E947A11CE01DF91CF9108950F931F937E
:1025A000CF93DF938C01EB01FC0180819181009737
:1025B000B1F0688179816115710579F042815381AB
:1025C0002C813D814217530740F00E94012B8C81E2
:1025D0009D81F8019583848313C00E948829888196
:1025E0009981F801918380838A819B81938382837F
:1025F0008C819D8195838483198218821B821A8223
:102600001D821C82DF91CF911F910F910895EF924F
:10261000FF920F931F93CF93DF93EC017B018A010D
:10262000BA010E948C11811104C0CE010E947A115E
:1026300007C01D830C83B701888199810E94012BFB
:10264000CE01DF91CF911F910F91FF90EF900895F0
:10265000CF93DF93EC016115710559F0FB010190F7
:102660000020E9F73197AF01461B570B0E94071373
:1026700002C00E947A11CE01DF91CF910895FC0132
:10268000808191810C94882908954091AF065091E2
:10269000B0062091AD063091AE0642175307B4F450
:1026A0009091E8009570E1F39091E80092FD19C0D7
:1026B0008093F1008091AF069091B00601968F73E0
:1026C0009927892B19F48EEF8093E8008091AF064B
:1026D0009091B00601969093B0068093AF0681E08A
:1026E000089580E00895CF92DF92EF92FF920F93CA
:1026F0001F93CF93DF931F92CDB7DEB7182F062F0E
:10270000E42E862F880F8E5F99830E94451383E005
:102710000E944513F12EC12E9981D92E8C2D8F192F
:10272000801798F4F601E7FE02C0849101C0808111
:102730000E944513182F80E00E9445138123FFEF6C
:10274000CF1ADF0A8111EACF01C081E00F90DF913B
:10275000CF911F910F91FF90EF90DF90CF90089550
:10276000DF92EF92FF920F931F93CF93DF93D82EB8
:102770008A017B01E40EF51EEB01CE15DF0571F039
:10278000D7FE03C0FE01849101C088810E944513D9
:1027900021968111F2CF8FEF9FEF01C0C801DF9129
:1027A000CF911F910F91FF90EF90DF9008956150AE
:1027B00030F02091F100FC0120830196F8CF289899
:1027C00084E68093DE010895CF92DF92EF92FF922C
:1027D0000F931F93CF93DF936C017A018B01C0E0BD
:1027E000D0E0CE15DF0589F0D8016D918D01D601BD
:1027F000ED91FC910190F081E02DC6010995892BA6
:1028000011F47E0102C02196ECCFC701DF91CF9178
:102810001F910F91FF90EF90DF90CF9008950F934D
:102820001F93CF93DF931F92CDB7DEB782E08983EA
:1028300042E450E066E57DE080E80E94B0130E942B
:102840003912DC0112960D911C9113970115110597
:1028500069F0D801ED91FC910280F381E02DBE0179
:102860006F5F7F4FC801099597FF07C089810F905F
:10287000DF91CF911F910F910895F8010085118587
:10288000E5CFFB01DC0111961C921E9213961C925F
:102890001E92129715961C921E92149786179707F0
:1028A00049F0608171816115710521F04481558184
:1028B0000C9407130895FC01118210821382128276
:1028C000158214826115710551F0FB010190002001
:1028D000E9F73197AF01461B570B0C940713089586
:1028E0001F920F920FB60F9211248F939F93809196
:1028F000E1009091E100937F9093E10083FF0FC08E
:102900001092E90091E09093EB001092EC0092E3BA
:102910009093ED001092DF0198E09093F00082FF19
:1029200020C093E09093E9009091F200992319F070
:102930009AE39093E8009091DC01992339F090910B
:10294000DC0191509093DC01992389F19091DE0193
:10295000992339F09091DE0191509093DE019923F3
:1029600041F184FF10C08091E2008E7E81608093EF
:10297000E2008091E1008F7E8093E1008091DD0193
:102980008E7E806111C080FF16C08091E2008E7E35
:1029900080618093E2008091E1008E7E8093E1006F
:1029A0008091DD018E7E81608093DD0104C05D9A9F
:1029B000CDCF289AD6CF9F918F910F900FBE0F90B9
:1029C0001F9018951F920F920FB60F921124CF925D
:1029D000DF92EF92FF920F931F932F933F934F93AA
:1029E0005F936F937F938F939F93AF93BF93EF9377
:1029F000FF93CF93DF93CDB7DEB76C97DEBFCDBF2C
:102A00001092E9008091E80083FFFAC168E0CE01EE
:102A100045960E94D71382EF8093E8008D8987FF47
:102A200005C09091E80090FFFCCF03C09EEF90930B
:102A3000E800982F907609F0C6C09E892F89188DDE
:102A400091110CC0803829F48091AB068093F1007D
:102A500002C01092F1001092F10047C1422F50E0E5
:102A6000512B913051F4811140C14130510509F091
:102A70003CC18091AB068D7F0BC0933061F4811116
:102A800034C14130510509F030C18091AB068260FC
:102A90008093AB062AC1953041F48091E80080FF15
:102AA000FCCF20682093E30020C1963009F05FC07E
:102AB000EB8CFC8C1092E9001092B0061092AF06DD
:102AC000123091F51092AE061092AD060E940F14CE
:102AD00099E0BE016F5F7F4FDB01E92F1D92EA9500
:102AE000E9F799831A8391E09E8390EA98879AEF99
:102AF00099872091AF063091B006275F3F4F3C8306
:102B00002B838D831092E9001092B0061092AF06CD
:102B1000F092AE06E092AD0649E050E080E00E94FF
:102B2000B0130E940F14E1C0F092AE06E092AD0621
:102B30000E943912DC011296ED90FC901397E1147B
:102B4000F10409F4C0C0D701ED91FC910480F58136
:102B5000E02DBE016B5E7F4FC7010995009719F00C
:102B60000CF0C3C0C6C0F701E084F184E8CF973011
:102B700009F4BFC0983021F481E08093F100B5C022
:102B8000993009F0B2C0837009F0B3C0EFE4F1E00E
:102B900081E021E036E39081992361F08093E900A0
:102BA0002093EB0091919093EC003093ED008F5FB8
:102BB000873089F78EE78093EA001092EA008F89C8
:102BC0008093DF0192C08B8D9C8D1092E900109252
:102BD000B0061092AF069093AE068093AD06898D35
:102BE000811156C08E899D89913A59F4813209F03C
:102BF00080C047E050E06EE071E080E00E94B013DA
:102C000074C0913209F075C0833289F4888D90E0E8
:102C1000982F88272F89822BA0E0B0E0809316019F
:102C200090931701A0931801B09319015EC08032F0
:102C300069F48091E80082FFFCCF67E08EE091E0CC
:102C40000E94D7138BEF8093E80006C0823209F010
:102C50004CC08F89809315018091AA06882319F0B2
:102C6000EEEFFAE002C0E0E0F8E080910E01909112
:102C70000F01A0911001B0911101803B9440A1057A
:102C8000B10509F088C08091150180FFA0C083C004
:102C90000E943912DC0112960D911C9113970115B7
:102CA000110539F1D801ED91FC910190F081E02DF1
:102CB000BE016B5E7F4FC8010995811116C0F801F6
:102CC00000851185ECCF1130C1F0133091F48F895C
:102CD000882309F455C08230E9F440E867E088EAC7
:102CE0009DE00E947313882321F08EEF8093E8000B
:102CF00087C081E28093EB0083C08B8D9C8D089709
:102D000011F41093AC068091AC06811136C060EBD3
:102D10007DE038C0813029F440E86BE08CE99DE02B
:102D2000E0CF833031F70E943912DC011296ED902A
:102D3000FC9013978E010F5F1F4F6801E114F1049F
:102D400079F0D701ED91FC910680F781E02DB80173
:102D5000C7010995080F111DF701E084F184EECF3A
:102D6000D8011C92F60101900020E9F73197BF01CC
:102D70006C197D0940E0C601B4CF62EC7DE002C071
:102D800068E97DE06115710509F4B3CFFB01449159
:102D900050E080E833CF0FB6F894A895809160009A
:102DA000886180936000109260000FBEA895EE3F8E
:102DB0002AE0F20739F08091FE0A9091FF0A918390
:102DC000808393CF1092FF0A1092FE0A8ECFEE3FBF
:102DD0008AE0F80731F0808191819093FF0A809317
:102DE000FE0A87E797E7918380839BE088E10FB62F
:102DF000F894A895809360000FBE9093600075CF03
:102E00006C960FB6F894DEBF0FBECDBFDF91CF91A9
:102E1000FF91EF91BF91AF919F918F917F916F91B2
:102E20005F914F913F912F911F910F91FF90EF90E4
:102E3000DF90CF900F900FBE0F901F9018956115E7
:102E4000710579F0FB0101900020E9F73197AF019E
:102E5000461B570BDC01ED91FC910280F381E02DC4
:102E6000099480E090E00895DC01ED91FC91DB0194
:102E700014964D915C9115976D917C910280F38130
:102E8000E02D09943FB7F8948091CB069091CC0641
:102E9000A091CD06B091CE0626B5A89B05C02F3FC8
:102EA00019F00196A11DB11D3FBFBA2FA92F982F70
:102EB0008827820F911DA11DB11DBC01CD0142E0EB
:102EC000660F771F881F991F4A95D1F70895809143
:102ED000A20108952F923F924F925F926F927F923C
:102EE0008F929F92AF92BF92CF92DF92EF92FF921A
:102EF0000F931F93CF93DF9300D000D000D0CDB7B6
:102F0000DEB7DC016A30A9F45C962C915C97589688
:102F10008D919C91599708E0209F800D911D11245F
:102F200059969C938E93589757961C921E9256973B
:102F3000D1C06D3009F4CEC05C96BC905C975B96B6
:102F40002C905B975A963C905A9758962D913C91AD
:102F500059973C832B8356968D919C915797803837
:102F60009105C4F05C962C915C97422F50E05696E8
:102F70008D919C91579736E0239F800D911D1124D0
:102F800057969C938E9356975D962C915D97211141
:102F90008EC0A0C00B811C81003411051CF79C0160
:102FA00015E0B19E200D311D112412161306D4F622
:102FB0008B2C912C2B813C8148E0B49E200D311D3F
:102FC00011241216130674F6E5E06E9F20011124F9
:102FD00060E070E06530710539F0FB01E40DF51D2E
:102FE000EC55F14FA49001C0A12CEB80FC8008E0CF
:102FF000702EA0FC02C0622C01C0632C611009C0BD
:10300000231007C0A6947A94E80CF91C7110F1CF34
:1030100045C09C01422F481B4B15A0F7A701E42F88
:10302000F42FFE19FB15B8F52038310588F540342A
:10303000510570F5E695E695E695CE2ED12C8A01E0
:10304000077011271A830983F601F695FE2FEE27E4
:10305000F795E795E20FF31F8F01045E1D4F1E8366
:103060000D83E1E0F0E0098002C0EE0FFF1F0A943B
:10307000E2F7FA83E983662029F0F801D080C9805D
:10308000CD2805C0CE2EC094F801D080CD20C082BE
:103090004F5F5F4FC4CF2F5F3F4FBCCF6F5F7F4FFE
:1030A000880D991D6630710509F094CF5BCF6AEFEA
:1030B00064039001659F300D112420583F4F28175D
:1030C000390744F4CD01ED91FC910190F081E02DA0
:1030D0006AE0099581E090E026960FB6F894DEBF8D
:1030E0000FBECDBFDF91CF911F910F91FF90EF9059
:1030F000DF90CF90BF90AF909F908F907F906F9018
:103100005F904F903F902F9008950895362F90E054
:10311000FC01EC55FC4E4491FC01EB51FF4F249116
:10312000FC01EE5EFE4F8491882309F451C04423D4
:10313000E1F150E0FA013197EF30F105B0F5EA5ACC
:10314000FF4F0C94D928909180009F7707C09091F1
:1031500080009F7D03C090918000977F90938000B6
:1031600024C094B59F7702C094B59F7D94BD1DC0C7
:10317000909190009F7707C0909190009F7D03C031
:1031800090919000977F909390000FC09091C00015
:103190009F7703C09091C0009F7D9093C00005C0B1
:1031A0009091C200977F9093C200E82FF0E0EE0F5D
:1031B000FF1FEC5FFE4FA591B4918FB7F894EC918F
:1031C000311103C020952E2301C02E2B2C938FBFCD
:1031D0000895CF93DF9390E0FC01EB51FF4F2491D2
:1031E000FC01EE5EFE4F8491882361F190E0880F30
:1031F000991FFC01E653FF4FC591D491FC01EC5F90
:10320000FE4FA591B491611109C09FB7F8948881D0
:10321000209582238883EC912E230BC0623061F4C9
:103220009FB7F8943881822F809583238883EC910F
:103230002E2B2C939FBF06C08FB7F894E8812E2BBE
:1032400028838FBFDF91CF9108958F929F92AF9285
:10325000BF92CF92DF92EF92FF926B017C010E94AE
:1032600042174B015C01C114D104E104F104F1F0F7
:103270000E944217DC01CB0188199909AA09BB09F0
:10328000883E9340A105B10570F321E0C21AD10830
:10329000E108F10888EE880E83E0981EA11CB11C9D
:1032A000C114D104E104F10419F7DDCFFF90EF90D0
:1032B000DF90CF90BF90AF909F908F9008952FB7E1
:1032C000F8946091C7067091C8068091C9069091E4
:1032D000CA062FBF08951F920F920FB60F921124A6
:1032E0002F933F938F939F93AF93BF938091C70684
:1032F0009091C806A091C906B091CA063091C60641
:1033000023E0230F2D3720F40196A11DB11D05C028
:1033100026E8230F0296A11DB11D2093C6068093B7
:10332000C7069093C806A093C906B093CA068091B9
:10333000CB069091CC06A091CD06B091CE06019619
:10334000A11DB11D8093CB069093CC06A093CD0612
:10335000B093CE06BF91AF919F918F913F912F91E6
:103360000F900FBE0F901F9018958FB12CB193B195
:1033700030E02095309520743327A90123E055953E
:1033800047952A95E1F7292F30E020953095207157
:1033900033273595279535952795242B8095807F64
:1033A000822B0895CF92DF92EF92FF921F93CF93DB
:1033B000DF93E82FF0E0EB5AFE4F1081E62FF0E0AC
:1033C000603330F4EC58F14FE491CE2FD0E006C0DA
:1033D000EE0FFF1FEC58F24FC591D4916E01E12C16
:1033E000F12C60E074E284EF90E0A70196010E9466
:1033F000452BDA01C9010197A109B109009721E024
:10340000A207B10578F060E970ED83E090E0A701D4
:1034100096010E94452BDA01C9010197A109B10962
:1034200023E001C021E01130C9F0133051F5309193
:103430009100387F232B20939100909399008093E3
:103440009800D093C406C093C30681E08093C2065F
:103450008091710082608093710013C03091C50625
:1034600031110FC030918100387F232B20938100D0
:10347000909389008093880080916F008260809390
:103480006F00DF91CF911F91FF90EF90DF90CF9071
:1034900008951F920F920FB60F9211242F933F930E
:1034A0008F939F93AF93BF93EF93FF938091C50644
:1034B000882309F44FC08091B8069091B906A09175
:1034C000BA06B091BB06892B8A2B8B2B51F18091C8
:1034D000B406E091B206F091B3069081892780830B
:1034E0008091B8069091B906A091BA06B091BB063A
:1034F000181619061A061B06D4F58091B806909185
:10350000B906A091BA06B091BB060197A109B1090D
:103510008093B8069093B906A093BA06B093BB0601
:1035200026C01092C1061092C50680916F008D7F53
:1035300080936F009091B406E091B206F091B306CB
:103540008081282F30E0892F90E08095909582230C
:1035500093230CC08091C006811109C08091B406EC
:10356000E091B206F091B306908189278083FF91A4
:10357000EF91BF91AF919F918F913F912F910F90BC
:103580000FBE0F901F901895E82FF0E0EB5AFE4FFA
:103590008081813019F0833089F008958091C506CB
:1035A000811122C080916F008D7F80936F00909178
:1035B000B406E091B206F091B3060CC01092C206B8
:1035C0008091C106811110C09091B706E091B506B7
:1035D000F091B6068081282F30E0892F90E0809509
:1035E00090958223932380830895CF93DF93D1E036
:1035F000E091A301F091A4019F012F5F3F4F309311
:10360000A4012093A3018491982F907FC82FCF709D
:10361000903821F48C2F0E94C41AEACF9039F9F423
:10362000E091E101F091E20109958D278093C006B8
:10363000E091A301F091A401CF0101969093A40120
:103640008093A30164918091A701C81788F6C130C7
:1036500009F052C08091B1068111CACF4DC097FDCB
:103660003AC03296F093A401E093A301F9012491AA
:1036700030E0382BA091C306B091C4060E94BD2B48
:103680006C507E4F8F4F9F4F28EE33E040E050E06C
:103690000E949B2B2093BC063093BD064093BE0630
:1036A0005093BF068091BC069091BD06A091BE06C6
:1036B000B091BF06892B8A2B8B2B21F581E090E0FE
:1036C000A0E0B0E08093BC069093BD06A093BE0638
:1036D000B093BF0617C0903E49F48091A501909128
:1036E000A6019093A4018093A30182CF903F09F09B
:1036F0007FCF1092A90106C067FD7ACF8C2F0E9460
:10370000D21976CFDF91CF9108951F920F920FB605
:103710000F9211242F933F934F935F936F937F9357
:103720008F939F93AF93BF93EF93FF938091C206C4
:10373000882341F08091C106811104C08091C006A8
:10374000882351F18091A901882381F18091BC06E1
:103750009091BD06A091BE06B091BF06892B8A2B21
:103760008B2B21F18091BC069091BD06A091BE06E5
:10377000B091BF060197A109B1098093BC0690934F
:10378000BD06A093BE06B093BF06892B8A2B8B2B58
:1037900069F40E94F51A0AC08091B706E091B50657
:1037A000F091B606908189278083CCCFFF91EF916D
:1037B000BF91AF919F918F917F916F915F914F9149
:1037C0003F912F910F900FBE0F901F901895CF93A0
:1037D000DF93CDB7DEB766970FB6F894DEBF0FBEA6
:1037E000CDBF789484B5826084BD84B5816084BD8A
:1037F00085B5826085BD85B5816085BD80916E008F
:10380000816080936E0010928100809181008260BF
:1038100080938100809181008160809381008091FC
:10382000800081608093800080919100826080930D
:10383000910080919100816080939100809190002F
:103840008160809390008091C10084608093C1006A
:103850008091C10082608093C1008091C10081602D
:103860008093C1008091C30081608093C3008091E8
:10387000C00082608093C0008091C200816080930C
:10388000C20080917A00846080937A0080917A00EF
:10389000826080937A0080917A00816080937A00C0
:1038A00080917A00806880937A001092DF011092F4
:1038B000AB061092DD018091D70081608093D70024
:1038C00080EA8093D80089B5806189BD89B582601E
:1038D00089BD09B400FEFDCF61E070E080E090E0BA
:1038E0000E9425198091D8008F7C80618093D80038
:1038F0008091E000807F8093E0008091E1008E7EE7
:103900008093E1008DE08093E200559A209AEEEFDB
:10391000FFE7859194918B3F9C4D19F481E0809352
:10392000AA0685E00E94100C8DE00E94100C1FB7C3
:10393000F8948091AC01811127C0E3E2F1E0849119
:10394000E6EFF0E09491E82FF0E0EE0FFF1FE65372
:10395000FF4FA591B491EC91E92321F461E081E15D
:103960000E94861861E081E10E94E9188CB58061AF
:103970008CBD8CB580648CBD61E08FE00E94E9183D
:1039800061E080E10E94E9188091AC018F5F809333
:10399000AC011FBF01E311E0F80184910E5F1F4FDE
:1039A00031966491882319F00E94E918F5CF61E0FF
:1039B00086E00E94861861E070E080E090E00E945E
:1039C000251960E086E00E9486186AE070E080E0D9
:1039D00090E00E94251961E086E00E948618EEE1E1
:1039E000F1E0E491F0E0EE0FFF1FEC5FFE4F8591F8
:1039F00094919093B2018093B101E1EFF0E0E491F2
:103A0000E093B001E6E1F1E0E491F0E0EE0FFF1F9A
:103A1000EC5FFE4F859194919093AF018093AE013E
:103A2000E9EEF0E0E491E093AD018CB58C7F8CBDC4
:103A30008DB581608DBDE091B101F091B2019081B1
:103A40008091B001982B9083A091AE01B091AF010D
:103A50002C919091AD01909592239C9390818095AB
:103A600089238083E8EDF0E08DE08E0F94919EBD78
:103A700000000DB407FEFDCF9EB531968E13F6CF34
:103A8000E091AE01F091AF0190818091AD01892B61
:103A90008083E091B101F091B20190818091B001F9
:103AA0008095892380838091640081608093640085
:103AB00080916400826080936400809164008068DB
:103AC000809364008091640080648093640080919E
:103AD000650081608093650082E480933B060E94CC
:103AE000F31161E085E00E94E91861E08DE00E9439
:103AF000E91881E08093A2015FE0A52EB12C62E07D
:103B0000C62ED12C7AE5272E312C29E1622E712C7C
:103B100036E4432E512C49E3842E912C0E945F19E8
:103B200000910A0110910B0120910C0130910D01BF
:103B3000601771078207930708F47EC0D901C80196
:103B400088519C4FAF4FBF4F80930A0190930B0158
:103B5000A0930C01B0930D018091C801882309F452
:103B600048C08091B7019091B80101979093B80136
:103B70008093B70197FF3DC08091B9019091BA0140
:103B8000009761F02BE330E03093B8012093B70148
:103B900001979093BA018093B9012BC08091BB012A
:103BA0009091BC01009781F02BE330E03093B80195
:103BB0002093B7013093BA012093B90101979093F4
:103BC000BC018093BB0115C01092B8011092B701DF
:103BD00080E591E09093A6018093A5019093A401C4
:103BE0008093A3010E94F51A81E08093A9011092AD
:103BF000C8010E94B51983FF16C00E94B51982FF43
:103C000012C080910901882371F08091AB0181116C
:103C10000AC08091AA01811106C0B0921A02A09236
:103C200019020C9438278091C6019091C701019622
:103C30009093C7018093C6010E945F1920914406AA
:103C4000222391F020913C06F62FF21BF0934506BB
:103C500020913706309138062F5F3F4F309338065A
:103C600020933706109244060091400610914106B9
:103C7000209142063091430660177107820793072F
:103C800088F4061B023010F40C94382783B7817F28
:103C900083BF83B7816083BF889583B78E7F83BFDF
:103CA0000C943827E0913B069B01AC012E0F311D8F
:103CB000411D511D2093400630934106409342061A
:103CC0005093430660933C0670933D0680933E06F6
:103CD00090933F0611E0109344060E94F311109355
:103CE0004C068091190290911A02009729F4B09223
:103CF0001A02A092190205C0019790931A028093AC
:103D000019028091C6019091C701CC9769F4109275
:103D1000C7011092C6018091C0019091C101019626
:103D20009093C1018093C0012091C0013091C101E5
:103D30008091C6019091C7012C33310581F4009721
:103D400071F41092C1011092C001209105013091CF
:103D500006012F5F3F4F309306012093050120910C
:103D600005013091060128313105D1F42091C001BF
:103D70003091C101232B09F047C0009709F044C0DE
:103D800020910201211140C02091190230911A02A4
:103D90002F303105C9F5109206011092050131C08E
:103DA0002B30310589F52091C0013091C1012B33B1
:103DB000310551F58B33910591F4209102012223B5
:103DC00071F020910301222351F0209119023091CA
:103DD0001A022F30310519F41092030115C08B33EC
:103DE000910591F420910201222371F020910301A9
:103DF00021110AC02091190230911A022F30310589
:103E000019F421E02093030120910501309106016E
:103E10002D30310594F02091C0013091C101232B48
:103E200061F4009751F420910201222331F021E046
:103E300030E0309306012093050120910501309177
:103E400006012C30310534F040910201411102C0CD
:103E5000109203014091C4015091C50148175907C0
:103E600069F54091C2015091C3018091C0019091C8
:103E7000C1014817590711F5809107019091080178
:103E800082179307D9F4909104018091030198134C
:103E900015C08091BF01882389F080E591E090935F
:103EA000A6018093A5019093A4018093A3010E9491
:103EB000F51A81E08093A9011092BF010E94B51903
:103EC00085FFE0C70E94B51986FFDCC70E94B519BF
:103ED00083FDD8C70E94B51982FDD4C70E94B519C9
:103EE00087FDD0C70E94B51984FDCCC70E94F3118D
:103EF0000E94081261E081E00E94E1111092090124
:103F000081E0809300011092AB011092AA01809190
:103F10000901882309F4ACC70E94B51985FF4FC079
:103F200067E571E0CE0101960E945B14CE01019617
:103F30000E94DF0C182FCE0101960E943F1311231F
:103F400009F43DC08091A901882361F010E08091BF
:103F5000A701181728F4812F0E94C41A1F5FF7CFFA
:103F60001092A9018091AA01811119C00E945F19C4
:103F7000E090B301F090B4010091B5011091B60149
:103F8000209100016E157F058007910708F49AC7FC
:103F9000211198C78091A8018111AEC710C08091EE
:103FA000C80181110CC01092BC011092BB0110928B
:103FB000BA011092B9011092B8011092B7010E9493
:103FC000650D81110E949A0C0E94B51986FF56C09A
:103FD0006CE571E0CE0101960E945B14CE01019662
:103FE0000E94DF0C182FCE0101960E943F1311236F
:103FF00009F444C08091A901882361F010E0809108
:10400000A701181728F4812F0E94C41A1F5FF7CF49
:104010001092A9018091AB01811130C00E945F19FB
:10402000E090B301F090B4010091B5011091B60198
:10403000209100016E157F058007910738F021114E
:1040400005C08091A801811170C718C02223B1F06A
:104050000E945F19DC01CB0184529A4FAF4FBF4FD2
:104060008093B3019093B401A093B501B093B601CE
:104070001092000160E080E00E94E1110E94650D55
:1040800081110E949A0C0E94B51984FF23C062E638
:1040900071E0CE0101960E945B14CE0101960E9450
:1040A000DF0C182F81111091A801CE0101960E94FA
:1040B0003F13112379F01092A80181E08093010150
:1040C0002091AA019091AB0121114DC7911146C7D2
:1040D0008093AB010E94650D81110E949A0C0E9491
:1040E000B51987FF23C067E671E0CE0101960E94F3
:1040F0005B14CE0101960E94DF0C182F81111091E4
:10410000A801CE0101960E943F13112379F010926D
:10411000A80181E0809301012091AA019091AB0157
:1041200021112AC791112FC78093AA018091AB0159
:10413000882309F411C20E94F3110E941A12B0924E
:104140002906A0922806B0922706A0922606D092B1
:104150002B06C0922A066AE671E08CE196E00E9486
:104160001F173092290620922806309227062092A7
:104170002606D0922B06C0922A0660E771E08CE1F9
:1041800096E00E941F1782E290E0909329068093A8
:104190002806909327068093260690922B068092FD
:1041A0002A066AE671E08CE196E00E941F175092A1
:1041B00029064092280650922706409226069092A1
:1041C0002B0680922A0666E771E08CE196E00E9459
:1041D0001F178091C801882381F08AE490E09093B2
:1041E000470680934606D0924906C092480681E071
:1041F00080934C066EE771E00FC087E490E09093E7
:10420000470680934606D0924906C092480681E050
:1042100080934C0661E871E080E396E00E941F17EE
:104220008091BF01882309F49CC08CE290E09093B8
:10423000470680934606D0924906C092480681E020
:1042400080934C066EE771E080E396E00E941F17B2
:10425000D0922906C0922806D0922706C092260640
:104260008EE090E090932B0680932A066AE571E039
:104270008CE196E00E941F17D0922906C092280672
:10428000D0922706C092260683E190E090932B06F9
:1042900080932A0665E871E08CE196E00E941F1782
:1042A000D0922906C0922806D0922706C0922606F0
:1042B00088E190E090932B0680932A0664E771E0F2
:1042C0008CE196E00E941F17D0922906C092280622
:1042D000D0922706C09226068DE190E090932B069F
:1042E00080932A066FE771E08CE196E00E941F1729
:1042F000D0922906C0922806D0922706C0922606A0
:1043000084E290E090932B0680932A0667E871E0A0
:104310008CE196E00E941F17D0922906C0922806D1
:10432000D0922706C092260689E290E090932B0651
:1043300080932A0663E871E08CE196E00E941F17E3
:10434000D0922906C0922806D0922706C09226064F
:104350008EE290E090932B0680932A0663E871E04A
:1043600085C009E210E01093470600934606D092FC
:104370004906C092480681E080934C0661E871E0EE
:1043800080E396E00E941F17D0922906C09228066B
:10439000D0922706C09226068EE090E090932B06DE
:1043A00080932A066AE571E08CE196E00E941F176F
:1043B000D0922906C0922806D0922706C0922606DF
:1043C00083E190E090932B0680932A0665E871E0E4
:1043D0008CE196E00E941F17D0922906C092280611
:1043E000D0922706C092260688E190E090932B0693
:1043F00080932A0664E771E08CE196E00E941F1723
:10440000D0922906C0922806D0922706C09226068E
:104410008DE190E090932B0680932A066FE771E080
:104420008CE196E00E941F17D0922906C0922806C0
:10443000D0922706C092260684E290E090932B0645
:1044400080932A0667E871E08CE196E00E941F17CE
:10445000D0922906C0922806D0922706C09226063E
:1044600010932B0600932A066FE771E08CE196E02B
:104470000E941F1741E150E05093470640934606C3
:1044800070924906609248064091070150910801D8
:104490006091C2017091C30100E020E08091C401ED
:1044A0009091C5010E94240EFC019093BE0180935F
:1044B000BD01608171817093C5016093C401428127
:1044C00053815093C3014093C201248135813093BD
:1044D00008012093070182E080934C06E12CCE0175
:1044E00001960E94810DBE016F5F7F4F80E396E0D1
:1044F0000E943417CE0101960E943F1381E0809301
:104500004C0680910201882309F4B0C48091040113
:10451000882379F08BE390E09093470680934606DA
:104520008CE290E090934906809348066EE971E032
:104530000EC08BE390E090934706809346068CE292
:1045400090E0909349068093480669E871E080E323
:1045500096E00E941F178AC48091AA01882309F45B
:1045600012C20E94F3110E941A12B0922906A09260
:104570002806B0922706A0922606D0922B06C0925B
:104580002A066AE671E08CE196E00E941F173092DD
:104590002906209228063092270620922606D092DD
:1045A0002B06C0922A0660E771E08CE196E00E943B
:1045B0001F1782E290E0909329068093280690933B
:1045C00027068093260690922B0680922A0660E7A3
:1045D00071E08CE196E00E941F17509229064092EC
:1045E0002806509227064092260690922B0680922B
:1045F0002A0666E771E08CE196E00E941F17809121
:10460000C801882309F462C08AE490E090934706C9
:1046100080934606D0924906C092480681E0809376
:104620004C066EE771E080E396E00E941F170AE7F0
:1046300010E0109329060093280610932706009394
:10464000260686E190E090932B0680932A066CE87C
:1046500071E08CE196E00E941F17109329060093E9
:10466000280610932706009326068BE190E090938E
:104670002B0680932A066AE571E08CE196E00E94A1
:104680001F171093290600932806109327060093FE
:10469000260680E290E090932B0680932A0667E836
:1046A00071E08CE196E00E941F1710932906009399
:1046B0002806109327060093260685E290E0909343
:1046C0002B0680932A0668E671E0D8C087E490E064
:1046D0009093470680934606D0924906C0924806BA
:1046E00081E080934C0661E871E080E396E00E94EF
:1046F0001F17D0922906C0922806D0922706C09292
:10470000260694E1E92EF12CF0922B06E0922A067F
:1047100064E771E08CE196E00E941F17D0922906B1
:10472000C0922806D0922706C092260670922B06C9
:1047300060922A0663E971E08CE196E00E941F17FF
:10474000D0922906C0922806D0922706C09226064B
:10475000EEE1F0E0F0932B06E0932A066CE871E0BE
:104760008CE196E00E941F17D0922906C09228067D
:10477000D0922706C092260643E250E050932B06C3
:1047800040932A0663E971E08CE196E04B8B5C8BE9
:104790000E941F17D0922906C0922806D0922706A1
:1047A000C092260628E230E030932B0620932A069A
:1047B0006AE571E08CE196E02D8B3E8B0E941F171D
:1047C0000AE710E0109329060093280610932706A5
:1047D00000932606F0922B06E0922A066CE871E020
:1047E0008CE196E00E941F1710932906009328067B
:1047F000109327060093260670922B0660922A06D5
:104800006AE571E08CE196E00E941F17109329067B
:104810000093280610932706009326068EE190E069
:1048200090932B0680932A066EE871E08CE196E067
:104830000E941F171093290600932806109327063D
:10484000009326064B895C8950932B0640932A06D9
:1048500064E771E08CE196E00E941F17109329062F
:104860000093280610932706009326062D893E897B
:1048700030932B0620932A066AE571E08CE196E0DE
:104880000E941F178091BF01882381F08CE290E085
:104890009093470680934606D0924906C0924806F8
:1048A00081E080934C066EE771E00FC089E290E0F2
:1048B0009093470680934606D0924906C0924806D8
:1048C00081E080934C0661E871E080E396E00E940D
:1048D0001F178091C801811127C04091BB015091E1
:1048E000BC016091B9017091BA0101E020E08091B2
:1048F000B7019091B8010E94240EFC019093BE0173
:104900008093BD01808191819093B8018093B7011C
:10491000828193819093BA018093B90184819581BA
:104920009093BC018093BB01E1E1F0E0F093470676
:10493000E0934606709249066092480682E08093B2
:104940004C062091BB013091BC014091B9015091BE
:10495000BA016091B7017091B801EE24E39400E0D0
:10496000CE0101960E94810DBE016F5F7F4F80E3F3
:1049700096E00E943417CE0101960E943F1381E019
:1049800080934C0673C26AE971E0CE010D960E94D5
:104990005B146AE971E0CE0107960E945B140E94E5
:1049A0001A12B0922906A0922806B0922706A09269
:1049B0002606D0922B06C0922A066AE671E08CE1A8
:1049C00096E00E941F173092290620922806309206
:1049D000270620922606D0922B06C0922A0660E770
:1049E00071E08CE196E00E941F178091C801882336
:1049F00081F08AE490E09093470680934606D09237
:104A00004906C092480681E080934C066EE771E04B
:104A10000FC087E490E09093470680934606D092BB
:104A20004906C092480681E080934C0661E871E037
:104A300080E396E00E941F178091BF01882381F0D8
:104A40008CE290E09093470680934606D092490608
:104A5000C092480681E080934C066EE771E00FC07B
:104A600089E290E09093470680934606D0924906EB
:104A7000C092480681E080934C0661E871E080E3D3
:104A800096E00E941F174091050150910601609128
:104A9000C0017091C10100E021E08091C6019091B8
:104AA000C7010E94240EFC019093BE018093BD01BA
:104AB000608171817093C7016093C6014281538107
:104AC0005093C1014093C001248135813093060188
:104AD0002093050182E080934C0681E190E0909361
:104AE0004706809346067092490660924806E12C7C
:104AF00001E0CE0101960E94810DBE016F5F7F4FE4
:104B000083E192E00E94CE12CE0101960E943F13F3
:104B100063E172E080E396E00E943417E7E3F0E09F
:104B2000F0932906E0932806F0932706E0932606E3
:104B30002DE030E030932B0620932A0660E971E0E7
:104B40008CE196E00E941F1780910201882309F4EE
:104B500078C080910301882391F08BE390E09093DB
:104B60004706809346068CE290E090934906809336
:104B7000480681E080934C066EE971E011C08BE33A
:104B800090E090934706809346068CE290E09093E5
:104B900049068093480681E080934C0669E871E0FD
:104BA00080E396E00E941F172091070130910801D1
:104BB0004091C2015091C3016091C4017091C5013F
:104BC000E12C00E0CE0101960E94810DBE016F5FD5
:104BD0007F4FCE010D960E94CE12CE0101960E940B
:104BE0003F138EE090E090932906809328069093DF
:104BF00027068093260690922B0680922A068091A3
:104C00000401BE01635F7F4F882339F0CE01019616
:104C10000E9441146EE871E006C0CE0101960E9428
:104C2000411468E671E0CE0101960E94A212BC0117
:104C30008CE196E00E943417CE0101960E943F134A
:104C400032C020910701309108014091C20150917A
:104C5000C3016091C4017091C501E12C00E0CE0157
:104C600001960E94810DBE016F5F7F4FCE010D96B0
:104C70000E94CE12CE0101960E943F138EE090E07A
:104C80009093290680932806909327068093260602
:104C900090922B0680922A06BE01635F7F4F8CE1C3
:104CA00096E00E9434172091BB013091BC014091E5
:104CB000B9015091BA016091B7017091B801EE2429
:104CC000E39400E0CE0101960E94810DBE016F5F6A
:104CD0007F4FCE0107960E94CE12CE0101960E9410
:104CE0003F13509229064092280650922706409280
:104CF000260690922B0680922A06BE01695F7F4F9E
:104D00008CE196E00E9434178091A901882309F470
:104D1000A5C0D0922906C0922806D0922706C0923C
:104D2000260646E150E050932B0640932A066FE991
:104D300071E08CE196E00E941F17D0922906C09284
:104D40002806D0922706C09226064BE150E05093E9
:104D50002B0640932A0665E871E08CE196E04B8BC8
:104D60005C8B0E941F17D0922906C0922806D09211
:104D70002706C092260620E230E030932B062093CF
:104D80002A066AE571E08CE196E02D8B3E8B0E944D
:104D90001F17D0922906C0922806D0922706C092EB
:104DA000260685E2E82EF12CF0922B06E0922A06E8
:104DB00063E971E08CE196E00E941F170AE710E0BA
:104DC00010932906009328061093270600932606C1
:104DD00086E190E090932B0680932A066FE971E0BC
:104DE0008CE196E00E941F17109329060093280675
:104DF00010932706009326064B895C8950932B0657
:104E000040932A0665E871E08CE196E00E941F1746
:104E10001093290600932806109327060093260670
:104E20002D893E8930932B0620932A066AE571E08E
:104E30008CE196E00E941F17109329060093280624
:104E40001093270600932606F0922B06E0922A067E
:104E500063E971E08CE196E00E941F17CE0107968E
:104E60000E943F13CE010D960E943F130E9408122C
:104E700080E090E0892B11F40C948E1D0E940000BC
:104E80000C94851D0E94B51987FF41C80E94B51971
:104E900084FF3DC80E94B51983FD39C80E94B51929
:104EA00082FD35C80E94B51985FD31C80E94B5192B
:104EB00086FD2DC861E081E00E94E11181E08093D0
:104EC000090125C8222309F47AC80E945F19DC0170
:104ED000CB0184529A4FAF4FBF4F8093B301909351
:104EE000B401A093B501B093B6011092000160E047
:104EF00081E00E94E11163C81092A8011092B301F1
:104F00001092B4011092B5011092B60161E080E0F8
:104F10000E94E1118091BF01882319F01092BF0116
:104F200053C881E08093BF014FC81092A80110922E
:104F3000B3011092B4011092B5011092B60161E074
:104F400080E00E94E1118091C801882319F010923D
:104F5000C80199C881E08093C80195C81092AB013F
:104F60008093AA01B7C89111B5C81092AB011092F5
:104F7000AA0110920101AEC89111D8C88093AB016B
:104F80001092AA01D3C81092AB011092AA011092FC
:104F90000101CCC883EE91E00E943F1389EE91E0BD
:104FA0000E943F138FEE91E00E943F1385EF91E046
:104FB0000E943F138BEF91E00E943F1381E092E04B
:104FC0000E943F1387E092E00E943F138DE092E041
:104FD0000E943F1383E192E00C943F13EAE5F6E070
:104FE0001382128288EE93E0A0E0B0E08483958380
:104FF000A683B78388E291E0918380838FEF9FEF50
:1050000095878487E0E3F6E0138212821186128688
:1050100080E1838710861782108A118A128A138A88
:10502000148A80E491E0918380838AE491E09583FF
:105030008483178A168A118E108E81E0828F138ED8
:10504000848F158EECE1F6E01382128228E331E0C2
:10505000318320832CE132E03583248320E830E063
:105060003783268320E430E03187208795E0938BD7
:10507000828B15861486178616861386128681E023
:1050800090E0918B808B87E697E19093E20180938B
:10509000E1018FE090E090931A02809319026AE98F
:1050A00071E083E192E00E945B146BE971E08DE0B6
:1050B00092E00E945B1467E971E087E092E00E9451
:1050C0005B1467E971E081E092E00E945B1469E99A
:1050D00071E08BEF91E00E945B146AE971E085EF6B
:1050E00091E00E945B146DE971E08FEE91E00E9407
:1050F0005B146AE971E089EE91E00E945B146AE951
:1051000071E083EE91E00C945B140F931F93CF93A7
:10511000DF938C018AE090E00E943D2B9FEF980F77
:105120009E3F58F522E330E0D80157963C932E93EA
:10513000569728E330E059963C932E935897CBE04E
:10514000D0E0D801ED91FC910190F081E02D682F25
:10515000C8010995CE010E943D2B2196C131D10590
:1051600081F70E9408126CED75E080E090E0DF911D
:10517000CF911F910F910C942519DF91CF911F9121
:105180000F91089504970C94852897FB072E16F429
:10519000009407D077FD09D00E94DF2807FC05D0D6
:1051A0003EF4909581959F4F0895709561957F4F3E
:1051B0000895EE0FFF1F0590F491E02D0994AA1BAE
:1051C000BB1B51E107C0AA1FBB1FA617B70710F0F2
:1051D000A61BB70B881F991F5A95A9F78095909524
:1051E000BC01CD010895CF93DF938230910510F477
:1051F00082E090E0E091D106F091D20620E030E02C
:10520000C0E0D0E0309711F1408151814817590733
:10521000C0F04817590761F482819381209719F0F3
:105220009B838A832BC09093D2068093D10626C09D
:105230002115310519F04217530718F49A01BE01E0
:10524000DF01EF010280F381E02DDCCF2115310574
:1052500009F1281B390B2430310590F412968D91F9
:105260009C9113976115710521F0FB019383828353
:1052700004C09093D2068093D106FD01329644C0BB
:10528000FD01E20FF31F81939193225031092D9379
:105290003C933AC02091CF063091D006232B41F4A5
:1052A00020911C0130911D013093D0062093CF0630
:1052B00020911A0130911B012115310541F42DB7C0
:1052C0003EB740911E0150911F01241B350BE09108
:1052D000CF06F091D006E217F307A0F42E1B3F0B88
:1052E0002817390778F0AC014E5F5F4F2417350758
:1052F00048F04E0F5F1F5093D0064093CF06819326
:10530000919302C0E0E0F0E0CF01DF91CF910895EA
:105310000F931F93CF93DF93009709F48CC0FC0188
:105320003297138212820091D1061091D206011594
:10533000110581F420813181820F931F2091CF06C6
:105340003091D0062817390779F5F093D006E0930D
:10535000CF0671C0D80140E050E0AE17BF0750F44F
:1053600012962D913C911397AD012115310509F14C
:10537000D901F3CF9D01DA013383228360817181EA
:10538000860F971F8217930769F4EC0128813981F2
:10539000260F371F2E5F3F4F318320838A819B81E9
:1053A00093838283452B29F4F093D206E093D106B0
:1053B00042C01396FC93EE931297ED0149915991D7
:1053C0009E01240F351FE217F30771F4808191814C
:1053D000840F951F029611969C938E9382819381E0
:1053E00013969C938E931297E0E0F0E0D80112960A
:1053F0008D919C911397009719F0F8018C01F6CFCD
:105400008D919C9198012E5F3F4F820F931F2091A9
:10541000CF063091D0062817390769F4309729F460
:105420001092D2061092D10602C0138212821093FB
:10543000D0060093CF06DF91CF911F910F91089571
:10544000A0E0B0E0E6E2FAE20C94682BEC010097F1
:1054500021F4CB010E94F328B8C0FC01E60FF71F2E
:105460009C0122503109E217F30708F4ACC0D901BE
:105470000D911C91119706171707B0F00530110513
:1054800008F49FC0C80104978617970708F499C0CD
:1054900002501109061B170B019311936D937C9316
:1054A000CF010E9488298DC05B01A01AB10A4C016E
:1054B000800E911EA091D106B091D20640E050E03E
:1054C000E12CF12C109709F44AC0A815B905D1F5C3
:1054D0006D907C901197630182E0C80ED11CCA14B4
:1054E000DB0480F1A3014A195B096A0182E0C80E5E
:1054F000D11C1296BC9012971396AC91B5E0CB16C6
:10550000D10440F0B282A38351834083D9016D93CB
:105510007C930AC00E5F1F4FC301800F911FF901DA
:1055200091838083EB2DFA2FE114F10431F0D70140
:105530001396FC93EE93129744C0F093D206E09337
:10554000D1063FC08D919C9111974817590708F4D7
:10555000AC017D0112960D90BC91A02DB3CF80912E
:10556000CF069091D00688159905E1F446175707A4
:10557000C8F480911A0190911B01009741F48DB7F6
:105580009EB740911E0150911F01841B950BE81797
:10559000F907C8F4F093D006E093CF06F9017183C0
:1055A00060830FC0CB010E94F3287C01009759F063
:1055B000A801BE010E94EF2ACE010E948829C701DE
:1055C00004C0CE0102C080E090E0CDB7DEB7EEE0CF
:1055D0000C94842B81E090E0F8940C94CC2BFB018C
:1055E000DC0102C001900D9241505040D8F708955F
:1055F000FB01DC018D91019080190110D9F3990B09
:105600000895FB01DC0101900D920020E1F708955F
:10561000BB274A3031F4992322F4BDE2909581955D
:105620009F4F0C94142BBB27FB015527AA27880FEB
:10563000991FAA1FA41710F0A41B83955051B9F706
:10564000A05DAA3308F0A95DA193009779F7B11185
:10565000B1931192CB010C942D2BDC01FC01672F2F
:1056600071917723E1F7329704C07C916D93708339
:105670006291AE17BF07C8F30895F999FECF92BDA6
:1056800081BDF89A992780B50895052E97FB1EF4E1
:1056900000940E945C2B57FD07D00E949B2B07FCB7
:1056A00003D04EF40C945C2B509540953095219589
:1056B0003F4F4F4F5F4F089590958095709561953E
:1056C0007F4F8F4F9F4F08952F923F924F925F923F
:1056D0006F927F928F929F92AF92BF92CF92DF9202
:1056E000EF92FF920F931F93CF93DF93CDB7DEB767
:1056F000CA1BDB0B0FB6F894DEBF0FBECDBF0994FB
:105700002A88398848885F846E847D848C849B8451
:10571000AA84B984C884DF80EE80FD800C811B815F
:10572000AA81B981CE0FD11D0FB6F894DEBF0FBE8E
:10573000CDBFED010895A1E21A2EAA1BBB1BFD01EE
:105740000DC0AA1FBB1FEE1FFF1FA217B307E40760
:10575000F50720F0A21BB30BE40BF50B661F771FB8
:10576000881F991F1A9469F7609570958095909598
:105770009B01AC01BD01CF010895A29FB001B39F71
:10578000C001A39F700D811D1124911DB29F700D4A
:10579000811D1124911D089519E0C3EED9E004C0C4
:1057A000FE010E94D9282196C43ED107C9F7F8947A
:0257B000FFCF29
:1057B20001010101010C000C0001E803000000E1FD
:1057C200000000000000FFFFFFFF0000D306800082
:1057D20001000000000000006F10EC10D2109010C9
:1057E200AE10851000000000900AE41300000000D3
:1057F2006A17E4138528FCFF0000C2280F0000C1CD
:10580200808100000003014C45465400524947483C
:105812005400444F574E00555000414C41524D00E8
:1058220054494D45520053455454494E47004F4E3A
:10583200004F46460055004F00504D0053004100B6
:1058420054494D45004200300020003A0020414DAD
:02585200000054
:00000001FF
