:100000000C9479030C94A1030C94A1030C94A10308
:100010000C94A1030C94A1030C94A1030C94A103D0
:100020000C94A1030C94A1030C9448070C94BA07F8
:100030000C94A1030C94A1030C94A1030C94A103B0
:100040000C94A1030C94A1030C94A1030C94A103A0
:100050000C94A1030C94A1030C94A1030C941D0C0B
:100060000C94A1030C94A1030C94A1030C94A10380
:100070000C94A1030C94A1030C94A1030C94A10370
:100080000C94A1030C94A1030C94A1030C94A10360
:100090000C94A1030C94A1030C94A1030C94A10350
:1000A0000C94A1030C94A1030C94A103630B660BA5
:1000B000550B590B5D0B870B870B870B6A0B6E0B70
:1000C000720B780B7C0B870B820B00000000240066
:1000D00027002A002D003000D5F08D14A1C881CF53
:1000E000D9F1AF20000408020110408040102040E8
:1000F000804080080204018040201002011080101E
:100100002040402000000000250028002B002E0089
:10011000310004040404040304050202020204037F
:100120000202020206060606060604040202020491
:10013000041402130212021502070208020A020A3C
:10014000010B020B010902090104010C0106010067
:10015000080B000202020100090400000102020073
:1001600000052400100105240101010424020605F4
:100170002406000107058103100040090401000264
:100180000A00000007050202400000070583024044
:1001900000000403090441726475696E6F204C4CC1
:1001A000430041726475626F790012010002000021
:1001B00000404123368000010102030112010002C8
:1001C000EF020140412336800001010203010000DB
:1001D0000000003E5B4F5B3E3E6B4F6B3E1C3E7C27
:1001E0003E1C183C7E3C181C577D571C1C5E7F5ED5
:1001F0001C00183C1800FFE7C3E7FF001824180094
:10020000FFE7DBE7FF30483A060E2629792926402A
:100210007F050507407F05253F5A3CE73C5A7F3E56
:100220001C1C08081C1C3E7F14227F22145F5F00E8
:100230005F5F06097F017F006689956A6060606084
:100240006094A2FFA29408047E040810207E20106F
:1002500008082A1C08081C2A08081E101010100C78
:100260001E0C1E0C30383E3830060E3E0E060000C6
:1002700000000000005F00000007000700147F146A
:100280007F14242A7F2A12231308646236495620D9
:10029000500008070300001C2241000041221C00FE
:1002A0002A1C7F1C2A08083E0808008070300008BD
:1002B00008080808000060600020100804023E5191
:1002C00049453E00427F4000724949494621414923
:1002D0004D331814127F1027454545393C4A49498A
:1002E0003141211109073649494936464949291EF4
:1002F00000001400000040340000000814224114E3
:1003000014141414004122140802015909063E4134
:100310005D594E7C1211127C7F494949363E41415C
:1003200041227F4141413E7F494949417F090909B5
:10033000013E414151737F0808087F00417F410021
:100340002040413F017F081422417F404040407FD0
:10035000021C027F7F0408107F3E4141413E7F091D
:100360000909063E4151215E7F091929462649495E
:10037000493203017F01033F4040403F1F2040209E
:100380001F3F4038403F631408146303047804039C
:100390006159494D43007F4141410204081020004A
:1003A0004141417F040201020440404040400003BB
:1003B00007080020545478407F2844443838444487
:1003C0004428384444287F385454541800087E097F
:1003D0000218A4A49C787F0804047800447D40009F
:1003E0002040403D007F1028440000417F40007CB9
:1003F000047804787C080404783844444438FC18B1
:1004000024241818242418FC7C0804040848545494
:10041000542404043F44243C4040207C1C204020C1
:100420001C3C4030403C44281028444C9090907C28
:100430004464544C4400083641000000770000003A
:100440004136080002010204023C2623263C1EA17C
:10045000A161123A4040207A3854545559215555DB
:10046000794121545478412155547840205455798C
:10047000400C1E527212395555555939545454591D
:1004800039555454580000457C410002457D4200D6
:1004900001457C40F0292429F0F0282528F07C54DF
:1004A0005545002054547C547C0A097F49324949FF
:1004B00049323248484832324A4848303A4141216C
:1004C0007A3A42402078009DA0A07D3944444439C6
:1004D0003D4040403D3C24FF2424487E4943662B58
:1004E0002FFC2F2BFF0929F620C0887E09032054FA
:1004F0005479410000447D413048484A32384040F8
:10050000227A007A0A0A727D0D19317D2629292F57
:1005100028262929292630484D402038080808086F
:1005200008080808382F10C8ACBA2F102834FA0071
:10053000007B000008142A142222142A14089500B3
:10054000220095AA005500AAAA55AA55AA000000A3
:10055000FF00101010FF00141414FF001010FF0013
:10056000FF1010F010F0141414FC001414F700FF26
:100570000000FF00FF1414F404FC141417101F10E3
:10058000101F101F1414141F00101010F000000092
:10059000001F101010101F10101010F0100000009D
:1005A000FF101010101010101010FF10000000FFAE
:1005B000140000FF00FF00001F10170000FC04F4EF
:1005C00014141710171414F404F40000FF00F714A7
:1005D000141414141414F700F7141414171410102E
:1005E0001F101F141414F4141010F010F000001F4A
:1005F000101F0000001F14000000FC140000F01089
:10060000F01010FF10FF141414FF141010101F002E
:10061000000000F010FFFFFFFFFFF0F0F0F0F0FF30
:10062000FFFF0000000000FFFF0F0F0F0F0F384407
:100630004438447C2A2A3E147E02020606027E02C8
:100640007E0263554941633844443C04407E201E89
:100650002006027E020299A5E7A5991C2A492A1CB8
:100660004C7201724C304A4D4D303048784830BCA5
:10067000625A463D3E494949007E0101017E2A2ACF
:100680002A2A2A44445F444440514A444040444A50
:1006900051400000FF0103E080FF000008086B6B81
:1006A000083612362436060F090F06000018180007
:1006B00000001010003040FF0101001F01011E006A
:1006C000191D1712003C3C3C3C00000000000000DB
:1006D000000200090F0000030401000C00000000EC
:1006E0000000000000000000000000000000B11247
:1006F0005B1311241FBECFEFDAE0DEBFCDBF11E0E8
:10070000A0E0B1E0EEE2FCE202C005900D92A63757
:10071000B107D9F726E0A6E7B1E001C01D92AC34DD
:10072000B207E1F713E0C8E7D3E004C02197FE0168
:100730000E947B13C737D107C9F70E94F60C0C94AF
:100740000A160C940000FC0180918B01811103C0FA
:100750008FEF9FEF08959FB7F89482E08093E900B0
:100760002091F20030E01216130614F421E030E07C
:100770002115310559F0289884E680938A018091EB
:10078000F10080838091F200882319F09FBFC90196
:1007900008958BE68093E800F9CFCF93DF931F9203
:1007A000CDB7DEB76983DC01ED91FC910280F38166
:1007B000E02D41E050E0BE016F5F7F4F09950F9043
:1007C000DF91CF91089583E08093E9008091F2005A
:1007D000882319F08AE38093E8000895CF93DF938C
:1007E0001F92CDB7DEB7FC018485958597FD05C0C6
:1007F0002FEF3FEF358724870BC0CE0101960E9473
:10080000A303019719F4898190E002C08FEF9FEF55
:100810000F90DF91CF9108950F931F93CF93DF93A4
:100820001F92CDB7DEB78C01FC018485958597FFBB
:100830000EC0CE0101960E94A303019719F42981ED
:1008400030E002C02FEF3FEFF80135872487F80131
:10085000848595850F90DF91CF911F910F91089519
:10086000FC018485958597FD0BC09FB7F89482E0C5
:100870008093E9008091F2009FBF90E00196089577
:100880009FB7F89482E08093E9008091F2009FBFC7
:1008900090E0089508958F929F92AF92BF92CF9269
:1008A000DF92EF92FF920F931F93CF93DF935C0140
:1008B0006B018A0180911101882309F45EC0809147
:1008C0008B01882309F459C08091890180FF05C0FC
:1008D0008091E00082608093E000E8018AEFF82ECA
:1008E00093E0E92E2FE3822E3AE3932E209709F42A
:1008F0003DC08FB7F894E092E9009091E80095FF31
:1009000006C09091F200282D291B922F01C090E083
:100910008FBF91110AC0FA94FF2079F161E070E075
:1009200080E090E00E94D70BE1CF292F30E0C21782
:10093000D3070CF49C2F8FB7F894E092E900209134
:10094000E80025FF11C0292F30E0C21BD30BF601B0
:10095000915020F041914093F100FACFC20ED31E86
:100960009091E80095FF13C08FBFC0CF5D9884E6DB
:10097000809388011016110644F081E090E0F501A3
:100980009383828380E090E005C0C80103C0909209
:10099000E800EACFDF91CF911F910F91FF90EF9088
:1009A000DF90CF90BF90AF909F908F9008950E945E
:1009B00078150F931F93CF93DF93EC018881998172
:1009C000009729F02A813B812617370788F48B018D
:1009D0006F5F7F4F0E94AE14009761F09983888308
:1009E0001B830A832C813D81232B11F4FC0110828F
:1009F00081E001C080E0DF91CF911F910F910895B8
:100A0000CF93DF93EC0188819981009711F00E94C8
:100A10001614198218821D821C821B821A82DF9191
:100A2000CF91089520E08CE891E0B22FB111BFEF93
:100A3000FC010024B193B193B193B1930394D1F726
:100A4000089580918C018EBDEDE8F1E081910DB4A7
:100A500007FEFDCF8EBD85E0EC38F807B9F70DB481
:100A600007FEFDCF0895CF93C62F682F8AE00E941E
:100A7000380B6C2F8BE00E94380B61E089E0CF913E
:100A80000C94380B8091E00581110DC082E08093B9
:100A9000DC0584E08093DD051092DF051092DE0511
:100AA00081E08093E0058CED95E00895FC012481C0
:100AB0003581232B31F421E061157105A1F0FB0193
:100AC00008C0FC01808191816115710531F421E03C
:100AD000FC018081882339F005C00E94861521E041
:100AE000892B09F020E0822F0895CF92DF92EF92B8
:100AF000FF920F931F93CF93DF93CDB7DEB7289765
:100B00000FB6F894DEBF0FBECDBF8C01CB014AE01B
:100B10009E012F5F3F4F6901B9010E949615F601B2
:100B200001900020E9F73197EC19FD09D8011496DE
:100B3000ED90FC9015973097D9F0EE0EFF1EB7019F
:100B4000C8010E94D904882381F0F80120813181F5
:100B500084819581B601820F931F0E948F15D80161
:100B60001596FC92EE92149703C0C8010E940005EE
:100B7000C80128960FB6F894DEBF0FBECDBFDF9137
:100B8000CF911F910F91FF90EF90DF90CF9008953C
:100B9000EF92FF920F931F93CF93DF93EC01FB0132
:100BA00084819581E080F1800C811D81E114F10444
:100BB000B1F00097B9F0080F191FB801CE010E94DB
:100BC000D904882361F0288139818C819D81B70106
:100BD000820F931F0E948F151D830C8303C0CE01CB
:100BE0000E940005CE01DF91CF911F910F91FF90E0
:100BF000EF900895EF92FF920F931F93CF93DF939F
:100C0000EC017B018A01BA010E94D904811104C060
:100C1000CE010E94000507C01D830C83B7018881A7
:100C200099810E948F15CE01DF91CF911F910F9175
:100C3000FF90EF900895CF93DF93EC01611571055C
:100C400059F0FB0101900020E9F73197AF01461BF5
:100C5000570B0E94FA0502C00E940005CE01DF91E9
:100C6000CF910895FC01808191810C941614FC01B0
:100C7000118210821382128215821482611571050D
:100C800051F0FB0101900020E9F73197AF01461BBD
:100C9000570B0C94FA05089540913D0650913E067D
:100CA00020913B0630913C0642175307B4F49091D3
:100CB000E8009570E1F39091E80092FD19C08093EF
:100CC000F10080913D0690913E0601968F73992721
:100CD000892B19F48EEF8093E80080913D06909166
:100CE0003E06019690933E0680933D0681E008956E
:100CF00080E00895CF92DF92EF92FF920F931F93BF
:100D0000CF93DF931F92CDB7DEB7182F062FE42EB7
:100D1000862F880F8E5F99830E944C0683E00E9485
:100D20004C06F12EC12E9981D92E8C2D8F1980174A
:100D300098F4F601E7FE02C0849101C080810E9410
:100D40004C06182F80E00E944C068123FFEFCF1A3B
:100D5000DF0A8111EACF01C081E00F90DF91CF91CE
:100D60001F910F91FF90EF90DF90CF900895DF9249
:100D7000EF92FF920F931F93CF93DF93D82E8A01A8
:100D80007B01E40EF51EEB01CE15DF0571F0D7FEF9
:100D900003C0FE01849101C088810E944C06219607
:100DA0008111F2CF8FEF9FEF01C0C801DF91CF918A
:100DB0001F910F91FF90EF90DF900895615030F0F8
:100DC0002091F100FC0120830196F8CF289884E659
:100DD00080938A010895CF92DF92EF92FF920F9352
:100DE0001F93CF93DF936C017A018B01C0E0D0E0B9
:100DF000CE15DF0589F0D8016D918D01D601ED91F9
:100E0000FC910190F081E02DC6010995892B11F428
:100E10007E0102C02196ECCFC701DF91CF911F91D7
:100E20000F91FF90EF90DF90CF9008950F931F9355
:100E3000CF93DF931F92CDB7DEB782E0898342E480
:100E400050E060E571E080E80E94B7060E9442052C
:100E5000DC0112960D911C9113970115110569F093
:100E6000D801ED91FC910280F381E02DBE016F5F0E
:100E70007F4FC801099597FF07C089810F90DF91C7
:100E8000CF911F910F910895F80100851185E5CF4D
:100E90001F920F920FB60F9211248F939F93809100
:100EA000E1009091E100937F9093E10083FF0FC0F8
:100EB0001092E90091E09093EB001092EC0092E325
:100EC0009093ED0010928B0198E09093F00082FFD8
:100ED00020C093E09093E9009091F200992319F0DB
:100EE0009AE39093E80090918801992339F09091CA
:100EF0008801915090938801992389F190918A01FA
:100F0000992339F090918A01915090938A01992305
:100F100041F184FF10C08091E2008E7E8160809359
:100F2000E2008091E1008F7E8093E1008091890151
:100F30008E7E806111C080FF16C08091E2008E7E9F
:100F400080618093E2008091E1008E7E8093E100D9
:100F5000809189018E7E81608093890104C05D9AB1
:100F6000CDCF289AD6CF9F918F910F900FBE0F9023
:100F70001F9018951F920F920FB60F921124CF92C7
:100F8000DF92EF92FF920F931F932F933F934F9314
:100F90005F936F937F938F939F93AF93BF93EF93E1
:100FA000FF93CF93DF93CDB7DEB76C97DEBFCDBF96
:100FB0001092E9008091E80083FFFAC168E0CE0159
:100FC00045960E94DE0682EF8093E8008D8987FFB8
:100FD00005C09091E80090FFFCCF03C09EEF909376
:100FE000E800982F907609F0C6C09E892F89188D49
:100FF00091110CC0803829F4809139068093F1005A
:1010000002C01092F1001092F10047C1422F50E04F
:10101000512B913051F4811140C14130510509F0FB
:101020003CC1809139068D7F0BC0933061F48111F2
:1010300034C14130510509F030C1809139068260D8
:10104000809339062AC1953041F48091E80080FFF1
:10105000FCCF20682093E30020C1963009F05FC0E8
:10106000EB8CFC8C1092E90010923E0610923D062B
:10107000123091F510923C0610923B060E94160722
:1010800099E0BE016F5F7F4FDB01E92F1D92EA956A
:10109000E9F799831A8391E09E8390EA98879AEF03
:1010A000998720913D0630913E06275F3F4F3C8354
:1010B0002B838D831092E90010923E0610923D061C
:1010C000F0923C06E0923B0649E050E080E00E944E
:1010D000B7060E941607E1C0F0923C06E0923B067C
:1010E0000E944205DC011296ED90FC901397E114EA
:1010F000F10409F4C0C0D701ED91FC910480F581A1
:10110000E02DBE016B5E7F4FC7010995009719F076
:101110000CF0C3C0C6C0F701E084F184E8CF97307B
:1011200009F4BFC0983021F481E08093F100B5C08C
:10113000993009F0B2C0837009F0B3C0E3E4F1E084
:1011400081E021E036E39081992361F08093E9000A
:101150002093EB0091919093EC003093ED008F5F22
:10116000873089F78EE78093EA001092EA008F8932
:1011700080938B0192C08B8D9C8D1092E900109210
:101180003E0610923D0690933C0680933B06898D67
:10119000811156C08E899D89913A59F4813209F0A6
:1011A00080C047E050E06AE071E080E00E94B7064E
:1011B00074C0913209F075C0833289F4888D90E053
:1011C000982F88272F89822BA0E0B0E0809312010E
:1011D00090931301A0931401B09315015EC0803267
:1011E00069F48091E80082FFFCCF67E08AE091E03B
:1011F0000E94DE068BEF8093E80006C0823209F081
:101200004CC08F898093110180913806882319F092
:10121000EEEFFAE002C0E0E0F8E080910A01909180
:101220000B01A0910C01B0910D01803B9440A105F0
:10123000B10509F088C08091110180FFA0C083C072
:101240000E944205DC0112960D911C911397011525
:10125000110539F1D801ED91FC910190F081E02D5B
:10126000BE016B5E7F4FC8010995811116C0F80160
:1012700000851185ECCF1130C1F0133091F48F89C6
:10128000882309F455C08230E9F440E867E082EA37
:1012900091E00E947A06882321F08EEF8093E80087
:1012A00087C081E28093EB0083C08B8D9C8D089773
:1012B00011F410933A0680913A06811136C06AEA19
:1012C00071E038C0813029F440E86BE086E991E0B4
:1012D000E0CF833031F70E944205DC011296ED9099
:1012E000FC9013978E010F5F1F4F6801E114F1040A
:1012F00079F0D701ED91FC910680F781E02DB801DE
:10130000C7010995080F111DF701E084F184EECFA4
:10131000D8011C92F60101900020E9F73197BF0136
:101320006C197D0940E0C601B4CF6CEB71E002C0DE
:1013300062E971E06115710509F4B3CFFB014491D5
:1013400050E080E833CF0FB6F894A8958091600004
:10135000886180936000109260000FBEA895EE3FF8
:101360002AE0F20739F08091FE0A9091FF0A9183FA
:10137000808393CF1092FF0A1092FE0A8ECFEE3F29
:101380008AE0F80731F0808191819093FF0A809381
:10139000FE0A87E797E7918380839BE088E10FB699
:1013A000F894A895809360000FBE9093600075CF6D
:1013B0006C960FB6F894DEBF0FBECDBFDF91CF9114
:1013C000FF91EF91BF91AF919F918F917F916F911D
:1013D0005F914F913F912F911F910F91FF90EF904F
:1013E000DF90CF900F900FBE0F901F9018953FB7D2
:1013F000F8948091440690914506A0914606B091DC
:10140000470626B5A89B05C02F3F19F00196A11DE0
:10141000B11D3FBFBA2FA92F982F8827820F911D8A
:10142000A11DB11DBC01CD0142E0660F771F881FD1
:10143000991F4A95D1F708952F923F924F925F924C
:101440006F927F928F929F92AF92BF92CF92DF92D4
:10145000EF92FF920F931F93CF93DF9300D000D0B2
:1014600000D0CDB7DEB7DC016A30A9F45C962C91D0
:101470005C9758968D919C91599708E0209F800D1C
:10148000911D112459969C938E93589757961C92B0
:101490001E925697D1C06D3009F4CEC05C96BC90B8
:1014A0005C975B962C905B975A963C905A9758960F
:1014B0002D913C9159973C832B8356968D919C910D
:1014C000579780389105C4F05C962C915C97422F19
:1014D00050E056968D919C91579736E0239F800D52
:1014E000911D112457969C938E9356975D962C913F
:1014F0005D9721118EC0A0C00B811C8100341105A5
:101500001CF79C0115E0B19E200D311D112412160F
:101510001306D4F68B2C912C2B813C8148E0B49E91
:10152000200D311D11241216130674F6E5E06E9F8E
:101530002001112460E070E06530710539F0FB0195
:10154000E40DF51DE253FE4FA49001C0A12CEB80E9
:10155000FC8008E0702EA0FC02C0622C01C0632C4D
:10156000611009C0231007C0A6947A94E80CF91CF6
:101570007110F1CF45C09C01422F481B4B15A0F7BD
:10158000A701E42FF42FFE19FB15B8F5203831051B
:1015900088F54034510570F5E695E695E695CE2E32
:1015A000D12C8A01077011271A830983F601F69559
:1015B000FE2FEE27F795E795E20FF31F8F010457F3
:1015C0001E4F1E830D83E1E0F0E0098002C0EE0FA4
:1015D000FF1F0A94E2F7FA83E983662029F0F801F5
:1015E000D080C980CD2805C0CE2EC094F801D0800F
:1015F000CD20C0824F5F5F4FC4CF2F5F3F4FBCCF26
:101600006F5F7F4F880D991D6630710509F094CF8B
:101610005BCF6AEF64039001659F300D1124205861
:101620003F4F2817390744F4CD01ED91FC9101900B
:10163000F081E02D6AE0099581E090E026960FB6F2
:10164000F894DEBF0FBECDBFDF91CF911F910F91F8
:10165000FF90EF90DF90CF90BF90AF909F908F90D2
:101660007F906F905F904F903F902F9008950895D6
:10167000362F90E0FC01E253F94F4491FC01EB510D
:10168000FF4F2491FC01EE5EFE4F8491882309F404
:1016900051C04423E1F150E0FA013197EF30F105F8
:1016A000B0F5EA5AFF4F0C947B13909180009F771E
:1016B00007C0909180009F7D03C090918000977F2C
:1016C0009093800024C094B59F7702C094B59F7D0D
:1016D00094BD1DC0909190009F7707C0909190009D
:1016E0009F7D03C090919000977F909390000FC0D2
:1016F0009091C0009F7703C09091C0009F7D909310
:10170000C00005C09091C200977F9093C200E82F5F
:10171000F0E0EE0FFF1FEC5FFE4FA591B4918FB785
:10172000F894EC91311103C020952E2301C02E2B8B
:101730002C938FBF0895CF93DF9390E0FC01EB5182
:10174000FF4F2491FC01EE5EFE4F8491882361F1EE
:1017500090E0880F991FFC01E653FF4FC591D4918B
:10176000FC01EC5FFE4FA591B491611109C09FB7D8
:10177000F8948881209582238883EC912E230BC0D6
:10178000623061F49FB7F8943881822F809583236B
:101790008883EC912E2B2C939FBF06C08FB7F894B3
:1017A000E8812E2B28838FBFDF91CF9108958F92F0
:1017B0009F92AF92BF92CF92DF92EF92FF926B0116
:1017C0007C010E94F7094B015C01C114D104E104C2
:1017D000F104F1F00E94F709DC01CB0188199909A5
:1017E000AA09BB09883E9340A105B10570F321E029
:1017F000C21AD108E108F10888EE880E83E0981E2D
:10180000A11CB11CC114D104E104F10419F7DDCF0E
:10181000FF90EF90DF90CF90BF90AF909F908F9010
:1018200008952FB7F8946091400670914106809119
:101830004206909143062FBF08951F920F920FB654
:101840000F9211242F933F938F939F93AF93BF9346
:101850008091400690914106A0914206B0914306C6
:1018600030913F0623E0230F2D3720F40196A11D70
:10187000B11D05C026E8230F0296A11DB11D2093BE
:101880003F068093400690934106A0934206B09392
:1018900043068091440690914506A0914606B0917A
:1018A00047060196A11DB11D8093440690934506FD
:1018B000A0934606B0934706BF91AF919F918F9139
:1018C0003F912F910F900FBE0F901F9018958FB1E1
:1018D0002CB193B130E02095309520743327A901C5
:1018E00023E0559547952A95E1F7292F30E020957B
:1018F0003095207133273595279535952795242BDD
:101900008095807F822B0895809102019091030140
:1019100001969093030180930201209101012223FB
:1019200099F08D3091053CF081E090E090930301B7
:101930008093020108950C9769F49091000181E071
:101940008927809300010895489721F4109203019C
:1019500010920201089581110C94840C809102016F
:1019600090910301019790930301809302012091CC
:101970000101222379F0181619061CF08CE090E082
:101980000DC00B9779F49091000181E08927809335
:101990000001089597FF06C087E190E0909303014E
:1019A0008093020108952091760130917701882378
:1019B00059F02F5F3F4F2C33310554F010927701CF
:1019C000109276010C94840C2150310937FD05C02A
:1019D000309377012093760108958BE390E0909304
:1019E00077018093760180E00C94AB0CCF93DF936A
:1019F000CDB7DEB72C970FB6F894DEBF0FBECDBFC4
:101A0000789484B5826084BD84B5816084BD85B5D9
:101A1000826085BD85B5816085BD80916E008160E5
:101A200080936E001092810080918100826080938B
:101A3000810080918100816080938100809180008D
:101A400081608093800080919100826080939100FA
:101A500080919100816080939100809190008160DD
:101A6000809390008091C10084608093C100809138
:101A7000C10082608093C1008091C1008160809329
:101A8000C1008091C30081608093C3008091C00039
:101A900082608093C0008091C20081608093C20008
:101AA00080917A00846080937A0080917A008260CD
:101AB00080937A0080917A00816080937A0080918F
:101AC0007A00806880937A0010928B011092390618
:101AD000109289018091D70081608093D70080EABD
:101AE0008093D80089B5806189BD89B5826089BD40
:101AF00009B400FEFDCF61E070E080E090E00E945C
:101B0000D70B8091D8008F7C80618093D800809122
:101B1000E000807F8093E0008091E1008E7E8093E2
:101B2000E1008DE08093E200559A209AEEEFFFE706
:101B3000859194918B3F9C4D19F481E080933806F8
:101B40001FB7F89480917801811127C0E3E2F1E09A
:101B50008491E6EFF0E09491E82FF0E0EE0FFF1FA4
:101B6000E653FF4FA591B491EC91E92321F461E094
:101B700081E10E94380B61E081E10E949B0B8CB5F2
:101B800080618CBD8CB580648CBD61E08FE00E946B
:101B90009B0B61E080E10E949B0B809178018F5F3D
:101BA000809378011FBF01E311E0F80184910E5F7B
:101BB0001F4F31966491882319F00E949B0BF5CF3B
:101BC00061E086E00E94380B61E070E080E090E028
:101BD0000E94D70B60E086E00E94380B6AE070E05C
:101BE00080E090E00E94D70B61E086E00E94380B15
:101BF000EEE1F1E0E491F0E0EE0FFF1FEC5FFE4F4D
:101C00008591949190937E0180937D01E1EFF0E0C6
:101C1000E491E0937C01E6E1F1E0E491F0E0EE0F85
:101C2000FF1FEC5FFE4F8591949190937B01809311
:101C30007A01E9EEF0E0E491E09379018CB58C7FD4
:101C40008CBD8DB581608DBDE0917D01F0917E01EF
:101C5000908180917C01982B9083A0917A01B09122
:101C60007B012C9190917901909592239C93908186
:101C7000809589238083E8EDF0E08DE08E0F9491CC
:101C80009EBD00000DB407FEFDCF9EB531968E13AC
:101C9000F6CFE0917A01F0917B01908180917901FA
:101CA000892B8083E0917D01F0917E01908180916C
:101CB0007C0180958923808380916400816080937A
:101CC000640080916400826080936400809164006D
:101CD00080688093640080916400806480936400D5
:101CE0008091650081608093650082E48093C905DE
:101CF0000E9412051092D7051092D6051092D505B4
:101D00001092D4058E01095F1F4F90E2692E712C4D
:101D10002CE0E22EF12C332433948FE0482E512C0A
:101D20000E94110C8090060190900701A09008017C
:101D3000B0900901681579058A059B0518F1D50150
:101D4000C40188519C4FAF4FBF4F809306019093C1
:101D50000701A0930801B09309010E94670C83FF5B
:101D600008C00E94670C82FF04C0809105018111A8
:101D700053C38091860190918701019690938701CA
:101D8000809386010E94110C2091D205222391F0AC
:101D90002091CA05F62FF21BF093D3052091C505BB
:101DA0003091C6052F5F3F4F3093C6052093C50580
:101DB0001092D2058090CE059090CF05A090D005CE
:101DC000B090D105681579058A059B0580F4882DAA
:101DD000861B823008F418C383B7817F83BF83B723
:101DE000816083BF889583B78E7F83BF0DC32091A9
:101DF000C9054B015C01820E911CA11CB11C809293
:101E0000CE059092CF05A092D005B092D1056093F7
:101E1000CA057093CB058093CC059093CD05309285
:101E2000D2050E9412051092D7051092D605109285
:101E3000D5051092D4058091BC059091BD05009701
:101E400029F45092BD054092BC0505C001979093BE
:101E5000BD058093BC058091860190918701CC9748
:101E600069F4109287011092860180917601909119
:101E700077010196909377018093760180917601A6
:101E800090917701CC9799F4809186019091870188
:101E9000892B69F4109277011092760180910201EA
:101EA0009091030101969093030180930201209188
:101EB00002013091030180917F01909180012817E8
:101EC000390721F58091860190918701892BF1F4E2
:101ED00080910101811105C010920301109202014D
:101EE00015C080910001882349F08091BC05909134
:101EF000BD050F9759F41092000108C08091BC05F0
:101F00009091BD050F9711F4309200010E94670C6B
:101F100085FF87C20E94670C86FF83C20E94670C00
:101F200083FD7FC20E94670C82FD7BC20E94670C0A
:101F300087FD77C20E94670C84FD73C20E94120560
:101F40001092D7051092D6051092D5051092D4059F
:101F50000E94210510920501D0900501DD2009F4B1
:101F600053C20E94670C84FFBFC069E471E0CE01D8
:101F700001960E9437066EE471E0CE0101960E9440
:101F80005605882329F00E94670C82FD78C00CC09A
:101F900060E571E0CE0101960E945605882349F064
:101FA0000E94670C83FD6BC00E94670C87FD67C0B1
:101FB00010C062E571E0CE0101960E9456058823AB
:101FC00069F00E94670C82FD5AC00E94670C83FD75
:101FD00056C00E94670C84FD52C014C069E471E0D1
:101FE000CE0101960E945605882389F00E94670C55
:101FF00082FD45C00E94670C87FD41C00E94670CAE
:1020000083FD3DC00E94670C85FD39C018C065E5A1
:1020100071E0CE0101960E9456058823A9F00E9426
:10202000670C82FD2CC00E94670C87FD28C00E94AF
:10203000670C84FD24C00E94670C83FD20C00E94B1
:10204000670C86FF1DC01BC06AE571E0CE010196DA
:102050000E945605882399F00E94670C82FD0FC0EC
:102060000E94670C87FD0BC00E94670C84FD07C0AF
:102070000E94670C85FD03C00E94670C83FDD12C74
:10208000CE0101960E943206DD2071F10E94110CF2
:102090008090820190908301A0908401B09085018E
:1020A000681579058A059B0528F08091040188232D
:1020B00009F4D2C1809104018823B1F00E94110C6F
:1020C000DC01CB018053984FAF4FBF4F809382010B
:1020D00090938301A0938401B09385011092040131
:1020E00060E081E00E9433050E94670C84FD06C019
:1020F0003092040161E081E00E943305D09001013B
:10210000DD2029F0F0928001E0927F0106C028E1F5
:1021100030E03093800120937F010E94670C86FF9E
:1021200027C00E94670C87FF23C0DD2009F10E94B1
:10213000670C83FD1DC00E94670C82FD19C00E94C0
:10214000670C85FD15C00E94670C84FD11C01092BC
:10215000010120910001809102019091030122234D
:1021600009F489C10C9721F4109203011092020125
:102170000E94670C85FF36C00E94670C84FF32C046
:102180008091010181112EC00E94670C83FD2AC03D
:102190000E94670C82FD26C00E94670C86FD22C04B
:1021A0000E94670C87FD1EC03092010180910201E0
:1021B000909103018C3091050CF467C110920001DD
:1021C0008C30910529F00C979093030180930201C4
:1021D0008091020190910301892B21F4F092030177
:1021E000E09202010E94670C83FF52C10E94670CBB
:1021F00087FF4EC10E94670C82FD4AC10E94840C79
:1022000080910101882319F060E671E002C064E664
:1022100071E088E995E00E941B061092D5051092A6
:10222000D4051092D7051092D60540919C05509187
:102230009D0560919805709199058EEB95E00E943F
:10224000EB067092D5056092D4057092D705609226
:10225000D605C0908601D09087019AE0C916D104B6
:1022600018F468E671E002C06BE671E08AEA95E076
:102270000E941B06A0907601B0907701EAE0AE16AE
:10228000B10418F468E671E002C06BE671E084EA1C
:1022900095E00E941B068090020190900301FAE0F5
:1022A0008F1691041CF46AE671E002C06BE671E0DF
:1022B0008EE995E00E941B0680910101882351F070
:1022C00080910001882319F06CE671E005C060E799
:1022D00071E002C06BE671E082E995E00E941B06A6
:1022E0001A8219821C821B821E821D8260919E05A9
:1022F00070919F056115710541F04091A2055091C3
:10230000A305CE0101960E94FA05B401CE01019603
:102310000E94750560EB75E00E94C80564EA75E0EF
:102320000E94C805B5010E94750560EB75E00E942A
:10233000C8056AEA75E00E94C805B6010E947505E5
:1023400062E975E00E94C80518861F821A86198600
:102350001C861B868017910759F0FC0160817181F2
:102360006115710529F044815581C8010E94FA0563
:10237000CE0101960E9432068091B6059091B70574
:102380000097C9F06F8178856115710591F04091D2
:10239000B8055091B9052B853C854217530748F085
:1023A0000E948F158B859C859093BB058093BA0501
:1023B00018C00E9416148F8198859093B70580935A
:1023C000B60589859A859093B9058093B8058B8564
:1023D0009C859093BB058093BA0518861F821A8648
:1023E00019861C861B86C8010E9432064091BA05D8
:1023F0005091BB056091B6057091B7058EEB95E0E5
:102400000E94EB060E94210520E030E0232B09F416
:1024100087CC0E9400007FCC5092BD054092BC0545
:10242000F3CF0E94670C87FF97CD0E94670C84FF53
:1024300093CD0E94670C83FD8FCD0E94670C82FDB7
:102440008BCD0E94670C85FD87CD0E94670C86FDB1
:1024500083CD3092050180CD3092810110928201AE
:1024600010928301109284011092850161E080E056
:102470000E9433051FCE8C30910509F479CE0C965D
:10248000909303018093020173CE30920001A0CE9D
:102490000E94670C83FF0CC00E94670C84FF08C079
:1024A0000E94670C82FD04C080E00E94AB0CA8CEA5
:1024B0000E94670C82FF08C00E94670C87FF04C05F
:1024C0000E94670C83FF20C00E94670C82FF04C03B
:1024D0000E94670C84FD1CC00E94670C83FF1DC016
:1024E0000E94670C82FF19C00E94670C87FF15C00D
:1024F000809186019091870101968C33910564F15A
:10250000109287011092860181E00E94D30C78CE50
:102510000E94670C83FF1EC0DFCF0E94670C83FF01
:102520006FCE0E94670C82FF6BCE0E94670C84FF07
:1025300067CE8091860190918701019790938701E2
:102540008093860197FF5CCE8BE390E090938701A8
:102550008093860180E0D9CF909387018093860194
:102560004FCEE8EEF5E01382128288EE93E0A0E011
:10257000B0E084839583A683B78384E291E091835E
:1025800080838FEF9FEF95878487EEEBF5E01382D2
:1025900012821186128680E1838710861782108A44
:1025A000118A128A138A148A84E391E091838083CA
:1025B0008EE391E095838483178A168A118E108E9C
:1025C00081E0828F138E848F158E8FE090E0909340
:1025D000BD058093BC056BE671E086EB95E00E943B
:1025E000370664E771E080EB95E00E94370668E605
:1025F00071E08AEA95E00E94370668E671E084EAB5
:1026000095E00E9437066AE671E08EE995E00E9447
:1026100037066BE671E088E995E00E9437066CE6C4
:1026200071E082E995E00E9437066BE671E08CE884
:1026300095E00C9437060F931F93CF93DF938C0193
:102640008AE090E00E94CB159FEF980F9E3F58F5CF
:1026500022E330E0D80157963C932E93569728E317
:1026600030E059963C932E935897CBE0D0E0D801B8
:10267000ED91FC910190F081E02D682FC801099542
:10268000CE010E94CB152196C131D10581F70E9460
:1026900021056CED75E080E090E0DF91CF911F9116
:1026A0000F910C94D70BDF91CF911F910F9108954B
:1026B00004970C941B138CE895E00E94320682E983
:1026C00095E00E94320688E995E00E9432068EE984
:1026D00095E00E94320684EA95E00E9432068AEA7A
:1026E00095E00E94320680EB95E00E94320686EB70
:1026F00095E00C943206EE0FFF1F0590F491E02D4B
:102700000994CF93DF938230910510F482E090E03A
:10271000E0914A06F0914B0620E030E0C0E0D0E0C6
:10272000309711F14081518148175907C0F048177F
:10273000590761F482819381209719F09B838A83E2
:102740002BC090934B0680934A0626C02115310575
:1027500019F04217530718F49A01BE01DF01EF0187
:102760000280F381E02DDCCF2115310509F1281B12
:10277000390B2430310590F412968D919C9113976A
:102780006115710521F0FB019383828304C090934E
:102790004B0680934A06FD01329644C0FD01E20FCC
:1027A000F31F81939193225031092D933C933AC0AA
:1027B0002091480630914906232B41F420911801BD
:1027C0003091190130934906209348062091160153
:1027D000309117012115310541F42DB73EB74091D5
:1027E0001A0150911B01241B350BE0914806F09112
:1027F0004906E217F307A0F42E1B3F0B28173907F1
:1028000078F0AC014E5F5F4F2417350748F04E0F4C
:102810005F1F50934906409348068193919302C0ED
:10282000E0E0F0E0CF01DF91CF9108950F931F9387
:10283000CF93DF93009709F48CC0FC013297138289
:10284000128200914A0610914B060115110581F480
:1028500020813181820F931F2091480630914906D3
:102860002817390779F5F0934906E093480671C0B7
:10287000D80140E050E0AE17BF0750F412962D91FA
:102880003C911397AD012115310509F1D901F3CF21
:102890009D01DA013383228360817181860F971F46
:1028A0008217930769F4EC0128813981260F371FBD
:1028B0002E5F3F4F318320838A819B819383828364
:1028C000452B29F4F0934B06E0934A0642C0139639
:1028D000FC93EE931297ED01499159919E01240FBB
:1028E000351FE217F30771F480819181840F951FE2
:1028F000029611969C938E938281938113969C935A
:102900008E931297E0E0F0E0D80112968D919C91A1
:102910001397009719F0F8018C01F6CF8D919C91D7
:1029200098012E5F3F4F820F931F209148063091F0
:1029300049062817390769F4309729F410924B0695
:1029400010924A0602C01382128210934906009325
:102950004806DF91CF911F910F910895A0E0B0E05C
:10296000E4EBF4E10C94D715EC01009721F4CB01D2
:102970000E948113B8C0FC01E60FF71F9C01225092
:102980003109E217F30708F4ACC0D9010D911C918D
:10299000119706171707B0F00530110508F49FC00E
:1029A000C80104978617970708F499C002501109C7
:1029B000061B170B019311936D937C93CF010E941B
:1029C00016148DC05B01A01AB10A4C01800E911E35
:1029D000A0914A06B0914B0640E050E0E12CF12C6A
:1029E000109709F44AC0A815B905D1F56D907C90EF
:1029F0001197630182E0C80ED11CCA14DB0480F178
:102A0000A3014A195B096A0182E0C80ED11C129623
:102A1000BC9012971396AC91B5E0CB16D10440F060
:102A2000B282A38351834083D9016D937C930AC002
:102A30000E5F1F4FC301800F911FF90191838083A7
:102A4000EB2DFA2FE114F10431F0D7011396FC932A
:102A5000EE93129744C0F0934B06E0934A063FC0B2
:102A60008D919C9111974817590708F4AC017D018D
:102A700012960D90BC91A02DB3CF809148069091F5
:102A8000490688159905E1F446175707C8F480915F
:102A9000160190911701009741F48DB79EB74091B0
:102AA0001A0150911B01841B950BE817F907C8F414
:102AB000F0934906E0934806F901718360830FC0E3
:102AC000CB010E9481137C01009759F0A801BE013F
:102AD0000E947D15CE010E941614C70104C0CE01CC
:102AE00002C080E090E0CDB7DEB7EEE00C94F315C5
:102AF00081E090E0F8940C940A16FB01DC0102C01E
:102B000001900D9241505040D8F70895FB01DC012F
:102B10008D91019080190110D9F3990B0895FB0153
:102B2000DC0101900D920020E1F70895BB274A30A7
:102B300031F4992322F4BDE2909581959F4F0C9436
:102B4000A215BB27FB015527AA27880F991FAA1F8B
:102B5000A41710F0A41B83955051B9F7A05DAA33B8
:102B600008F0A95DA193009779F7B111B193119283
:102B7000CB010C94BB15DC01FC01672F719177230D
:102B8000E1F7329704C07C916D9370836291AE1728
:102B9000BF07C8F30895F999FECF92BD81BDF89A99
:102BA000992780B508952F923F924F925F926F922E
:102BB0007F928F929F92AF92BF92CF92DF92EF92CD
:102BC000FF920F931F93CF93DF93CDB7DEB7CA1B4E
:102BD000DB0B0FB6F894DEBF0FBECDBF09942A8879
:102BE000398848885F846E847D848C849B84AA8421
:102BF000B984C884DF80EE80FD800C811B81AA81AE
:102C0000B981CE0FD11D0FB6F894DEBF0FBECDBF78
:102C1000ED01089513E0C8E7D3E004C0FE010E946F
:0E2C20007B132196C937D107C9F7F894FFCF6F
:102C2E0001010C000101E803000000E100000000BA
:102C3E000000FFFFFFFF00004C06800001000000B7
:102C4E0000000000CD034B043004EE030C04E3033C
:102C5E00000000001C0AEB061B13FCFF00005813BB
:102C6E000F0000C18081000000444F574E0041000C
:102C7E0042005550004C45465400524947485400B6
:102C8E0031326800323468003000200020414D009F
:062C9E0020504D003A0039
:00000001FF
