:100000000C9479030C94A1030C94A1030C94A10308
:100010000C94A1030C94A1030C94A1030C94A103D0
:100020000C94A1030C94A1030C941E060C947F0A5B
:100030000C94A1030C94A1030C94A1030C94A103B0
:100040000C94A1030C94A1030C94A1030C94A103A0
:100050000C94A1030C94A1030C94A1030C94AA0882
:100060000C94A1030C94A1030C94A1030C94A10380
:100070000C94A1030C94A1030C94A1030C94A10370
:100080000C94A1030C94A1030C94A1030C94A10360
:100090000C94A1030C94A1030C94A1030C94A10350
:1000A0000C94A1030C94A1030C94A103FC07FF077B
:1000B000EE07F207F60720082008200803080708C3
:1000C0000B081108150820081B0800000000240078
:1000D00027002A002D003000D5F08D14A1C881CF53
:1000E000D9F1AF20000408020110408040102040E8
:1000F000804080080204018040201002011080101E
:100100002040402000000000250028002B002E0089
:10011000310004040404040304050202020204037F
:100120000202020206060606060604040202020491
:10013000041402130212021502070208020A020A3C
:10014000010B020B010902090104010C0106010067
:1001500000000000003E5B4F5B3E3E6B4F6B3E1C61
:100160003E7C3E1C183C7E3C181C577D571C1C5E78
:100170007F5E1C00183C1800FFE7C3E7FF0018244F
:100180001800FFE7DBE7FF30483A060E26297929F9
:1001900026407F050507407F05253F5A3CE73C5A2E
:1001A0007F3E1C1C08081C1C3E7F14227F22145F0B
:1001B0005F005F5F06097F017F006689956A606066
:1001C00060606094A2FFA29408047E040810207E60
:1001D000201008082A1C08081C2A08081E101010E5
:1001E000100C1E0C1E0C30383E3830060E3E0E062B
:1001F000000000000000005F00000007000700147E
:100200007F147F14242A7F2A12231308646236493C
:100210005620500008070300001C22410000412224
:100220001C002A1C7F1C2A08083E08080080703029
:100230000008080808080000606000201008040298
:100240003E5149453E00427F40007249494946219E
:1002500041494D331814127F1027454545393C4A12
:100260004949314121110907364949493646494929
:10027000291E000014000000403400000008142271
:1002800041141414141400412214080201590906DF
:100290003E415D594E7C1211127C7F494949363EE0
:1002A000414141227F4141413E7F494949417F09C6
:1002B0000909013E414151737F0808087F00417FD1
:1002C00041002040413F017F081422417F404040CF
:1002D000407F021C027F7F0408107F3E4141413E67
:1002E0007F090909063E4151215E7F0919294626E9
:1002F0004949493203017F01033F4040403F1F20ED
:1003000040201F3F4038403F6314081463030478C3
:1003100004036159494D43007F41414102040810E3
:1003200020004141417F040201020440404040401E
:10033000000307080020545478407F28444438388C
:1003400044444428384444287F38545454180008FE
:100350007E090218A4A49C787F0804047800447DD8
:1003600040002040403D007F1028440000417F4075
:10037000007C047804787C080404783844444438C9
:10038000FC1824241818242418FC7C0804040848A9
:100390005454542404043F44243C4040207C1C20FA
:1003A00040201C3C4030403C44281028444C909055
:1003B000907C4464544C44000836410000007700AF
:1003C00000004136080002010204023C2623263CBC
:1003D0001EA1A161123A4040207A38545455592147
:1003E0005555794121545478412155547840205431
:1003F0005579400C1E52721239555555593954547D
:10040000545939555454580000457C410002457DEB
:10041000420001457C40F0292429F0F0282528F0ED
:100420007C545545002054547C547C0A097F493241
:10043000494949323248484832324A4848303A41BC
:1004400041217A3A42402078009DA0A07D39444461
:1004500044393D4040403D3C24FF2424487E4943EC
:10046000662B2FFC2F2BFF0929F620C0887E09035D
:1004700020545479410000447D413048484A323884
:100480004040227A007A0A0A727D0D19317D2629B0
:10049000292F28262929292630484D4020380808A8
:1004A000080808080808382F10C8ACBA2F102834DC
:1004B000FA00007B000008142A142222142A1408CF
:1004C0009500220095AA005500AAAA55AA55AA008F
:1004D0000000FF00101010FF00141414FF00101093
:1004E000FF00FF1010F010F0141414FC001414F7A7
:1004F00000FF0000FF00FF1414F404FC1414171094
:100500001F10101F101F1414141F00101010F000E3
:100510000000001F101010101F10101010F010001D
:100520000000FF101010101010101010FF1000002D
:1005300000FF140000FF00FF00001F10170000FC68
:1005400004F414141710171414F404F40000FF003A
:10055000F714141414141414F700F71414141714C3
:1005600010101F101F141414F4141010F010F000C9
:10057000001F101F0000001F14000000FC140000EA
:10058000F010F01010FF10FF141414FF14101010CE
:100590001F00000000F010FFFFFFFFFFF0F0F0F081
:1005A000F0FFFFFF0000000000FFFF0F0F0F0F0F15
:1005B00038444438447C2A2A3E147E02020606024D
:1005C0007E027E0263554941633844443C04407EC8
:1005D000201E2006027E020299A5E7A5991C2A4941
:1005E0002A1C4C7201724C304A4D4D3030487848CC
:1005F00030BC625A463D3E494949007E0101017EB8
:100600002A2A2A2A2A44445F444440514A4440400A
:10061000444A51400000FF0103E080FF0000080849
:100620006B6B083612362436060F090F06000018C9
:10063000180000001010003040FF0101001F0101F0
:100640001E00191D1712003C3C3C3C00000000003D
:100650000000000200090F0000030401000C00006C
:100660000000000000000000000000000000000882
:100670000B00020202010009040000010202000056
:1006800005240010010524010101042402060524AB
:100690000600010705810310004009040100020A59
:1006A0000000000705020240000007058302400029
:1006B000000403090441726475696E6F204C4C4359
:1006C0000041726475626F7900120100020000003F
:1006D000404123368000010102030112010002EFB4
:1006E0000201404123368000010102030100A911EB
:1006F0004D1211241FBECFEFDAE0DEBFCDBF11E0F7
:10070000A0E0B1E0E8EFF9E202C005900D92AE354D
:10071000B107D9F726E0AEE5B1E001C01D92A932DC
:10072000B207E1F713E0C8E7D3E004C02197FE0168
:100730000E946912C737D107C9F70E94BC0C0C94FC
:10074000EF140C940000FC0180917101811103C031
:100750008FEF9FEF08959FB7F89482E08093E900B0
:100760002091F20030E01216130614F421E030E07C
:100770002115310559F0289884E680937001809105
:10078000F10080838091F200882319F09FBFC90196
:1007900008958BE68093E800F9CFCF93DF931F9203
:1007A000CDB7DEB76983DC01ED91FC910280F38166
:1007B000E02D41E050E0BE016F5F7F4F09950F9043
:1007C000DF91CF91089583E08093E9008091F2005A
:1007D000882319F08AE38093E8000895CF93DF938C
:1007E0001F92CDB7DEB7FC018485958597FD05C0C6
:1007F0002FEF3FEF358724870BC0CE0101960E9473
:10080000A303019719F4898190E002C08FEF9FEF55
:100810000F90DF91CF9108950F931F93CF93DF93A4
:100820001F92CDB7DEB78C01FC018485958597FFBB
:100830000EC0CE0101960E94A303019719F42981ED
:1008400030E002C02FEF3FEFF80135872487F80131
:10085000848595850F90DF91CF911F910F91089519
:10086000FC018485958597FD0BC09FB7F89482E0C5
:100870008093E9008091F2009FBF90E00196089577
:100880009FB7F89482E08093E9008091F2009FBFC7
:1008900090E0089508958F929F92AF92BF92CF9269
:1008A000DF92EF92FF920F931F93CF93DF935C0140
:1008B0006B018A0180911001882309F45EC0809148
:1008C0007101882309F459C080916F0180FF05C030
:1008D0008091E00082608093E000E8018AEFF82ECA
:1008E00093E0E92E2FE3822E3AE3932E209709F42A
:1008F0003DC08FB7F894E092E9009091E80095FF31
:1009000006C09091F200282D291B922F01C090E083
:100910008FBF91110AC0FA94FF2079F161E070E075
:1009200080E090E00E947008E1CF292F30E0C217EC
:10093000D3070CF49C2F8FB7F894E092E900209134
:10094000E80025FF11C0292F30E0C21BD30BF601B0
:10095000915020F041914093F100FACFC20ED31E86
:100960009091E80095FF13C08FBFC0CF5D9884E6DB
:100970008093BC051016110644F081E090E0F5016B
:100980009383828380E090E005C0C80103C0909209
:10099000E800EACFDF91CF911F910F91FF90EF9088
:1009A000DF90CF90BF90AF909F908F9008950E945E
:1009B00066140F931F93CF93DF93EC018881998185
:1009C000009729F02A813B812617370788F48B018D
:1009D0006F5F7F4F0E949C13009761F0998388831B
:1009E0001B830A832C813D81232B11F4FC0110828F
:1009F00081E001C080E0DF91CF911F910F910895B8
:100A0000CF93DF93EC0188819981009711F00E94C8
:100A10000413198218821D821C821B821A82DF91A4
:100A2000CF91089520E082E791E0B22FB111BFEF9E
:100A3000FC010024B193B193B193B1930394D1F726
:100A40000895809172018EBDE3E7F1E081910DB4CC
:100A500007FEFDCF8EBD85E0E237F807B9F70DB48C
:100A600007FEFDCF08958091C10581110DC082E080
:100A70008093BD0584E08093BE051092C00510925E
:100A8000BF0581E08093C1058DEB95E00895CF927D
:100A9000DF92EF92FF920F931F93CF93DF93CDB727
:100AA000DEB728970FB6F894DEBF0FBECDBF8C011E
:100AB000CB014AE09E012F5F3F4F6901B9010E94BF
:100AC0007B14F60101900020E9F73197EC19FD093C
:100AD000D8011496ED90FC9015973097D9F0EE0E52
:100AE000FF1EB701C8010E94D904882381F0F801D4
:100AF0002081318184819581B601820F931F0E94EC
:100B00007414D8011596FC92EE92149703C0C80194
:100B10000E940005C80128960FB6F894DEBF0FBEEC
:100B2000CDBFDF91CF911F910F91FF90EF90DF909C
:100B3000CF900895EF92FF920F931F93CF93DF937F
:100B4000EC01FB0184819581E080F1800C811D81A5
:100B5000E114F104B1F00097B9F0080F191FB801C2
:100B6000CE010E94D904882361F0288139818C81CB
:100B70009D81B701820F931F0E9474141D830C8303
:100B800003C0CE010E940005CE01DF91CF911F91DD
:100B90000F91FF90EF900895EF92FF920F931F93A4
:100BA000CF93DF93EC017B018A01BA010E94D90443
:100BB000811104C0CE010E94000507C01D830C8373
:100BC000B701888199810E947414CE01DF91CF9181
:100BD0001F910F91FF90EF900895CF93DF93EC0159
:100BE0006115710559F0FB0101900020E9F731977B
:100BF000AF01461B570B0E94CC0502C00E940005A6
:100C0000CE01DF91CF910895FC01118210821382F1
:100C10001282158214826115710551F0FB01019059
:100C20000020E9F73197AF01461B570B0C94CC0518
:100C30000895FC01808191810C9404131F920F92FE
:100C40000FB60F9211248F939F938091E1009091A2
:100C5000E100937F9093E10083FF0FC01092E900C1
:100C600091E09093EB001092EC0092E39093ED00F2
:100C70001092710198E09093F00082FF20C093E001
:100C80009093E9009091F200992319F09AE39093E0
:100C9000E8009091BC05992339F09091BC059150E2
:100CA0009093BC05992389F190917001992339F0B3
:100CB00090917001915090937001992341F184FFBC
:100CC00010C08091E2008E7E81608093E20080916E
:100CD000E1008F7E8093E10080916F018E7E8061C4
:100CE00011C080FF16C08091E2008E7E80618093EB
:100CF000E2008091E1008E7E8093E10080916F019F
:100D00008E7E816080936F0104C05D9ACDCF289A5A
:100D1000D6CF9F918F910F900FBE0F901F90189577
:100D20003FB7F89480911A0690911B06A0911C067B
:100D3000B0911D0626B5A89B05C02F3F19F001965E
:100D4000A11DB11D3FBFBA2FA92F982F8827820F51
:100D5000911DA11DB11DBC01CD0142E0660F771FA1
:100D6000881F991F4A95D1F708952F923F924F926D
:100D70005F926F927F928F929F92AF92BF92CF922B
:100D8000DF92EF92FF920F931F93CF93DF9300D0E8
:100D900000D000D0CDB7DEB7DC016A30A9F45C9694
:100DA0002C915C9758968D919C91599708E0209FC3
:100DB000800D911D112459969C938E9358975796A8
:100DC0001C921E925697D1C06D3009F4CEC05C962D
:100DD000BC905C975B962C905B975A963C905A9788
:100DE00058962D913C9159973C832B8356968D9123
:100DF0009C91579780389105C4F05C962C915C9734
:100E0000422F50E056968D919C91579736E0239F44
:100E1000800D911D112457969C938E9356975D9645
:100E20002C915D9721118EC0A0C00B811C810034D4
:100E300011051CF79C0115E0B19E200D311D1124F8
:100E400012161306D4F68B2C912C2B813C8148E092
:100E5000B49E200D311D11241216130674F6E5E020
:100E60006E9F2001112460E070E06530710539F05B
:100E7000FB01E40DF51DE05BFE4FA49001C0A12C29
:100E8000EB80FC8008E0702EA0FC02C0622C01C048
:100E9000632C611009C0231007C0A6947A94E80C53
:100EA000F91C7110F1CF45C09C01422F481B4B1516
:100EB000A0F7A701E42FF42FFE19FB15B8F5203891
:100EC000310588F54034510570F5E695E695E695CF
:100ED000CE2ED12C8A01077011271A830983F601BF
:100EE000F695FE2FEE27F795E795E20FF31F8F019A
:100EF0000E581E4F1E830D83E1E0F0E0098002C012
:100F0000EE0FFF1F0A94E2F7FA83E983662029F0C7
:100F1000F801D080C980CD2805C0CE2EC094F8013C
:100F2000D080CD20C0824F5F5F4FC4CF2F5F3F4F37
:100F3000BCCF6F5F7F4F880D991D6630710509F03A
:100F400094CF5BCF6AEF64039001659F300D11244D
:100F500020583F4F2817390744F4CD01ED91FC91FB
:100F60000190F081E02D6AE0099581E090E02696FD
:100F70000FB6F894DEBF0FBECDBFDF91CF911F91AA
:100F80000F91FF90EF90DF90CF90BF90AF909F9028
:100F90008F907F906F905F904F903F902F9008952B
:100FA0000895362F90E0FC01E05BF94F4491FC017D
:100FB000EB51FF4F2491FC01EE5EFE4F849188239C
:100FC00009F451C04423E1F150E0FA013197EF30C8
:100FD000F105B0F5EA5AFF4F0C9469129091800028
:100FE0009F7707C0909180009F7D03C09091800003
:100FF000977F9093800024C094B59F7702C094B5EA
:101000009F7D94BD1DC0909190009F7707C09091E7
:1010100090009F7D03C090919000977F90939000E7
:101020000FC09091C0009F7703C09091C0009F7D3A
:101030009093C00005C09091C200977F9093C2002A
:10104000E82FF0E0EE0FFF1FEC5FFE4FA591B4918B
:101050008FB7F894EC91311103C020952E2301C075
:101060002E2B2C938FBF0895CF93DF9390E0FC013C
:10107000EB51FF4F2491FC01EE5EFE4F84918823DB
:1010800061F190E0880F991FFC01E653FF4FC59175
:10109000D491FC01EC5FFE4FA591B491611109C0A0
:1010A0009FB7F8948881209582238883EC912E2322
:1010B0000BC0623061F49FB7F8943881822F80951D
:1010C00083238883EC912E2B2C939FBF06C08FB770
:1010D000F894E8812E2B28838FBFDF91CF9108955C
:1010E0008F929F92AF92BF92CF92DF92EF92FF9238
:1010F0006B017C010E9490064B015C01C114D1047C
:10110000E104F104F1F00E949006DC01CB018819A2
:101110009909AA09BB09883E9340A105B10570F35E
:1011200021E0C21AD108E108F10888EE880E83E0B8
:10113000981EA11CB11CC114D104E104F10419F7DB
:10114000DDCFFF90EF90DF90CF90BF90AF909F905A
:101150008F9008951F920F920FB60F9211242F9324
:101160003F938F939F93AF93BF9380915E01909134
:101170005F01A0916001B09161013091190623E0F7
:10118000230F2D3720F40196A11DB11D05C026E8BF
:10119000230F0296A11DB11D2093190680935E01B5
:1011A00090935F01A0936001B093610180911A0652
:1011B00090911B06A0911C06B0911D060196A11DE1
:1011C000B11D80931A0690931B06A0931C06B09342
:1011D0001D06BF91AF919F918F913F912F910F90DD
:1011E0000FBE0F901F9018958FB12CB193B130E0C6
:1011F0002095309520743327A90123E05595479514
:101200002A95E1F7292F30E020953095207133277A
:101210003595279535952795242B8095807F822BB2
:10122000089580910201909103010196909303012A
:101230008093020120910101222399F08D309105C4
:101240003CF081E090E090930301809302010895C7
:101250000C9769F49091000181E089278093000147
:101260000895489721F41092030110920201089505
:1012700081110C9411098091020190910301019751
:10128000909303018093020120910101222379F0C0
:10129000181619061CF08CE090E00DC00B9779F43D
:1012A0009091000181E0892780930001089597FFC4
:1012B00006C087E190E090930301809302010895B6
:1012C0002091620130916301882359F02F5F3F4FD5
:1012D0002C33310554F010926301109262010C948A
:1012E00011092150310937FD05C030936301209366
:1012F000620108958BE390E0909363018093620113
:1013000080E00C94380940912306509124062091E6
:1013100021063091220642175307B4F49091E80059
:101320009570E1F39091E80092FD19C08093F1006F
:10133000809123069091240601968F739927892B1B
:1013400019F48EEF8093E800809123069091240693
:101350000196909324068093230681E0089580E00F
:101360000895CF92DF92EF92FF920F931F93CF9346
:10137000DF931F92CDB7DEB7182F062FE42E862FEE
:10138000880F8E5F99830E94830983E00E948309FE
:10139000F12EC12E9981D92E8C2D8F19801798F49A
:1013A000F601E7FE02C0849101C080810E9483099A
:1013B000182F80E00E9483098123FFEFCF1ADF0AF4
:1013C0008111EACF01C081E00F90DF91CF911F9191
:1013D0000F91FF90EF90DF90CF900895DF92EF9202
:1013E000FF920F931F93CF93DF93D82E8A017B0137
:1013F000E40EF51EEB01CE15DF0571F0D7FE03C03C
:10140000FE01849101C088810E9483092196811187
:10141000F2CF8FEF9FEF01C0C801DF91CF911F91F5
:101420000F91FF90EF90DF900895615030F0209180
:10143000F100FC0120830196F8CF289884E6809380
:1014400070010895CF92DF92EF92FF920F931F9356
:10145000CF93DF936C017A018B01C0E0D0E0CE1511
:10146000DF0589F0D8016D918D01D601ED91FC91D8
:101470000190F081E02DC6010995892B11F47E01C0
:1014800002C02196ECCFC701DF91CF911F910F9140
:10149000FF90EF90DF90CF9008950F931F93CF931D
:1014A000DF931F92CDB7DEB782E0898342E450E03C
:1014B0006FE676E080E80E94EE090E943305DC01C9
:1014C00012960D911C9113970115110569F0D80121
:1014D000ED91FC910280F381E02DBE016F5F7F4FA3
:1014E000C801099597FF07C089810F90DF91CF91BF
:1014F0001F910F910895F80100851185E5CF1F9286
:101500000F920FB60F921124CF92DF92EF92FF92BB
:101510000F931F932F933F934F935F936F937F93FB
:101520008F939F93AF93BF93EF93FF93CF93DF93EB
:10153000CDB7DEB76C97DEBFCDBF1092E9008091CA
:10154000E80083FFFAC168E0CE0145960E94150AC3
:1015500082EF8093E8008D8987FF05C09091E800B5
:1015600090FFFCCF03C09EEF9093E800982F9076F9
:1015700009F0C6C09E892F89188D91110CC0803842
:1015800029F480911F068093F10002C01092F100AF
:101590001092F10047C1422F50E0512B913051F48D
:1015A000811140C14130510509F03CC180911F06B5
:1015B0008D7F0BC0933061F4811134C141305105EE
:1015C00009F030C180911F06826080931F062AC1F6
:1015D000953041F48091E80080FFFCCF2068209393
:1015E000E30020C1963009F05FC0EB8CFC8C1092B8
:1015F000E9001092240610922306123091F5109201
:101600002206109221060E944D0A99E0BE016F5FEA
:101610007F4FDB01E92F1D92EA95E9F799831A8341
:1016200091E09E8390EA98879AEF9987209123060C
:1016300030912406275F3F4F3C832B838D8310928C
:10164000E9001092240610922306F0922206E092FE
:10165000210649E050E080E00E94EE090E944D0A18
:10166000E1C0F0922206E09221060E943305DC01DF
:101670001296ED90FC901397E114F10409F4C0C0A8
:10168000D701ED91FC910480F581E02DBE016B5EE8
:101690007F4FC7010995009719F00CF0C3C0C6C071
:1016A000F701E084F184E8CF973009F4BFC09830A7
:1016B00021F481E08093F100B5C0993009F0B2C007
:1016C000837009F0B3C0E2E4F1E081E021E036E3A9
:1016D0009081992361F08093E9002093EB00919130
:1016E0009093EC003093ED008F5F873089F78EE7A1
:1016F0008093EA001092EA008F898093710192C072
:101700008B8D9C8D1092E900109224061092230676
:101710009093220680932106898D811156C08E896F
:101720009D89913A59F4813209F080C047E050E038
:1017300069E071E080E00E94EE0974C0913209F026
:1017400075C0833289F4888D90E0982F88272F897F
:10175000822BA0E0B0E08093110190931201A0933E
:101760001301B09314015EC0803269F48091E800E7
:1017700082FFFCCF67E089E091E00E94150A8BEFC1
:101780008093E80006C0823209F04CC08F898093B4
:10179000100180911E06882319F0EEEFFAE002C0D6
:1017A000E0E0F8E08091090190910A01A0910B011D
:1017B000B0910C01803B9440A105B10509F088C0AF
:1017C0008091100180FFA0C083C00E943305DC011E
:1017D00012960D911C9113970115110539F1D8013D
:1017E000ED91FC910190F081E02DBE016B5E7F4F89
:1017F000C8010995811116C0F80100851185ECCF4B
:101800001130C1F0133091F48F89882309F455C049
:101810008230E9F440E867E081EC96E00E94B1098B
:10182000882321F08EEF8093E80087C081E28093C7
:10183000EB0083C08B8D9C8D089711F410932006CC
:1018400080912006811136C069EC76E038C0813085
:1018500029F440E86BE085EB96E0E0CF833031F788
:101860000E943305DC011296ED90FC9013978E01D7
:101870000F5F1F4F6801E114F10479F0D701ED917A
:10188000FC910680F781E02DB801C7010995080F8A
:10189000111DF701E084F184EECFD8011C92F6010E
:1018A00001900020E9F73197BF016C197D0940E0F4
:1018B000C601B4CF6BED76E002C061EB76E0611556
:1018C000710509F4B3CFFB01449150E080E833CFB8
:1018D0000FB6F894A89580916000886180936000AD
:1018E000109260000FBEA895EE3F2AE0F20739F093
:1018F0008091FE0A9091FF0A9183808393CF10928A
:10190000FF0A1092FE0A8ECFEE3F8AE0F80731F010
:10191000808191819093FF0A8093FE0A87E797E781
:10192000918380839BE088E10FB6F894A89580931B
:1019300060000FBE9093600075CF6C960FB6F89460
:10194000DEBF0FBECDBFDF91CF91FF91EF91BF9171
:10195000AF919F918F917F916F915F914F913F9147
:101960002F911F910F91FF90EF90DF90CF900F90EC
:101970000FBE0F901F901895CF93DF93CDB7DEB7B2
:101980002C970FB6F894DEBF0FBECDBF789484B508
:10199000826084BD84B5816084BD85B5826085BD6B
:1019A00085B5816085BD80916E00816080936E00F9
:1019B00010928100809181008260809381008091EB
:1019C000810081608093810080918000816080939C
:1019D00080008091910082608093910080919100BD
:1019E000816080939100809190008160809390004D
:1019F0008091C10084608093C1008091C1008260A9
:101A00008093C1008091C10081608093C10080916A
:101A1000C30081608093C3008091C0008260809386
:101A2000C0008091C20081608093C20080917A00E2
:101A3000846080937A0080917A00826080937A003B
:101A400080917A00816080937A0080917A0080682A
:101A500080937A001092710110921F0610926F010C
:101A60008091D70081608093D70080EA8093D8006E
:101A700089B5806189BD89B5826089BD09B400FEE0
:101A8000FDCF61E070E080E090E00E9470088091FE
:101A9000D8008F7C80618093D8008091E000807FA7
:101AA0008093E0008091E1008E7E8093E1008DE0E4
:101AB0008093E200559A209AEEEFFFE7859194918A
:101AC0008B3F9C4D19F481E080931E061FB7F8945C
:101AD00080916401811127C0E3E2F1E08491E6EF97
:101AE000F0E09491E82FF0E0EE0FFF1FE653FF4F78
:101AF000A591B491EC91E92321F461E081E10E9488
:101B0000D10761E081E10E9434088CB580618CBD11
:101B10008CB580648CBD61E08FE00E94340861E088
:101B200080E10E943408809164018F5F809364019A
:101B30001FBF01E311E0F80184910E5F1F4F319642
:101B40006491882319F00E943408F5CF61E086E0A3
:101B50000E94D10761E070E080E090E00E94700890
:101B600060E086E00E94D1076AE070E080E090E0EB
:101B70000E94700861E086E00E94D107EEE1F1E08A
:101B8000E491F0E0EE0FFF1FEC5FFE4F8591949122
:101B900090936A0180936901E1EFF0E0E491E093B2
:101BA0006801E6E1F1E0E491F0E0EE0FFF1FEC5F89
:101BB000FE4F859194919093670180936601E9EEC1
:101BC000F0E0E491E09365018CB58C7F8CBD8DB520
:101BD00081608DBDE0916901F0916A0190818091F1
:101BE0006801982B9083A0916601B09167012C91B8
:101BF00090916501909592239C9390818095892383
:101C00008083E8EDF0E08DE08E0F94919EBD0000A2
:101C10000DB407FEFDCF9EB531968E13F6CFE09141
:101C20006601F0916701908180916501892B808325
:101C3000E0916901F0916A0190818091680180953D
:101C40008923808380916400816080936400809107
:101C50006400826080936400809164008068809357
:101C600064008091640080648093640080916500CA
:101C700081608093650082E48093A9050E9412052B
:101C80001092B7051092B6051092B5051092B405E2
:101C90008E01095F1F4F90E2692E712C2CE0E22E1D
:101CA000F12C332433948FE0482E512C8FB7F894C5
:101CB00040915E0150915F016091600170916101FE
:101CC0008FBF8091050190910601A0910701B0910D
:101CD0000801481759076A077B0708F188519C4F8C
:101CE000AF4FBF4F8093050190930601A09307016A
:101CF000B09308010E94F40883FF08C00E94F40812
:101D000082FF04C08091040181118EC280916D0117
:101D100090916E01019690936E0180936D012FB7A3
:101D2000F89480915E0190915F01A0916001B09163
:101D300061012FBF2091B205222391F02091AA05C5
:101D4000F82FF21BF093B3052091A5053091A6055D
:101D50002F5F3F4F3093A6052093A5051092B20543
:101D60004091AE055091AF056091B0057091B105FD
:101D700084179507A607B70778F4481B423008F484
:101D80004BC283B7817F83BF83B7816083BF889550
:101D900083B78E7F83BF40C22091A905AC01BD01EE
:101DA000420F511D611D711D4093AE055093AF054B
:101DB0006093B0057093B1058093AA059093AB052D
:101DC000A093AC05B093AD053092B2050E94120508
:101DD0001092B7051092B6051092B5051092B40591
:101DE00080919C0590919D05009729F450929D0546
:101DF00040929C0505C0019790939D0580939C059A
:101E000080916D0190916E01CC9769F410926E01F2
:101E100010926D01809162019091630101969093FF
:101E20006301809362018091620190916301CC977C
:101E300099F480916D0190916E01892B69F4109253
:101E40006301109262018091020190910301019659
:101E500090930301809302012091020130910301CC
:101E600080916B0190916C012817390721F58091C1
:101E70006D0190916E01892BF1F480910101811126
:101E800005C0109203011092020115C0809100015B
:101E9000882349F080919C0590919D050F9759F4F6
:101EA0001092000108C080919C0590919D050F97AC
:101EB00011F4309200010E94F40885FFBAC10E941B
:101EC000F40886FFB6C10E94F40883FDB2C10E94E7
:101ED000F40882FDAEC10E94F40887FDAAC10E94E9
:101EE000F40884FDA6C1109204010E94120510920C
:101EF000B7051092B6051092B5051092B4050E9470
:101F0000210580910401882309F484C1D090010146
:101F1000DD2029F0F0926C01E0926B0106C028E10F
:101F200030E030936C0120936B010E94F40886FF2F
:101F300027C00E94F40887FF23C0DD2009F10E941A
:101F4000F40883FD1DC00E94F40882FD19C00E94A0
:101F5000F40885FD15C00E94F40884FD11C010929C
:101F6000010120910001809102019091030122233F
:101F700009F47AC10C9721F4109203011092020126
:101F80000E94F40885FF36C00E94F40884FF32C026
:101F90008091010181112EC00E94F40883FD2AC0A6
:101FA0000E94F40882FD26C00E94F40886FD22C02B
:101FB0000E94F40887FD1EC0309201018091020149
:101FC000909103018C3091050CF458C110920001DE
:101FD0008C30910529F00C979093030180930201B6
:101FE0008091020190910301892B21F4F092030169
:101FF000E09202010E94F40883FF43C10E94F408AA
:1020000087FF3FC10E94F40882FD3BC10E94110975
:1020100080910101882319F068E471E002C06CE44A
:1020200071E088E795E00E94ED051092B5051092E9
:10203000B4051092B7051092B60540917C055091F9
:102040007D0560917805709179058EE995E00E9493
:10205000220A7092B5056092B4057092B70560923D
:10206000B605C0906D01D0906E019AE0C916D104FA
:1020700018F460E571E002C063E571E08AE895E07C
:102080000E94ED05A0906201B0906301EAE0AE16F7
:10209000B10418F460E571E002C063E571E084E822
:1020A00095E00E94ED058090020190900301FAE016
:1020B0008F1691041CF462E571E002C063E571E0E3
:1020C0008EE795E00E94ED0580910101882351F093
:1020D00080910001882319F064E571E005C068E58E
:1020E00071E002C063E571E082E795E00E94ED05D2
:1020F0001A8219821C821B821E821D8260917E05BB
:1021000070917F056115710541F0409182055091F4
:102110008305CE0101960E94CC05B401CE01019643
:102120000E94470560E975E00E949A0564E875E041
:102130000E949A05B5010E94470560E975E00E947A
:102140009A056AE875E00E949A05B6010E94470563
:1021500062E775E00E949A0518861F821A86198622
:102160001C861B868017910759F0FC0160817181E4
:102170006115710529F044815581C8010E94CC0583
:10218000CE0101960E9419068091960590919705BF
:102190000097C9F06F8178856115710591F04091C4
:1021A0009805509199052B853C854217530748F0B7
:1021B0000E9474148B859C8590939B0580939A054F
:1021C00018C00E9404138F8198859093970580937F
:1021D000960589859A8590939905809398058B85B6
:1021E0009C8590939B0580939A0518861F821A867A
:1021F00019861C861B86C8010E94190640919A0503
:1022000050919B0560919605709197058EE995E038
:102210000E94220A0E94210520E030E0232B09F4CD
:1022200045CD0E9400003DCD50929D0540929C05F9
:10223000F3CF0E94F40887FF64CE0E94F40884FF65
:1022400060CE0E94F40883FD5CCE0E94F40882FDFB
:1022500058CE0E94F40885FD54CE0E94F40886FDF5
:1022600050CE309204014DCE8C30910509F488CEC9
:102270000C96909303018093020182CE309200016C
:10228000AFCE0E94F40883FF0CC00E94F40884FFC4
:1022900008C00E94F40882FD04C080E00E94380952
:1022A000B7CE0E94F40882FF08C00E94F40887FF9E
:1022B00004C00E94F40883FF24C00E94F40882FF37
:1022C00004C00E94F40884FD20C00E94F40883FF2B
:1022D00021C00E94F40882FF1DC00E94F40887FFFD
:1022E00019C080916D0190916E01019690936E01DD
:1022F00080936D01CC970CF48BCE10926E011092EE
:102300006D0181E00E94600983CE0E94F40883FF82
:102310001EC0DBCF0E94F40883FF7ACE0E94F4082F
:1023200082FF76CE0E94F40884FF72CE80916D0108
:1023300090916E01019790936E0180936D0197FFCC
:1023400067CE8BE390E090936E0180936D0180E007
:10235000D9CFE9ECF5E01382128288EE93E0A0E099
:10236000B0E084839583A683B78383E291E0918371
:1023700080838FEF9FEF95878487EEE9F5E01382E6
:1023800012821186128680E1838710861782108A56
:10239000118A128A138A148A83E391E091838083DD
:1023A0008DE391E095838483178A168A118E108EAF
:1023B00081E0828F138E848F158E8FE090E0909352
:1023C0009D0580939C0563E571E086E995E00E9498
:1023D00004066CE571E080E995E00E94040660E582
:1023E00071E08AE895E00E94040660E571E084E807
:1023F00095E00E94040662E571E08EE795E00E9498
:10240000040663E571E088E795E00E94040664E550
:1024100071E082E795E00C9404060F931F93CF932D
:10242000DF938C018AE090E00E94B0149FEF980F38
:102430009E3F58F522E330E0D80157963C932E9307
:10244000569728E330E059963C932E935897CBE06B
:10245000D0E0D801ED91FC910190F081E02D682F42
:10246000C8010995CE010E94B0142196C131D10551
:1024700081F70E9421056CED75E080E090E0DF912E
:10248000CF911F910F910C947008DF91CF911F9104
:102490000F91089504970C940D1282E795E00E9425
:1024A000190688E795E00E9419068EE795E00E94DC
:1024B000190684E895E00E9419068AE895E00E94D2
:1024C000190680E995E00E94190686E995E00C94CA
:1024D0001906EE0FFF1F0590F491E02D0994CF939C
:1024E000DF938230910510F482E090E0E0912706BE
:1024F000F091280620E030E0C0E0D0E0309711F104
:102500004081518148175907C0F04817590761F4B5
:1025100082819381209719F09B838A832BC09093AB
:1025200028068093270626C02115310519F0421789
:10253000530718F49A01BE01DF01EF010280F38115
:10254000E02DDCCF2115310509F1281B390B243092
:10255000310590F412968D919C9113976115710538
:1025600021F0FB019383828304C09093280680931B
:102570002706FD01329644C0FD01E20FF31F81934F
:102580009193225031092D933C933AC02091250616
:1025900030912606232B41F4209117013091180128
:1025A00030932606209325062091150130911601BF
:1025B0002115310541F42DB73EB7409119015091D5
:1025C0001A01241B350BE0912506F0912606E2172F
:1025D000F307A0F42E1B3F0B2817390778F0AC0146
:1025E0004E5F5F4F2417350748F04E0F5F1F509323
:1025F0002606409325068193919302C0E0E0F0E027
:10260000CF01DF91CF9108950F931F93CF93DF9365
:10261000009709F48CC0FC0132971382128200915A
:102620002706109128060115110581F420813181BA
:10263000820F931F2091250630912606281739070F
:1026400079F5F0932606E093250671C0D80140E0A5
:1026500050E0AE17BF0750F412962D913C9113979E
:10266000AD012115310509F1D901F3CF9D01DA0141
:102670003383228360817181860F971F82179307AE
:1026800069F4EC0128813981260F371F2E5F3F4FF7
:10269000318320838A819B8193838283452B29F414
:1026A000F0932806E093270642C01396FC93EE931E
:1026B0001297ED01499159919E01240F351FE217A0
:1026C000F30771F480819181840F951F0296119612
:1026D0009C938E938281938113969C938E931297F1
:1026E000E0E0F0E0D80112968D919C91139700974D
:1026F00019F0F8018C01F6CF8D919C9198012E5F15
:102700003F4F820F931F20912506309126062817F0
:10271000390769F4309729F4109228061092270699
:1027200002C0138212821093260600932506DF91C1
:10273000CF911F910F910895A0E0B0E0E2EAF3E19C
:102740000C94BC14EC01009721F4CB010E946F1291
:10275000B8C0FC01E60FF71F9C0122503109E217B7
:10276000F30708F4ACC0D9010D911C91119706171D
:102770001707B0F00530110508F49FC0C801049791
:102780008617970708F499C002501109061B170B0A
:10279000019311936D937C93CF010E9404138DC01C
:1027A0005B01A01AB10A4C01800E911EA091270670
:1027B000B091280640E050E0E12CF12C109709F48C
:1027C0004AC0A815B905D1F56D907C9011976301A9
:1027D00082E0C80ED11CCA14DB0480F1A3014A199F
:1027E0005B096A0182E0C80ED11C1296BC90129758
:1027F0001396AC91B5E0CB16D10440F0B282A3831E
:1028000051834083D9016D937C930AC00E5F1F4FA3
:10281000C301800F911FF90191838083EB2DFA2F63
:10282000E114F10431F0D7011396FC93EE93129763
:1028300044C0F0932806E09327063FC08D919C91F9
:1028400011974817590708F4AC017D0112960D90B5
:10285000BC91A02DB3CF80912506909126068815B6
:102860009905E1F446175707C8F480911501909136
:102870001601009741F48DB79EB740911901509110
:102880001A01841B950BE817F907C8F4F093260684
:10289000E0932506F901718360830FC0CB010E948C
:1028A0006F127C01009759F0A801BE010E946B14C1
:1028B000CE010E940413C70104C0CE0102C080E013
:1028C00090E0CDB7DEB7EEE00C94D81481E090E054
:1028D000F8940C94EF14FB01DC0102C001900D92FE
:1028E00041505040D8F70895FB01DC0101900D9252
:1028F0000020E1F70895BB274A3031F4992322F4F0
:10290000BDE2909581959F4F0C948714BB27FB01E6
:102910005527AA27880F991FAA1FA41710F0A41BD8
:1029200083955051B9F7A05DAA3308F0A95DA19332
:10293000009779F7B111B1931192CB010C94A014C7
:10294000DC01FC01672F71917723E1F7329704C016
:102950007C916D9370836291AE17BF07C8F30895A1
:10296000F999FECF92BD81BDF89A992780B5089557
:102970002F923F924F925F926F927F928F929F928F
:10298000AF92BF92CF92DF92EF92FF920F931F937D
:10299000CF93DF93CDB7DEB7CA1BDB0B0FB6F8942E
:1029A000DEBF0FBECDBF09942A88398848885F846E
:1029B0006E847D848C849B84AA84B984C884DF80DF
:1029C000EE80FD800C811B81AA81B981CE0FD11DC3
:1029D0000FB6F894DEBF0FBECDBFED01089513E032
:1029E000C8E7D3E004C0FE010E9469122196C937EE
:0829F000D107C9F7F894FFCFED
:1029F80001010C0001E803000000E10000000000F4
:102A080000FFFFFFFF000029068000010000000012
:102A1800000000CD034B043004EE030C04E3030074
:102A2800000000B506220A0D12FCFF00004A120F32
:102A38000000C18081000000313268003234680033
:0E2A48003000200020414D0020504D003A008B
:00000001FF
