:100000000C9484070C94AC070C94AC070C94AC07CC
:100010000C94AC070C94AC070C94AC070C94AC0794
:100020000C94AC070C94AC070C94E2130C9454148D
:100030000C94AC070C94AC070C94AC070C94AC0774
:100040000C94AC070C9432110C94AC070C94AC07D4
:100050000C94AC070C94AC070C94AC070C943B10BC
:100060000C94AC070C94AC070C94AC070C94AC0744
:100070000C94AC070C94AC070C94AC070C94AC0734
:100080000C946E120C94AC070C94AC070C94AC0757
:100090000C94AC070C94AC070C94AC070C94AC0714
:1000A0000C94AC070C94AC070C94AC07810F840F34
:1000B000730F770F7B0FA50FA50FA50F880F8C0F60
:1000C000900F960F9A0FA50FA00F000000002400BC
:1000D00027002A002D003000D5F08D14A1C881CF53
:1000E000D9F1AF20000408020110408040102040E8
:1000F000804080080204018040201002011080101E
:100100002040402000000000250028002B002E0089
:10011000310004040404040304050202020204037F
:100120000202020206060606060604040202020491
:10013000041402130212021502070208020A020A3C
:10014000010B020B010902090104010C0106010067
:10015000029A903E00A6904000A6904200A69040D1
:1001600000A6904300A6904200A6904000A6903EB4
:1001700000A6904500A6904300A6904200A690409D
:1001800000A69132904200A69134903E00A691368E
:10019000904500A6913400A69047913700A691366D
:1001A00000A69049913400379047003790490037B6
:1001B0009132904A00A6913990490053904A0053D9
:1001C0009137904900A691369047005390450053CF
:1001D0009134007D8000299049913600A6904A9183
:1001E0003200A6904C913900A6904900A6912D901E
:1001F0004E00A6904A00A69139904900A69047006B
:100200008A81001B9139904C00A6904900A6912D3F
:10021000904A00A6904700A69139904500A69044C8
:10022000008A81001B9139904C00A6904900A6914C
:100230002D904E00A6904A00A69139904900A690B4
:1002400047008A81001B9139904C00A6904900A676
:10025000912D904A00A6904700A69139904500A69E
:100260009044008A81001B9139904900A690470074
:10027000A6913B904A00A6904900A6913D90470068
:10028000A6904500A6913E904E00A6913D00A690F6
:1002900044914000A6913E00A69045913D00A69154
:1002A0003B00A6913D001B80001B90470037904506
:1002B0000037913E90440037904500379047001B2F
:1002C00080001B90479140014D913400A69045005D
:1002D000A69139904500A6913400A6913600A691CA
:1002E0003800A691398000A6913B00A6913D00A65A
:1002F000913B00A6904C913E00A6913D00A69051E6
:10030000913B00A6913900A6914000A6904700A617
:100310009134904900A6904B00A6904C8100A69085
:100320004E00A6904F00A6904E00A6913B90510023
:10033000A6904F00A69140904E00A6904C00A6902B
:100340005300A6913600A69047913800A6913A0036
:10035000A6913B8000A6913D00A6913E00A6913D4E
:1003600000A69042914000A6913E00A69047913D84
:1003700000A6913B00A6914200A6904600A69136A9
:10038000904700A6904900A69140904A00A6904C44
:1003900000A6913E904E00A6904C00A69147904F2B
:1003A00000A69146904E00A69147904C00A6904A18
:1003B00000A6913D904C00A6904A00A69146904E12
:1003C00000A69144904C00A69146904A00A6904900
:1003D00000A69147904A00A69145904900A69143F6
:1003E000904C00A69142904A00A69140904900A6E8
:1003F000913E904700A69140904900A6913E00A6EC
:10040000904691420053904400539140904600A67C
:10041000913E904700A6913D00A6913E00A69049CE
:100420009140008A80001B904991420053904A00FD
:1004300053904900A6913600A6904700A6913B0034
:10044000A6904200A69136904400A6904600A69140
:1004500032904700A6904900A6912F904A00A6909E
:100460004900A6904C00A6904A00A690498100A69B
:10047000904700A6904F00A6912F00A6913100A6AC
:10048000913300A6913400A6913600A6913700A6BC
:10049000913600A6913900A6913700A6913600A6A4
:1004A000913400A69139008A80001B904000A690EC
:1004B0004200A6904400A6904500A6904700A69052
:1004C0004900A6904700A6904A00A6904900A69031
:1004D0004700A6904500A6904E008A81001B912DF2
:1004E00000A6912F00A6913100A6913200A691346A
:1004F00000A6913600A6913400A6913700A6913649
:1005000000A6913400A6913200A69138008A80009E
:100510001B904700A6904C00A69134904A00A691EB
:1005200036904900A69138904700A691399049002D
:10053000A69138904700A69136904A00A691349033
:100540004900A69132904700A69136904500A691A9
:100550003490440053904500539132904400A6914A
:1005600031904000A6912F00A69045913100A690B1
:1005700047912D00A69049913900A6904700A69179
:1005800036904A00A6904900A69131904700A69067
:100590004500A69132904E00A6913100A6913400FC
:1005A000A69044913200A69045913100A6904491C6
:1005B0002F00A69045913100A6904A913200A69056
:1005C000479134014D912800A69045008A80001B78
:1005D0009045912D00A6913100A6913200A6904938
:1005E000913400A6904A913600A6904C913700A60F
:1005F0009042913900A6913700A69043913B00A606
:10060000913900A690479137005390450053913699
:1006100090430053904500539137904700A6913680
:1006200000A6904A91390053904900539137904762
:100630000053904900539136904A00A6913400A689
:10064000913600A69049913400A6904C913700A6AF
:10065000904A913600A69049913400A6904A913272
:1006600000A6904C913900A6904A00A6912D904981
:1006700000A6904700A690458100A6904300A69052
:100680004200A6904000A6904300A6904200A6908B
:100690004000A6903E00A6904500A6904300A6907C
:1006A0004200A6904000A69132904200A69134905C
:1006B0003E00A69136904500A6913400A690479141
:1006C0003700A6913600A690499134003790470034
:1006D00037904900379132904A00A69139904900ED
:1006E00053904A00539137904900A69136904700A5
:1006F00053904500539134007D800029904A9136F3
:1007000000A69132008A80001B904A913900A69180
:100710003600A6903E913B00A6913700A6904A91E4
:100720003600A69134008A80001B904A913900A6B9
:10073000913600A6903E913700A6913400A6904ACB
:10074000913200A69131008A80001B904A913900B5
:10075000A6913600A6903E913B00A6913700A69048
:100760004A913600A69134008A80001B904A913944
:1007700000A6913600A6903E913700A6913400A6BF
:10078000904A913200A6904C913100A6904E913241
:1007900000A6904C00A69134904F00A6904E00A663
:1007A0009136904C00A6904A00A69137905300A62F
:1007B000913600A69049913900A6913700A6904A3B
:1007C000913600A6913400A69136001B80001B9044
:1007D0004C0037904A0037913790490037904A00D3
:1007E00037904C002980000D904C9139014D912D8E
:1007F00000A6904A008A80001B904A912F00A69183
:100800002D00A6903E913000A6912F00A690439116
:100810002D00A6912B00A6913200A6903900A6903B
:100820003B00A6903D00A6903E00A6904000A690FA
:1008300042008A81001B9131904000A6912F904385
:1008400000A6912D904200A6912B904000A6912ADF
:10085000903E00A6912B904700A6912A00A6912DCC
:1008600000A6903D912B00A6903E912A00A6903DB7
:10087000912800A6903E912A00A69043912B00A6B5
:100880009040912D01F4903E008A80001B903E9193
:100890002607D08081F006011501260137014A01A3
:1008A0005D01720188019F01B801D201EE010B02C6
:1008B0002A024B026E029302BA02E40210033F03C3
:1008C0007003A403DC03170455049704DD04270513
:1008D0007505C80520067D06E0064907B8072D08FE
:1008E000A9082D09B9094D0AEA0A900B400CFA0C27
:1008F000C00D910E6F0F5A1053115B1272139A14A0
:10090000D41520178018F519801B231DDE1EB42076
:10091000A622B524E4263429A72B402E0031EA3341
:100920000037453ABC3D68414C456B49C84D68525B
:100930004F57805C006210111213151617181A1CFD
:100940001D1F21232527292C2E3134373A3E4145BE
:10095000494E52575C62686E757B838B939CA5AF42
:10096000B9C4D0DCE9F700000000003E5B4F5B3EFD
:100970003E6B4F6B3E1C3E7C3E1C183C7E3C181C64
:10098000577D571C1C5E7F5E1C00183C1800FFE75B
:10099000C3E7FF0018241800FFE7DBE7FF30483A01
:1009A000060E2629792926407F050507407F052563
:1009B0003F5A3CE73C5A7F3E1C1C08081C1C3E7FEB
:1009C00014227F22145F5F005F5F06097F017F00B2
:1009D0006689956A606060606094A2FFA2940804D2
:1009E0007E040810207E201008082A1C08081C2AF3
:1009F00008081E101010100C1E0C1E0C30383E384B
:100A000030060E3E0E06000000000000005F0000F1
:100A10000007000700147F147F14242A7F2A122362
:100A20001308646236495620500008070300001C72
:100A30002241000041221C002A1C7F1C2A08083E7B
:100A4000080800807030000808080808000060608E
:100A50000020100804023E5149453E00427F4000FC
:100A600072494949462141494D331814127F1027D4
:100A7000454545393C4A4949314121110907364923
:100A8000494936464949291E0000140000004034F7
:100A900000000008142241141414141400412214FC
:100AA0000802015909063E415D594E7C1211127C23
:100AB0007F494949363E414141227F4141413E7F84
:100AC000494949417F090909013E414151737F0864
:100AD00008087F00417F41002040413F017F08140A
:100AE00022417F404040407F021C027F7F0408106B
:100AF0007F3E4141413E7F090909063E4151215E49
:100B00007F09192946264949493203017F01033FDC
:100B10004040403F1F2040201F3F4038403F63146B
:100B200008146303047804036159494D43007F416D
:100B300041410204081020004141417F04020102AA
:100B400004404040404000030708002054547840CF
:100B50007F284444383844444428384444287F3863
:100B60005454541800087E090218A4A49C787F08E5
:100B700004047800447D40002040403D007F102860
:100B8000440000417F40007C047804787C08040421
:100B9000783844444438FC1824241818242418FCB9
:100BA0007C08040408485454542404043F44243C5E
:100BB0004040207C1C2040201C3C4030403C4428CD
:100BC0001028444C9090907C4464544C4400083667
:100BD00041000000770000004136080002010204D5
:100BE000023C2623263C1EA1A161123A4040207AF5
:100BF000385454555921555579412154547841213F
:100C00005554784020545579400C1E527212395573
:100C10005555593954545459395554545800004570
:100C20007C410002457D420001457C40F029242999
:100C3000F0F0282528F07C545545002054547C546D
:100C40007C0A097F493249494932324848483232A0
:100C50004A4848303A4141217A3A42402078009D42
:100C6000A0A07D39444444393D4040403D3C24FFF0
:100C70002424487E4943662B2FFC2F2BFF0929F69D
:100C800020C0887E090320545479410000447D41EE
:100C90003048484A32384040227A007A0A0A727D47
:100CA0000D19317D2629292F282629292926304862
:100CB0004D4020380808080808080808382F10C8D0
:100CC000ACBA2F102834FA00007B000008142A1454
:100CD0002222142A14089500220095AA005500AA81
:100CE000AA55AA55AA000000FF00101010FF00141A
:100CF0001414FF001010FF00FF1010F010F0141477
:100D000014FC001414F700FF0000FF00FF1414F49B
:100D100004FC141417101F10101F101F1414141F9C
:100D200000101010F0000000001F101010101F1015
:100D3000101010F010000000FF1010101010101014
:100D40001010FF10000000FF140000FF00FF000063
:100D50001F10170000FC04F414141710171414F4D7
:100D600004F40000FF00F714141414141414F70012
:100D7000F7141414171410101F101F141414F41463
:100D80001010F010F000001F101F0000001F1400D2
:100D90000000FC140000F010F01010FF10FF1414FD
:100DA00014FF141010101F00000000F010FFFFFFD0
:100DB000FFFFF0F0F0F0F0FFFFFF0000000000FF89
:100DC000FF0F0F0F0F0F38444438447C2A2A3E147B
:100DD0007E02020606027E027E02635549416338A6
:100DE00044443C04407E201E2006027E020299A557
:100DF000E7A5991C2A492A1C4C7201724C304A4DB5
:100E00004D303048784830BC625A463D3E494949E9
:100E1000007E0101017E2A2A2A2A2A44445F444492
:100E200040514A444040444A51400000FF0103E021
:100E300080FF000008086B6B083612362436060F58
:100E4000090F06000018180000001010003040FFC5
:100E50000101001F01011E00191D1712003C3C3C3E
:100E60003C00000000000000000200090F00000329
:100E70000401000C00000000000000000000000061
:100E80000000000000080B0002020201000904003B
:100E900000010202000005240010010524010101E7
:100EA0000424020605240600010705810310004002
:100EB00009040100020A00000007050202400000C8
:100EC0000705830240000004030904417264756948
:100ED0006E6F204C4C430041726475626F79001252
:100EE000010002000000404123368000010102039E
:100EF0000112010002EF020140412336800001018E
:100F000002030100401C911611241FBECFEFDAE04E
:100F1000DEBFCDBF11E0A0E0B1E0E8EBFFE302C02F
:100F200005900D92A43AB107D9F726E0A4EAB1E002
:100F300001C01D92AF3AB207E1F717E0C3E8D7E06E
:100F400004C02197FE010E94F01CC238D107C9F7E6
:100F50000E94B1160C94CF1F0C940000882359F006
:100F600080910201882319F010920201089581E016
:100F700080930201089580910301882319F0109253
:100F80000301089581E08093030108952091AF014A
:100F90003091B0012F5F3F4F3093B0012093AF01EC
:100FA00090910001992381F02D3031053CF081E0D2
:100FB00090E09093B0018093AF0108952C303105FB
:100FC00051F40E94AE0708952831310521F41092A2
:100FD000B0011092AF010895882319F0862F0C9468
:100FE000C6072091AF013091B001215031093093F3
:100FF000B0012093AF0180910001882389F012167F
:1010000013063CF08CE090E09093B0018093AF0128
:1010100008952B30310561F4862F0E94AE070895A4
:1010200037FF06C087E190E09093B0018093AF0155
:101030000895CF93DF939091B601923009F480C068
:10104000292F30E0F901E95BFE4FD081F901EF541F
:10105000FE4F8083913031F42091B101281302C0FA
:1010600090938606C82F9F5F9093B60161E00E941F
:10107000B90FD13019F0D33061F162C080916400B2
:10108000877F80936400109280001092810080918D
:1010900081008860809381008091810081608093CD
:1010A00081008C2F90E0FC01EE5EFE4FE491F0E0B9
:1010B000EE0FFF1FEC5FFE4F2591349130938806B1
:1010C00020938706FC01EB51FF4F849180938906A2
:1010D00037C080916500877F8093650010929000F3
:1010E000109291008091910088608093910080918E
:1010F00091008160809391008C2F90E0FC01EE5E66
:10110000FE4FE491F0E0EE0FFF1FEC5FFE4F2591E4
:10111000349130938B0620938A06FC01EB51FF4FEC
:10112000849180938C068091B601882321F06CE332
:1011300080E00E94BB1080E0DF91CF910C94AD1154
:10114000DF91CF910895CF93DF93EC0160E571E0DB
:101150000E94130D8823B1F00E94851082FD75C096
:101160000E94851087FD71C00E94851084FD6DC0AE
:101170000E94851085FD69C00E94851086FD65C0AE
:1011800081E064C062E571E0CE010E94130D882306
:1011900029F00E94851083FD58C0E2CF64E571E01C
:1011A000CE010E94130D882349F00E94851082FD14
:1011B0004CC00E94851083FD48C0D6CF67E571E022
:1011C000CE010E94130D882369F00E94851082FDD4
:1011D0003CC00E94851087FD38C00E94851083FDA9
:1011E00034C0C6CF6CE571E0CE010E94130D882398
:1011F00089F00E94851082FD28C00E94851087FD1D
:1012000024C00E94851084FD20C00E94851083FDAB
:101210001CC0B2CF61E671E0CE010E94130D88239D
:10122000A1F00E94851082FD10C00E94851087FDEC
:101230000CC00E94851084FD08C00E94851085FDA9
:1012400004C00E94851083FF9BCF80E0DF91CF9187
:1012500008950E94851083FD16C00E94851082FDAE
:1012600012C00E94851087FD0EC00E94851084FD6B
:101270000AC00E94851085FD06C00E94851086FD6B
:1012800002C081E0089580E008958F929F92AF920E
:10129000BF92CF92DF92EF92FF920F93CF93DF93A3
:1012A00000D000D000D0CDB7DEB77C016B015A0171
:1012B00049016A30710518F467E671E002C061EA1D
:1012C00071E087EF95E00E94DC0D8AE0A816B1047A
:1012D00018F467E671E002C061EA71E081EF95E021
:1012E0000E94DC0D8AE0881691041CF469E671E026
:1012F00002C061EA71E08BEE95E00E94DC0D809106
:101300000001882379F0002351F0809102018823A5
:1013100019F06BE671E008C06FE671E005C08091DE
:101320000301F5CF61EA71E08FED95E00E94DC0DDD
:101330006BEE75E0CE0101960E94F80DB401CE016E
:1013400001960E94720D6DEF75E00E94A80D61EF8D
:1013500075E00E94A80DB5010E94720D6DEF75E059
:101360000E94A80D67EF75E00E94A80DB6010E94CB
:10137000720D6FED75E00E94A80DBC01C7010E94BF
:10138000F80DCE0101960E94F30DC70126960FB607
:10139000F894DEBF0FBECDBFDF91CF910F91FF90CC
:1013A000EF90DF90CF90BF90AF909F908F90089577
:1013B0000F931F93CF938A01C22F9093AE01809316
:1013C000AD017093AC016093AB015093B0014093B9
:1013D000AF0180910001882319F08CE090E002C0F9
:1013E00088E190E09093B5018093B4010E9485104C
:1013F00086FF32C00E94851087FF2EC080910001B9
:10140000882351F10E94851083FD26C00E9485101B
:1014100082FD22C00E94851085FD1EC00E9485109D
:1014200084FD1AC01092000180910201811134C123
:1014300080910301882309F456C00C30110509F08E
:1014400056C01092B0011092AF01CC2309F446C0EF
:1014500010920501109204010E94851085FF31C091
:101460000E94851084FF2DC080910001811129C048
:101470000E94851083FD25C00E94851082FD21C039
:101480000E94851086FD1DC00E94851087FD19C031
:1014900021E0209300018091AF019091B0018C3048
:1014A00091050CF45BC010920201109203018C3084
:1014B0009105C9F58091AF019091B001892B09F494
:1014C00052C00E94851083FF60C00E94851087FF74
:1014D0005CC00E94851082FF7CC057C01092090139
:1014E00010920801B9CF0C30110509F4B5CF045F93
:1014F0001F4F1093B0010093AF01CC2351F08091A6
:101500000401909105010C969093050180930401CC
:10151000A3CF80910801909109010C969093090145
:101520008093080199CF0C979093B0018093AF01FD
:10153000CC2351F080910401909105010C97909378
:10154000050180930401B6CF8091080190910901B3
:101550000C979093090180930801ACCF209302016E
:1015600020930301A7CF8CE090E09093B00180938B
:10157000AF01CC2329F09093050180930401A1CF02
:1015800090930901809308019CCF0E94851083FFEE
:1015900004C00E94851084FD20C00E94851082FF37
:1015A00021C00E94851087FF1DC00E94851083FD09
:1015B00019C08091AB019091AC0101969093AC0160
:1015C0008093AB01CC970CF470C01092AC011092D8
:1015D000AB018C2F0E94C60768C00E94851082FF55
:1015E0001EC0DBCF0E94851082FF1EC00E948510A6
:1015F00084FF1AC00E94851083FD16C08091AB0144
:101600009091AC0101979093AC018093AB0197FF4F
:101610004CC08BE390E09093AC018093AB016C2FB6
:1016200080E00E94EC0741C00E94851083FF15C036
:101630000E94851082FF11C00E94851087FF0DC097
:101640008091AD019091AE0101968C339105FCF033
:101650001092AE011092AD01ACCF0E94851083FFB5
:1016600024C00E94851082FF20C00E94851084FF44
:101670001CC08091AD019091AE01019797FF07C00A
:101680008BE390E09093AE018093AD01B7CF909340
:10169000AE018093AD0109C00C30110509F4D1CE23
:1016A000809103018111D8CE22CF8091AD0190911C
:1016B000AE019093A6018093A5018091AB0190911A
:1016C000AC019093A8018093A7018091AF01909104
:1016D000B0019093AA018093A90185EA91E0CF918E
:1016E0001F910F910895FC018091D601811103C0D3
:1016F0008FEF9FEF08959FB7F89482E08093E90001
:101700002091F20030E01216130614F421E030E0CC
:101710002115310559F0289884E68093D5018091F0
:10172000F10080838091F200882319F09FBFC901E6
:1017300008958BE68093E800F9CFCF93DF931F9253
:10174000CDB7DEB76983DC01ED91FC910280F381B6
:10175000E02D41E050E0BE016F5F7F4F09950F9093
:10176000DF91CF91089583E08093E9008091F200AA
:10177000882319F08AE38093E8000895CF93DF93DC
:101780001F92CDB7DEB7FC018485958597FD05C016
:101790002FEF3FEF358724870BC0CE0101960E94C3
:1017A000730B019719F4898190E002C08FEF9FEFCE
:1017B0000F90DF91CF9108950F931F93CF93DF93F5
:1017C0001F92CDB7DEB78C01FC018485958597FF0C
:1017D0000EC0CE0101960E94730B019719F4298166
:1017E00030E002C02FEF3FEFF80135872487F80182
:1017F000848595850F90DF91CF911F910F9108956A
:10180000FC018485958597FD0BC09FB7F89482E015
:101810008093E9008091F2009FBF90E001960895C7
:101820009FB7F89482E08093E9008091F2009FBF17
:1018300090E008958F929F92AF92BF92CF92DF92E5
:10184000EF92FF920F931F93CF93DF935C016B0195
:101850008A0180911601882309F45EC08091D60127
:10186000882309F459C08091D40180FF05C080917C
:10187000E00082608093E000E8018AEFF82E93E0B8
:10188000E92E2FE3822E3AE3932E209709F43DC0F0
:101890008FB7F894E092E9009091E80095FF06C0B8
:1018A0009091F200282D291B922F01C090E08FBF4C
:1018B00091110AC0FA94FF2079F161E070E080E0B4
:1018C00090E00E94F50FE1CF292F30E0C217D30737
:1018D0000CF49C2F8FB7F894E092E9002091E80077
:1018E00025FF11C0292F30E0C21BD30BF601915008
:1018F00020F041914093F100FACFC20ED31E909197
:10190000E80095FF13C08FBFC0CF5D9884E6809339
:10191000D3011016110644F081E090E0F5019383A5
:10192000828380E090E005C0C80103C09092E80087
:10193000EACFDF91CF911F910F91FF90EF90DF9051
:10194000CF90BF90AF909F908F9008950E94ED1E12
:101950000F931F93CF93DF93EC01888199810097B8
:1019600029F02A813B812617370788F48B016F5FA6
:101970007F4F0E94231E009761F0998388831B8309
:101980000A832C813D81232B11F4FC01108281E01C
:1019900001C080E0DF91CF911F910F91089520E069
:1019A00087ED91E0B22FB111BFEFFC010024B1939C
:1019B000B193B193B1930394D1F7ECE0F6E0118EBB
:1019C000108E178A168A08958091D7018EBDE8ED92
:1019D000F1E081910DB407FEFDCF8EBD85E0E73DBE
:1019E000F807B9F70DB407FEFDCF0895FC01448157
:1019F0005581608171818CE096E00C947013809128
:101A00002E0681110DC082E080932A0684E0809327
:101A10002B0610922D0610922C0681E080932E0644
:101A20008AE296E00895FC0124813581232B31F46C
:101A300021E061157105A1F0FB0108C0FC01808166
:101A400091816115710531F421E0FC0180818823C9
:101A500039F005C00E94FB1E21E0892B09F020E02F
:101A6000822F0895EF92FF920F931F93CF93DF93EE
:101A7000FC01248135816115710511F480E019C0E4
:101A800041155105A9F07B01EC018A01020F131FDA
:101A9000B8010E94A80C882389F3288139818C81A0
:101AA0009D81B701820F931F0E94041F1D830C8329
:101AB00081E0DF91CF911F910F91FF90EF900895FA
:101AC000CF93DF93EC0188819981009711F00E94F8
:101AD0008B1D198218821D821C821B821A82DF9143
:101AE000CF910895EF92FF920F931F93CF93DF93BF
:101AF000CDB7DEB728970FB6F894DEBF0FBECDBFC7
:101B00007C01CB014AE08E010F5F1F4FB8010E949C
:101B10000B1FF80101900020E9F73197AF01401B3E
:101B2000510BB801C7010E94320D811103C0C701DA
:101B30000E94600DC70128960FB6F894DEBF0FBE55
:101B4000CDBFDF91CF911F910F91FF90EF9008953E
:101B5000CF93DF93EC01FB0144815581608171815A
:101B60000E94320D811103C0CE010E94600DCE0192
:101B7000DF91CF910895EF92FF920F931F93CF9330
:101B8000DF93EC017B018A01BA010E94A80C81114C
:101B900004C0CE010E94600D07C01D830C83B701F5
:101BA000888199810E94041FCE01DF91CF911F91FE
:101BB0000F91FF90EF900895CF93DF93EC016115A3
:101BC000710559F0FB0101900020E9F73197AF0151
:101BD000461B570B0E94BB0D02C00E94600DCE0138
:101BE000DF91CF910895FC01808191810C948B1D30
:101BF000FB01DC0111961C921E9213961C921E9200
:101C0000129715961C921E9214978617970749F003
:101C1000608171816115710521F0448155810C94B9
:101C2000BB0D08953FB7F8948091A0069091A1064E
:101C3000A091A206B091A30626B5A89B05C02F3F90
:101C400019F00196A11DB11D3FBFBA2FA92F982FE2
:101C50008827820F911DA11DB11DBC01CD0142E05D
:101C6000660F771F881F991F4A95D1F708958091B5
:101C7000B30108952F923F924F925F926F927F929D
:101C80008F929F92AF92BF92CF92DF92EF92FF928C
:101C90000F931F93CF93DF9300D000D000D0CDB728
:101CA000DEB7DC016A30A9F45C962C915C975896FB
:101CB0008D919C91599708E0209F800D911D1124D2
:101CC00059969C938E93589757961C921E925697AE
:101CD000D1C06D3009F4CEC05C96BC905C975B9629
:101CE0002C905B975A963C905A9758962D913C9120
:101CF00059973C832B8356968D919C9157978038AA
:101D00009105C4F05C962C915C97422F50E056965A
:101D10008D919C91579736E0239F800D911D112442
:101D200057969C938E9356975D962C915D972111B3
:101D30008EC0A0C00B811C81003411051CF79C01D2
:101D400015E0B19E200D311D112412161306D4F694
:101D50008B2C912C2B813C8148E0B49E200D311DB1
:101D600011241216130674F6E5E06E9F200111246B
:101D700060E070E06530710539F0FB01E40DF51DA0
:101D8000EA59F64FA49001C0A12CEB80FC8008E03A
:101D9000702EA0FC02C0622C01C0632C611009C02F
:101DA000231007C0A6947A94E80CF91C7110F1CFA7
:101DB00045C09C01422F481B4B15A0F7A701E42FFB
:101DC000F42FFE19FB15B8F52038310588F540349D
:101DD000510570F5E695E695E695CE2ED12C8A0153
:101DE000077011271A830983F601F695FE2FEE2757
:101DF000F795E795E20FF31F8F0109521E4F1E83DF
:101E00000D83E1E0F0E0098002C0EE0FFF1F0A94AD
:101E1000E2F7FA83E983662029F0F801D080C980CF
:101E2000CD2805C0CE2EC094F801D080CD20C08230
:101E30004F5F5F4FC4CF2F5F3F4FBCCF6F5F7F4F70
:101E4000880D991D6630710509F094CF5BCF6AEF5C
:101E500064039001659F300D112420583F4F2817CF
:101E6000390744F4CD01ED91FC910190F081E02D12
:101E70006AE0099581E090E026960FB6F894DEBFFF
:101E80000FBECDBFDF91CF911F910F91FF90EF90CB
:101E9000DF90CF90BF90AF909F908F907F906F908A
:101EA0005F904F903F902F9008950895362F90E0C7
:101EB000FC01EA59F14F4491FC01EB51FF4F249191
:101EC000FC01EE5EFE4F8491882309F451C0442347
:101ED000E1F150E0FA013197EF30F105B0F5EA5A3F
:101EE000FF4F0C94F01C909180009F7707C0909159
:101EF00080009F7D03C090918000977F9093800029
:101F000024C094B59F7702C094B59F7D94BD1DC039
:101F1000909190009F7707C0909190009F7D03C0A3
:101F200090919000977F909390000FC09091C00087
:101F30009F7703C09091C0009F7D9093C00005C023
:101F40009091C200977F9093C200E82FF0E0EE0FCF
:101F5000FF1FEC5FFE4FA591B4918FB7F894EC9101
:101F6000311103C020952E2301C02E2B2C938FBF3F
:101F70000895CF93DF9390E0FC01EB51FF4F249144
:101F8000FC01EE5EFE4F8491882361F190E0880FA2
:101F9000991FFC01E653FF4FC591D491FC01EC5F02
:101FA000FE4FA591B491611109C09FB7F894888143
:101FB000209582238883EC912E230BC0623061F43C
:101FC0009FB7F8943881822F809583238883EC9182
:101FD0002E2B2C939FBF06C08FB7F894E8812E2B31
:101FE00028838FBFDF91CF9108958F929F92AF92F8
:101FF000BF92CF92DF92EF92FF926B017C010E9421
:10200000120E4B015C01C114D104E104F104F1F0A2
:102010000E94120EDC01CB0188199909AA09BB099B
:10202000883E9340A105B10570F321E0C21AD108A2
:10203000E108F10888EE880E83E0981EA11CB11C0F
:10204000C114D104E104F10419F7DDCFFF90EF9042
:10205000DF90CF90BF90AF909F908F9008952FB753
:10206000F89460919C0670919D0680919E069091D7
:102070009F062FBF08951F920F920FB60F92112443
:102080002F933F938F939F93AF93BF9380919C0621
:1020900090919D06A0919E06B0919F0630919B065F
:1020A00023E0230F2D3720F40196A11DB11D05C09B
:1020B00026E8230F0296A11DB11D20939B06809355
:1020C0009C0690939D06A0939E06B0939F068091D8
:1020D000A0069091A106A091A206B091A306019638
:1020E000A11DB11D8093A0069093A106A093A20606
:1020F000B093A306BF91AF919F918F913F912F9184
:102100000F900FBE0F901F9018958FB12CB193B107
:1021100030E02095309520743327A90123E05595B0
:1021200047952A95E1F7292F30E0209530952071C9
:1021300033273595279535952795242B8095807FD6
:10214000822B08951F93CF93DF931F92CDB7DEB7F5
:10215000162F682F8AE049830E94560F612F8BE06B
:102160000E94560F4981642F89E00F90DF91CF9133
:102170001F910C94560FCF92DF92EF92FF921F9314
:10218000CF93DF93E82FF0E0E95BFE4F1081E62F5D
:10219000F0E0603330F4EA5CF64FE491CE2FD0E00B
:1021A00006C0EE0FFF1FEA5CF74FC591D4916E0198
:1021B000E12CF12C60E074E284EF90E0A70196013D
:1021C0000E94481FDA01C9010197A109B1090097CE
:1021D00021E0A207B10578F060E970ED83E090E0BE
:1021E000A70196010E94481FDA01C9010197A109C0
:1021F000B10923E001C021E01130C9F0133051F5DD
:1022000030919100387F232B209391009093990077
:1022100080939800D0939906C093980681E08093AC
:1022200097068091710082608093710013C0309195
:102230009A0631110FC030918100387F232B2093F3
:102240008100909389008093880080916F00826064
:1022500080936F00DF91CF911F91FF90EF90DF90FF
:10226000CF9008951F920F920FB60F9211242F93C3
:102270003F938F939F93AF93BF93EF93FF9380917F
:102280009A06882309F44FC080918D0690918E069E
:10229000A0918F06B0919006892B8A2B8B2B51F140
:1022A00080918906E0918706F091880690818927C0
:1022B000808380918D0690918E06A0918F06B091BB
:1022C0009006181619061A061B06D4F580918D067D
:1022D00090918E06A0918F06B09190060197A1096A
:1022E000B10980938D0690938E06A0938F06B093CC
:1022F000900626C01092960610929A0680916F0062
:102300008D7F80936F0090918906E0918706F09110
:1023100088068081282F30E0892F90E08095909565
:10232000822393230CC080919506811109C080916E
:102330008906E0918706F09188069081892780833D
:10234000FF91EF91BF91AF919F918F913F912F910D
:102350000F900FBE0F901F901895E82FF0E0E95BEB
:10236000FE4F8081813019F0833089F0089580918B
:102370009A06811122C080916F008D7F80936F003B
:1023800090918906E0918706F09188060CC0109222
:10239000970680919606811110C090918C06E0916D
:1023A0008A06F0918B068081282F30E0892F90E0FB
:1023B000809590958223932380830895CF93DF9314
:1023C000D1E0E091B801F091B9019F012F5F3F4F3B
:1023D0003093B9012093B8018491982F907FC82F32
:1023E000CF70903821F48C2F0E94AD11EACF903934
:1023F000F9F4E091D705F091D80509958D278093E0
:102400009506E091B801F091B901CF010196909342
:10241000B9018093B80164918091B601C81788F61C
:10242000C13009F052C0809186068111CACF4DC0DB
:1024300097FD3AC03296F093B901E093B801F901E3
:10244000249130E0382BA0919806B09199060E9413
:10245000C01F6C507E4F8F4F9F4F28EE33E040E0FF
:1024600050E00E949E1F2093910630939206409365
:102470009306509394068091910690919206A091B4
:102480009306B0919406892B8A2B8B2B21F581E042
:1024900090E0A0E0B0E08093910690939206A09324
:1024A0009306B093940617C0903E49F48091BA0108
:1024B0009091BB019093B9018093B80182CF903F76
:1024C00009F07FCF1092B70106C067FD7ACF8C2F3D
:1024D0000E94BB1076CFDF91CF9108951F920F928B
:1024E0000FB60F9211242F933F934F935F936F93E7
:1024F0007F938F939F93AF93BF93EF93FF938091BD
:102500009706882341F080919606811104C080913E
:102510009506882351F18091B701882381F180913C
:10252000910690919206A0919306B0919406892B02
:102530008A2B8B2B21F18091910690919206A0918C
:102540009306B09194060197A109B1098093910671
:1025500090939206A0939306B0939406892B8A2BAE
:102560008B2B69F40E94DE110AC080918C06E091E9
:102570008A06F0918B06908189278083CCCFFF91CA
:10258000EF91BF91AF919F918F917F916F915F91EB
:102590004F913F912F910F900FBE0F901F90189564
:1025A00008954091A9065091AA062091A70630915E
:1025B000A80642175307B4F49091E8009570E1F330
:1025C0009091E80092FD19C08093F1008091A906D6
:1025D0009091AA0601968F739927892B19F48EEF93
:1025E0008093E8008091A9069091AA0601969093A5
:1025F000AA068093A90681E0089580E00895CF920D
:10260000DF92EF92FF920F931F93CF93DF931F926E
:10261000CDB7DEB7182F062FE42E862F880F8E5FDA
:1026200099830E94D11283E00E94D112F12EC12E13
:102630009981D92E8C2D8F19801798F4F601E7FE19
:1026400002C0849101C080810E94D112182F80E0C5
:102650000E94D1128123FFEFCF1ADF0A8111EACF46
:1026600001C081E00F90DF91CF911F910F91FF90FA
:10267000EF90DF90CF900895DF92EF92FF920F934B
:102680001F93CF93DF93D82E8A017B01E40EF51EB2
:10269000EB01CE15DF0571F0D7FE03C0FE0184917A
:1026A00001C088810E94D11221968111F2CF8FEF53
:1026B0009FEF01C0C801DF91CF911F910F91FF9053
:1026C000EF90DF900895615030F02091F100FC010F
:1026D00020830196F8CF289884E68093D501089549
:1026E000CF92DF92EF92FF920F931F93CF93DF93DE
:1026F0006C017A018B01C0E0D0E0CE15DF0589F0D6
:10270000D8016D918D01D601ED91FC910190F08180
:10271000E02DC6010995892B11F47E0102C0219696
:10272000ECCFC701DF91CF911F910F91FF90EF90F8
:10273000DF90CF9008950F931F93CF93DF931F9255
:10274000CDB7DEB782E0898342E450E065E87EE001
:1027500080E80E943C130E94FF0CDC0112960D9150
:102760001C9113970115110569F0D801ED91FC91A9
:102770000280F381E02DBE016F5F7F4FC801099594
:1027800097FF07C089810F90DF91CF911F910F9123
:102790000895F80100851185E5CFFC0111821082B2
:1027A00013821282158214826115710551F0FB01AA
:1027B00001900020E9F73197AF01461B570B0C94AD
:1027C000BB0D08951F920F920FB60F9211248F9395
:1027D0009F938091E1009091E100937F9093E100BD
:1027E00083FF0FC01092E90091E09093EB001092EC
:1027F000EC0092E39093ED001092D60198E0909354
:10280000F00082FF20C093E09093E9009091F200E5
:10281000992319F09AE39093E8009091D3019923BA
:1028200039F09091D30191509093D301992389F17C
:102830009091D501992339F09091D50191509093C1
:10284000D501992341F184FF10C08091E2008E7E72
:1028500081608093E2008091E1008F7E8093E100AF
:102860008091D4018E7E806111C080FF16C080915E
:10287000E2008E7E80618093E2008091E1008E7E96
:102880008093E1008091D4018E7E81608093D40199
:1028900004C05D9ACDCF289AD6CF9F918F910F908B
:1028A0000FBE0F901F9018951F920F920FB60F92A8
:1028B0001124CF92DF92EF92FF920F931F932F93E9
:1028C0003F934F935F936F937F938F939F93AF93B8
:1028D000BF93EF93FF93CF93DF93CDB7DEB76C97A2
:1028E000DEBFCDBF1092E9008091E80083FFFAC1FE
:1028F00068E0CE0145960E94631382EF8093E80062
:102900008D8987FF05C09091E80090FFFCCF03C040
:102910009EEF9093E800982F907609F0C6C09E89AC
:102920002F89188D91110CC0803829F48091A5064B
:102930008093F10002C01092F1001092F10047C1A3
:10294000422F50E0512B913051F4811140C1413060
:10295000510509F03CC18091A5068D7F0BC09330D5
:1029600061F4811134C14130510509F030C18091C9
:10297000A50682608093A5062AC1953041F4809116
:10298000E80080FFFCCF20682093E30020C1963050
:1029900009F05FC0EB8CFC8C1092E9001092AA0643
:1029A0001092A906123091F51092A8061092A7066F
:1029B0000E949B1399E0BE016F5F7F4FDB01E92FFF
:1029C0001D92EA95E9F799831A8391E09E8390EA34
:1029D00098879AEF99872091A9063091AA06275FD8
:1029E0003F4F3C832B838D831092E9001092AA06FF
:1029F0001092A906F092A806E092A70649E050E0DE
:102A000080E00E943C130E949B13E1C0F092A80654
:102A1000E092A7060E94FF0CDC011296ED90FC905C
:102A20001397E114F10409F4C0C0D701ED91FC91B2
:102A30000480F581E02DBE016B5E7F4FC7010995D3
:102A4000009719F00CF0C3C0C6C0F701E084F18410
:102A5000E8CF973009F4BFC0983021F481E080932B
:102A6000F100B5C0993009F0B2C0837009F0B3C06D
:102A7000EAE4F1E081E021E036E39081992361F01E
:102A80008093E9002093EB0091919093EC003093B8
:102A9000ED008F5F873089F78EE78093EA00109210
:102AA000EA008F898093D60192C08B8D9C8D109205
:102AB000E9001092AA061092A9069093A8068093A6
:102AC000A706898D811156C08E899D89913A59F446
:102AD000813209F080C047E050E06FE071E080E0B3
:102AE0000E943C1374C0913209F075C0833289F49E
:102AF000888D90E0982F88272F89822BA0E0B0E066
:102B00008093170190931801A0931901B0931A01B3
:102B10005EC0803269F48091E80082FFFCCF67E0FC
:102B20008FE091E00E9463138BEF8093E80006C072
:102B3000823209F04CC08F89809316018091A406DF
:102B4000882319F0EEEFFAE002C0E0E0F8E08091AF
:102B50000F0190911001A0911101B0911201803BE1
:102B60009440A105B10509F088C08091160180FF4D
:102B7000A0C083C00E94FF0CDC0112960D911C9135
:102B800013970115110539F1D801ED91FC910190D0
:102B9000F081E02DBE016B5E7F4FC8010995811168
:102BA00016C0F80100851185ECCF1130C1F013304B
:102BB00091F48F89882309F455C08230E9F440E804
:102BC00067E087ED9EE00E94FF12882321F08EEFE0
:102BD0008093E80087C081E28093EB0083C08B8DF7
:102BE0009C8D089711F41093A6068091A60681117A
:102BF00036C06FED7EE038C0813029F440E86BE0EC
:102C00008BEC9EE0E0CF833031F70E94FF0CDC01BB
:102C10001296ED90FC9013978E010F5F1F4F680185
:102C2000E114F10479F0D701ED91FC910680F78170
:102C3000E02DB801C7010995080F111DF701E084C7
:102C4000F184EECFD8011C92F60101900020E9F743
:102C50003197BF016C197D0940E0C601B4CF61EF27
:102C60007EE002C067EC7EE06115710509F4B3CF28
:102C7000FB01449150E080E833CF0FB6F894A8955B
:102C800080916000886180936000109260000FBEA8
:102C9000A895EE3F2AE0F20739F08091FE0A909164
:102CA000FF0A9183808393CF1092FF0A1092FE0A4D
:102CB0008ECFEE3F8AE0F80731F0808191819093CA
:102CC000FF0A8093FE0A87E797E7918380839BE062
:102CD00088E10FB6F894A895809360000FBE90939A
:102CE000600075CF6C960FB6F894DEBF0FBECDBFF7
:102CF000DF91CF91FF91EF91BF91AF919F918F9114
:102D00007F916F915F914F913F912F911F910F9103
:102D1000FF90EF90DF90CF900F900FBE0F901F901D
:102D2000189589ED95E00E94F30D8FED95E00E94D6
:102D3000F30D85EE95E00E94F30D8BEE95E00E9479
:102D4000F30D81EF95E00E94F30D87EF95E00E946F
:102D5000F30D8DEF95E00E94F30D83E096E00C9467
:102D6000F30DCF93DF93CDB7DEB72C970FB6F89462
:102D7000DEBF0FBECDBF789484B5826084BD84B5BC
:102D8000816084BD85B5826085BD85B5816085BD66
:102D900080916E00816080936E001092810080911E
:102DA00081008260809381008091810081608093A6
:102DB00081008091800081608093800080919100EB
:102DC0008260809391008091910081608093910056
:102DD000809190008160809390008091C100846018
:102DE0008093C1008091C10082608093C100809176
:102DF000C10081608093C1008091C3008160809395
:102E0000C3008091C00082608093C0008091C200A6
:102E100081608093C20080917A00846080937A0000
:102E200080917A00826080937A0080917A0081603C
:102E300080937A0080917A00806880937A00109263
:102E4000D6011092A5061092D4018091D70081601E
:102E50008093D70080EA8093D80089B5806189BDCE
:102E600089B5826089BD09B400FEFDCF61E070E0E4
:102E700080E090E00E94F50F8091D8008F7C806107
:102E80008093D8008091E000807F8093E000809163
:102E9000E1008E7E8093E1008DE08093E200559A00
:102EA000209AEEEFFFE7859194918B3F9C4D19F4AA
:102EB00081E08093A40685E00E9419088DE00E94BD
:102EC00019081FB7F8948091BC01811127C0E3E273
:102ED000F1E08491E6EFF0E09491E82FF0E0EE0F5E
:102EE000FF1FE653FF4FA591B491EC91E92321F424
:102EF00061E081E10E94560F61E081E10E94B90F1B
:102F00008CB580618CBD8CB580648CBD61E08FE038
:102F10000E94B90F61E080E10E94B90F8091BC016D
:102F20008F5F8093BC011FBF01E311E0F801849122
:102F30000E5F1F4F31966491882319F00E94B90FDC
:102F4000F5CF61E086E00E94560F61E070E080E01E
:102F500090E00E94F50F60E086E00E94560F6AE064
:102F600070E080E090E00E94F50F61E086E00E9452
:102F7000560FEEE1F1E0E491F0E0EE0FFF1FEC5FA1
:102F8000FE4F859194919093C2018093C101E1EF2E
:102F9000F0E0E491E093C001E6E1F1E0E491F0E0DB
:102FA000EE0FFF1FEC5FFE4F859194919093BF0150
:102FB0008093BE01E9EEF0E0E491E093BD018CB5B1
:102FC0008C7F8CBD8DB581608DBDE091C101F0918C
:102FD000C20190818091C001982B9083A091BE0185
:102FE000B091BF012C919091BD01909592239C933B
:102FF0009081809589238083E8EDF0E08DE08E0F4D
:1030000094919EBD00000DB407FEFDCF9EB5319694
:103010008E13F6CFE091BE01F091BF0190818091B7
:10302000BD01892B8083E091C101F091C2019081A3
:103030008091C001809589238083809164008160A4
:10304000809364008091640082608093640080912A
:103050006400806880936400809164008064809341
:1030600064008091650081608093650082E48093B4
:1030700017060E94CF0C61E085E00E94B90F61E065
:103080008DE00E94B90F81E08093B30111E080E0F0
:10309000682E80E0782E90E2C92ED12C20E5A22E59
:1030A00021E0B22E3FE0832E912C0E942F10209120
:1030B0000B0130910C0140910D0150910E016217EE
:1030C00073078407950780F1DA01C90188519C4F85
:1030D000AF4FBF4F80930B0190930C01A0930D0154
:1030E000B0930E010E94851083FF15C00E948510C9
:1030F00082FF11C080910A01882369F08091D2017A
:10310000811109C08091D101811105C090920A06F8
:10311000809209061BC28091CF019091D001019647
:103120009093D0018093CF010E942F102091200610
:10313000222391F020911806F62FF21BF09321061E
:1031400020911306309114062F5F3F4F30931406E1
:10315000209313061092200620911C0630911D0624
:1031600040911E0650911F0662177307840795074A
:1031700078F4261B223008F4E9C183B7817F83BF2E
:1031800083B7816083BF889583B78E7F83BFDEC19D
:10319000209117061B012C01220E311C411C511CD1
:1031A00020921C0630921D0640921E0650921F0669
:1031B000609318067093190680931A0690931B0665
:1031C000109320060E94CF0C8091090690910A0668
:1031D000009729F490920A068092090605C001978B
:1031E00090930A06809309068091CF019091D001B7
:1031F000CC9769F41092D0011092CF018091CD014B
:103200009091CE0101969093CE018093CD01809153
:10321000CD019091CE01CC9799F48091CF019091FE
:10322000D001892B69F41092CE011092CD018091CA
:10323000080190910901019690930901809308017A
:1032400020910801309109018091B4019091B5015C
:103250002817390721F58091CF019091D001892B52
:10326000F1F480910001811105C0109209011092C2
:10327000080115C080910201882349F08091090658
:1032800090910A060F9759F41092020108C080919C
:10329000090690910A060F9711F4109302010E94FB
:1032A000851085FF5AC10E94851086FF56C10E9475
:1032B000851083FD52C10E94851082FD4EC10E947F
:1032C000851087FD4AC10E94851084FD46C10E9479
:1032D000CF0C0E94E40C10920A0180910A0188230D
:1032E00009F434C10E94851084FF42C067E571E093
:1032F000CE0101960E94CD13CE0101960E94A30833
:10330000082FCE0101960E94F30D002389F10E943F
:103310002F102090C4013090C5014090C6015090FC
:10332000C70120910101621573058405950538F0E8
:10333000211105C00091C30101112AC119C0222326
:10334000B9F00E942F10DC01CB0184529A4FAF4F8D
:10335000BF4F8093C4019093C501A093C601B09361
:10336000C7011092010141E060E081E00E94A210DB
:103370000E942909882351F01093C3011093010181
:1033800041E061E081E00E94A21002C0F1100AC099
:10339000F090D201FF2009F475C1F12C03C0109305
:1033A000D201F02E0E94851085FF22C16CE571E0EC
:1033B000CE0101960E94CD13CE0101960E94A30872
:1033C000082FCE0101960E94F30D002309F410C1CD
:1033D0000E942F102090C4013090C5014090C6017A
:1033E0005090C70120910101621573058405950570
:1033F00008F4E5C02111E3C08091C301882309F4DA
:10340000F7C01092C3011092C4011092C50110922E
:10341000C6011092C70140E060E081E00E94A21066
:103420008091C801882309F489C11092C80161EA1A
:1034300071E0CE0107960E94CD138091C8018823C8
:1034400009F4E5C063E771E0CE0107960E94DC0D48
:1034500080910001882309F4DDC068E871E085EE01
:1034600095E00E94DC0D1092230610922206109225
:1034700025061092240665EE75E0CE0101960E94A5
:10348000F80D41E150E060E971E0CE0101960E9443
:10349000320D882309F455C1BE01695F7F4FCE010B
:1034A00001960E94A80D0E94F60CCE0101960E9482
:1034B000F30DD0922306C0922206D0922506C09228
:1034C000240640910401509105016091060170911C
:1034D000070120E08091C9019091CA010E94D8099A
:1034E000FC019093CC018093CB016081718170933A
:1034F000CA016093C90142815381509307014093EF
:10350000060124813581309305012093040100E0F8
:10351000CE0101960E944509CE0101960E94F60C4B
:10352000CE0101960E94F30DCE0107960E94F30D85
:103530002091C9013091CA018091CF019091D001B1
:103540002817390709F469C00E94E40C611471045A
:1035500009F4ABCD0E940000A8CD0E94851087FF22
:10356000BCCE0E94851084FFB8CE0E94851083FDDA
:10357000B4CE0E94851082FDB0CE0E94851085FDDC
:10358000ACCE0E94851086FDA8CE10930A01A5CE70
:103590001092C3011092C4011092C5011092C6018D
:1035A0001092C70141E061E080E00E94A21080918A
:1035B000D201882309F4F3CE1092D201E9CE22235E
:1035C000B9F00E942F10DC01CB0184529A4FAF4F0B
:1035D000BF4F8093C4019093C501A093C601B093DF
:1035E000C7011092010140E061E081E00E94A21059
:1035F0000E942909882309F41ACF1093C30110935C
:10360000010141E061E081E00E94A21010CF6DE76E
:1036100071E01ACF6CE871E022CF20910601309161
:1036200007018091CD019091CE012817390709F04B
:103630008BCF209104013091050180910801909178
:1036400009012817390709F07FCF90910301809174
:103650000201981379CF8091C801882309F474CFAF
:1036600040E060E080E00E94A210B092BB01A09216
:10367000BA01B092B901A092B8010E94DE11109374
:10368000B70162CF0E94851087FF42C064E571E0F8
:10369000CE0101960E94CD13CE0101960E94A3088F
:1036A000082FCE0101960E94F30D002389F10E949C
:1036B0002F102090C4013090C5014090C601509059
:1036C000C70120910101621573058405950538F045
:1036D000211105C00091C301011138C019C0222376
:1036E000B9F00E942F10DC01CB0184529A4FAF4FEA
:1036F000BF4F8093C4019093C501A093C601B093BE
:10370000C7011092010141E060E080E00E94A21038
:103710000E942909882351F01093C30110930101DD
:1037200041E061E081E00E94A21002C0E11027C0E8
:10373000E090D101EE2081F1E12C21C01093C8016D
:1037400076CECE0101960E94600DA6CE1092C301E6
:103750001092C4011092C5011092C6011092C701C7
:1037600040E061E080E00E94A2108091D1018823B6
:1037700019F01092D101DCCF1093D101E02E00E0BE
:103780008091B601081728F4802F0E94AD110F5FB9
:10379000F7CF1092B701CCCE4091080150910901AA
:1037A0006091CD017091CE0121E08091CF01909187
:1037B000D0010E94D809FC019093CC018093CB01E9
:1037C000608171817093D0016093CF0142815381F8
:1037D0005093CE014093CD0124813581309309016E
:1037E00020930801D0922306C0922206D09225068B
:1037F000C092240601E0CE0101960E944509809105
:103800000306909104060097C9F069817A816115D9
:10381000710591F040910506509106062D813E817B
:103820004217530748F00E94041F8D819E81909398
:1038300008068093070618C00E948B1D89819A8113
:1038400090930406809303068B819C8190930606D7
:10385000809305068D819E819093080680930706CC
:103860001A8219821C821B821E821D82CE01019641
:103870000E94F30D83E096E00E94F60CF12C58CEE6
:10388000E6E3F6E01382128288EE93E0A0E0B0E077
:1038900084839583A683B78389E291E091838083B3
:1038A0008FEF9FEF95878487ECE0F6E0138212821A
:1038B0001186128680E1838710861782108A118A0A
:1038C000128A138A148A89E391E09183808383E4C6
:1038D00091E095838483178A168A118E108E81E079
:1038E000828F138E848F158E87E39EE09093D80588
:1038F0008093D7058FE090E090930A0680930906A5
:1039000061EA71E083E096E00E94CD1362EA71E023
:103910008DEF95E00E94CD1367E671E087EF95E0AB
:103920000E94CD1367E671E081EF95E00E94CD1310
:1039300069E671E08BEE95E00E94CD1361EA71E0DB
:1039400085EE95E00E94CD136BE671E08FED95E07A
:103950000E94CD1361EA71E089ED95E00C94CD13DE
:103960000F931F93CF93DF938C018AE090E00E9426
:10397000401F9FEF980F9E3F58F522E330E0D8019B
:1039800057963C932E93569728E330E059963C93F4
:103990002E935897CBE0D0E0D801ED91FC910190A7
:1039A000F081E02D682FC8010995CE010E94401FCB
:1039B0002196C131D10581F70E94E40C6CED75E0D0
:1039C00080E090E0DF91CF911F910F910C94F50F63
:1039D000DF91CF911F910F91089504970C94B01C23
:1039E000EE0FFF1F0590F491E02D0994CF93DF9324
:1039F0008230910510F482E090E0E091AD06F09104
:103A0000AE0620E030E0C0E0D0E0309711F1408118
:103A1000518148175907C0F04817590761F482814E
:103A20009381209719F09B838A832BC09093AE06D5
:103A30008093AD0626C02115310519F042175307B2
:103A400018F49A01BE01DF01EF010280F381E02D3D
:103A5000DCCF2115310509F1281B390B2430310544
:103A600090F412968D919C9113976115710521F038
:103A7000FB019383828304C09093AE068093AD06CE
:103A8000FD01329644C0FD01E20FF31F8193919333
:103A9000225031092D933C933AC02091AB063091CE
:103AA000AC06232B41F420911D0130911E0130936F
:103AB000AC062093AB0620911B0130911C0121150F
:103AC000310541F42DB73EB740911F0150912001BF
:103AD000241B350BE091AB06F091AC06E217F3071F
:103AE000A0F42E1B3F0B2817390778F0AC014E5F6E
:103AF0005F4F2417350748F04E0F5F1F5093AC06F9
:103B00004093AB068193919302C0E0E0F0E0CF01D7
:103B1000DF91CF9108950F931F93CF93DF93009779
:103B200009F48CC0FC013297138212820091AD0619
:103B30001091AE060115110581F420813181820FAB
:103B4000931F2091AB063091AC062817390779F501
:103B5000F093AC06E093AB0671C0D80140E050E0B2
:103B6000AE17BF0750F412962D913C911397AD01FB
:103B70002115310509F1D901F3CF9D01DA01338314
:103B8000228360817181860F971F8217930769F4E2
:103B9000EC0128813981260F371F2E5F3F4F31837B
:103BA00020838A819B8193838283452B29F4F09320
:103BB000AE06E093AD0642C01396FC93EE931297C7
:103BC000ED01499159919E01240F351FE217F3072A
:103BD00071F480819181840F951F029611969C93B8
:103BE0008E938281938113969C938E931297E0E03B
:103BF000F0E0D80112968D919C911397009719F0DF
:103C0000F8018C01F6CF8D919C9198012E5F3F4F6A
:103C1000820F931F2091AB063091AC06281739070D
:103C200069F4309729F41092AE061092AD0602C0E6
:103C3000138212821093AC060093AB06DF91CF91F2
:103C40001F910F910895A0E0B0E0E9E2FEE10C942D
:103C50006B1FEC01009721F4CB010E94F61CB8C049
:103C6000FC01E60FF71F9C0122503109E217F30710
:103C700008F4ACC0D9010D911C91119706171707D4
:103C8000B0F00530110508F49FC0C80104978617ED
:103C9000970708F499C002501109061B170B0193EE
:103CA00011936D937C93CF010E948B1D8DC05B019E
:103CB000A01AB10A4C01800E911EA091AD06B091E0
:103CC000AE0640E050E0E12CF12C109709F44AC018
:103CD000A815B905D1F56D907C901197630182E02C
:103CE000C80ED11CCA14DB0480F1A3014A195B0978
:103CF0006A0182E0C80ED11C1296BC9012971396EE
:103D0000AC91B5E0CB16D10440F0B282A3835183CD
:103D10004083D9016D937C930AC00E5F1F4FC3018E
:103D2000800F911FF90191838083EB2DFA2FE1140D
:103D3000F10431F0D7011396FC93EE93129744C02F
:103D4000F093AE06E093AD063FC08D919C91119724
:103D50004817590708F4AC017D0112960D90BC91EB
:103D6000A02DB3CF8091AB069091AC068815990534
:103D7000E1F446175707C8F480911B0190911C018C
:103D8000009741F48DB79EB740911F0150912001DB
:103D9000841B950BE817F907C8F4F093AC06E09381
:103DA000AB06F901718360830FC0CB010E94F61C42
:103DB0007C01009759F0A801BE010E94F21ECE01BD
:103DC0000E948B1DC70104C0CE0102C080E090E0BC
:103DD000CDB7DEB7EEE00C94871F81E090E0F89459
:103DE0000C94CF1FFB01DC0102C001900D924150E9
:103DF0005040D8F70895FB01DC018D9101908019A6
:103E00000110D9F3990B0895FB01DC0101900D928B
:103E10000020E1F70895BB274A3031F4992322F4BA
:103E2000BDE2909581959F4F0C94171FBB27FB0116
:103E30005527AA27880F991FAA1FA41710F0A41BA3
:103E400083955051B9F7A05DAA3308F0A95DA193FD
:103E5000009779F7B111B1931192CB010C94301FF7
:103E6000DC01FC01672F71917723E1F7329704C0E1
:103E70007C916D9370836291AE17BF07C8F308956C
:103E8000F999FECF92BD81BDF89A992780B5089522
:103E9000052E97FB1EF400940E945F1F57FD07D06C
:103EA0000E949E1F07FC03D04EF40C945F1F509598
:103EB0004095309521953F4F4F4F5F4F0895909516
:103EC0008095709561957F4F8F4F9F4F08952F92EA
:103ED0003F924F925F926F927F928F929F92AF929A
:103EE000BF92CF92DF92EF92FF920F931F93CF93E7
:103EF000DF93CDB7DEB7CA1BDB0B0FB6F894DEBF7E
:103F00000FBECDBF09942A88398848885F846E84A3
:103F10007D848C849B84AA84B984C884DF80EE80ED
:103F2000FD800C811B81AA81B981CE0FD11D0FB6F6
:103F3000F894DEBF0FBECDBFED010895A1E21A2EA9
:103F4000AA1BBB1BFD010DC0AA1FBB1FEE1FFF1F3D
:103F5000A217B307E407F50720F0A21BB30BE40B8D
:103F6000F50B661F771F881F991F1A9469F76095D4
:103F70007095809590959B01AC01BD01CF0108958E
:103F8000A29FB001B39FC001A39F700D811D11249A
:103F9000911DB29F700D811D1124911D089517E090
:103FA000C3E8D7E004C0FE010E94F01C2196C4388B
:083FB000D107C9F7F894FFCF17
:103FB800010101010C0001000C0001E803000000F0
:103FC800E1000000000000FFFFFFFF0000AF0680D7
:103FD8000001000000000000009D0B1A0C000CBE40
:103FE8000BDC0BB30B000000003A0E7013B01CFC86
:103FF800FF0000ED1C0F00030100C18081000000DC
:1040080041004200555000444F574E004C4546541D
:10401800005249474854003000200020414D0020FC
:10402800504D0020416C61726D204F4E0020416C54
:1040380061726D204F4646003132680032346800A4
:104048002020416C61726D2053657474696E670A33
:044058000D003A001D
:00000001FF
